{
  "_format": "hh-sol-artifact-1",
  "contractName": "Governance",
  "sourceName": "contracts/Governance.sol",
  "abi": [
    {
      "inputs": [],
      "stateMutability": "nonpayable",
      "type": "constructor"
    },
    {
      "anonymous": false,
      "inputs": [
        {
          "indexed": false,
          "internalType": "address",
          "name": "",
          "type": "address"
        }
      ],
      "name": "GOVERNOR_REMOVED",
      "type": "event"
    },
    {
      "anonymous": false,
      "inputs": [
        {
          "indexed": false,
          "internalType": "uint256",
          "name": "",
          "type": "uint256"
        }
      ],
      "name": "HOUSE_CUT_CHANGED",
      "type": "event"
    },
    {
      "anonymous": false,
      "inputs": [
        {
          "indexed": false,
          "internalType": "uint256",
          "name": "",
          "type": "uint256"
        }
      ],
      "name": "HOUSE_CUT_NEW_TOKENS_CHANGED",
      "type": "event"
    },
    {
      "anonymous": false,
      "inputs": [
        {
          "indexed": false,
          "internalType": "uint256",
          "name": "",
          "type": "uint256"
        }
      ],
      "name": "MAIN_POOL_PRICE_CHANGED",
      "type": "event"
    },
    {
      "anonymous": false,
      "inputs": [
        {
          "indexed": false,
          "internalType": "uint256",
          "name": "",
          "type": "uint256"
        }
      ],
      "name": "MAIN_POOL_SIZE_CHANGED",
      "type": "event"
    },
    {
      "anonymous": false,
      "inputs": [
        {
          "indexed": false,
          "internalType": "uint256",
          "name": "",
          "type": "uint256"
        }
      ],
      "name": "MAXIMUM_POOL_SIZE_CHANGED",
      "type": "event"
    },
    {
      "anonymous": false,
      "inputs": [
        {
          "indexed": false,
          "internalType": "uint256",
          "name": "",
          "type": "uint256"
        }
      ],
      "name": "MINIMUM_POOL_PRICE_CHANGED",
      "type": "event"
    },
    {
      "anonymous": false,
      "inputs": [
        {
          "indexed": false,
          "internalType": "uint256",
          "name": "",
          "type": "uint256"
        }
      ],
      "name": "MINIMUM_POOL_SIZE_CHANGED",
      "type": "event"
    },
    {
      "anonymous": false,
      "inputs": [
        {
          "indexed": false,
          "internalType": "uint256",
          "name": "",
          "type": "uint256"
        }
      ],
      "name": "MIN_GROTTO_GOV_CHANGED",
      "type": "event"
    },
    {
      "anonymous": false,
      "inputs": [
        {
          "indexed": false,
          "internalType": "address",
          "name": "",
          "type": "address"
        }
      ],
      "name": "NEW_GOVERNOR_ADDED",
      "type": "event"
    },
    {
      "anonymous": false,
      "inputs": [
        {
          "indexed": false,
          "internalType": "string",
          "name": "",
          "type": "string"
        }
      ],
      "name": "NEW_PROPOSAL",
      "type": "event"
    },
    {
      "anonymous": false,
      "inputs": [
        {
          "indexed": false,
          "internalType": "string",
          "name": "",
          "type": "string"
        }
      ],
      "name": "NO_CONSENSUS",
      "type": "event"
    },
    {
      "anonymous": false,
      "inputs": [
        {
          "indexed": false,
          "internalType": "address",
          "name": "",
          "type": "address"
        },
        {
          "indexed": false,
          "internalType": "string",
          "name": "",
          "type": "string"
        }
      ],
      "name": "VOTE_CASTED",
      "type": "event"
    },
    {
      "inputs": [],
      "name": "getGovernors",
      "outputs": [
        {
          "internalType": "address[]",
          "name": "",
          "type": "address[]"
        }
      ],
      "stateMutability": "view",
      "type": "function"
    },
    {
      "inputs": [],
      "name": "getHouseCut",
      "outputs": [
        {
          "internalType": "uint256",
          "name": "",
          "type": "uint256"
        }
      ],
      "stateMutability": "view",
      "type": "function"
    },
    {
      "inputs": [],
      "name": "getHouseCutNewTokens",
      "outputs": [
        {
          "internalType": "uint256",
          "name": "",
          "type": "uint256"
        }
      ],
      "stateMutability": "view",
      "type": "function"
    },
    {
      "inputs": [],
      "name": "getMainPoolPrice",
      "outputs": [
        {
          "internalType": "uint256",
          "name": "",
          "type": "uint256"
        }
      ],
      "stateMutability": "view",
      "type": "function"
    },
    {
      "inputs": [],
      "name": "getMainPoolSize",
      "outputs": [
        {
          "internalType": "uint256",
          "name": "",
          "type": "uint256"
        }
      ],
      "stateMutability": "view",
      "type": "function"
    },
    {
      "inputs": [],
      "name": "getMaximumPoolSize",
      "outputs": [
        {
          "internalType": "uint256",
          "name": "",
          "type": "uint256"
        }
      ],
      "stateMutability": "view",
      "type": "function"
    },
    {
      "inputs": [],
      "name": "getMinGrottoGovernor",
      "outputs": [
        {
          "internalType": "uint256",
          "name": "",
          "type": "uint256"
        }
      ],
      "stateMutability": "view",
      "type": "function"
    },
    {
      "inputs": [],
      "name": "getMinimumPoolPrice",
      "outputs": [
        {
          "internalType": "uint256",
          "name": "",
          "type": "uint256"
        }
      ],
      "stateMutability": "view",
      "type": "function"
    },
    {
      "inputs": [],
      "name": "getMinimumPoolSize",
      "outputs": [
        {
          "internalType": "uint256",
          "name": "",
          "type": "uint256"
        }
      ],
      "stateMutability": "view",
      "type": "function"
    },
    {
      "inputs": [
        {
          "internalType": "address",
          "name": "governor",
          "type": "address"
        }
      ],
      "name": "isGovernor",
      "outputs": [
        {
          "internalType": "bool",
          "name": "",
          "type": "bool"
        }
      ],
      "stateMutability": "view",
      "type": "function"
    },
    {
      "inputs": [
        {
          "internalType": "address",
          "name": "newGovernor",
          "type": "address"
        }
      ],
      "name": "proposeNewGovernor",
      "outputs": [],
      "stateMutability": "nonpayable",
      "type": "function"
    },
    {
      "inputs": [
        {
          "internalType": "uint256",
          "name": "value",
          "type": "uint256"
        },
        {
          "internalType": "string",
          "name": "voteId",
          "type": "string"
        }
      ],
      "name": "proposeNewValue",
      "outputs": [],
      "stateMutability": "nonpayable",
      "type": "function"
    },
    {
      "inputs": [
        {
          "internalType": "address",
          "name": "oldGovernor",
          "type": "address"
        }
      ],
      "name": "proposeRemoveGovernor",
      "outputs": [],
      "stateMutability": "nonpayable",
      "type": "function"
    },
    {
      "inputs": [
        {
          "internalType": "address",
          "name": "newAddress",
          "type": "address"
        }
      ],
      "name": "updateGov",
      "outputs": [],
      "stateMutability": "nonpayable",
      "type": "function"
    },
    {
      "inputs": [
        {
          "internalType": "string",
          "name": "voteId",
          "type": "string"
        },
        {
          "internalType": "bool",
          "name": "yesVote",
          "type": "bool"
        }
      ],
      "name": "vote",
      "outputs": [],
      "stateMutability": "nonpayable",
      "type": "function"
    },
    {
      "inputs": [
        {
          "internalType": "string",
          "name": "voteId",
          "type": "string"
        }
      ],
      "name": "votingDetails",
      "outputs": [
        {
          "components": [
            {
              "internalType": "string",
              "name": "voteId",
              "type": "string"
            },
            {
              "internalType": "bool",
              "name": "inProgress",
              "type": "bool"
            },
            {
              "internalType": "address[]",
              "name": "voters",
              "type": "address[]"
            },
            {
              "internalType": "uint256",
              "name": "yesVotes",
              "type": "uint256"
            },
            {
              "internalType": "uint256",
              "name": "noVotes",
              "type": "uint256"
            },
            {
              "internalType": "uint256",
              "name": "votes",
              "type": "uint256"
            },
            {
              "internalType": "uint256",
              "name": "proposedValue",
              "type": "uint256"
            },
            {
              "internalType": "address",
              "name": "proposedGovernor",
              "type": "address"
            }
          ],
          "internalType": "struct Data.Vote",
          "name": "",
          "type": "tuple"
        }
      ],
      "stateMutability": "view",
      "type": "function"
    }
  ],
  "bytecode": "0x6080604052600180546001600160a01b03199081167332b0319f75490b1326380d74cdb4224bb293f9f01790915560028054909116739f9b1a890ef0275dabff37c051d52f427a8a45011790553480156200005957600080fd5b50600154600080546001600160a01b0319166001600160a01b0392831617908190556040516303c4a25d60e41b8152911690633c4a25d090620000b59073c04915f6b3ff85b50a863eb1fcbf36817153941390600401620002fa565b600060405180830381600087803b158015620000d057600080fd5b505af1158015620000e5573d6000803e3d6000fd5b50506000546040516303c4a25d60e41b81526001600160a01b039091169250633c4a25d091506200012f9073b58c226a300ff6dc1ef762d62c536c7aed5cea7490600401620002fa565b600060405180830381600087803b1580156200014a57600080fd5b505af11580156200015f573d6000803e3d6000fd5b50506000546040516303c4a25d60e41b81526001600160a01b039091169250633c4a25d09150620001a99073b6d80f6d661927afef42f39e52d630e250696bc490600401620002fa565b600060405180830381600087803b158015620001c457600080fd5b505af1158015620001d9573d6000803e3d6000fd5b50506000546040516303c4a25d60e41b81526001600160a01b039091169250633c4a25d091506200022390736b33d96c8353d03433034171433b0bd9bdafac8b90600401620002fa565b600060405180830381600087803b1580156200023e57600080fd5b505af115801562000253573d6000803e3d6000fd5b50506000546040516303c4a25d60e41b81526001600160a01b039091169250633c4a25d091506200029d90730a0c8e469fef425ef7c6e9754dc563f9bba588f090600401620002fa565b600060405180830381600087803b158015620002b857600080fd5b505af1158015620002cd573d6000803e3d6000fd5b5050600254600380546001600160a01b0319166001600160a01b03909216919091179055506200030e9050565b6001600160a01b0391909116815260200190565b613bf8806200031e6000396000f3fe608060405234801561001057600080fd5b50600436106101005760003560e01c806375336ae611610097578063e43581b811610066578063e43581b8146101cc578063f417bd9c146101ec578063f80b5352146101f4578063fd7f82531461020957610100565b806375336ae6146101ac57806381014bbe146101b4578063d8692395146101bc578063e0a11c20146101c457610100565b806327d3410c116100d357806327d3410c1461015e5780632880c473146101715780632c0797ef146101915780636a329ce41461019957610100565b806305868b26146101055780630b33ba7a146101235780631f9244d61461013857806326904efd1461014b575b600080fd5b61010d610211565b60405161011a9190613b6f565b60405180910390f35b6101366101313660046133db565b61029d565b005b6101366101463660046135cb565b610364565b6101366101593660046133db565b6104dc565b61013661016c3660046134d7565b610825565b61018461017f36600461352c565b610935565b60405161011a9190613ae1565b61010d610d19565b6101366101a73660046133db565b610d68565b61010d610ee9565b61010d610f38565b61010d610f87565b61010d610fd6565b6101df6101da3660046133db565b611025565b60405161011a919061377d565b61010d611212565b6101fc611261565b60405161011a919061371a565b61010d6112e1565b60008060009054906101000a90046001600160a01b03166001600160a01b03166305868b266040518163ffffffff1660e01b815260040160206040518083038186803b15801561026057600080fd5b505afa158015610274573d6000803e3d6000fd5b505050506040513d601f19601f8201168201806040525081019061029891906135b3565b905090565b6000546040516367d6abd160e11b81526001600160a01b039091169063cfad57a2906102cd9084906004016136da565b600060405180830381600087803b1580156102e757600080fd5b505af11580156102fb573d6000803e3d6000fd5b5050600354604051631637a58360e01b81526001600160a01b039091169250631637a583915061032f9084906004016136da565b600060405180830381600087803b15801561034957600080fd5b505af115801561035d573d6000803e3d6000fd5b5050505050565b3361036e81611025565b6103935760405162461bcd60e51b815260040161038a90613a7d565b60405180910390fd5b60008054604051622176b560e91b81526001600160a01b03909116906342ed6a00906103c59087908790600401613788565b60206040518083038186803b1580156103dd57600080fd5b505afa1580156103f1573d6000803e3d6000fd5b505050506040513d601f19601f8201168201806040525081019061041591906134bb565b905080156104355760405162461bcd60e51b815260040161038a90613ab4565b600054604051633335686560e11b81526001600160a01b039091169063666ad0ca9061046990879087908a906004016137c8565b600060405180830381600087803b15801561048357600080fd5b505af1158015610497573d6000803e3d6000fd5b5050505061035d84848080601f016020809104026020016040519081016040528093929190818152602001838380828437600092019190915250869250611330915050565b336104e681611025565b6105025760405162461bcd60e51b815260040161038a90613a7d565b61050b82611025565b156105285760405162461bcd60e51b815260040161038a906139e1565b60008054906101000a90046001600160a01b03166001600160a01b03166375336ae66040518163ffffffff1660e01b815260040160206040518083038186803b15801561057457600080fd5b505afa158015610588573d6000803e3d6000fd5b505050506040513d601f19601f820116820180604052508101906105ac91906135b3565b6003546040516370a0823160e01b81526001600160a01b03909116906370a08231906105dc9086906004016136da565b60206040518083038186803b1580156105f457600080fd5b505afa158015610608573d6000803e3d6000fd5b505050506040513d601f19601f8201168201806040525081019061062c91906135b3565b101561064a5760405162461bcd60e51b815260040161038a90613a0d565b6000805460408051637c05a9a960e11b815290516060936001600160a01b039093169263f80b53529260048082019391829003018186803b15801561068e57600080fd5b505afa1580156106a2573d6000803e3d6000fd5b505050506040513d6000823e601f3d908101601f191682016040526106ca9190810190613413565b90506015815111156106ee5760405162461bcd60e51b815260040161038a9061395b565b604080518082018252601081526f30b2322fb732bbafb3b7bb32b93737b960811b6020820152600080549251622176b560e91b8152919290916001600160a01b03909116906342ed6a00906107479085906004016137ec565b60206040518083038186803b15801561075f57600080fd5b505afa158015610773573d6000803e3d6000fd5b505050506040513d601f19601f8201168201806040525081019061079791906134bb565b905080156107b75760405162461bcd60e51b815260040161038a90613ab4565b60005460405163b06f8f8160e01b81526001600160a01b039091169063b06f8f81906107e990859089906004016137ff565b600060405180830381600087803b15801561080357600080fd5b505af1158015610817573d6000803e3d6000fd5b5050505061035d8285611330565b3361082f81611025565b61084b5760405162461bcd60e51b815260040161038a90613a7d565b600054604051634b3e33eb60e01b81526001600160a01b0390911690634b3e33eb9061087f9087908790869060040161379c565b60206040518083038186803b15801561089757600080fd5b505afa1580156108ab573d6000803e3d6000fd5b505050506040513d601f19601f820116820180604052508101906108cf91906134bb565b156108ec5760405162461bcd60e51b815260040161038a90613934565b61092f84848080601f0160208091040260200160405190810160405280939291908181526020018383808284376000920191909152508592508691506113dc9050565b50505050565b61093d6132bf565b60408051610100810182528381526000549151622176b560e91b8152909160208301916001600160a01b03909116906342ed6a00906109809087906004016137ec565b60206040518083038186803b15801561099857600080fd5b505afa1580156109ac573d6000803e3d6000fd5b505050506040513d601f19601f820116820180604052508101906109d091906134bb565b1515815260005460405163878af33560e01b81526020909201916001600160a01b039091169063878af33590610a0a9087906004016137ec565b60006040518083038186803b158015610a2257600080fd5b505afa158015610a36573d6000803e3d6000fd5b505050506040513d6000823e601f3d908101601f19168201604052610a5e9190810190613413565b8152600054604051633ab5356760e21b81526020909201916001600160a01b039091169063ead4d59c90610a969087906004016137ec565b60206040518083038186803b158015610aae57600080fd5b505afa158015610ac2573d6000803e3d6000fd5b505050506040513d601f19601f82011682018060405250810190610ae691906135b3565b8152600054604051636f37a7eb60e01b81526020909201916001600160a01b0390911690636f37a7eb90610b1e9087906004016137ec565b60206040518083038186803b158015610b3657600080fd5b505afa158015610b4a573d6000803e3d6000fd5b505050506040513d601f19601f82011682018060405250810190610b6e91906135b3565b815260005460405163805265e560e01b81526020909201916001600160a01b039091169063805265e590610ba69087906004016137ec565b60206040518083038186803b158015610bbe57600080fd5b505afa158015610bd2573d6000803e3d6000fd5b505050506040513d601f19601f82011682018060405250810190610bf691906135b3565b81526000546040516370925c3560e11b81526020909201916001600160a01b039091169063e124b86a90610c2e9087906004016137ec565b60206040518083038186803b158015610c4657600080fd5b505afa158015610c5a573d6000803e3d6000fd5b505050506040513d601f19601f82011682018060405250810190610c7e91906135b3565b8152600054604051632f73a94f60e01b81526020909201916001600160a01b0390911690632f73a94f90610cb69087906004016137ec565b60206040518083038186803b158015610cce57600080fd5b505afa158015610ce2573d6000803e3d6000fd5b505050506040513d601f19601f82011682018060405250810190610d0691906133f7565b6001600160a01b0316905290505b919050565b60008060009054906101000a90046001600160a01b03166001600160a01b0316632c0797ef6040518163ffffffff1660e01b815260040160206040518083038186803b15801561026057600080fd5b33610d7281611025565b610d8e5760405162461bcd60e51b815260040161038a90613a7d565b610d9782611025565b610db35760405162461bcd60e51b815260040161038a90613a55565b604080518082018252600f81526e3932b6b7bb32afb3b7bb32b93737b960891b6020820152600080549251622176b560e91b8152919290916001600160a01b03909116906342ed6a0090610e0b9085906004016137ec565b60206040518083038186803b158015610e2357600080fd5b505afa158015610e37573d6000803e3d6000fd5b505050506040513d601f19601f82011682018060405250810190610e5b91906134bb565b90508015610e7b5760405162461bcd60e51b815260040161038a90613ab4565b60005460405163b06f8f8160e01b81526001600160a01b039091169063b06f8f8190610ead90859088906004016137ff565b600060405180830381600087803b158015610ec757600080fd5b505af1158015610edb573d6000803e3d6000fd5b5050505061092f8284611330565b60008060009054906101000a90046001600160a01b03166001600160a01b03166375336ae66040518163ffffffff1660e01b815260040160206040518083038186803b15801561026057600080fd5b60008060009054906101000a90046001600160a01b03166001600160a01b03166381014bbe6040518163ffffffff1660e01b815260040160206040518083038186803b15801561026057600080fd5b60008060009054906101000a90046001600160a01b03166001600160a01b031663d86923956040518163ffffffff1660e01b815260040160206040518083038186803b15801561026057600080fd5b60008060009054906101000a90046001600160a01b03166001600160a01b031663e0a11c206040518163ffffffff1660e01b815260040160206040518083038186803b15801561026057600080fd5b6000805460408051637c05a9a960e11b815290516060926001600160a01b03169163f80b53529160048083019287929190829003018186803b15801561106a57600080fd5b505afa15801561107e573d6000803e3d6000fd5b505050506040513d6000823e601f3d908101601f191682016040526110a69190810190613413565b905060005b815181101561120857836001600160a01b03168282815181106110ca57fe5b60200260200101516001600160a01b031614156112005760008054906101000a90046001600160a01b03166001600160a01b03166375336ae66040518163ffffffff1660e01b815260040160206040518083038186803b15801561112d57600080fd5b505afa158015611141573d6000803e3d6000fd5b505050506040513d601f19601f8201168201806040525081019061116591906135b3565b6003546040516370a0823160e01b81526001600160a01b03909116906370a08231906111959088906004016136da565b60206040518083038186803b1580156111ad57600080fd5b505afa1580156111c1573d6000803e3d6000fd5b505050506040513d601f19601f820116820180604052508101906111e591906135b3565b106111f557600192505050610d14565b600092505050610d14565b6001016110ab565b5060009392505050565b60008060009054906101000a90046001600160a01b03166001600160a01b031663f417bd9c6040518163ffffffff1660e01b815260040160206040518083038186803b15801561026057600080fd5b6000805460408051637c05a9a960e11b815290516060936001600160a01b039093169263f80b53529260048082019391829003018186803b1580156112a557600080fd5b505afa1580156112b9573d6000803e3d6000fd5b505050506040513d6000823e601f3d908101601f191682016040526102989190810190613413565b60008060009054906101000a90046001600160a01b03166001600160a01b031663fd7f82536040518163ffffffff1660e01b815260040160206040518083038186803b15801561026057600080fd5b600054604051631fe70f0560e21b81526001600160a01b0390911690637f9c3c149061136390859060019060040161388a565b600060405180830381600087803b15801561137d57600080fd5b505af1158015611391573d6000803e3d6000fd5b505050506113a1828260016113dc565b7ff5346fd029345ac090ffe009531c8b769cf488b789bd5b9b6a51f04f693c8cdb826040516113d091906137ec565b60405180910390a15050565b60008054604051622176b560e91b81526001600160a01b03909116906342ed6a009061140c9087906004016137ec565b60206040518083038186803b15801561142457600080fd5b505afa158015611438573d6000803e3d6000fd5b505050506040513d601f19601f8201168201806040525081019061145c91906134bb565b90508015612d0e57811561155557600054604051633ab5356760e21b81526001600160a01b039091169063b46e407e90869061150190600190859063ead4d59c906114ab9086906004016137ec565b60206040518083038186803b1580156114c357600080fd5b505afa1580156114d7573d6000803e3d6000fd5b505050506040513d601f19601f820116820180604052508101906114fb91906135b3565b90612d26565b6040518363ffffffff1660e01b815260040161151e9291906138ae565b600060405180830381600087803b15801561153857600080fd5b505af115801561154c573d6000803e3d6000fd5b505050506115e6565b600054604051636f37a7eb60e01b81526001600160a01b039091169063bb3ab557908690611596906001908590636f37a7eb906114ab9086906004016137ec565b6040518363ffffffff1660e01b81526004016115b39291906138ae565b600060405180830381600087803b1580156115cd57600080fd5b505af11580156115e1573d6000803e3d6000fd5b505050505b600054604051635607395b60e01b81526001600160a01b0390911690635607395b9061161890879087906004016137ff565b600060405180830381600087803b15801561163257600080fd5b505af1158015611646573d6000803e3d6000fd5b505060005460405163805265e560e01b81526001600160a01b03909116925063e56de7c19150869061168b90600190859063805265e5906114ab9086906004016137ec565b6040518363ffffffff1660e01b81526004016116a89291906138ae565b600060405180830381600087803b1580156116c257600080fd5b505af11580156116d6573d6000803e3d6000fd5b50506000546040516383935b3d60e01b81526001600160a01b0390911692506383935b3d915061170f9087908790600190600401613829565b600060405180830381600087803b15801561172957600080fd5b505af115801561173d573d6000803e3d6000fd5b505050507fd17e420d38fa7b9aa70264ae407a1c4bd99f817d1bbcdc3ac66034373d3d522e83856040516117729291906136ee565b60405180910390a160008060009054906101000a90046001600160a01b03166001600160a01b031663f80b53526040518163ffffffff1660e01b815260040160006040518083038186803b1580156117c957600080fd5b505afa1580156117dd573d6000803e3d6000fd5b505050506040513d6000823e601f3d908101601f191682016040526118059190810190613413565b5160008054604051633ab5356760e21b815292935090916001600160a01b039091169063ead4d59c9061183c9089906004016137ec565b60206040518083038186803b15801561185457600080fd5b505afa158015611868573d6000803e3d6000fd5b505050506040513d601f19601f8201168201806040525081019061188c91906135b3565b60008054604051636f37a7eb60e01b815292935090916001600160a01b0390911690636f37a7eb906118c2908a906004016137ec565b60206040518083038186803b1580156118da57600080fd5b505afa1580156118ee573d6000803e3d6000fd5b505050506040513d601f19601f8201168201806040525081019061191291906135b3565b6000805460405163805265e560e01b815292935090916001600160a01b039091169063805265e590611948908b906004016137ec565b60206040518083038186803b15801561196057600080fd5b505afa158015611974573d6000803e3d6000fd5b505050506040513d601f19601f8201168201806040525081019061199891906135b3565b9050838114806119cf5782841180156119b45750838486038401105b806119cc575083831180156119cc5750828386038501105b90505b8015612d04576119de89612d52565b15611a1f577fff0c776a5fd7e993e16093294b93f713d3feaa3645224bae480d0def247077a289604051611a1291906137ec565b60405180910390a1612cfb565b82841115612cc35760408051808201909152601081526f30b2322fb732bbafb3b7bb32b93737b960811b6020918201528951908a01207f7c64a97697d6fd1a3c36cd0f89c12647b7e3fb1ce5ffd2b48d456f724ed869e61415611c0e57600054604051632f73a94f60e01b81526001600160a01b0390911690633c4a25d0908290632f73a94f90611ab4908e906004016137ec565b60206040518083038186803b158015611acc57600080fd5b505afa158015611ae0573d6000803e3d6000fd5b505050506040513d601f19601f82011682018060405250810190611b0491906133f7565b6040518263ffffffff1660e01b8152600401611b2091906136da565b600060405180830381600087803b158015611b3a57600080fd5b505af1158015611b4e573d6000803e3d6000fd5b5050600054604051632f73a94f60e01b81527fb37f965f80de23bbbd6bbedcfc00eaae511237d8cb5db628162221d7a1ea816793506001600160a01b039091169150632f73a94f90611ba4908d906004016137ec565b60206040518083038186803b158015611bbc57600080fd5b505afa158015611bd0573d6000803e3d6000fd5b505050506040513d601f19601f82011682018060405250810190611bf491906133f7565b604051611c0191906136da565b60405180910390a1612cbe565b60408051808201909152600f81526e3932b6b7bb32afb3b7bb32b93737b960891b6020918201528951908a01207f04e49d8b1fd8837abeba585912ed5e4baf9afab856352e8d561ec583ec3e07c91415611fee576000805460408051637c05a9a960e11b81529051600019936001600160a01b039093169263f80b53529260048082019391829003018186803b158015611ca757600080fd5b505afa158015611cbb573d6000803e3d6000fd5b505050506040513d6000823e601f3d908101601f19168201604052611ce39190810190613413565b8051611cf79160059160209091019061330f565b5060005b600554811015611dc657600054604051632f73a94f60e01b81526001600160a01b0390911690632f73a94f90611d35908e906004016137ec565b60206040518083038186803b158015611d4d57600080fd5b505afa158015611d61573d6000803e3d6000fd5b505050506040513d601f19601f82011682018060405250810190611d8591906133f7565b6001600160a01b031660058281548110611d9b57fe5b6000918252602090912001546001600160a01b03161415611dbe57809150611dc6565b600101611cfb565b50806000191415611de95760405162461bcd60e51b815260040161038a906138d0565b60055481906000198101821415611e2c576005805480611e0557fe5b600082815260209020810160001990810180546001600160a01b0319169055019055611ebe565b60056001820381548110611e3c57fe5b600091825260209091200154600580546001600160a01b039092169184908110611e6257fe5b9060005260206000200160006101000a8154816001600160a01b0302191690836001600160a01b031602179055506005805480611e9b57fe5b600082815260209020810160001990810180546001600160a01b03191690550190555b600054604051631e8f85cf60e21b81526001600160a01b0390911690637a3e173c90611eef9060059060040161372d565b600060405180830381600087803b158015611f0957600080fd5b505af1158015611f1d573d6000803e3d6000fd5b505050507f2d9464f7dd09f576b3463991f3c9523a2ca7de6422d0ceb3b2548c3b785b755960008054906101000a90046001600160a01b03166001600160a01b0316632f73a94f8e6040518263ffffffff1660e01b8152600401611f8191906137ec565b60206040518083038186803b158015611f9957600080fd5b505afa158015611fad573d6000803e3d6000fd5b505050506040513d601f19601f82011682018060405250810190611fd191906133f7565b604051611fde91906136da565b60405180910390a1505050612cbe565b604080518082019091526015815274616c7465725f6d61696e5f706f6f6c5f707269636560581b6020918201528951908a01207f196b5e64207ae38d7cf12d5a9f80210be0c0127de94f3c1c1bb3c7a1ad2e6e2a14156121d8576000546040516370925c3560e11b81526001600160a01b03909116906352b79fbb90670de0b6b3a764000090839063e124b86a9061208a908f906004016137ec565b60206040518083038186803b1580156120a257600080fd5b505afa1580156120b6573d6000803e3d6000fd5b505050506040513d601f19601f820116820180604052508101906120da91906135b3565b026040518263ffffffff1660e01b81526004016120f79190613b6f565b600060405180830381600087803b15801561211157600080fd5b505af1158015612125573d6000803e3d6000fd5b50506000546040516370925c3560e11b81527fa2d47ee3b232ba79f13d1b9d02e36296747f6e5464d10618b564fe27cb65d3cc93506001600160a01b03909116915063e124b86a9061217b908d906004016137ec565b60206040518083038186803b15801561219357600080fd5b505afa1580156121a7573d6000803e3d6000fd5b505050506040513d601f19601f820116820180604052508101906121cb91906135b3565b604051611c019190613b6f565b604080518082019091526014815273616c7465725f6d61696e5f706f6f6c5f73697a6560601b6020918201528951908a01207f0942b0235ba5d27cb77e91ef9fd81696ff66e99c74efc4ef7f723e0cebdec42b1415612359576000546040516370925c3560e11b81526001600160a01b039091169063a758023b90829063e124b86a90612269908e906004016137ec565b60206040518083038186803b15801561228157600080fd5b505afa158015612295573d6000803e3d6000fd5b505050506040513d601f19601f820116820180604052508101906122b991906135b3565b6040518263ffffffff1660e01b81526004016122d59190613b6f565b600060405180830381600087803b1580156122ef57600080fd5b505af1158015612303573d6000803e3d6000fd5b50506000546040516370925c3560e11b81527f7ba8c21b5aa33368aa7a28375b678116081c8430095b3001ee523c44ef0d84f793506001600160a01b03909116915063e124b86a9061217b908d906004016137ec565b60408051808201909152600f81526e185b1d195c97da1bdd5cd957d8dd5d608a1b6020918201528951908a01207f8227f9c81996570661d4efffba1595c79a52330f3fcc6285320b8f29f23d5f4f14156124d5576000546040516370925c3560e11b81526001600160a01b039091169063ea99117590829063e124b86a906123e5908e906004016137ec565b60206040518083038186803b1580156123fd57600080fd5b505afa158015612411573d6000803e3d6000fd5b505050506040513d601f19601f8201168201806040525081019061243591906135b3565b6040518263ffffffff1660e01b81526004016124519190613b6f565b600060405180830381600087803b15801561246b57600080fd5b505af115801561247f573d6000803e3d6000fd5b50506000546040516370925c3560e11b81527f83dfc73b61bd22c410bd87d5b255b1c56cd979358d2ba7e6dd4baf1dca7d212d93506001600160a01b03909116915063e124b86a9061217b908d906004016137ec565b604080518082019091526016815275616c7465725f686f7573655f6375745f746f6b656e7360501b6020918201528951908a01207f2d3030f07f0a90dec7ab1877dbd98007306ce6ba4b2b43c374c6d0d1980400551415612658576000546040516370925c3560e11b81526001600160a01b039091169063496ec48b90829063e124b86a90612568908e906004016137ec565b60206040518083038186803b15801561258057600080fd5b505afa158015612594573d6000803e3d6000fd5b505050506040513d601f19601f820116820180604052508101906125b891906135b3565b6040518263ffffffff1660e01b81526004016125d49190613b6f565b600060405180830381600087803b1580156125ee57600080fd5b505af1158015612602573d6000803e3d6000fd5b50506000546040516370925c3560e11b81527f6f0a96c86f431a6875229c3e2aeabebfe6c14f4ce93ad4fe22855b73f0d7f36693506001600160a01b03909116915063e124b86a9061217b908d906004016137ec565b60408051808201909152600f81526e616c7465725f6d696e5f707269636560881b6020918201528951908a01207f464323d588378f6cefad26fe934e38fcbace0e080eecc10fd7bdbb4d45b8fde814156127df576000546040516370925c3560e11b81526001600160a01b039091169063d211315090670de0b6b3a764000090839063e124b86a906126ee908f906004016137ec565b60206040518083038186803b15801561270657600080fd5b505afa15801561271a573d6000803e3d6000fd5b505050506040513d601f19601f8201168201806040525081019061273e91906135b3565b026040518263ffffffff1660e01b815260040161275b9190613b6f565b600060405180830381600087803b15801561277557600080fd5b505af1158015612789573d6000803e3d6000fd5b50506000546040516370925c3560e11b81527f987c749eb39f5b368e214422ba14eae023327542dd5e9f1de7a66c0e7695dc6393506001600160a01b03909116915063e124b86a9061217b908d906004016137ec565b60408051808201909152600e81526d616c7465725f6d696e5f73697a6560901b6020918201528951908a01207f7e2b58d3e83d88154e07165a17e5a021a048757afdca55d7835ce7c9fe73f0b4141561295a576000546040516370925c3560e11b81526001600160a01b039091169063fbea6b8b90829063e124b86a9061286a908e906004016137ec565b60206040518083038186803b15801561288257600080fd5b505afa158015612896573d6000803e3d6000fd5b505050506040513d601f19601f820116820180604052508101906128ba91906135b3565b6040518263ffffffff1660e01b81526004016128d69190613b6f565b600060405180830381600087803b1580156128f057600080fd5b505af1158015612904573d6000803e3d6000fd5b50506000546040516370925c3560e11b81527ff0d65f4e04e67de6178ec59320a74c6a98d68a3c481c8ee20781fcd0c9b4a4db93506001600160a01b03909116915063e124b86a9061217b908d906004016137ec565b60408051808201909152600e81526d616c7465725f6d61785f73697a6560901b6020918201528951908a01207fd96688e081841742f577ac2e7b7dd24b06ac82387bf276310f801ecbb10b9cc51415612ad5576000546040516370925c3560e11b81526001600160a01b039091169063bd1b2d2e90829063e124b86a906129e5908e906004016137ec565b60206040518083038186803b1580156129fd57600080fd5b505afa158015612a11573d6000803e3d6000fd5b505050506040513d601f19601f82011682018060405250810190612a3591906135b3565b6040518263ffffffff1660e01b8152600401612a519190613b6f565b600060405180830381600087803b158015612a6b57600080fd5b505af1158015612a7f573d6000803e3d6000fd5b50506000546040516370925c3560e11b81527f7790b78d3f3db987c662c58ac83f25dcbf7d923e63bd22524145525c2d4d20d193506001600160a01b03909116915063e124b86a9061217b908d906004016137ec565b604080518082019091526014815273616c7465725f6d696e5f676f765f67726f74746f60601b6020918201528951908a01207f8671c59c40bf6f5af4bc5e10423b68f7c399490af0dece95fec5dc0b9e5672511415612cbe576000546040516370925c3560e11b81526001600160a01b03909116906381ecd27a90670de0b6b3a764000090839063e124b86a90612b70908f906004016137ec565b60206040518083038186803b158015612b8857600080fd5b505afa158015612b9c573d6000803e3d6000fd5b505050506040513d601f19601f82011682018060405250810190612bc091906135b3565b026040518263ffffffff1660e01b8152600401612bdd9190613b6f565b600060405180830381600087803b158015612bf757600080fd5b505af1158015612c0b573d6000803e3d6000fd5b50506000546040516370925c3560e11b81527fee3144816c8f5dea27f2bbf70e0ea4f675d2bb9da6f0ebde8b6477d7340b9b3393506001600160a01b03909116915063e124b86a90612c61908d906004016137ec565b60206040518083038186803b158015612c7957600080fd5b505afa158015612c8d573d6000803e3d6000fd5b505050506040513d601f19601f82011682018060405250810190612cb191906135b3565b604051611a129190613b6f565b612cfb565b7fff0c776a5fd7e993e16093294b93f713d3feaa3645224bae480d0def247077a289604051612cf291906137ec565b60405180910390a15b612d0489612e19565b505050505061092f565b60405162461bcd60e51b815260040161038a906139b8565b600082820183811015612d4b5760405162461bcd60e51b815260040161038a906138fd565b9392505050565b6000805460405163878af33560e01b81526060916001600160a01b03169063878af33590612d849086906004016137ec565b60006040518083038186803b158015612d9c57600080fd5b505afa158015612db0573d6000803e3d6000fd5b505050506040513d6000823e601f3d908101601f19168201604052612dd89190810190613413565b905060005b815181101561120857612e02828281518110612df557fe5b6020026020010151611025565b612e1157600192505050610d14565b600101612ddd565b6000805460405163e56de7c160e01b81526001600160a01b039091169163e56de7c191612e4a9185916004016138ae565b600060405180830381600087803b158015612e6457600080fd5b505af1158015612e78573d6000803e3d6000fd5b505060005460405163878af33560e01b81526001600160a01b03909116925063878af3359150612eac9084906004016137ec565b60006040518083038186803b158015612ec457600080fd5b505afa158015612ed8573d6000803e3d6000fd5b505050506040513d6000823e601f3d908101601f19168201604052612f009190810190613413565b8051612f149160049160209091019061330f565b5060045460005b81811015612fb257600060048281548110612f3257fe5b600091825260208220015481546040516383935b3d60e01b81526001600160a01b0392831694509116916383935b3d91612f73918891869190600401613829565b600060405180830381600087803b158015612f8d57600080fd5b505af1158015612fa1573d6000803e3d6000fd5b505060019093019250612f1b915050565b50600054604051637d5ff84760e11b81526060916001600160a01b03169063fabff08e90612fe6908690859060040161385c565b600060405180830381600087803b15801561300057600080fd5b505af1158015613014573d6000803e3d6000fd5b505060008054604051635a37203f60e11b81526001600160a01b03909116935063b46e407e92506130499187916004016138ae565b600060405180830381600087803b15801561306357600080fd5b505af1158015613077573d6000803e3d6000fd5b50506000805460405163bb3ab55760e01b81526001600160a01b03909116935063bb3ab55792506130ac9187916004016138ae565b600060405180830381600087803b1580156130c657600080fd5b505af11580156130da573d6000803e3d6000fd5b505060008054604051631fe70f0560e21b81526001600160a01b039091169350637f9c3c14925061310f91879160040161388a565b600060405180830381600087803b15801561312957600080fd5b505af115801561313d573d6000803e3d6000fd5b505060408051808201909152601081526f30b2322fb732bbafb3b7bb32b93737b960811b6020918201528551908601207f7c64a97697d6fd1a3c36cd0f89c12647b7e3fb1ce5ffd2b48d456f724ed869e61491508190506131e9575060408051808201909152600f81526e3932b6b7bb32afb3b7bb32b93737b960891b6020918201528351908401207f04e49d8b1fd8837abeba585912ed5e4baf9afab856352e8d561ec583ec3e07c9145b15613256576000805460405163b06f8f8160e01b81526001600160a01b039091169163b06f8f819161321f9187916004016137ff565b600060405180830381600087803b15801561323957600080fd5b505af115801561324d573d6000803e3d6000fd5b505050506132ba565b60008054604051633335686560e11b81526001600160a01b039091169163666ad0ca916132879187916004016138ae565b600060405180830381600087803b1580156132a157600080fd5b505af11580156132b5573d6000803e3d6000fd5b505050505b505050565b60405180610100016040528060608152602001600015158152602001606081526020016000815260200160008152602001600081526020016000815260200160006001600160a01b031681525090565b828054828255906000526020600020908101928215613364579160200282015b8281111561336457825182546001600160a01b0319166001600160a01b0390911617825560209092019160019091019061332f565b50613370929150613374565b5090565b5b808211156133705760008155600101613375565b8051610d1481613b9c565b60008083601f8401126133a5578182fd5b50813567ffffffffffffffff8111156133bc578182fd5b6020830191508360208285010111156133d457600080fd5b9250929050565b6000602082840312156133ec578081fd5b8135612d4b81613b9c565b600060208284031215613408578081fd5b8151612d4b81613b9c565b60006020808385031215613425578182fd5b825167ffffffffffffffff8082111561343c578384fd5b818501915085601f83011261344f578384fd5b81518181111561345b57fe5b838102915061346b848301613b78565b8181528481019084860184860187018a1015613485578788fd5b8795505b838610156134ae5761349a81613389565b835260019590950194918601918601613489565b5098975050505050505050565b6000602082840312156134cc578081fd5b8151612d4b81613bb4565b6000806000604084860312156134eb578182fd5b833567ffffffffffffffff811115613501578283fd5b61350d86828701613394565b909450925050602084013561352181613bb4565b809150509250925092565b6000602080838503121561353e578182fd5b823567ffffffffffffffff80821115613555578384fd5b818501915085601f830112613568578384fd5b81358181111561357457fe5b613586601f8201601f19168501613b78565b9150808252868482850101111561359b578485fd5b80848401858401378101909201929092529392505050565b6000602082840312156135c4578081fd5b5051919050565b6000806000604084860312156135df578283fd5b83359250602084013567ffffffffffffffff8111156135fc578283fd5b61360886828701613394565b9497909650939450505050565b6001600160a01b03169052565b6000815180845260208085019450808401835b8381101561365a5781516001600160a01b031687529582019590820190600101613635565b509495945050505050565b60008284528282602086013780602084860101526020601f19601f85011685010190509392505050565b60008151808452815b818110156136b457602081850181015186830182015201613698565b818111156136c55782602083870101525b50601f01601f19169290920160200192915050565b6001600160a01b0391909116815260200190565b6001600160a01b03831681526040602082018190526000906137129083018461368f565b949350505050565b600060208252612d4b6020830184613622565b6020808252825482820181905260008481528281209092916040850190845b818110156137715783546001600160a01b03168352600193840193928501920161374c565b50909695505050505050565b901515815260200190565b600060208252613712602083018486613665565b6000604082526137b0604083018587613665565b905060018060a01b0383166020830152949350505050565b6000604082526137dc604083018587613665565b9050826020830152949350505050565b600060208252612d4b602083018461368f565b600060408252613812604083018561368f565b905060018060a01b03831660208301529392505050565b60006060825261383c606083018661368f565b6001600160a01b0394909416602083015250901515604090910152919050565b60006040825261386f604083018561368f565b82810360208401526138818185613622565b95945050505050565b60006040825261389d604083018561368f565b905082151560208301529392505050565b6000604082526138c1604083018561368f565b90508260208301529392505050565b60208082526013908201527233b7bb32b93737b9103737ba103337bab7321760691b604082015260600190565b6020808252601b908201527f536166654d6174683a206164646974696f6e206f766572666c6f770000000000604082015260600190565b6020808252600d908201526c105b1c9958591e481d9bdd1959609a1b604082015260600190565b60208082526037908201527f596f752063616e206e6f7420616464206d6f726520676f7665726e6f72732e2060408201527f52656d6f7665206120676f7665726e6f72206669727374000000000000000000606082015260800190565b6020808252600f908201526e4e6f7420696e2070726f677265737360881b604082015260600190565b60208082526012908201527120b63932b0b23c90309033b7bb32b93737b960711b604082015260600190565b60208082526028908201527f4e657720476f7665726e6f7220646f6573206e6f74206861766520656e6f7567604082015267682047524f54544f60c01b606082015260800190565b6020808252600e908201526d2737ba10309033b7bb32b93737b960911b604082015260600190565b6020808252601b908201527f4f6e6c79206120676f7665726e6f722063616e20646f20746861740000000000604082015260600190565b602080825260139082015272416c726561647920496e2050726f677265737360681b604082015260600190565b6000602082528251610100806020850152613b0061012085018361368f565b91506020850151151560408501526040850151601f19858403016060860152613b298382613622565b92505060608501516080850152608085015160a085015260a085015160c085015260c085015160e085015260e0850151613b6582860182613615565b5090949350505050565b90815260200190565b60405181810167ffffffffffffffff81118282101715613b9457fe5b604052919050565b6001600160a01b0381168114613bb157600080fd5b50565b8015158114613bb157600080fdfea26469706673582212207914012d998ed27913872a963d019e54bc820e09760023f730ab1b941e5f147a64736f6c63430007030033",
  "linkReferences": {},
  "deployedLinkReferences": {}
}