{
  "_format": "hh-sol-artifact-1",
  "contractName": "Governance",
  "sourceName": "contracts/Governance.sol",
  "abi": [
    {
      "inputs": [],
      "stateMutability": "nonpayable",
      "type": "constructor"
    },
    {
      "anonymous": false,
      "inputs": [
        {
          "indexed": false,
          "internalType": "address",
          "name": "",
          "type": "address"
        }
      ],
      "name": "GOVERNOR_REMOVED",
      "type": "event"
    },
    {
      "anonymous": false,
      "inputs": [
        {
          "indexed": false,
          "internalType": "uint256",
          "name": "",
          "type": "uint256"
        }
      ],
      "name": "HOUSE_CUT_CHANGED",
      "type": "event"
    },
    {
      "anonymous": false,
      "inputs": [
        {
          "indexed": false,
          "internalType": "uint256",
          "name": "",
          "type": "uint256"
        }
      ],
      "name": "HOUSE_CUT_NEW_TOKENS_CHANGED",
      "type": "event"
    },
    {
      "anonymous": false,
      "inputs": [
        {
          "indexed": false,
          "internalType": "uint256",
          "name": "",
          "type": "uint256"
        }
      ],
      "name": "MAIN_POOL_PRICE_CHANGED",
      "type": "event"
    },
    {
      "anonymous": false,
      "inputs": [
        {
          "indexed": false,
          "internalType": "uint256",
          "name": "",
          "type": "uint256"
        }
      ],
      "name": "MAIN_POOL_SIZE_CHANGED",
      "type": "event"
    },
    {
      "anonymous": false,
      "inputs": [
        {
          "indexed": false,
          "internalType": "uint256",
          "name": "",
          "type": "uint256"
        }
      ],
      "name": "MAXIMUM_POOL_SIZE_CHANGED",
      "type": "event"
    },
    {
      "anonymous": false,
      "inputs": [
        {
          "indexed": false,
          "internalType": "uint256",
          "name": "",
          "type": "uint256"
        }
      ],
      "name": "MINIMUM_POOL_PRICE_CHANGED",
      "type": "event"
    },
    {
      "anonymous": false,
      "inputs": [
        {
          "indexed": false,
          "internalType": "uint256",
          "name": "",
          "type": "uint256"
        }
      ],
      "name": "MINIMUM_POOL_SIZE_CHANGED",
      "type": "event"
    },
    {
      "anonymous": false,
      "inputs": [
        {
          "indexed": false,
          "internalType": "uint256",
          "name": "",
          "type": "uint256"
        }
      ],
      "name": "MIN_GROTTO_GOV_CHANGED",
      "type": "event"
    },
    {
      "anonymous": false,
      "inputs": [
        {
          "indexed": false,
          "internalType": "uint256",
          "name": "",
          "type": "uint256"
        }
      ],
      "name": "MIN_VALUE_FOR_SHARES_CHANGED",
      "type": "event"
    },
    {
      "anonymous": false,
      "inputs": [
        {
          "indexed": false,
          "internalType": "address",
          "name": "",
          "type": "address"
        }
      ],
      "name": "NEW_GOVERNOR_ADDED",
      "type": "event"
    },
    {
      "anonymous": false,
      "inputs": [
        {
          "indexed": false,
          "internalType": "string",
          "name": "",
          "type": "string"
        }
      ],
      "name": "NEW_PROPOSAL",
      "type": "event"
    },
    {
      "anonymous": false,
      "inputs": [
        {
          "indexed": false,
          "internalType": "string",
          "name": "",
          "type": "string"
        }
      ],
      "name": "NO_CONSENSUS",
      "type": "event"
    },
    {
      "anonymous": false,
      "inputs": [
        {
          "indexed": false,
          "internalType": "uint256",
          "name": "",
          "type": "uint256"
        },
        {
          "indexed": false,
          "internalType": "uint256",
          "name": "",
          "type": "uint256"
        },
        {
          "indexed": false,
          "internalType": "uint256",
          "name": "",
          "type": "uint256"
        }
      ],
      "name": "SHARES_CHANGED",
      "type": "event"
    },
    {
      "anonymous": false,
      "inputs": [
        {
          "indexed": false,
          "internalType": "address",
          "name": "",
          "type": "address"
        },
        {
          "indexed": false,
          "internalType": "string",
          "name": "",
          "type": "string"
        }
      ],
      "name": "VOTE_CASTED",
      "type": "event"
    },
    {
      "inputs": [],
      "name": "getGovernors",
      "outputs": [
        {
          "internalType": "address payable[]",
          "name": "",
          "type": "address[]"
        }
      ],
      "stateMutability": "view",
      "type": "function"
    },
    {
      "inputs": [],
      "name": "getHouseCut",
      "outputs": [
        {
          "internalType": "uint256",
          "name": "",
          "type": "uint256"
        }
      ],
      "stateMutability": "view",
      "type": "function"
    },
    {
      "inputs": [],
      "name": "getHouseCutNewTokens",
      "outputs": [
        {
          "internalType": "uint256",
          "name": "",
          "type": "uint256"
        }
      ],
      "stateMutability": "view",
      "type": "function"
    },
    {
      "inputs": [],
      "name": "getHouseCutShares",
      "outputs": [
        {
          "internalType": "uint256",
          "name": "",
          "type": "uint256"
        },
        {
          "internalType": "uint256",
          "name": "",
          "type": "uint256"
        },
        {
          "internalType": "uint256",
          "name": "",
          "type": "uint256"
        }
      ],
      "stateMutability": "view",
      "type": "function"
    },
    {
      "inputs": [],
      "name": "getMainPoolPrice",
      "outputs": [
        {
          "internalType": "uint256",
          "name": "",
          "type": "uint256"
        }
      ],
      "stateMutability": "view",
      "type": "function"
    },
    {
      "inputs": [],
      "name": "getMainPoolSize",
      "outputs": [
        {
          "internalType": "uint256",
          "name": "",
          "type": "uint256"
        }
      ],
      "stateMutability": "view",
      "type": "function"
    },
    {
      "inputs": [],
      "name": "getMaximumPoolSize",
      "outputs": [
        {
          "internalType": "uint256",
          "name": "",
          "type": "uint256"
        }
      ],
      "stateMutability": "view",
      "type": "function"
    },
    {
      "inputs": [],
      "name": "getMinGrottoGovernor",
      "outputs": [
        {
          "internalType": "uint256",
          "name": "",
          "type": "uint256"
        }
      ],
      "stateMutability": "view",
      "type": "function"
    },
    {
      "inputs": [],
      "name": "getMinValueForSharesProcessing",
      "outputs": [
        {
          "internalType": "uint256",
          "name": "",
          "type": "uint256"
        }
      ],
      "stateMutability": "view",
      "type": "function"
    },
    {
      "inputs": [],
      "name": "getMinimumPoolPrice",
      "outputs": [
        {
          "internalType": "uint256",
          "name": "",
          "type": "uint256"
        }
      ],
      "stateMutability": "view",
      "type": "function"
    },
    {
      "inputs": [],
      "name": "getMinimumPoolSize",
      "outputs": [
        {
          "internalType": "uint256",
          "name": "",
          "type": "uint256"
        }
      ],
      "stateMutability": "view",
      "type": "function"
    },
    {
      "inputs": [
        {
          "internalType": "address payable",
          "name": "newGovernor",
          "type": "address"
        }
      ],
      "name": "proposeNewGovernor",
      "outputs": [],
      "stateMutability": "nonpayable",
      "type": "function"
    },
    {
      "inputs": [
        {
          "internalType": "uint256",
          "name": "houseShare",
          "type": "uint256"
        },
        {
          "internalType": "uint256",
          "name": "govsShare",
          "type": "uint256"
        },
        {
          "internalType": "uint256",
          "name": "stakersShare",
          "type": "uint256"
        }
      ],
      "name": "proposeNewShares",
      "outputs": [],
      "stateMutability": "nonpayable",
      "type": "function"
    },
    {
      "inputs": [
        {
          "internalType": "uint256",
          "name": "value",
          "type": "uint256"
        },
        {
          "internalType": "string",
          "name": "voteId",
          "type": "string"
        }
      ],
      "name": "proposeNewValue",
      "outputs": [],
      "stateMutability": "nonpayable",
      "type": "function"
    },
    {
      "inputs": [
        {
          "internalType": "address payable",
          "name": "oldGovernor",
          "type": "address"
        }
      ],
      "name": "proposeRemoveGovernor",
      "outputs": [],
      "stateMutability": "nonpayable",
      "type": "function"
    },
    {
      "inputs": [
        {
          "internalType": "address payable",
          "name": "newAddress",
          "type": "address"
        }
      ],
      "name": "updateGov",
      "outputs": [],
      "stateMutability": "nonpayable",
      "type": "function"
    },
    {
      "inputs": [
        {
          "internalType": "string",
          "name": "voteId",
          "type": "string"
        },
        {
          "internalType": "bool",
          "name": "yesVote",
          "type": "bool"
        }
      ],
      "name": "vote",
      "outputs": [],
      "stateMutability": "nonpayable",
      "type": "function"
    },
    {
      "inputs": [
        {
          "internalType": "string",
          "name": "voteId",
          "type": "string"
        }
      ],
      "name": "votingDetails",
      "outputs": [
        {
          "components": [
            {
              "internalType": "string",
              "name": "voteId",
              "type": "string"
            },
            {
              "internalType": "bool",
              "name": "inProgress",
              "type": "bool"
            },
            {
              "internalType": "address payable[]",
              "name": "voters",
              "type": "address[]"
            },
            {
              "internalType": "uint256",
              "name": "yesVotes",
              "type": "uint256"
            },
            {
              "internalType": "uint256",
              "name": "noVotes",
              "type": "uint256"
            },
            {
              "internalType": "uint256",
              "name": "votes",
              "type": "uint256"
            },
            {
              "internalType": "uint256",
              "name": "proposedValue",
              "type": "uint256"
            },
            {
              "internalType": "address",
              "name": "proposedGovernor",
              "type": "address"
            },
            {
              "components": [
                {
                  "internalType": "uint256",
                  "name": "house",
                  "type": "uint256"
                },
                {
                  "internalType": "uint256",
                  "name": "govs",
                  "type": "uint256"
                },
                {
                  "internalType": "uint256",
                  "name": "stakers",
                  "type": "uint256"
                }
              ],
              "internalType": "struct Data.ProposedShare",
              "name": "proposedShare",
              "type": "tuple"
            }
          ],
          "internalType": "struct Data.Vote",
          "name": "",
          "type": "tuple"
        }
      ],
      "stateMutability": "view",
      "type": "function"
    }
  ],
  "bytecode": "0x6080604052600180546001600160a01b031990811673e1161f1057e41fc1fdb4c99ebb061fbecc059012179091556002805490911673fa9e2ee5e07ebb7ab05c95905dd4ad50173322921790553480156200005957600080fd5b50600154600080546001600160a01b0319166001600160a01b0392831617908190556040516303c4a25d60e41b8152911690633c4a25d090620000b59073c04915f6b3ff85b50a863eb1fcbf36817153941390600401620002fa565b600060405180830381600087803b158015620000d057600080fd5b505af1158015620000e5573d6000803e3d6000fd5b50506000546040516303c4a25d60e41b81526001600160a01b039091169250633c4a25d091506200012f9073b58c226a300ff6dc1ef762d62c536c7aed5cea7490600401620002fa565b600060405180830381600087803b1580156200014a57600080fd5b505af11580156200015f573d6000803e3d6000fd5b50506000546040516303c4a25d60e41b81526001600160a01b039091169250633c4a25d09150620001a99073b6d80f6d661927afef42f39e52d630e250696bc490600401620002fa565b600060405180830381600087803b158015620001c457600080fd5b505af1158015620001d9573d6000803e3d6000fd5b50506000546040516303c4a25d60e41b81526001600160a01b039091169250633c4a25d091506200022390736b33d96c8353d03433034171433b0bd9bdafac8b90600401620002fa565b600060405180830381600087803b1580156200023e57600080fd5b505af115801562000253573d6000803e3d6000fd5b50506000546040516303c4a25d60e41b81526001600160a01b039091169250633c4a25d091506200029d90730a0c8e469fef425ef7c6e9754dc563f9bba588f090600401620002fa565b600060405180830381600087803b158015620002b857600080fd5b505af1158015620002cd573d6000803e3d6000fd5b5050600254600380546001600160a01b0319166001600160a01b03909216919091179055506200030e9050565b6001600160a01b0391909116815260200190565b6147c6806200031e6000396000f3fe608060405234801561001057600080fd5b50600436106101165760003560e01c806375336ae6116100a2578063e0a11c2011610071578063e0a11c2014610204578063f417bd9c1461020c578063f80b535214610214578063f925327114610229578063fd7f82531461023157610116565b806375336ae6146101d957806381014bbe146101e1578063bec099b7146101e9578063d8692395146101fc57610116565b806326904efd116100e957806326904efd1461017857806327d3410c1461018b5780632880c4731461019e5780632c0797ef146101be5780636a329ce4146101c657610116565b806305868b261461011b5780630b33ba7a146101395780631f9244d61461014e57806322f3752714610161575b600080fd5b610123610239565b6040516101309190614727565b60405180910390f35b61014c610147366004613e31565b6102c5565b005b61014c61015c366004614021565b61032a565b610169610518565b60405161013093929190614730565b61014c610186366004613e31565b6105ad565b61014c610199366004613f2d565b610a80565b6101b16101ac366004613f82565b610c06565b604051610130919061467f565b6101236110a7565b61014c6101d4366004613e31565b6110f6565b610123611402565b610123611451565b61014c6101f736600461406b565b6114a0565b6101236116be565b61012361170d565b61012361175c565b61021c6117ab565b6040516101309190614202565b61012361182b565b61012361187a565b60008060009054906101000a90046001600160a01b03166001600160a01b03166305868b266040518163ffffffff1660e01b815260040160206040518083038186803b15801561028857600080fd5b505afa15801561029c573d6000803e3d6000fd5b505050506040513d601f19601f820116820180604052508101906102c09190614009565b905090565b6000546040516367d6abd160e11b81526001600160a01b039091169063cfad57a2906102f59084906004016141a7565b600060405180830381600087803b15801561030f57600080fd5b505af1158015610323573d6000803e3d6000fd5b5050505050565b6000546040516318426dab60e31b815233916001600160a01b03169063c2136d589061035a9084906004016141a7565b60206040518083038186803b15801561037257600080fd5b505afa158015610386573d6000803e3d6000fd5b505050506040513d601f19601f820116820180604052508101906103aa9190613f11565b6103cf5760405162461bcd60e51b81526004016103c69061461b565b60405180910390fd5b60008054604051622176b560e91b81526001600160a01b03909116906342ed6a00906104019087908790600401614265565b60206040518083038186803b15801561041957600080fd5b505afa15801561042d573d6000803e3d6000fd5b505050506040513d601f19601f820116820180604052508101906104519190613f11565b905080156104715760405162461bcd60e51b81526004016103c690614652565b600054604051633335686560e11b81526001600160a01b039091169063666ad0ca906104a590879087908a906004016142a5565b600060405180830381600087803b1580156104bf57600080fd5b505af11580156104d3573d6000803e3d6000fd5b5050505061032384848080601f0160208091040260200160405190810160405280939291908181526020018383808284376000920191909152508692506118c9915050565b60008060008060009054906101000a90046001600160a01b03166001600160a01b03166322f375276040518163ffffffff1660e01b815260040160606040518083038186803b15801561056a57600080fd5b505afa15801561057e573d6000803e3d6000fd5b505050506040513d601f19601f820116820180604052508101906105a29190614096565b925092509250909192565b6000546040516318426dab60e31b815233916001600160a01b03169063c2136d58906105dd9084906004016141a7565b60206040518083038186803b1580156105f557600080fd5b505afa158015610609573d6000803e3d6000fd5b505050506040513d601f19601f8201168201806040525081019061062d9190613f11565b6106495760405162461bcd60e51b81526004016103c69061461b565b6000546040516318426dab60e31b81526001600160a01b039091169063c2136d58906106799085906004016141a7565b60206040518083038186803b15801561069157600080fd5b505afa1580156106a5573d6000803e3d6000fd5b505050506040513d601f19601f820116820180604052508101906106c99190613f11565b156106e65760405162461bcd60e51b81526004016103c69061457f565b6000805460408051637c05a9a960e11b815290516001600160a01b039092169263f80b535292600480840193829003018186803b15801561072657600080fd5b505afa15801561073a573d6000803e3d6000fd5b505050506040513d6000823e601f3d908101601f191682016040526107629190810190613e69565b51601514156107835760405162461bcd60e51b81526004016103c690614538565b60008054906101000a90046001600160a01b03166001600160a01b03166375336ae66040518163ffffffff1660e01b815260040160206040518083038186803b1580156107cf57600080fd5b505afa1580156107e3573d6000803e3d6000fd5b505050506040513d601f19601f820116820180604052508101906108079190614009565b6003546040516370a0823160e01b81526001600160a01b03909116906370a08231906108379086906004016141a7565b60206040518083038186803b15801561084f57600080fd5b505afa158015610863573d6000803e3d6000fd5b505050506040513d601f19601f820116820180604052508101906108879190614009565b10156108a55760405162461bcd60e51b81526004016103c6906145ab565b6000805460408051637c05a9a960e11b815290516060936001600160a01b039093169263f80b53529260048082019391829003018186803b1580156108e957600080fd5b505afa1580156108fd573d6000803e3d6000fd5b505050506040513d6000823e601f3d908101601f191682016040526109259190810190613e69565b90506015815111156109495760405162461bcd60e51b81526004016103c69061446f565b604080518082018252601081526f30b2322fb732bbafb3b7bb32b93737b960811b6020820152600080549251622176b560e91b8152919290916001600160a01b03909116906342ed6a00906109a29085906004016142c9565b60206040518083038186803b1580156109ba57600080fd5b505afa1580156109ce573d6000803e3d6000fd5b505050506040513d601f19601f820116820180604052508101906109f29190613f11565b90508015610a125760405162461bcd60e51b81526004016103c690614652565b60005460405163b06f8f8160e01b81526001600160a01b039091169063b06f8f8190610a4490859089906004016142dc565b600060405180830381600087803b158015610a5e57600080fd5b505af1158015610a72573d6000803e3d6000fd5b5050505061032382856118c9565b6000546040516318426dab60e31b815233916001600160a01b03169063c2136d5890610ab09084906004016141a7565b60206040518083038186803b158015610ac857600080fd5b505afa158015610adc573d6000803e3d6000fd5b505050506040513d601f19601f82011682018060405250810190610b009190613f11565b610b1c5760405162461bcd60e51b81526004016103c69061461b565b600054604051634b3e33eb60e01b81526001600160a01b0390911690634b3e33eb90610b5090879087908690600401614279565b60206040518083038186803b158015610b6857600080fd5b505afa158015610b7c573d6000803e3d6000fd5b505050506040513d601f19601f82011682018060405250810190610ba09190613f11565b15610bbd5760405162461bcd60e51b81526004016103c690614448565b610c0084848080601f0160208091040260200160405190810160405280939291908181526020018383808284376000920191909152508592508691506119759050565b50505050565b610c0e613ce8565b60008060008060009054906101000a90046001600160a01b03166001600160a01b0316632974a06e6040518163ffffffff1660e01b815260040160606040518083038186803b158015610c6057600080fd5b505afa158015610c74573d6000803e3d6000fd5b505050506040513d601f19601f82011682018060405250810190610c989190614096565b925092509250610ca6613d44565b506040805160608101825284815260208082018590528183018490528251610120810184528881526000549351622176b560e91b815292939092918301916001600160a01b03909116906342ed6a0090610d04908b906004016142c9565b60206040518083038186803b158015610d1c57600080fd5b505afa158015610d30573d6000803e3d6000fd5b505050506040513d601f19601f82011682018060405250810190610d549190613f11565b1515815260005460405163878af33560e01b81526020909201916001600160a01b039091169063878af33590610d8e908b906004016142c9565b60006040518083038186803b158015610da657600080fd5b505afa158015610dba573d6000803e3d6000fd5b505050506040513d6000823e601f3d908101601f19168201604052610de29190810190613e69565b8152600054604051633ab5356760e21b81526020909201916001600160a01b039091169063ead4d59c90610e1a908b906004016142c9565b60206040518083038186803b158015610e3257600080fd5b505afa158015610e46573d6000803e3d6000fd5b505050506040513d601f19601f82011682018060405250810190610e6a9190614009565b8152600054604051636f37a7eb60e01b81526020909201916001600160a01b0390911690636f37a7eb90610ea2908b906004016142c9565b60206040518083038186803b158015610eba57600080fd5b505afa158015610ece573d6000803e3d6000fd5b505050506040513d601f19601f82011682018060405250810190610ef29190614009565b815260005460405163805265e560e01b81526020909201916001600160a01b039091169063805265e590610f2a908b906004016142c9565b60206040518083038186803b158015610f4257600080fd5b505afa158015610f56573d6000803e3d6000fd5b505050506040513d601f19601f82011682018060405250810190610f7a9190614009565b81526000546040516370925c3560e11b81526020909201916001600160a01b039091169063e124b86a90610fb2908b906004016142c9565b60206040518083038186803b158015610fca57600080fd5b505afa158015610fde573d6000803e3d6000fd5b505050506040513d601f19601f820116820180604052508101906110029190614009565b8152600054604051632f73a94f60e01b81526020909201916001600160a01b0390911690632f73a94f9061103a908b906004016142c9565b60206040518083038186803b15801561105257600080fd5b505afa158015611066573d6000803e3d6000fd5b505050506040513d601f19601f8201168201806040525081019061108a9190613e4d565b6001600160a01b031681526020019190915293505050505b919050565b60008060009054906101000a90046001600160a01b03166001600160a01b0316632c0797ef6040518163ffffffff1660e01b815260040160206040518083038186803b15801561028857600080fd5b6000546040516318426dab60e31b815233916001600160a01b03169063c2136d58906111269084906004016141a7565b60206040518083038186803b15801561113e57600080fd5b505afa158015611152573d6000803e3d6000fd5b505050506040513d601f19601f820116820180604052508101906111769190613f11565b6111925760405162461bcd60e51b81526004016103c69061461b565b6000546040516318426dab60e31b81526001600160a01b039091169063c2136d58906111c29085906004016141a7565b60206040518083038186803b1580156111da57600080fd5b505afa1580156111ee573d6000803e3d6000fd5b505050506040513d601f19601f820116820180604052508101906112129190613f11565b61122e5760405162461bcd60e51b81526004016103c6906145f3565b6000805460408051637c05a9a960e11b81529051600b936001600160a01b039093169263f80b53529260048082019391829003018186803b15801561127257600080fd5b505afa158015611286573d6000803e3d6000fd5b505050506040513d6000823e601f3d908101601f191682016040526112ae9190810190613e69565b51116112cc5760405162461bcd60e51b81526004016103c6906144cc565b604080518082018252600f81526e3932b6b7bb32afb3b7bb32b93737b960891b6020820152600080549251622176b560e91b8152919290916001600160a01b03909116906342ed6a00906113249085906004016142c9565b60206040518083038186803b15801561133c57600080fd5b505afa158015611350573d6000803e3d6000fd5b505050506040513d601f19601f820116820180604052508101906113749190613f11565b905080156113945760405162461bcd60e51b81526004016103c690614652565b60005460405163b06f8f8160e01b81526001600160a01b039091169063b06f8f81906113c690859088906004016142dc565b600060405180830381600087803b1580156113e057600080fd5b505af11580156113f4573d6000803e3d6000fd5b50505050610c0082846118c9565b60008060009054906101000a90046001600160a01b03166001600160a01b03166375336ae66040518163ffffffff1660e01b815260040160206040518083038186803b15801561028857600080fd5b60008060009054906101000a90046001600160a01b03166001600160a01b03166381014bbe6040518163ffffffff1660e01b815260040160206040518083038186803b15801561028857600080fd5b60006114ac84846136cf565b90506114b881836136cf565b9050806064146114da5760405162461bcd60e51b81526004016103c6906143da565b6000546040516318426dab60e31b815233916001600160a01b03169063c2136d589061150a9084906004016141a7565b60206040518083038186803b15801561152257600080fd5b505afa158015611536573d6000803e3d6000fd5b505050506040513d601f19601f8201168201806040525081019061155a9190613f11565b6115765760405162461bcd60e51b81526004016103c69061461b565b6040805180820182526016815275616c7465725f686f7573655f6375745f73686172657360501b6020820152600080549251622176b560e91b8152919290916001600160a01b03909116906342ed6a00906115d59085906004016142c9565b60206040518083038186803b1580156115ed57600080fd5b505afa158015611601573d6000803e3d6000fd5b505050506040513d601f19601f820116820180604052508101906116259190613f11565b905080156116455760405162461bcd60e51b81526004016103c690614652565b6000546040516307659b8d60e51b81526001600160a01b039091169063ecb371a090611679908a908a908a90600401614730565b600060405180830381600087803b15801561169357600080fd5b505af11580156116a7573d6000803e3d6000fd5b505050506116b582846118c9565b50505050505050565b60008060009054906101000a90046001600160a01b03166001600160a01b031663d86923956040518163ffffffff1660e01b815260040160206040518083038186803b15801561028857600080fd5b60008060009054906101000a90046001600160a01b03166001600160a01b031663e0a11c206040518163ffffffff1660e01b815260040160206040518083038186803b15801561028857600080fd5b60008060009054906101000a90046001600160a01b03166001600160a01b031663f417bd9c6040518163ffffffff1660e01b815260040160206040518083038186803b15801561028857600080fd5b6000805460408051637c05a9a960e11b815290516060936001600160a01b039093169263f80b53529260048082019391829003018186803b1580156117ef57600080fd5b505afa158015611803573d6000803e3d6000fd5b505050506040513d6000823e601f3d908101601f191682016040526102c09190810190613e69565b60008060009054906101000a90046001600160a01b03166001600160a01b031663f92532716040518163ffffffff1660e01b815260040160206040518083038186803b15801561028857600080fd5b60008060009054906101000a90046001600160a01b03166001600160a01b031663fd7f82536040518163ffffffff1660e01b815260040160206040518083038186803b15801561028857600080fd5b600054604051631fe70f0560e21b81526001600160a01b0390911690637f9c3c14906118fc908590600190600401614367565b600060405180830381600087803b15801561191657600080fd5b505af115801561192a573d6000803e3d6000fd5b5050505061193a82826001611975565b7ff5346fd029345ac090ffe009531c8b769cf488b789bd5b9b6a51f04f693c8cdb8260405161196991906142c9565b60405180910390a15050565b60008054604051622176b560e91b81526001600160a01b03909116906342ed6a00906119a59087906004016142c9565b60206040518083038186803b1580156119bd57600080fd5b505afa1580156119d1573d6000803e3d6000fd5b505050506040513d601f19601f820116820180604052508101906119f59190613f11565b905080156136b7578115611aee57600054604051633ab5356760e21b81526001600160a01b039091169063b46e407e908690611a9a90600190859063ead4d59c90611a449086906004016142c9565b60206040518083038186803b158015611a5c57600080fd5b505afa158015611a70573d6000803e3d6000fd5b505050506040513d601f19601f82011682018060405250810190611a949190614009565b906136cf565b6040518363ffffffff1660e01b8152600401611ab792919061438b565b600060405180830381600087803b158015611ad157600080fd5b505af1158015611ae5573d6000803e3d6000fd5b50505050611b7f565b600054604051636f37a7eb60e01b81526001600160a01b039091169063bb3ab557908690611b2f906001908590636f37a7eb90611a449086906004016142c9565b6040518363ffffffff1660e01b8152600401611b4c92919061438b565b600060405180830381600087803b158015611b6657600080fd5b505af1158015611b7a573d6000803e3d6000fd5b505050505b600054604051635607395b60e01b81526001600160a01b0390911690635607395b90611bb190879087906004016142dc565b600060405180830381600087803b158015611bcb57600080fd5b505af1158015611bdf573d6000803e3d6000fd5b505060005460405163805265e560e01b81526001600160a01b03909116925063e56de7c191508690611c2490600190859063805265e590611a449086906004016142c9565b6040518363ffffffff1660e01b8152600401611c4192919061438b565b600060405180830381600087803b158015611c5b57600080fd5b505af1158015611c6f573d6000803e3d6000fd5b50506000546040516383935b3d60e01b81526001600160a01b0390911692506383935b3d9150611ca89087908790600190600401614306565b600060405180830381600087803b158015611cc257600080fd5b505af1158015611cd6573d6000803e3d6000fd5b505050507fd17e420d38fa7b9aa70264ae407a1c4bd99f817d1bbcdc3ac66034373d3d522e8385604051611d0b9291906141d6565b60405180910390a160008060009054906101000a90046001600160a01b03166001600160a01b031663f80b53526040518163ffffffff1660e01b815260040160006040518083038186803b158015611d6257600080fd5b505afa158015611d76573d6000803e3d6000fd5b505050506040513d6000823e601f3d908101601f19168201604052611d9e9190810190613e69565b5160008054604051633ab5356760e21b815292935090916001600160a01b039091169063ead4d59c90611dd59089906004016142c9565b60206040518083038186803b158015611ded57600080fd5b505afa158015611e01573d6000803e3d6000fd5b505050506040513d601f19601f82011682018060405250810190611e259190614009565b60008054604051636f37a7eb60e01b815292935090916001600160a01b0390911690636f37a7eb90611e5b908a906004016142c9565b60206040518083038186803b158015611e7357600080fd5b505afa158015611e87573d6000803e3d6000fd5b505050506040513d601f19601f82011682018060405250810190611eab9190614009565b6000805460405163805265e560e01b815292935090916001600160a01b039091169063805265e590611ee1908b906004016142c9565b60206040518083038186803b158015611ef957600080fd5b505afa158015611f0d573d6000803e3d6000fd5b505050506040513d601f19601f82011682018060405250810190611f319190614009565b905083811480611f68578284118015611f4d5750838486038401105b80611f6557508383118015611f655750828386038501105b90505b80156136ad57611f77896136fb565b15611fb8577fff0c776a5fd7e993e16093294b93f713d3feaa3645224bae480d0def247077a289604051611fab91906142c9565b60405180910390a16136a4565b8284111561366c5760408051808201909152601081526f30b2322fb732bbafb3b7bb32b93737b960811b6020918201528951908a01207f7c64a97697d6fd1a3c36cd0f89c12647b7e3fb1ce5ffd2b48d456f724ed869e614156121a757600054604051632f73a94f60e01b81526001600160a01b0390911690633c4a25d0908290632f73a94f9061204d908e906004016142c9565b60206040518083038186803b15801561206557600080fd5b505afa158015612079573d6000803e3d6000fd5b505050506040513d601f19601f8201168201806040525081019061209d9190613e4d565b6040518263ffffffff1660e01b81526004016120b991906141a7565b600060405180830381600087803b1580156120d357600080fd5b505af11580156120e7573d6000803e3d6000fd5b5050600054604051632f73a94f60e01b81527fb37f965f80de23bbbd6bbedcfc00eaae511237d8cb5db628162221d7a1ea816793506001600160a01b039091169150632f73a94f9061213d908d906004016142c9565b60206040518083038186803b15801561215557600080fd5b505afa158015612169573d6000803e3d6000fd5b505050506040513d601f19601f8201168201806040525081019061218d9190613e4d565b60405161219a91906141a7565b60405180910390a1613667565b60408051808201909152600f81526e3932b6b7bb32afb3b7bb32b93737b960891b6020918201528951908a01207f04e49d8b1fd8837abeba585912ed5e4baf9afab856352e8d561ec583ec3e07c91415612616576000805460408051637c05a9a960e11b81529051600019936001600160a01b039093169263f80b53529260048082019391829003018186803b15801561224057600080fd5b505afa158015612254573d6000803e3d6000fd5b505050506040513d6000823e601f3d908101601f1916820160405261227c9190810190613e69565b805161229091600591602090910190613d65565b5060005b60055481101561235f57600054604051632f73a94f60e01b81526001600160a01b0390911690632f73a94f906122ce908e906004016142c9565b60206040518083038186803b1580156122e657600080fd5b505afa1580156122fa573d6000803e3d6000fd5b505050506040513d601f19601f8201168201806040525081019061231e9190613e4d565b6001600160a01b03166005828154811061233457fe5b6000918252602090912001546001600160a01b031614156123575780915061235f565b600101612294565b508060001914156123825760405162461bcd60e51b81526004016103c6906143ad565b600081905060006005828154811061239657fe5b6000918252602090912001546005546001600160a01b03909116915060001981018314156123f05760058054806123c957fe5b600082815260209020810160001990810180546001600160a01b0319169055019055612482565b6005600182038154811061240057fe5b600091825260209091200154600580546001600160a01b03909216918590811061242657fe5b9060005260206000200160006101000a8154816001600160a01b0302191690836001600160a01b03160217905550600580548061245f57fe5b600082815260209020810160001990810180546001600160a01b03191690550190555b600054604051631e8f85cf60e21b81526001600160a01b0390911690637a3e173c906124b390600590600401614215565b600060405180830381600087803b1580156124cd57600080fd5b505af11580156124e1573d6000803e3d6000fd5b505060008054604051635b3fa43360e11b81526001600160a01b03909116935063b67f486692506125169186916004016141bb565b600060405180830381600087803b15801561253057600080fd5b505af1158015612544573d6000803e3d6000fd5b505050507f2d9464f7dd09f576b3463991f3c9523a2ca7de6422d0ceb3b2548c3b785b755960008054906101000a90046001600160a01b03166001600160a01b0316632f73a94f8f6040518263ffffffff1660e01b81526004016125a891906142c9565b60206040518083038186803b1580156125c057600080fd5b505afa1580156125d4573d6000803e3d6000fd5b505050506040513d601f19601f820116820180604052508101906125f89190613e4d565b60405161260591906141a7565b60405180910390a150505050613667565b604080518082019091526015815274616c7465725f6d61696e5f706f6f6c5f707269636560581b6020918201528951908a01207f196b5e64207ae38d7cf12d5a9f80210be0c0127de94f3c1c1bb3c7a1ad2e6e2a1415612800576000546040516370925c3560e11b81526001600160a01b03909116906352b79fbb90670de0b6b3a764000090839063e124b86a906126b2908f906004016142c9565b60206040518083038186803b1580156126ca57600080fd5b505afa1580156126de573d6000803e3d6000fd5b505050506040513d601f19601f820116820180604052508101906127029190614009565b026040518263ffffffff1660e01b815260040161271f9190614727565b600060405180830381600087803b15801561273957600080fd5b505af115801561274d573d6000803e3d6000fd5b50506000546040516370925c3560e11b81527fa2d47ee3b232ba79f13d1b9d02e36296747f6e5464d10618b564fe27cb65d3cc93506001600160a01b03909116915063e124b86a906127a3908d906004016142c9565b60206040518083038186803b1580156127bb57600080fd5b505afa1580156127cf573d6000803e3d6000fd5b505050506040513d601f19601f820116820180604052508101906127f39190614009565b60405161219a9190614727565b604080518082019091526014815273616c7465725f6d61696e5f706f6f6c5f73697a6560601b6020918201528951908a01207f0942b0235ba5d27cb77e91ef9fd81696ff66e99c74efc4ef7f723e0cebdec42b1415612981576000546040516370925c3560e11b81526001600160a01b039091169063a758023b90829063e124b86a90612891908e906004016142c9565b60206040518083038186803b1580156128a957600080fd5b505afa1580156128bd573d6000803e3d6000fd5b505050506040513d601f19601f820116820180604052508101906128e19190614009565b6040518263ffffffff1660e01b81526004016128fd9190614727565b600060405180830381600087803b15801561291757600080fd5b505af115801561292b573d6000803e3d6000fd5b50506000546040516370925c3560e11b81527f7ba8c21b5aa33368aa7a28375b678116081c8430095b3001ee523c44ef0d84f793506001600160a01b03909116915063e124b86a906127a3908d906004016142c9565b60408051808201909152600f81526e185b1d195c97da1bdd5cd957d8dd5d608a1b6020918201528951908a01207f8227f9c81996570661d4efffba1595c79a52330f3fcc6285320b8f29f23d5f4f1415612afd576000546040516370925c3560e11b81526001600160a01b039091169063ea99117590829063e124b86a90612a0d908e906004016142c9565b60206040518083038186803b158015612a2557600080fd5b505afa158015612a39573d6000803e3d6000fd5b505050506040513d601f19601f82011682018060405250810190612a5d9190614009565b6040518263ffffffff1660e01b8152600401612a799190614727565b600060405180830381600087803b158015612a9357600080fd5b505af1158015612aa7573d6000803e3d6000fd5b50506000546040516370925c3560e11b81527f83dfc73b61bd22c410bd87d5b255b1c56cd979358d2ba7e6dd4baf1dca7d212d93506001600160a01b03909116915063e124b86a906127a3908d906004016142c9565b604080518082019091526016815275616c7465725f686f7573655f6375745f746f6b656e7360501b6020918201528951908a01207f2d3030f07f0a90dec7ab1877dbd98007306ce6ba4b2b43c374c6d0d1980400551415612c80576000546040516370925c3560e11b81526001600160a01b039091169063496ec48b90829063e124b86a90612b90908e906004016142c9565b60206040518083038186803b158015612ba857600080fd5b505afa158015612bbc573d6000803e3d6000fd5b505050506040513d601f19601f82011682018060405250810190612be09190614009565b6040518263ffffffff1660e01b8152600401612bfc9190614727565b600060405180830381600087803b158015612c1657600080fd5b505af1158015612c2a573d6000803e3d6000fd5b50506000546040516370925c3560e11b81527f6f0a96c86f431a6875229c3e2aeabebfe6c14f4ce93ad4fe22855b73f0d7f36693506001600160a01b03909116915063e124b86a906127a3908d906004016142c9565b60408051808201909152600f81526e616c7465725f6d696e5f707269636560881b6020918201528951908a01207f464323d588378f6cefad26fe934e38fcbace0e080eecc10fd7bdbb4d45b8fde81415612e07576000546040516370925c3560e11b81526001600160a01b039091169063d211315090670de0b6b3a764000090839063e124b86a90612d16908f906004016142c9565b60206040518083038186803b158015612d2e57600080fd5b505afa158015612d42573d6000803e3d6000fd5b505050506040513d601f19601f82011682018060405250810190612d669190614009565b026040518263ffffffff1660e01b8152600401612d839190614727565b600060405180830381600087803b158015612d9d57600080fd5b505af1158015612db1573d6000803e3d6000fd5b50506000546040516370925c3560e11b81527f987c749eb39f5b368e214422ba14eae023327542dd5e9f1de7a66c0e7695dc6393506001600160a01b03909116915063e124b86a906127a3908d906004016142c9565b60408051808201909152600e81526d616c7465725f6d696e5f73697a6560901b6020918201528951908a01207f7e2b58d3e83d88154e07165a17e5a021a048757afdca55d7835ce7c9fe73f0b41415612f82576000546040516370925c3560e11b81526001600160a01b039091169063fbea6b8b90829063e124b86a90612e92908e906004016142c9565b60206040518083038186803b158015612eaa57600080fd5b505afa158015612ebe573d6000803e3d6000fd5b505050506040513d601f19601f82011682018060405250810190612ee29190614009565b6040518263ffffffff1660e01b8152600401612efe9190614727565b600060405180830381600087803b158015612f1857600080fd5b505af1158015612f2c573d6000803e3d6000fd5b50506000546040516370925c3560e11b81527ff0d65f4e04e67de6178ec59320a74c6a98d68a3c481c8ee20781fcd0c9b4a4db93506001600160a01b03909116915063e124b86a906127a3908d906004016142c9565b60408051808201909152600e81526d616c7465725f6d61785f73697a6560901b6020918201528951908a01207fd96688e081841742f577ac2e7b7dd24b06ac82387bf276310f801ecbb10b9cc514156130fd576000546040516370925c3560e11b81526001600160a01b039091169063bd1b2d2e90829063e124b86a9061300d908e906004016142c9565b60206040518083038186803b15801561302557600080fd5b505afa158015613039573d6000803e3d6000fd5b505050506040513d601f19601f8201168201806040525081019061305d9190614009565b6040518263ffffffff1660e01b81526004016130799190614727565b600060405180830381600087803b15801561309357600080fd5b505af11580156130a7573d6000803e3d6000fd5b50506000546040516370925c3560e11b81527f7790b78d3f3db987c662c58ac83f25dcbf7d923e63bd22524145525c2d4d20d193506001600160a01b03909116915063e124b86a906127a3908d906004016142c9565b604080518082019091526014815273616c7465725f6d696e5f676f765f67726f74746f60601b6020918201528951908a01207f8671c59c40bf6f5af4bc5e10423b68f7c399490af0dece95fec5dc0b9e5672511415613289576000546040516370925c3560e11b81526001600160a01b03909116906381ecd27a90670de0b6b3a764000090839063e124b86a90613198908f906004016142c9565b60206040518083038186803b1580156131b057600080fd5b505afa1580156131c4573d6000803e3d6000fd5b505050506040513d601f19601f820116820180604052508101906131e89190614009565b026040518263ffffffff1660e01b81526004016132059190614727565b600060405180830381600087803b15801561321f57600080fd5b505af1158015613233573d6000803e3d6000fd5b50506000546040516370925c3560e11b81527fee3144816c8f5dea27f2bbf70e0ea4f675d2bb9da6f0ebde8b6477d7340b9b3393506001600160a01b03909116915063e124b86a906127a3908d906004016142c9565b604080518082019091526016815275616c7465725f6d696e5f76616c75655f73686172657360501b6020918201528951908a01207ff05ff82a74de3146fcd847384a6156290775e620b95f4cd9c6f8ccec89df006e1415613417576000546040516370925c3560e11b81526001600160a01b03909116906371c25f9190670de0b6b3a764000090839063e124b86a90613326908f906004016142c9565b60206040518083038186803b15801561333e57600080fd5b505afa158015613352573d6000803e3d6000fd5b505050506040513d601f19601f820116820180604052508101906133769190614009565b026040518263ffffffff1660e01b81526004016133939190614727565b600060405180830381600087803b1580156133ad57600080fd5b505af11580156133c1573d6000803e3d6000fd5b50506000546040516370925c3560e11b81527f34dd42339223f9c70b04b90efa6439faf563e816bbce5aedaed964ce0a40c02993506001600160a01b03909116915063e124b86a906127a3908d906004016142c9565b604080518082019091526016815275616c7465725f686f7573655f6375745f73686172657360501b6020918201528951908a01207f86cf7bbebdf86e52dde3ff1fbbb578d18aa85368b242ea74d713182f1072da4414156136675760008060008060009054906101000a90046001600160a01b03166001600160a01b0316632974a06e6040518163ffffffff1660e01b815260040160606040518083038186803b1580156134c457600080fd5b505afa1580156134d8573d6000803e3d6000fd5b505050506040513d601f19601f820116820180604052508101906134fc9190614096565b600054604051630c75bf5d60e01b815293965091945092506001600160a01b031690630c75bf5d90613532908690600401614727565b600060405180830381600087803b15801561354c57600080fd5b505af1158015613560573d6000803e3d6000fd5b50506000546040516373cf71c160e11b81526001600160a01b03909116925063e79ee3829150613594908490600401614727565b600060405180830381600087803b1580156135ae57600080fd5b505af11580156135c2573d6000803e3d6000fd5b505060005460405163c665de8b60e01b81526001600160a01b03909116925063c665de8b91506135f6908590600401614727565b600060405180830381600087803b15801561361057600080fd5b505af1158015613624573d6000803e3d6000fd5b505050507f1f7abe51c39b33f29fe0af45d6c928f3311156877b6940dda580d5b3ebbb547d83838360405161365b93929190614730565b60405180910390a15050505b6136a4565b7fff0c776a5fd7e993e16093294b93f713d3feaa3645224bae480d0def247077a28960405161369b91906142c9565b60405180910390a15b6136ad89613847565b5050505050610c00565b60405162461bcd60e51b81526004016103c69061450f565b6000828201838110156136f45760405162461bcd60e51b81526004016103c690614411565b9392505050565b6000805460405163878af33560e01b81526060916001600160a01b03169063878af3359061372d9086906004016142c9565b60006040518083038186803b15801561374557600080fd5b505afa158015613759573d6000803e3d6000fd5b505050506040513d6000823e601f3d908101601f191682016040526137819190810190613e69565b905060005b815181101561383d5760005482516001600160a01b039091169063c2136d58908490849081106137b257fe5b60200260200101516040518263ffffffff1660e01b81526004016137d691906141a7565b60206040518083038186803b1580156137ee57600080fd5b505afa158015613802573d6000803e3d6000fd5b505050506040513d601f19601f820116820180604052508101906138269190613f11565b613835576001925050506110a2565b600101613786565b5060009392505050565b6000805460405163e56de7c160e01b81526001600160a01b039091169163e56de7c19161387891859160040161438b565b600060405180830381600087803b15801561389257600080fd5b505af11580156138a6573d6000803e3d6000fd5b505060005460405163878af33560e01b81526001600160a01b03909116925063878af33591506138da9084906004016142c9565b60006040518083038186803b1580156138f257600080fd5b505afa158015613906573d6000803e3d6000fd5b505050506040513d6000823e601f3d908101601f1916820160405261392e9190810190613e69565b805161394291600491602090910190613d65565b5060045460005b818110156139e05760006004828154811061396057fe5b600091825260208220015481546040516383935b3d60e01b81526001600160a01b0392831694509116916383935b3d916139a1918891869190600401614306565b600060405180830381600087803b1580156139bb57600080fd5b505af11580156139cf573d6000803e3d6000fd5b505060019093019250613949915050565b50600054604051637d5ff84760e11b81526060916001600160a01b03169063fabff08e90613a149086908590600401614339565b600060405180830381600087803b158015613a2e57600080fd5b505af1158015613a42573d6000803e3d6000fd5b505060008054604051635a37203f60e11b81526001600160a01b03909116935063b46e407e9250613a7791879160040161438b565b600060405180830381600087803b158015613a9157600080fd5b505af1158015613aa5573d6000803e3d6000fd5b50506000805460405163bb3ab55760e01b81526001600160a01b03909116935063bb3ab5579250613ada91879160040161438b565b600060405180830381600087803b158015613af457600080fd5b505af1158015613b08573d6000803e3d6000fd5b505060008054604051631fe70f0560e21b81526001600160a01b039091169350637f9c3c149250613b3d918791600401614367565b600060405180830381600087803b158015613b5757600080fd5b505af1158015613b6b573d6000803e3d6000fd5b505060408051808201909152601081526f30b2322fb732bbafb3b7bb32b93737b960811b6020918201528551908601207f7c64a97697d6fd1a3c36cd0f89c12647b7e3fb1ce5ffd2b48d456f724ed869e6149150819050613c17575060408051808201909152600f81526e3932b6b7bb32afb3b7bb32b93737b960891b6020918201528351908401207f04e49d8b1fd8837abeba585912ed5e4baf9afab856352e8d561ec583ec3e07c9145b15613c84576000805460405163b06f8f8160e01b81526001600160a01b039091169163b06f8f8191613c4d9187916004016142dc565b600060405180830381600087803b158015613c6757600080fd5b505af1158015613c7b573d6000803e3d6000fd5b50505050613ce3565b60008054604051633335686560e11b81526001600160a01b039091169163666ad0ca91613cb591879160040161438b565b600060405180830381600087803b158015613ccf57600080fd5b505af11580156116b5573d6000803e3d6000fd5b505050565b60405180610120016040528060608152602001600015158152602001606081526020016000815260200160008152602001600081526020016000815260200160006001600160a01b03168152602001613d3f613d44565b905290565b60405180606001604052806000815260200160008152602001600081525090565b828054828255906000526020600020908101928215613dba579160200282015b82811115613dba57825182546001600160a01b0319166001600160a01b03909116178255602090920191600190910190613d85565b50613dc6929150613dca565b5090565b5b80821115613dc65760008155600101613dcb565b80516110a28161476a565b60008083601f840112613dfb578182fd5b50813567ffffffffffffffff811115613e12578182fd5b602083019150836020828501011115613e2a57600080fd5b9250929050565b600060208284031215613e42578081fd5b81356136f48161476a565b600060208284031215613e5e578081fd5b81516136f48161476a565b60006020808385031215613e7b578182fd5b825167ffffffffffffffff80821115613e92578384fd5b818501915085601f830112613ea5578384fd5b815181811115613eb157fe5b8381029150613ec1848301614746565b8181528481019084860184860187018a1015613edb578788fd5b8795505b83861015613f0457613ef081613ddf565b835260019590950194918601918601613edf565b5098975050505050505050565b600060208284031215613f22578081fd5b81516136f481614782565b600080600060408486031215613f41578182fd5b833567ffffffffffffffff811115613f57578283fd5b613f6386828701613dea565b9094509250506020840135613f7781614782565b809150509250925092565b60006020808385031215613f94578182fd5b823567ffffffffffffffff80821115613fab578384fd5b818501915085601f830112613fbe578384fd5b813581811115613fca57fe5b613fdc601f8201601f19168501614746565b91508082528684828501011115613ff1578485fd5b80848401858401378101909201929092529392505050565b60006020828403121561401a578081fd5b5051919050565b600080600060408486031215614035578283fd5b83359250602084013567ffffffffffffffff811115614052578283fd5b61405e86828701613dea565b9497909650939450505050565b60008060006060848603121561407f578283fd5b505081359360208301359350604090920135919050565b6000806000606084860312156140aa578283fd5b8351925060208401519150604084015190509250925092565b6001600160a01b03169052565b6000815180845260208085019450808401835b838110156141085781516001600160a01b0316875295820195908201906001016140e3565b509495945050505050565b15159052565b60008284528282602086013780602084860101526020601f19601f85011685010190509392505050565b60008151808452815b818110156141685760208185018101518683018201520161414c565b818111156141795782602083870101525b50601f01601f19169290920160200192915050565b8051825260208082015190830152604090810151910152565b6001600160a01b0391909116815260200190565b6001600160a01b039290921682521515602082015260400190565b6001600160a01b03831681526040602082018190526000906141fa90830184614143565b949350505050565b6000602082526136f460208301846140d0565b6020808252825482820181905260008481528281209092916040850190845b818110156142595783546001600160a01b031683526001938401939285019201614234565b50909695505050505050565b6000602082526141fa602083018486614119565b60006040825261428d604083018587614119565b905060018060a01b0383166020830152949350505050565b6000604082526142b9604083018587614119565b9050826020830152949350505050565b6000602082526136f46020830184614143565b6000604082526142ef6040830185614143565b905060018060a01b03831660208301529392505050565b6000606082526143196060830186614143565b6001600160a01b0394909416602083015250901515604090910152919050565b60006040825261434c6040830185614143565b828103602084015261435e81856140d0565b95945050505050565b60006040825261437a6040830185614143565b905082151560208301529392505050565b60006040825261439e6040830185614143565b90508260208301529392505050565b60208082526013908201527233b7bb32b93737b9103737ba103337bab7321760691b604082015260600190565b6020808252601f908201527f536861726573206e6f742070726f7065726c7920646973747269627574656400604082015260600190565b6020808252601b908201527f536166654d6174683a206164646974696f6e206f766572666c6f770000000000604082015260600190565b6020808252600d908201526c105b1c9958591e481d9bdd1959609a1b604082015260600190565b60208082526037908201527f596f752063616e206e6f7420616464206d6f726520676f7665726e6f72732e2060408201527f52656d6f7665206120676f7665726e6f72206669727374000000000000000000606082015260800190565b60208082526023908201527f5468657265206d757374206265206174206c6561737420313120676f7665726e6040820152626f727360e81b606082015260800190565b6020808252600f908201526e4e6f7420696e2070726f677265737360881b604082015260600190565b60208082526027908201527f54686572652063616e206e6f74206265206d6f7265207468616e20323120676f6040820152667665726e6f727360c81b606082015260800190565b60208082526012908201527120b63932b0b23c90309033b7bb32b93737b960711b604082015260600190565b60208082526028908201527f4e657720476f7665726e6f7220646f6573206e6f74206861766520656e6f7567604082015267682047524f54544f60c01b606082015260800190565b6020808252600e908201526d2737ba10309033b7bb32b93737b960911b604082015260600190565b6020808252601b908201527f4f6e6c79206120676f7665726e6f722063616e20646f20746861740000000000604082015260600190565b602080825260139082015272416c726561647920496e2050726f677265737360681b604082015260600190565b6000602082528251610160602084015261469d610180840182614143565b905060208401516146b16040850182614113565b506040840151838203601f190160608501526146cd82826140d0565b91505060608401516080840152608084015160a084015260a084015160c084015260c084015160e084015260e084015161010061470c818601836140c3565b850151905061471f61012085018261418e565b509392505050565b90815260200190565b9283526020830191909152604082015260600190565b60405181810167ffffffffffffffff8111828210171561476257fe5b604052919050565b6001600160a01b038116811461477f57600080fd5b50565b801515811461477f57600080fdfea26469706673582212204faac4bf9a2e512e31d35d5eb716e250273b0aa06b6b9eab6eeea74604c0345564736f6c63430007030033",
  "linkReferences": {},
  "deployedLinkReferences": {}
}