{
  "_format": "hh-sol-artifact-1",
  "contractName": "Governance",
  "sourceName": "contracts/Governance.sol",
  "abi": [
    {
      "inputs": [],
      "stateMutability": "nonpayable",
      "type": "constructor"
    },
    {
      "anonymous": false,
      "inputs": [
        {
          "indexed": false,
          "internalType": "address",
          "name": "",
          "type": "address"
        }
      ],
      "name": "GOVERNOR_REMOVED",
      "type": "event"
    },
    {
      "anonymous": false,
      "inputs": [
        {
          "indexed": false,
          "internalType": "uint256",
          "name": "",
          "type": "uint256"
        }
      ],
      "name": "HOUSE_CUT_CHANGED",
      "type": "event"
    },
    {
      "anonymous": false,
      "inputs": [
        {
          "indexed": false,
          "internalType": "uint256",
          "name": "",
          "type": "uint256"
        }
      ],
      "name": "HOUSE_CUT_NEW_TOKENS_CHANGED",
      "type": "event"
    },
    {
      "anonymous": false,
      "inputs": [
        {
          "indexed": false,
          "internalType": "uint256",
          "name": "",
          "type": "uint256"
        }
      ],
      "name": "MAIN_POOL_PRICE_CHANGED",
      "type": "event"
    },
    {
      "anonymous": false,
      "inputs": [
        {
          "indexed": false,
          "internalType": "uint256",
          "name": "",
          "type": "uint256"
        }
      ],
      "name": "MAIN_POOL_SIZE_CHANGED",
      "type": "event"
    },
    {
      "anonymous": false,
      "inputs": [
        {
          "indexed": false,
          "internalType": "uint256",
          "name": "",
          "type": "uint256"
        }
      ],
      "name": "MAXIMUM_POOL_SIZE_CHANGED",
      "type": "event"
    },
    {
      "anonymous": false,
      "inputs": [
        {
          "indexed": false,
          "internalType": "uint256",
          "name": "",
          "type": "uint256"
        }
      ],
      "name": "MINIMUM_POOL_PRICE_CHANGED",
      "type": "event"
    },
    {
      "anonymous": false,
      "inputs": [
        {
          "indexed": false,
          "internalType": "uint256",
          "name": "",
          "type": "uint256"
        }
      ],
      "name": "MINIMUM_POOL_SIZE_CHANGED",
      "type": "event"
    },
    {
      "anonymous": false,
      "inputs": [
        {
          "indexed": false,
          "internalType": "uint256",
          "name": "",
          "type": "uint256"
        }
      ],
      "name": "MIN_GROTTO_GOV_CHANGED",
      "type": "event"
    },
    {
      "anonymous": false,
      "inputs": [
        {
          "indexed": false,
          "internalType": "address",
          "name": "",
          "type": "address"
        }
      ],
      "name": "NEW_GOVERNOR_ADDED",
      "type": "event"
    },
    {
      "anonymous": false,
      "inputs": [
        {
          "indexed": false,
          "internalType": "string",
          "name": "",
          "type": "string"
        }
      ],
      "name": "NEW_PROPOSAL",
      "type": "event"
    },
    {
      "anonymous": false,
      "inputs": [
        {
          "indexed": false,
          "internalType": "string",
          "name": "",
          "type": "string"
        }
      ],
      "name": "NO_CONSENSUS",
      "type": "event"
    },
    {
      "anonymous": false,
      "inputs": [
        {
          "indexed": false,
          "internalType": "address",
          "name": "",
          "type": "address"
        },
        {
          "indexed": false,
          "internalType": "string",
          "name": "",
          "type": "string"
        }
      ],
      "name": "VOTE_CASTED",
      "type": "event"
    },
    {
      "inputs": [],
      "name": "getGovernors",
      "outputs": [
        {
          "internalType": "address[]",
          "name": "",
          "type": "address[]"
        }
      ],
      "stateMutability": "view",
      "type": "function"
    },
    {
      "inputs": [],
      "name": "getHouseCut",
      "outputs": [
        {
          "internalType": "uint256",
          "name": "",
          "type": "uint256"
        }
      ],
      "stateMutability": "view",
      "type": "function"
    },
    {
      "inputs": [],
      "name": "getHouseCutNewTokens",
      "outputs": [
        {
          "internalType": "uint256",
          "name": "",
          "type": "uint256"
        }
      ],
      "stateMutability": "view",
      "type": "function"
    },
    {
      "inputs": [],
      "name": "getHouseCutShares",
      "outputs": [
        {
          "internalType": "uint256",
          "name": "",
          "type": "uint256"
        },
        {
          "internalType": "uint256",
          "name": "",
          "type": "uint256"
        },
        {
          "internalType": "uint256",
          "name": "",
          "type": "uint256"
        }
      ],
      "stateMutability": "view",
      "type": "function"
    },
    {
      "inputs": [],
      "name": "getMainPoolPrice",
      "outputs": [
        {
          "internalType": "uint256",
          "name": "",
          "type": "uint256"
        }
      ],
      "stateMutability": "view",
      "type": "function"
    },
    {
      "inputs": [],
      "name": "getMainPoolSize",
      "outputs": [
        {
          "internalType": "uint256",
          "name": "",
          "type": "uint256"
        }
      ],
      "stateMutability": "view",
      "type": "function"
    },
    {
      "inputs": [],
      "name": "getMaximumPoolSize",
      "outputs": [
        {
          "internalType": "uint256",
          "name": "",
          "type": "uint256"
        }
      ],
      "stateMutability": "view",
      "type": "function"
    },
    {
      "inputs": [],
      "name": "getMinGrottoGovernor",
      "outputs": [
        {
          "internalType": "uint256",
          "name": "",
          "type": "uint256"
        }
      ],
      "stateMutability": "view",
      "type": "function"
    },
    {
      "inputs": [],
      "name": "getMinimumPoolPrice",
      "outputs": [
        {
          "internalType": "uint256",
          "name": "",
          "type": "uint256"
        }
      ],
      "stateMutability": "view",
      "type": "function"
    },
    {
      "inputs": [],
      "name": "getMinimumPoolSize",
      "outputs": [
        {
          "internalType": "uint256",
          "name": "",
          "type": "uint256"
        }
      ],
      "stateMutability": "view",
      "type": "function"
    },
    {
      "inputs": [
        {
          "internalType": "address",
          "name": "governor",
          "type": "address"
        }
      ],
      "name": "isGovernor",
      "outputs": [
        {
          "internalType": "bool",
          "name": "",
          "type": "bool"
        }
      ],
      "stateMutability": "view",
      "type": "function"
    },
    {
      "inputs": [
        {
          "internalType": "address",
          "name": "newGovernor",
          "type": "address"
        }
      ],
      "name": "proposeNewGovernor",
      "outputs": [],
      "stateMutability": "nonpayable",
      "type": "function"
    },
    {
      "inputs": [
        {
          "internalType": "uint256",
          "name": "houseShare",
          "type": "uint256"
        },
        {
          "internalType": "uint256",
          "name": "govsShare",
          "type": "uint256"
        },
        {
          "internalType": "uint256",
          "name": "stakersShare",
          "type": "uint256"
        },
        {
          "internalType": "string",
          "name": "voteId",
          "type": "string"
        }
      ],
      "name": "proposeNewShares",
      "outputs": [],
      "stateMutability": "nonpayable",
      "type": "function"
    },
    {
      "inputs": [
        {
          "internalType": "uint256",
          "name": "value",
          "type": "uint256"
        },
        {
          "internalType": "string",
          "name": "voteId",
          "type": "string"
        }
      ],
      "name": "proposeNewValue",
      "outputs": [],
      "stateMutability": "nonpayable",
      "type": "function"
    },
    {
      "inputs": [
        {
          "internalType": "address",
          "name": "oldGovernor",
          "type": "address"
        }
      ],
      "name": "proposeRemoveGovernor",
      "outputs": [],
      "stateMutability": "nonpayable",
      "type": "function"
    },
    {
      "inputs": [
        {
          "internalType": "address",
          "name": "newAddress",
          "type": "address"
        }
      ],
      "name": "updateGov",
      "outputs": [],
      "stateMutability": "nonpayable",
      "type": "function"
    },
    {
      "inputs": [
        {
          "internalType": "string",
          "name": "voteId",
          "type": "string"
        },
        {
          "internalType": "bool",
          "name": "yesVote",
          "type": "bool"
        }
      ],
      "name": "vote",
      "outputs": [],
      "stateMutability": "nonpayable",
      "type": "function"
    },
    {
      "inputs": [
        {
          "internalType": "string",
          "name": "voteId",
          "type": "string"
        }
      ],
      "name": "votingDetails",
      "outputs": [
        {
          "components": [
            {
              "internalType": "string",
              "name": "voteId",
              "type": "string"
            },
            {
              "internalType": "bool",
              "name": "inProgress",
              "type": "bool"
            },
            {
              "internalType": "address[]",
              "name": "voters",
              "type": "address[]"
            },
            {
              "internalType": "uint256",
              "name": "yesVotes",
              "type": "uint256"
            },
            {
              "internalType": "uint256",
              "name": "noVotes",
              "type": "uint256"
            },
            {
              "internalType": "uint256",
              "name": "votes",
              "type": "uint256"
            },
            {
              "internalType": "uint256",
              "name": "proposedValue",
              "type": "uint256"
            },
            {
              "internalType": "address",
              "name": "proposedGovernor",
              "type": "address"
            },
            {
              "components": [
                {
                  "internalType": "uint256",
                  "name": "house",
                  "type": "uint256"
                },
                {
                  "internalType": "uint256",
                  "name": "govs",
                  "type": "uint256"
                },
                {
                  "internalType": "uint256",
                  "name": "stakers",
                  "type": "uint256"
                }
              ],
              "internalType": "struct Data.ProposedShare",
              "name": "proposedShare",
              "type": "tuple"
            }
          ],
          "internalType": "struct Data.Vote",
          "name": "",
          "type": "tuple"
        }
      ],
      "stateMutability": "view",
      "type": "function"
    }
  ],
  "bytecode": "0x6080604052600180546001600160a01b0319908116738cdbd3a5d46c2f7563ccfd89433190fb7c9b07c0179091556002805490911673da5f6bd1b08acc46a91f4fed97958f6e3aee00161790553480156200005957600080fd5b50600154600080546001600160a01b0319166001600160a01b0392831617908190556040516303c4a25d60e41b8152911690633c4a25d090620000b59073c04915f6b3ff85b50a863eb1fcbf36817153941390600401620002fa565b600060405180830381600087803b158015620000d057600080fd5b505af1158015620000e5573d6000803e3d6000fd5b50506000546040516303c4a25d60e41b81526001600160a01b039091169250633c4a25d091506200012f9073b58c226a300ff6dc1ef762d62c536c7aed5cea7490600401620002fa565b600060405180830381600087803b1580156200014a57600080fd5b505af11580156200015f573d6000803e3d6000fd5b50506000546040516303c4a25d60e41b81526001600160a01b039091169250633c4a25d09150620001a99073b6d80f6d661927afef42f39e52d630e250696bc490600401620002fa565b600060405180830381600087803b158015620001c457600080fd5b505af1158015620001d9573d6000803e3d6000fd5b50506000546040516303c4a25d60e41b81526001600160a01b039091169250633c4a25d091506200022390736b33d96c8353d03433034171433b0bd9bdafac8b90600401620002fa565b600060405180830381600087803b1580156200023e57600080fd5b505af115801562000253573d6000803e3d6000fd5b50506000546040516303c4a25d60e41b81526001600160a01b039091169250633c4a25d091506200029d90730a0c8e469fef425ef7c6e9754dc563f9bba588f090600401620002fa565b600060405180830381600087803b158015620002b857600080fd5b505af1158015620002cd573d6000803e3d6000fd5b5050600254600380546001600160a01b0319166001600160a01b03909216919091179055506200030e9050565b6001600160a01b0391909116815260200190565b614225806200031e6000396000f3fe608060405234801561001057600080fd5b50600436106101165760003560e01c806375336ae6116100a2578063e43581b811610071578063e43581b8146101f9578063f417bd9c14610219578063f80b535214610221578063fd7f825314610236578063ffa053da1461023e57610116565b806375336ae6146101d957806381014bbe146101e1578063d8692395146101e9578063e0a11c20146101f157610116565b806326904efd116100e957806326904efd1461017857806327d3410c1461018b5780632880c4731461019e5780632c0797ef146101be5780636a329ce4146101c657610116565b806305868b261461011b5780630b33ba7a146101395780631f9244d61461014e57806322f3752714610161575b600080fd5b610123610251565b6040516101309190614186565b60405180910390f35b61014c6101473660046138f8565b6102dd565b005b61014c61015c366004613ae8565b6103a4565b61016961051c565b6040516101309392919061418f565b61014c6101863660046138f8565b6105b1565b61014c6101993660046139f4565b6108fa565b6101b16101ac366004613a49565b610a0a565b60405161013091906140de565b610123610eab565b61014c6101d43660046138f8565b610efa565b61012361107b565b6101236110ca565b610123611119565b610123611168565b61020c6102073660046138f8565b6111b7565b6040516101309190613d45565b6101236113a4565b6102296113f3565b6040516101309190613ce2565b610123611473565b61014c61024c366004613b5f565b6114c2565b60008060009054906101000a90046001600160a01b03166001600160a01b03166305868b266040518163ffffffff1660e01b815260040160206040518083038186803b1580156102a057600080fd5b505afa1580156102b4573d6000803e3d6000fd5b505050506040513d601f19601f820116820180604052508101906102d89190613ad0565b905090565b6000546040516367d6abd160e11b81526001600160a01b039091169063cfad57a29061030d908490600401613ca2565b600060405180830381600087803b15801561032757600080fd5b505af115801561033b573d6000803e3d6000fd5b5050600354604051631637a58360e01b81526001600160a01b039091169250631637a583915061036f908490600401613ca2565b600060405180830381600087803b15801561038957600080fd5b505af115801561039d573d6000803e3d6000fd5b5050505050565b336103ae816111b7565b6103d35760405162461bcd60e51b81526004016103ca90614045565b60405180910390fd5b60008054604051622176b560e91b81526001600160a01b03909116906342ed6a00906104059087908790600401613d50565b60206040518083038186803b15801561041d57600080fd5b505afa158015610431573d6000803e3d6000fd5b505050506040513d601f19601f8201168201806040525081019061045591906139d8565b905080156104755760405162461bcd60e51b81526004016103ca906140b1565b600054604051633335686560e11b81526001600160a01b039091169063666ad0ca906104a990879087908a90600401613d90565b600060405180830381600087803b1580156104c357600080fd5b505af11580156104d7573d6000803e3d6000fd5b5050505061039d84848080601f01602080910402602001604051908101604052809392919081815260200183838082843760009201919091525086925061166d915050565b60008060008060009054906101000a90046001600160a01b03166001600160a01b03166322f375276040518163ffffffff1660e01b815260040160606040518083038186803b15801561056e57600080fd5b505afa158015610582573d6000803e3d6000fd5b505050506040513d601f19601f820116820180604052508101906105a69190613b32565b925092509250909192565b336105bb816111b7565b6105d75760405162461bcd60e51b81526004016103ca90614045565b6105e0826111b7565b156105fd5760405162461bcd60e51b81526004016103ca90613fa9565b60008054906101000a90046001600160a01b03166001600160a01b03166375336ae66040518163ffffffff1660e01b815260040160206040518083038186803b15801561064957600080fd5b505afa15801561065d573d6000803e3d6000fd5b505050506040513d601f19601f820116820180604052508101906106819190613ad0565b6003546040516370a0823160e01b81526001600160a01b03909116906370a08231906106b1908690600401613ca2565b60206040518083038186803b1580156106c957600080fd5b505afa1580156106dd573d6000803e3d6000fd5b505050506040513d601f19601f820116820180604052508101906107019190613ad0565b101561071f5760405162461bcd60e51b81526004016103ca90613fd5565b6000805460408051637c05a9a960e11b815290516060936001600160a01b039093169263f80b53529260048082019391829003018186803b15801561076357600080fd5b505afa158015610777573d6000803e3d6000fd5b505050506040513d6000823e601f3d908101601f1916820160405261079f9190810190613930565b90506015815111156107c35760405162461bcd60e51b81526004016103ca90613f23565b604080518082018252601081526f30b2322fb732bbafb3b7bb32b93737b960811b6020820152600080549251622176b560e91b8152919290916001600160a01b03909116906342ed6a009061081c908590600401613db4565b60206040518083038186803b15801561083457600080fd5b505afa158015610848573d6000803e3d6000fd5b505050506040513d601f19601f8201168201806040525081019061086c91906139d8565b9050801561088c5760405162461bcd60e51b81526004016103ca906140b1565b60005460405163b06f8f8160e01b81526001600160a01b039091169063b06f8f81906108be9085908990600401613dc7565b600060405180830381600087803b1580156108d857600080fd5b505af11580156108ec573d6000803e3d6000fd5b5050505061039d828561166d565b33610904816111b7565b6109205760405162461bcd60e51b81526004016103ca90614045565b600054604051634b3e33eb60e01b81526001600160a01b0390911690634b3e33eb9061095490879087908690600401613d64565b60206040518083038186803b15801561096c57600080fd5b505afa158015610980573d6000803e3d6000fd5b505050506040513d601f19601f820116820180604052508101906109a491906139d8565b156109c15760405162461bcd60e51b81526004016103ca90613efc565b610a0484848080601f0160208091040260200160405190810160405280939291908181526020018383808284376000920191909152508592508691506117199050565b50505050565b610a126137af565b60008060008060009054906101000a90046001600160a01b03166001600160a01b0316632974a06e6040518163ffffffff1660e01b815260040160606040518083038186803b158015610a6457600080fd5b505afa158015610a78573d6000803e3d6000fd5b505050506040513d601f19601f82011682018060405250810190610a9c9190613b32565b925092509250610aaa61380b565b506040805160608101825284815260208082018590528183018490528251610120810184528881526000549351622176b560e91b815292939092918301916001600160a01b03909116906342ed6a0090610b08908b90600401613db4565b60206040518083038186803b158015610b2057600080fd5b505afa158015610b34573d6000803e3d6000fd5b505050506040513d601f19601f82011682018060405250810190610b5891906139d8565b1515815260005460405163878af33560e01b81526020909201916001600160a01b039091169063878af33590610b92908b90600401613db4565b60006040518083038186803b158015610baa57600080fd5b505afa158015610bbe573d6000803e3d6000fd5b505050506040513d6000823e601f3d908101601f19168201604052610be69190810190613930565b8152600054604051633ab5356760e21b81526020909201916001600160a01b039091169063ead4d59c90610c1e908b90600401613db4565b60206040518083038186803b158015610c3657600080fd5b505afa158015610c4a573d6000803e3d6000fd5b505050506040513d601f19601f82011682018060405250810190610c6e9190613ad0565b8152600054604051636f37a7eb60e01b81526020909201916001600160a01b0390911690636f37a7eb90610ca6908b90600401613db4565b60206040518083038186803b158015610cbe57600080fd5b505afa158015610cd2573d6000803e3d6000fd5b505050506040513d601f19601f82011682018060405250810190610cf69190613ad0565b815260005460405163805265e560e01b81526020909201916001600160a01b039091169063805265e590610d2e908b90600401613db4565b60206040518083038186803b158015610d4657600080fd5b505afa158015610d5a573d6000803e3d6000fd5b505050506040513d601f19601f82011682018060405250810190610d7e9190613ad0565b81526000546040516370925c3560e11b81526020909201916001600160a01b039091169063e124b86a90610db6908b90600401613db4565b60206040518083038186803b158015610dce57600080fd5b505afa158015610de2573d6000803e3d6000fd5b505050506040513d601f19601f82011682018060405250810190610e069190613ad0565b8152600054604051632f73a94f60e01b81526020909201916001600160a01b0390911690632f73a94f90610e3e908b90600401613db4565b60206040518083038186803b158015610e5657600080fd5b505afa158015610e6a573d6000803e3d6000fd5b505050506040513d601f19601f82011682018060405250810190610e8e9190613914565b6001600160a01b031681526020019190915293505050505b919050565b60008060009054906101000a90046001600160a01b03166001600160a01b0316632c0797ef6040518163ffffffff1660e01b815260040160206040518083038186803b1580156102a057600080fd5b33610f04816111b7565b610f205760405162461bcd60e51b81526004016103ca90614045565b610f29826111b7565b610f455760405162461bcd60e51b81526004016103ca9061401d565b604080518082018252600f81526e3932b6b7bb32afb3b7bb32b93737b960891b6020820152600080549251622176b560e91b8152919290916001600160a01b03909116906342ed6a0090610f9d908590600401613db4565b60206040518083038186803b158015610fb557600080fd5b505afa158015610fc9573d6000803e3d6000fd5b505050506040513d601f19601f82011682018060405250810190610fed91906139d8565b9050801561100d5760405162461bcd60e51b81526004016103ca906140b1565b60005460405163b06f8f8160e01b81526001600160a01b039091169063b06f8f819061103f9085908890600401613dc7565b600060405180830381600087803b15801561105957600080fd5b505af115801561106d573d6000803e3d6000fd5b50505050610a04828461166d565b60008060009054906101000a90046001600160a01b03166001600160a01b03166375336ae66040518163ffffffff1660e01b815260040160206040518083038186803b1580156102a057600080fd5b60008060009054906101000a90046001600160a01b03166001600160a01b03166381014bbe6040518163ffffffff1660e01b815260040160206040518083038186803b1580156102a057600080fd5b60008060009054906101000a90046001600160a01b03166001600160a01b031663d86923956040518163ffffffff1660e01b815260040160206040518083038186803b1580156102a057600080fd5b60008060009054906101000a90046001600160a01b03166001600160a01b031663e0a11c206040518163ffffffff1660e01b815260040160206040518083038186803b1580156102a057600080fd5b6000805460408051637c05a9a960e11b815290516060926001600160a01b03169163f80b53529160048083019287929190829003018186803b1580156111fc57600080fd5b505afa158015611210573d6000803e3d6000fd5b505050506040513d6000823e601f3d908101601f191682016040526112389190810190613930565b905060005b815181101561139a57836001600160a01b031682828151811061125c57fe5b60200260200101516001600160a01b031614156113925760008054906101000a90046001600160a01b03166001600160a01b03166375336ae66040518163ffffffff1660e01b815260040160206040518083038186803b1580156112bf57600080fd5b505afa1580156112d3573d6000803e3d6000fd5b505050506040513d601f19601f820116820180604052508101906112f79190613ad0565b6003546040516370a0823160e01b81526001600160a01b03909116906370a0823190611327908890600401613ca2565b60206040518083038186803b15801561133f57600080fd5b505afa158015611353573d6000803e3d6000fd5b505050506040513d601f19601f820116820180604052508101906113779190613ad0565b1061138757600192505050610ea6565b600092505050610ea6565b60010161123d565b5060009392505050565b60008060009054906101000a90046001600160a01b03166001600160a01b031663f417bd9c6040518163ffffffff1660e01b815260040160206040518083038186803b1580156102a057600080fd5b6000805460408051637c05a9a960e11b815290516060936001600160a01b039093169263f80b53529260048082019391829003018186803b15801561143757600080fd5b505afa15801561144b573d6000803e3d6000fd5b505050506040513d6000823e601f3d908101601f191682016040526102d89190810190613930565b60008060009054906101000a90046001600160a01b03166001600160a01b031663fd7f82536040518163ffffffff1660e01b815260040160206040518083038186803b1580156102a057600080fd5b6114d66114cf858561321b565b869061321b565b6064146114f55760405162461bcd60e51b81526004016103ca9061407c565b336114ff816111b7565b61151b5760405162461bcd60e51b81526004016103ca90614045565b60008054604051622176b560e91b81526001600160a01b03909116906342ed6a009061154d9087908790600401613d50565b60206040518083038186803b15801561156557600080fd5b505afa158015611579573d6000803e3d6000fd5b505050506040513d601f19601f8201168201806040525081019061159d91906139d8565b905080156115bd5760405162461bcd60e51b81526004016103ca906140b1565b6000546040516307659b8d60e51b81526001600160a01b039091169063ecb371a0906115f1908a908a908a9060040161418f565b600060405180830381600087803b15801561160b57600080fd5b505af115801561161f573d6000803e3d6000fd5b5050505061166484848080601f01602080910402602001604051908101604052809392919081815260200183838082843760009201919091525086925061166d915050565b50505050505050565b600054604051631fe70f0560e21b81526001600160a01b0390911690637f9c3c14906116a0908590600190600401613e52565b600060405180830381600087803b1580156116ba57600080fd5b505af11580156116ce573d6000803e3d6000fd5b505050506116de82826001611719565b7ff5346fd029345ac090ffe009531c8b769cf488b789bd5b9b6a51f04f693c8cdb8260405161170d9190613db4565b60405180910390a15050565b60008054604051622176b560e91b81526001600160a01b03909116906342ed6a0090611749908790600401613db4565b60206040518083038186803b15801561176157600080fd5b505afa158015611775573d6000803e3d6000fd5b505050506040513d601f19601f8201168201806040525081019061179991906139d8565b9050801561320357811561189257600054604051633ab5356760e21b81526001600160a01b039091169063b46e407e90869061183e90600190859063ead4d59c906117e8908690600401613db4565b60206040518083038186803b15801561180057600080fd5b505afa158015611814573d6000803e3d6000fd5b505050506040513d601f19601f820116820180604052508101906118389190613ad0565b9061321b565b6040518363ffffffff1660e01b815260040161185b929190613e76565b600060405180830381600087803b15801561187557600080fd5b505af1158015611889573d6000803e3d6000fd5b50505050611923565b600054604051636f37a7eb60e01b81526001600160a01b039091169063bb3ab5579086906118d3906001908590636f37a7eb906117e8908690600401613db4565b6040518363ffffffff1660e01b81526004016118f0929190613e76565b600060405180830381600087803b15801561190a57600080fd5b505af115801561191e573d6000803e3d6000fd5b505050505b600054604051635607395b60e01b81526001600160a01b0390911690635607395b906119559087908790600401613dc7565b600060405180830381600087803b15801561196f57600080fd5b505af1158015611983573d6000803e3d6000fd5b505060005460405163805265e560e01b81526001600160a01b03909116925063e56de7c1915086906119c890600190859063805265e5906117e8908690600401613db4565b6040518363ffffffff1660e01b81526004016119e5929190613e76565b600060405180830381600087803b1580156119ff57600080fd5b505af1158015611a13573d6000803e3d6000fd5b50506000546040516383935b3d60e01b81526001600160a01b0390911692506383935b3d9150611a4c9087908790600190600401613df1565b600060405180830381600087803b158015611a6657600080fd5b505af1158015611a7a573d6000803e3d6000fd5b505050507fd17e420d38fa7b9aa70264ae407a1c4bd99f817d1bbcdc3ac66034373d3d522e8385604051611aaf929190613cb6565b60405180910390a160008060009054906101000a90046001600160a01b03166001600160a01b031663f80b53526040518163ffffffff1660e01b815260040160006040518083038186803b158015611b0657600080fd5b505afa158015611b1a573d6000803e3d6000fd5b505050506040513d6000823e601f3d908101601f19168201604052611b429190810190613930565b5160008054604051633ab5356760e21b815292935090916001600160a01b039091169063ead4d59c90611b79908990600401613db4565b60206040518083038186803b158015611b9157600080fd5b505afa158015611ba5573d6000803e3d6000fd5b505050506040513d601f19601f82011682018060405250810190611bc99190613ad0565b60008054604051636f37a7eb60e01b815292935090916001600160a01b0390911690636f37a7eb90611bff908a90600401613db4565b60206040518083038186803b158015611c1757600080fd5b505afa158015611c2b573d6000803e3d6000fd5b505050506040513d601f19601f82011682018060405250810190611c4f9190613ad0565b6000805460405163805265e560e01b815292935090916001600160a01b039091169063805265e590611c85908b90600401613db4565b60206040518083038186803b158015611c9d57600080fd5b505afa158015611cb1573d6000803e3d6000fd5b505050506040513d601f19601f82011682018060405250810190611cd59190613ad0565b905083811480611d0c578284118015611cf15750838486038401105b80611d0957508383118015611d095750828386038501105b90505b80156131f957611d1b89613247565b15611d5c577fff0c776a5fd7e993e16093294b93f713d3feaa3645224bae480d0def247077a289604051611d4f9190613db4565b60405180910390a16131f0565b828411156131b85760408051808201909152601081526f30b2322fb732bbafb3b7bb32b93737b960811b6020918201528951908a01207f7c64a97697d6fd1a3c36cd0f89c12647b7e3fb1ce5ffd2b48d456f724ed869e61415611f4b57600054604051632f73a94f60e01b81526001600160a01b0390911690633c4a25d0908290632f73a94f90611df1908e90600401613db4565b60206040518083038186803b158015611e0957600080fd5b505afa158015611e1d573d6000803e3d6000fd5b505050506040513d601f19601f82011682018060405250810190611e419190613914565b6040518263ffffffff1660e01b8152600401611e5d9190613ca2565b600060405180830381600087803b158015611e7757600080fd5b505af1158015611e8b573d6000803e3d6000fd5b5050600054604051632f73a94f60e01b81527fb37f965f80de23bbbd6bbedcfc00eaae511237d8cb5db628162221d7a1ea816793506001600160a01b039091169150632f73a94f90611ee1908d90600401613db4565b60206040518083038186803b158015611ef957600080fd5b505afa158015611f0d573d6000803e3d6000fd5b505050506040513d601f19601f82011682018060405250810190611f319190613914565b604051611f3e9190613ca2565b60405180910390a16131b3565b60408051808201909152600f81526e3932b6b7bb32afb3b7bb32b93737b960891b6020918201528951908a01207f04e49d8b1fd8837abeba585912ed5e4baf9afab856352e8d561ec583ec3e07c9141561232b576000805460408051637c05a9a960e11b81529051600019936001600160a01b039093169263f80b53529260048082019391829003018186803b158015611fe457600080fd5b505afa158015611ff8573d6000803e3d6000fd5b505050506040513d6000823e601f3d908101601f191682016040526120209190810190613930565b80516120349160059160209091019061382c565b5060005b60055481101561210357600054604051632f73a94f60e01b81526001600160a01b0390911690632f73a94f90612072908e90600401613db4565b60206040518083038186803b15801561208a57600080fd5b505afa15801561209e573d6000803e3d6000fd5b505050506040513d601f19601f820116820180604052508101906120c29190613914565b6001600160a01b0316600582815481106120d857fe5b6000918252602090912001546001600160a01b031614156120fb57809150612103565b600101612038565b508060001914156121265760405162461bcd60e51b81526004016103ca90613e98565b6005548190600019810182141561216957600580548061214257fe5b600082815260209020810160001990810180546001600160a01b03191690550190556121fb565b6005600182038154811061217957fe5b600091825260209091200154600580546001600160a01b03909216918490811061219f57fe5b9060005260206000200160006101000a8154816001600160a01b0302191690836001600160a01b0316021790555060058054806121d857fe5b600082815260209020810160001990810180546001600160a01b03191690550190555b600054604051631e8f85cf60e21b81526001600160a01b0390911690637a3e173c9061222c90600590600401613cf5565b600060405180830381600087803b15801561224657600080fd5b505af115801561225a573d6000803e3d6000fd5b505050507f2d9464f7dd09f576b3463991f3c9523a2ca7de6422d0ceb3b2548c3b785b755960008054906101000a90046001600160a01b03166001600160a01b0316632f73a94f8e6040518263ffffffff1660e01b81526004016122be9190613db4565b60206040518083038186803b1580156122d657600080fd5b505afa1580156122ea573d6000803e3d6000fd5b505050506040513d601f19601f8201168201806040525081019061230e9190613914565b60405161231b9190613ca2565b60405180910390a15050506131b3565b604080518082019091526015815274616c7465725f6d61696e5f706f6f6c5f707269636560581b6020918201528951908a01207f196b5e64207ae38d7cf12d5a9f80210be0c0127de94f3c1c1bb3c7a1ad2e6e2a1415612515576000546040516370925c3560e11b81526001600160a01b03909116906352b79fbb90670de0b6b3a764000090839063e124b86a906123c7908f90600401613db4565b60206040518083038186803b1580156123df57600080fd5b505afa1580156123f3573d6000803e3d6000fd5b505050506040513d601f19601f820116820180604052508101906124179190613ad0565b026040518263ffffffff1660e01b81526004016124349190614186565b600060405180830381600087803b15801561244e57600080fd5b505af1158015612462573d6000803e3d6000fd5b50506000546040516370925c3560e11b81527fa2d47ee3b232ba79f13d1b9d02e36296747f6e5464d10618b564fe27cb65d3cc93506001600160a01b03909116915063e124b86a906124b8908d90600401613db4565b60206040518083038186803b1580156124d057600080fd5b505afa1580156124e4573d6000803e3d6000fd5b505050506040513d601f19601f820116820180604052508101906125089190613ad0565b604051611f3e9190614186565b604080518082019091526014815273616c7465725f6d61696e5f706f6f6c5f73697a6560601b6020918201528951908a01207f0942b0235ba5d27cb77e91ef9fd81696ff66e99c74efc4ef7f723e0cebdec42b1415612696576000546040516370925c3560e11b81526001600160a01b039091169063a758023b90829063e124b86a906125a6908e90600401613db4565b60206040518083038186803b1580156125be57600080fd5b505afa1580156125d2573d6000803e3d6000fd5b505050506040513d601f19601f820116820180604052508101906125f69190613ad0565b6040518263ffffffff1660e01b81526004016126129190614186565b600060405180830381600087803b15801561262c57600080fd5b505af1158015612640573d6000803e3d6000fd5b50506000546040516370925c3560e11b81527f7ba8c21b5aa33368aa7a28375b678116081c8430095b3001ee523c44ef0d84f793506001600160a01b03909116915063e124b86a906124b8908d90600401613db4565b60408051808201909152600f81526e185b1d195c97da1bdd5cd957d8dd5d608a1b6020918201528951908a01207f8227f9c81996570661d4efffba1595c79a52330f3fcc6285320b8f29f23d5f4f1415612812576000546040516370925c3560e11b81526001600160a01b039091169063ea99117590829063e124b86a90612722908e90600401613db4565b60206040518083038186803b15801561273a57600080fd5b505afa15801561274e573d6000803e3d6000fd5b505050506040513d601f19601f820116820180604052508101906127729190613ad0565b6040518263ffffffff1660e01b815260040161278e9190614186565b600060405180830381600087803b1580156127a857600080fd5b505af11580156127bc573d6000803e3d6000fd5b50506000546040516370925c3560e11b81527f83dfc73b61bd22c410bd87d5b255b1c56cd979358d2ba7e6dd4baf1dca7d212d93506001600160a01b03909116915063e124b86a906124b8908d90600401613db4565b604080518082019091526016815275616c7465725f686f7573655f6375745f746f6b656e7360501b6020918201528951908a01207f2d3030f07f0a90dec7ab1877dbd98007306ce6ba4b2b43c374c6d0d1980400551415612995576000546040516370925c3560e11b81526001600160a01b039091169063496ec48b90829063e124b86a906128a5908e90600401613db4565b60206040518083038186803b1580156128bd57600080fd5b505afa1580156128d1573d6000803e3d6000fd5b505050506040513d601f19601f820116820180604052508101906128f59190613ad0565b6040518263ffffffff1660e01b81526004016129119190614186565b600060405180830381600087803b15801561292b57600080fd5b505af115801561293f573d6000803e3d6000fd5b50506000546040516370925c3560e11b81527f6f0a96c86f431a6875229c3e2aeabebfe6c14f4ce93ad4fe22855b73f0d7f36693506001600160a01b03909116915063e124b86a906124b8908d90600401613db4565b60408051808201909152600f81526e616c7465725f6d696e5f707269636560881b6020918201528951908a01207f464323d588378f6cefad26fe934e38fcbace0e080eecc10fd7bdbb4d45b8fde81415612b1c576000546040516370925c3560e11b81526001600160a01b039091169063d211315090670de0b6b3a764000090839063e124b86a90612a2b908f90600401613db4565b60206040518083038186803b158015612a4357600080fd5b505afa158015612a57573d6000803e3d6000fd5b505050506040513d601f19601f82011682018060405250810190612a7b9190613ad0565b026040518263ffffffff1660e01b8152600401612a989190614186565b600060405180830381600087803b158015612ab257600080fd5b505af1158015612ac6573d6000803e3d6000fd5b50506000546040516370925c3560e11b81527f987c749eb39f5b368e214422ba14eae023327542dd5e9f1de7a66c0e7695dc6393506001600160a01b03909116915063e124b86a906124b8908d90600401613db4565b60408051808201909152600e81526d616c7465725f6d696e5f73697a6560901b6020918201528951908a01207f7e2b58d3e83d88154e07165a17e5a021a048757afdca55d7835ce7c9fe73f0b41415612c97576000546040516370925c3560e11b81526001600160a01b039091169063fbea6b8b90829063e124b86a90612ba7908e90600401613db4565b60206040518083038186803b158015612bbf57600080fd5b505afa158015612bd3573d6000803e3d6000fd5b505050506040513d601f19601f82011682018060405250810190612bf79190613ad0565b6040518263ffffffff1660e01b8152600401612c139190614186565b600060405180830381600087803b158015612c2d57600080fd5b505af1158015612c41573d6000803e3d6000fd5b50506000546040516370925c3560e11b81527ff0d65f4e04e67de6178ec59320a74c6a98d68a3c481c8ee20781fcd0c9b4a4db93506001600160a01b03909116915063e124b86a906124b8908d90600401613db4565b60408051808201909152600e81526d616c7465725f6d61785f73697a6560901b6020918201528951908a01207fd96688e081841742f577ac2e7b7dd24b06ac82387bf276310f801ecbb10b9cc51415612e12576000546040516370925c3560e11b81526001600160a01b039091169063bd1b2d2e90829063e124b86a90612d22908e90600401613db4565b60206040518083038186803b158015612d3a57600080fd5b505afa158015612d4e573d6000803e3d6000fd5b505050506040513d601f19601f82011682018060405250810190612d729190613ad0565b6040518263ffffffff1660e01b8152600401612d8e9190614186565b600060405180830381600087803b158015612da857600080fd5b505af1158015612dbc573d6000803e3d6000fd5b50506000546040516370925c3560e11b81527f7790b78d3f3db987c662c58ac83f25dcbf7d923e63bd22524145525c2d4d20d193506001600160a01b03909116915063e124b86a906124b8908d90600401613db4565b604080518082019091526014815273616c7465725f6d696e5f676f765f67726f74746f60601b6020918201528951908a01207f8671c59c40bf6f5af4bc5e10423b68f7c399490af0dece95fec5dc0b9e5672511415612f9e576000546040516370925c3560e11b81526001600160a01b03909116906381ecd27a90670de0b6b3a764000090839063e124b86a90612ead908f90600401613db4565b60206040518083038186803b158015612ec557600080fd5b505afa158015612ed9573d6000803e3d6000fd5b505050506040513d601f19601f82011682018060405250810190612efd9190613ad0565b026040518263ffffffff1660e01b8152600401612f1a9190614186565b600060405180830381600087803b158015612f3457600080fd5b505af1158015612f48573d6000803e3d6000fd5b50506000546040516370925c3560e11b81527fee3144816c8f5dea27f2bbf70e0ea4f675d2bb9da6f0ebde8b6477d7340b9b3393506001600160a01b03909116915063e124b86a906124b8908d90600401613db4565b604080518082019091526016815275616c7465725f686f7573655f6375745f73686172657360501b6020918201528951908a01207f86cf7bbebdf86e52dde3ff1fbbb578d18aa85368b242ea74d713182f1072da4414156131b35760008060008060009054906101000a90046001600160a01b03166001600160a01b0316632974a06e6040518163ffffffff1660e01b815260040160606040518083038186803b15801561304b57600080fd5b505afa15801561305f573d6000803e3d6000fd5b505050506040513d601f19601f820116820180604052508101906130839190613b32565b600054604051630c75bf5d60e01b815293965091945092506001600160a01b031690630c75bf5d906130b9908690600401614186565b600060405180830381600087803b1580156130d357600080fd5b505af11580156130e7573d6000803e3d6000fd5b50506000546040516373cf71c160e11b81526001600160a01b03909116925063e79ee382915061311b908490600401614186565b600060405180830381600087803b15801561313557600080fd5b505af1158015613149573d6000803e3d6000fd5b505060005460405163c665de8b60e01b81526001600160a01b03909116925063c665de8b915061317d908590600401614186565b600060405180830381600087803b15801561319757600080fd5b505af11580156131ab573d6000803e3d6000fd5b505050505050505b6131f0565b7fff0c776a5fd7e993e16093294b93f713d3feaa3645224bae480d0def247077a2896040516131e79190613db4565b60405180910390a15b6131f98961330e565b5050505050610a04565b60405162461bcd60e51b81526004016103ca90613f80565b6000828201838110156132405760405162461bcd60e51b81526004016103ca90613ec5565b9392505050565b6000805460405163878af33560e01b81526060916001600160a01b03169063878af33590613279908690600401613db4565b60006040518083038186803b15801561329157600080fd5b505afa1580156132a5573d6000803e3d6000fd5b505050506040513d6000823e601f3d908101601f191682016040526132cd9190810190613930565b905060005b815181101561139a576132f78282815181106132ea57fe5b60200260200101516111b7565b61330657600192505050610ea6565b6001016132d2565b6000805460405163e56de7c160e01b81526001600160a01b039091169163e56de7c19161333f918591600401613e76565b600060405180830381600087803b15801561335957600080fd5b505af115801561336d573d6000803e3d6000fd5b505060005460405163878af33560e01b81526001600160a01b03909116925063878af33591506133a1908490600401613db4565b60006040518083038186803b1580156133b957600080fd5b505afa1580156133cd573d6000803e3d6000fd5b505050506040513d6000823e601f3d908101601f191682016040526133f59190810190613930565b80516134099160049160209091019061382c565b5060045460005b818110156134a75760006004828154811061342757fe5b600091825260208220015481546040516383935b3d60e01b81526001600160a01b0392831694509116916383935b3d91613468918891869190600401613df1565b600060405180830381600087803b15801561348257600080fd5b505af1158015613496573d6000803e3d6000fd5b505060019093019250613410915050565b50600054604051637d5ff84760e11b81526060916001600160a01b03169063fabff08e906134db9086908590600401613e24565b600060405180830381600087803b1580156134f557600080fd5b505af1158015613509573d6000803e3d6000fd5b505060008054604051635a37203f60e11b81526001600160a01b03909116935063b46e407e925061353e918791600401613e76565b600060405180830381600087803b15801561355857600080fd5b505af115801561356c573d6000803e3d6000fd5b50506000805460405163bb3ab55760e01b81526001600160a01b03909116935063bb3ab55792506135a1918791600401613e76565b600060405180830381600087803b1580156135bb57600080fd5b505af11580156135cf573d6000803e3d6000fd5b505060008054604051631fe70f0560e21b81526001600160a01b039091169350637f9c3c149250613604918791600401613e52565b600060405180830381600087803b15801561361e57600080fd5b505af1158015613632573d6000803e3d6000fd5b505060408051808201909152601081526f30b2322fb732bbafb3b7bb32b93737b960811b6020918201528551908601207f7c64a97697d6fd1a3c36cd0f89c12647b7e3fb1ce5ffd2b48d456f724ed869e61491508190506136de575060408051808201909152600f81526e3932b6b7bb32afb3b7bb32b93737b960891b6020918201528351908401207f04e49d8b1fd8837abeba585912ed5e4baf9afab856352e8d561ec583ec3e07c9145b1561374b576000805460405163b06f8f8160e01b81526001600160a01b039091169163b06f8f8191613714918791600401613dc7565b600060405180830381600087803b15801561372e57600080fd5b505af1158015613742573d6000803e3d6000fd5b505050506137aa565b60008054604051633335686560e11b81526001600160a01b039091169163666ad0ca9161377c918791600401613e76565b600060405180830381600087803b15801561379657600080fd5b505af1158015611664573d6000803e3d6000fd5b505050565b60405180610120016040528060608152602001600015158152602001606081526020016000815260200160008152602001600081526020016000815260200160006001600160a01b0316815260200161380661380b565b905290565b60405180606001604052806000815260200160008152602001600081525090565b828054828255906000526020600020908101928215613881579160200282015b8281111561388157825182546001600160a01b0319166001600160a01b0390911617825560209092019160019091019061384c565b5061388d929150613891565b5090565b5b8082111561388d5760008155600101613892565b8051610ea6816141c9565b60008083601f8401126138c2578182fd5b50813567ffffffffffffffff8111156138d9578182fd5b6020830191508360208285010111156138f157600080fd5b9250929050565b600060208284031215613909578081fd5b8135613240816141c9565b600060208284031215613925578081fd5b8151613240816141c9565b60006020808385031215613942578182fd5b825167ffffffffffffffff80821115613959578384fd5b818501915085601f83011261396c578384fd5b81518181111561397857fe5b83810291506139888483016141a5565b8181528481019084860184860187018a10156139a2578788fd5b8795505b838610156139cb576139b7816138a6565b8352600195909501949186019186016139a6565b5098975050505050505050565b6000602082840312156139e9578081fd5b8151613240816141e1565b600080600060408486031215613a08578182fd5b833567ffffffffffffffff811115613a1e578283fd5b613a2a868287016138b1565b9094509250506020840135613a3e816141e1565b809150509250925092565b60006020808385031215613a5b578182fd5b823567ffffffffffffffff80821115613a72578384fd5b818501915085601f830112613a85578384fd5b813581811115613a9157fe5b613aa3601f8201601f191685016141a5565b91508082528684828501011115613ab8578485fd5b80848401858401378101909201929092529392505050565b600060208284031215613ae1578081fd5b5051919050565b600080600060408486031215613afc578283fd5b83359250602084013567ffffffffffffffff811115613b19578283fd5b613b25868287016138b1565b9497909650939450505050565b600080600060608486031215613b46578283fd5b8351925060208401519150604084015190509250925092565b600080600080600060808688031215613b76578081fd5b853594506020860135935060408601359250606086013567ffffffffffffffff811115613ba1578182fd5b613bad888289016138b1565b969995985093965092949392505050565b6001600160a01b03169052565b6000815180845260208085019450808401835b83811015613c035781516001600160a01b031687529582019590820190600101613bde565b509495945050505050565b15159052565b60008284528282602086013780602084860101526020601f19601f85011685010190509392505050565b60008151808452815b81811015613c6357602081850181015186830182015201613c47565b81811115613c745782602083870101525b50601f01601f19169290920160200192915050565b8051825260208082015190830152604090810151910152565b6001600160a01b0391909116815260200190565b6001600160a01b0383168152604060208201819052600090613cda90830184613c3e565b949350505050565b6000602082526132406020830184613bcb565b6020808252825482820181905260008481528281209092916040850190845b81811015613d395783546001600160a01b031683526001938401939285019201613d14565b50909695505050505050565b901515815260200190565b600060208252613cda602083018486613c14565b600060408252613d78604083018587613c14565b905060018060a01b0383166020830152949350505050565b600060408252613da4604083018587613c14565b9050826020830152949350505050565b6000602082526132406020830184613c3e565b600060408252613dda6040830185613c3e565b905060018060a01b03831660208301529392505050565b600060608252613e046060830186613c3e565b6001600160a01b0394909416602083015250901515604090910152919050565b600060408252613e376040830185613c3e565b8281036020840152613e498185613bcb565b95945050505050565b600060408252613e656040830185613c3e565b905082151560208301529392505050565b600060408252613e896040830185613c3e565b90508260208301529392505050565b60208082526013908201527233b7bb32b93737b9103737ba103337bab7321760691b604082015260600190565b6020808252601b908201527f536166654d6174683a206164646974696f6e206f766572666c6f770000000000604082015260600190565b6020808252600d908201526c105b1c9958591e481d9bdd1959609a1b604082015260600190565b60208082526037908201527f596f752063616e206e6f7420616464206d6f726520676f7665726e6f72732e2060408201527f52656d6f7665206120676f7665726e6f72206669727374000000000000000000606082015260800190565b6020808252600f908201526e4e6f7420696e2070726f677265737360881b604082015260600190565b60208082526012908201527120b63932b0b23c90309033b7bb32b93737b960711b604082015260600190565b60208082526028908201527f4e657720476f7665726e6f7220646f6573206e6f74206861766520656e6f7567604082015267682047524f54544f60c01b606082015260800190565b6020808252600e908201526d2737ba10309033b7bb32b93737b960911b604082015260600190565b6020808252601b908201527f4f6e6c79206120676f7665726e6f722063616e20646f20746861740000000000604082015260600190565b6020808252818101527f536861726573206e6f742070726f7065726c7920646973637472696275746564604082015260600190565b602080825260139082015272416c726561647920496e2050726f677265737360681b604082015260600190565b600060208252825161016060208401526140fc610180840182613c3e565b905060208401516141106040850182613c0e565b506040840151838203601f1901606085015261412c8282613bcb565b91505060608401516080840152608084015160a084015260a084015160c084015260c084015160e084015260e084015161010061416b81860183613bbe565b850151905061417e610120850182613c89565b509392505050565b90815260200190565b9283526020830191909152604082015260600190565b60405181810167ffffffffffffffff811182821017156141c157fe5b604052919050565b6001600160a01b03811681146141de57600080fd5b50565b80151581146141de57600080fdfea2646970667358221220738d8ca17c1cd6d66ad7ad4a38661adbd2a2e74dfaf4118a6b7a6d9dbbb1ea3964736f6c63430007030033",
  "linkReferences": {},
  "deployedLinkReferences": {}
}