{
  "_format": "hh-sol-artifact-1",
  "contractName": "Governance",
  "sourceName": "contracts/Governance.sol",
  "abi": [
    {
      "inputs": [],
      "stateMutability": "nonpayable",
      "type": "constructor"
    },
    {
      "anonymous": false,
      "inputs": [
        {
          "indexed": false,
          "internalType": "address",
          "name": "",
          "type": "address"
        }
      ],
      "name": "GOVERNOR_REMOVED",
      "type": "event"
    },
    {
      "anonymous": false,
      "inputs": [
        {
          "indexed": false,
          "internalType": "uint256",
          "name": "",
          "type": "uint256"
        }
      ],
      "name": "HOUSE_CUT_CHANGED",
      "type": "event"
    },
    {
      "anonymous": false,
      "inputs": [
        {
          "indexed": false,
          "internalType": "uint256",
          "name": "",
          "type": "uint256"
        }
      ],
      "name": "HOUSE_CUT_NEW_TOKENS_CHANGED",
      "type": "event"
    },
    {
      "anonymous": false,
      "inputs": [
        {
          "indexed": false,
          "internalType": "uint256",
          "name": "",
          "type": "uint256"
        }
      ],
      "name": "MAIN_POOL_PRICE_CHANGED",
      "type": "event"
    },
    {
      "anonymous": false,
      "inputs": [
        {
          "indexed": false,
          "internalType": "uint256",
          "name": "",
          "type": "uint256"
        }
      ],
      "name": "MAIN_POOL_SIZE_CHANGED",
      "type": "event"
    },
    {
      "anonymous": false,
      "inputs": [
        {
          "indexed": false,
          "internalType": "uint256",
          "name": "",
          "type": "uint256"
        }
      ],
      "name": "MAXIMUM_POOL_SIZE_CHANGED",
      "type": "event"
    },
    {
      "anonymous": false,
      "inputs": [
        {
          "indexed": false,
          "internalType": "uint256",
          "name": "",
          "type": "uint256"
        }
      ],
      "name": "MINIMUM_POOL_PRICE_CHANGED",
      "type": "event"
    },
    {
      "anonymous": false,
      "inputs": [
        {
          "indexed": false,
          "internalType": "uint256",
          "name": "",
          "type": "uint256"
        }
      ],
      "name": "MINIMUM_POOL_SIZE_CHANGED",
      "type": "event"
    },
    {
      "anonymous": false,
      "inputs": [
        {
          "indexed": false,
          "internalType": "address",
          "name": "",
          "type": "address"
        }
      ],
      "name": "NEW_GOVERNOR_ADDED",
      "type": "event"
    },
    {
      "anonymous": false,
      "inputs": [
        {
          "indexed": false,
          "internalType": "string",
          "name": "",
          "type": "string"
        }
      ],
      "name": "NEW_PROPOSAL",
      "type": "event"
    },
    {
      "anonymous": false,
      "inputs": [
        {
          "indexed": false,
          "internalType": "string",
          "name": "",
          "type": "string"
        }
      ],
      "name": "NO_CONSENSUS",
      "type": "event"
    },
    {
      "anonymous": false,
      "inputs": [
        {
          "indexed": false,
          "internalType": "address",
          "name": "",
          "type": "address"
        },
        {
          "indexed": false,
          "internalType": "string",
          "name": "",
          "type": "string"
        }
      ],
      "name": "VOTE_CASTED",
      "type": "event"
    },
    {
      "inputs": [],
      "name": "getGovernors",
      "outputs": [
        {
          "internalType": "address[]",
          "name": "",
          "type": "address[]"
        }
      ],
      "stateMutability": "view",
      "type": "function"
    },
    {
      "inputs": [],
      "name": "getHouseCut",
      "outputs": [
        {
          "internalType": "uint256",
          "name": "",
          "type": "uint256"
        }
      ],
      "stateMutability": "view",
      "type": "function"
    },
    {
      "inputs": [],
      "name": "getHouseCutNewTokens",
      "outputs": [
        {
          "internalType": "uint256",
          "name": "",
          "type": "uint256"
        }
      ],
      "stateMutability": "view",
      "type": "function"
    },
    {
      "inputs": [],
      "name": "getMainPoolPrice",
      "outputs": [
        {
          "internalType": "uint256",
          "name": "",
          "type": "uint256"
        }
      ],
      "stateMutability": "view",
      "type": "function"
    },
    {
      "inputs": [],
      "name": "getMainPoolSize",
      "outputs": [
        {
          "internalType": "uint256",
          "name": "",
          "type": "uint256"
        }
      ],
      "stateMutability": "view",
      "type": "function"
    },
    {
      "inputs": [],
      "name": "getMaximumPoolSize",
      "outputs": [
        {
          "internalType": "uint256",
          "name": "",
          "type": "uint256"
        }
      ],
      "stateMutability": "view",
      "type": "function"
    },
    {
      "inputs": [],
      "name": "getMinimumPoolPrice",
      "outputs": [
        {
          "internalType": "uint256",
          "name": "",
          "type": "uint256"
        }
      ],
      "stateMutability": "view",
      "type": "function"
    },
    {
      "inputs": [],
      "name": "getMinimumPoolSize",
      "outputs": [
        {
          "internalType": "uint256",
          "name": "",
          "type": "uint256"
        }
      ],
      "stateMutability": "view",
      "type": "function"
    },
    {
      "inputs": [
        {
          "internalType": "address",
          "name": "governor",
          "type": "address"
        }
      ],
      "name": "isGovernor",
      "outputs": [
        {
          "internalType": "bool",
          "name": "",
          "type": "bool"
        }
      ],
      "stateMutability": "view",
      "type": "function"
    },
    {
      "inputs": [
        {
          "internalType": "address",
          "name": "newGovernor",
          "type": "address"
        }
      ],
      "name": "proposeNewGovernor",
      "outputs": [],
      "stateMutability": "nonpayable",
      "type": "function"
    },
    {
      "inputs": [
        {
          "internalType": "uint256",
          "name": "value",
          "type": "uint256"
        },
        {
          "internalType": "string",
          "name": "voteId",
          "type": "string"
        }
      ],
      "name": "proposeNewValue",
      "outputs": [],
      "stateMutability": "nonpayable",
      "type": "function"
    },
    {
      "inputs": [
        {
          "internalType": "address",
          "name": "oldGovernor",
          "type": "address"
        }
      ],
      "name": "proposeRemoveGovernor",
      "outputs": [],
      "stateMutability": "nonpayable",
      "type": "function"
    },
    {
      "inputs": [
        {
          "internalType": "address",
          "name": "newAddress",
          "type": "address"
        }
      ],
      "name": "updateGov",
      "outputs": [],
      "stateMutability": "nonpayable",
      "type": "function"
    },
    {
      "inputs": [
        {
          "internalType": "string",
          "name": "voteId",
          "type": "string"
        },
        {
          "internalType": "bool",
          "name": "yesVote",
          "type": "bool"
        }
      ],
      "name": "vote",
      "outputs": [],
      "stateMutability": "nonpayable",
      "type": "function"
    },
    {
      "inputs": [
        {
          "internalType": "string",
          "name": "voteId",
          "type": "string"
        }
      ],
      "name": "votingDetails",
      "outputs": [
        {
          "components": [
            {
              "internalType": "string",
              "name": "voteId",
              "type": "string"
            },
            {
              "internalType": "bool",
              "name": "inProgress",
              "type": "bool"
            },
            {
              "internalType": "address[]",
              "name": "voters",
              "type": "address[]"
            },
            {
              "internalType": "uint256",
              "name": "yesVotes",
              "type": "uint256"
            },
            {
              "internalType": "uint256",
              "name": "noVotes",
              "type": "uint256"
            },
            {
              "internalType": "uint256",
              "name": "votes",
              "type": "uint256"
            },
            {
              "internalType": "uint256",
              "name": "proposedValue",
              "type": "uint256"
            },
            {
              "internalType": "address",
              "name": "proposedGovernor",
              "type": "address"
            }
          ],
          "internalType": "struct Data.Vote",
          "name": "",
          "type": "tuple"
        }
      ],
      "stateMutability": "view",
      "type": "function"
    }
  ],
  "bytecode": "0x6080604052600180546001600160a01b031916736c229b63b4764ef38117f3d26f586d6cc8a3ac751790553480156200003757600080fd5b50600154600080546001600160a01b0319166001600160a01b0392831617908190556040516303c4a25d60e41b8152911690633c4a25d090620000939073c04915f6b3ff85b50a863eb1fcbf36817153941390600401620002b5565b600060405180830381600087803b158015620000ae57600080fd5b505af1158015620000c3573d6000803e3d6000fd5b50506000546040516303c4a25d60e41b81526001600160a01b039091169250633c4a25d091506200010d9073b58c226a300ff6dc1ef762d62c536c7aed5cea7490600401620002b5565b600060405180830381600087803b1580156200012857600080fd5b505af11580156200013d573d6000803e3d6000fd5b50506000546040516303c4a25d60e41b81526001600160a01b039091169250633c4a25d09150620001879073b6d80f6d661927afef42f39e52d630e250696bc490600401620002b5565b600060405180830381600087803b158015620001a257600080fd5b505af1158015620001b7573d6000803e3d6000fd5b50506000546040516303c4a25d60e41b81526001600160a01b039091169250633c4a25d091506200020190736b33d96c8353d03433034171433b0bd9bdafac8b90600401620002b5565b600060405180830381600087803b1580156200021c57600080fd5b505af115801562000231573d6000803e3d6000fd5b50506000546040516303c4a25d60e41b81526001600160a01b039091169250633c4a25d091506200027b90730a0c8e469fef425ef7c6e9754dc563f9bba588f090600401620002b5565b600060405180830381600087803b1580156200029657600080fd5b505af1158015620002ab573d6000803e3d6000fd5b50505050620002c9565b6001600160a01b0391909116815260200190565b61343880620002d96000396000f3fe608060405234801561001057600080fd5b50600436106100f55760003560e01c80636a329ce411610097578063e43581b811610066578063e43581b8146101b9578063f417bd9c146101d9578063f80b5352146101e1578063fd7f8253146101f6576100f5565b80636a329ce41461018e57806381014bbe146101a1578063d8692395146101a9578063e0a11c20146101b1576100f5565b806326904efd116100d357806326904efd1461014057806327d3410c146101535780632880c473146101665780632c0797ef14610186576100f5565b806305868b26146100fa5780630b33ba7a146101185780631f9244d61461012d575b600080fd5b6101026101fe565b60405161010f91906133af565b60405180910390f35b61012b610126366004612cc0565b61028a565b005b61012b61013b366004612eb0565b6102ef565b61012b61014e366004612cc0565b610467565b61012b610161366004612dbc565b6105f0565b610179610174366004612e11565b6106fa565b60405161010f9190613321565b610102610ade565b61012b61019c366004612cc0565b610b2d565b610102610bd0565b610102610c1f565b610102610c6e565b6101cc6101c7366004612cc0565b610cbd565b60405161010f9190613062565b610102610d96565b6101e9610de5565b60405161010f9190612fff565b610102610e65565b60008060009054906101000a90046001600160a01b03166001600160a01b03166305868b266040518163ffffffff1660e01b815260040160206040518083038186803b15801561024d57600080fd5b505afa158015610261573d6000803e3d6000fd5b505050506040513d601f19601f820116820180604052508101906102859190612e98565b905090565b6000546040516367d6abd160e11b81526001600160a01b039091169063cfad57a2906102ba908490600401612fbf565b600060405180830381600087803b1580156102d457600080fd5b505af11580156102e8573d6000803e3d6000fd5b5050505050565b336102f981610cbd565b61031e5760405162461bcd60e51b8152600401610315906132bd565b60405180910390fd5b60008054604051622176b560e91b81526001600160a01b03909116906342ed6a0090610350908790879060040161306d565b60206040518083038186803b15801561036857600080fd5b505afa15801561037c573d6000803e3d6000fd5b505050506040513d601f19601f820116820180604052508101906103a09190612da0565b905080156103c05760405162461bcd60e51b8152600401610315906132f4565b600054604051633335686560e11b81526001600160a01b039091169063666ad0ca906103f490879087908a906004016130ad565b600060405180830381600087803b15801561040e57600080fd5b505af1158015610422573d6000803e3d6000fd5b505050506102e884848080601f016020809104026020016040519081016040528093929190818152602001838380828437600092019190915250869250610eb4915050565b3361047181610cbd565b61048d5760405162461bcd60e51b8152600401610315906132bd565b61049682610cbd565b156104b35760405162461bcd60e51b815260040161031590613269565b604080518082018252601081526f30b2322fb732bbafb3b7bb32b93737b960811b6020820152600080549251622176b560e91b8152919290916001600160a01b03909116906342ed6a009061050c9085906004016130d1565b60206040518083038186803b15801561052457600080fd5b505afa158015610538573d6000803e3d6000fd5b505050506040513d601f19601f8201168201806040525081019061055c9190612da0565b9050801561057c5760405162461bcd60e51b8152600401610315906132f4565b60005460405163b06f8f8160e01b81526001600160a01b039091169063b06f8f81906105ae90859088906004016130e4565b600060405180830381600087803b1580156105c857600080fd5b505af11580156105dc573d6000803e3d6000fd5b505050506105ea8284610eb4565b50505050565b336105fa81610cbd565b6106165760405162461bcd60e51b8152600401610315906132bd565b600054604051634b3e33eb60e01b81526001600160a01b0390911690634b3e33eb9061064a90879087908690600401613081565b60206040518083038186803b15801561066257600080fd5b505afa158015610676573d6000803e3d6000fd5b505050506040513d601f19601f8201168201806040525081019061069a9190612da0565b156106b75760405162461bcd60e51b815260040161031590613219565b6105ea84848080601f016020809104026020016040519081016040528093929190818152602001838380828437600092019190915250859250869150610f609050565b610702612ba4565b60408051610100810182528381526000549151622176b560e91b8152909160208301916001600160a01b03909116906342ed6a00906107459087906004016130d1565b60206040518083038186803b15801561075d57600080fd5b505afa158015610771573d6000803e3d6000fd5b505050506040513d601f19601f820116820180604052508101906107959190612da0565b1515815260005460405163878af33560e01b81526020909201916001600160a01b039091169063878af335906107cf9087906004016130d1565b60006040518083038186803b1580156107e757600080fd5b505afa1580156107fb573d6000803e3d6000fd5b505050506040513d6000823e601f3d908101601f191682016040526108239190810190612cf8565b8152600054604051633ab5356760e21b81526020909201916001600160a01b039091169063ead4d59c9061085b9087906004016130d1565b60206040518083038186803b15801561087357600080fd5b505afa158015610887573d6000803e3d6000fd5b505050506040513d601f19601f820116820180604052508101906108ab9190612e98565b8152600054604051636f37a7eb60e01b81526020909201916001600160a01b0390911690636f37a7eb906108e39087906004016130d1565b60206040518083038186803b1580156108fb57600080fd5b505afa15801561090f573d6000803e3d6000fd5b505050506040513d601f19601f820116820180604052508101906109339190612e98565b815260005460405163805265e560e01b81526020909201916001600160a01b039091169063805265e59061096b9087906004016130d1565b60206040518083038186803b15801561098357600080fd5b505afa158015610997573d6000803e3d6000fd5b505050506040513d601f19601f820116820180604052508101906109bb9190612e98565b81526000546040516370925c3560e11b81526020909201916001600160a01b039091169063e124b86a906109f39087906004016130d1565b60206040518083038186803b158015610a0b57600080fd5b505afa158015610a1f573d6000803e3d6000fd5b505050506040513d601f19601f82011682018060405250810190610a439190612e98565b8152600054604051632f73a94f60e01b81526020909201916001600160a01b0390911690632f73a94f90610a7b9087906004016130d1565b60206040518083038186803b158015610a9357600080fd5b505afa158015610aa7573d6000803e3d6000fd5b505050506040513d601f19601f82011682018060405250810190610acb9190612cdc565b6001600160a01b0316905290505b919050565b60008060009054906101000a90046001600160a01b03166001600160a01b0316632c0797ef6040518163ffffffff1660e01b815260040160206040518083038186803b15801561024d57600080fd5b33610b3781610cbd565b610b535760405162461bcd60e51b8152600401610315906132bd565b610b5c82610cbd565b610b785760405162461bcd60e51b815260040161031590613295565b604080518082018252600f81526e3932b6b7bb32afb3b7bb32b93737b960891b6020820152600080549251622176b560e91b8152919290916001600160a01b03909116906342ed6a009061050c9085906004016130d1565b60008060009054906101000a90046001600160a01b03166001600160a01b03166381014bbe6040518163ffffffff1660e01b815260040160206040518083038186803b15801561024d57600080fd5b60008060009054906101000a90046001600160a01b03166001600160a01b031663d86923956040518163ffffffff1660e01b815260040160206040518083038186803b15801561024d57600080fd5b60008060009054906101000a90046001600160a01b03166001600160a01b031663e0a11c206040518163ffffffff1660e01b815260040160206040518083038186803b15801561024d57600080fd5b6000805460408051637c05a9a960e11b815290516060926001600160a01b03169163f80b53529160048083019287929190829003018186803b158015610d0257600080fd5b505afa158015610d16573d6000803e3d6000fd5b505050506040513d6000823e601f3d908101601f19168201604052610d3e9190810190612cf8565b905060005b8151811015610d8c57836001600160a01b0316828281518110610d6257fe5b60200260200101516001600160a01b03161415610d8457600192505050610ad9565b600101610d43565b5060009392505050565b60008060009054906101000a90046001600160a01b03166001600160a01b031663f417bd9c6040518163ffffffff1660e01b815260040160206040518083038186803b15801561024d57600080fd5b6000805460408051637c05a9a960e11b815290516060936001600160a01b039093169263f80b53529260048082019391829003018186803b158015610e2957600080fd5b505afa158015610e3d573d6000803e3d6000fd5b505050506040513d6000823e601f3d908101601f191682016040526102859190810190612cf8565b60008060009054906101000a90046001600160a01b03166001600160a01b031663fd7f82536040518163ffffffff1660e01b815260040160206040518083038186803b15801561024d57600080fd5b600054604051631fe70f0560e21b81526001600160a01b0390911690637f9c3c1490610ee790859060019060040161316f565b600060405180830381600087803b158015610f0157600080fd5b505af1158015610f15573d6000803e3d6000fd5b50505050610f2582826001610f60565b7ff5346fd029345ac090ffe009531c8b769cf488b789bd5b9b6a51f04f693c8cdb82604051610f5491906130d1565b60405180910390a15050565b60008054604051622176b560e91b81526001600160a01b03909116906342ed6a0090610f909087906004016130d1565b60206040518083038186803b158015610fa857600080fd5b505afa158015610fbc573d6000803e3d6000fd5b505050506040513d601f19601f82011682018060405250810190610fe09190612da0565b905080156126ba5781156110d957600054604051633ab5356760e21b81526001600160a01b039091169063b46e407e90869061108590600190859063ead4d59c9061102f9086906004016130d1565b60206040518083038186803b15801561104757600080fd5b505afa15801561105b573d6000803e3d6000fd5b505050506040513d601f19601f8201168201806040525081019061107f9190612e98565b906126d2565b6040518363ffffffff1660e01b81526004016110a2929190613193565b600060405180830381600087803b1580156110bc57600080fd5b505af11580156110d0573d6000803e3d6000fd5b5050505061116a565b600054604051636f37a7eb60e01b81526001600160a01b039091169063bb3ab55790869061111a906001908590636f37a7eb9061102f9086906004016130d1565b6040518363ffffffff1660e01b8152600401611137929190613193565b600060405180830381600087803b15801561115157600080fd5b505af1158015611165573d6000803e3d6000fd5b505050505b600054604051635607395b60e01b81526001600160a01b0390911690635607395b9061119c90879087906004016130e4565b600060405180830381600087803b1580156111b657600080fd5b505af11580156111ca573d6000803e3d6000fd5b505060005460405163805265e560e01b81526001600160a01b03909116925063e56de7c19150869061120f90600190859063805265e59061102f9086906004016130d1565b6040518363ffffffff1660e01b815260040161122c929190613193565b600060405180830381600087803b15801561124657600080fd5b505af115801561125a573d6000803e3d6000fd5b50506000546040516383935b3d60e01b81526001600160a01b0390911692506383935b3d9150611293908790879060019060040161310e565b600060405180830381600087803b1580156112ad57600080fd5b505af11580156112c1573d6000803e3d6000fd5b505050507fd17e420d38fa7b9aa70264ae407a1c4bd99f817d1bbcdc3ac66034373d3d522e83856040516112f6929190612fd3565b60405180910390a160008060009054906101000a90046001600160a01b03166001600160a01b031663f80b53526040518163ffffffff1660e01b815260040160006040518083038186803b15801561134d57600080fd5b505afa158015611361573d6000803e3d6000fd5b505050506040513d6000823e601f3d908101601f191682016040526113899190810190612cf8565b5160008054604051633ab5356760e21b815292935090916001600160a01b039091169063ead4d59c906113c09089906004016130d1565b60206040518083038186803b1580156113d857600080fd5b505afa1580156113ec573d6000803e3d6000fd5b505050506040513d601f19601f820116820180604052508101906114109190612e98565b60008054604051636f37a7eb60e01b815292935090916001600160a01b0390911690636f37a7eb90611446908a906004016130d1565b60206040518083038186803b15801561145e57600080fd5b505afa158015611472573d6000803e3d6000fd5b505050506040513d601f19601f820116820180604052508101906114969190612e98565b6000805460405163805265e560e01b815292935090916001600160a01b039091169063805265e5906114cc908b906004016130d1565b60206040518083038186803b1580156114e457600080fd5b505afa1580156114f8573d6000803e3d6000fd5b505050506040513d601f19601f8201168201806040525081019061151c9190612e98565b9050838114806115535782841180156115385750838486038401105b80611550575083831180156115505750828386038501105b90505b80156126b0578284111561266f5760408051808201909152601081526f30b2322fb732bbafb3b7bb32b93737b960811b6020918201528951908a01207f7c64a97697d6fd1a3c36cd0f89c12647b7e3fb1ce5ffd2b48d456f724ed869e6141561174857600054604051632f73a94f60e01b81526001600160a01b0390911690633c4a25d0908290632f73a94f906115ee908e906004016130d1565b60206040518083038186803b15801561160657600080fd5b505afa15801561161a573d6000803e3d6000fd5b505050506040513d601f19601f8201168201806040525081019061163e9190612cdc565b6040518263ffffffff1660e01b815260040161165a9190612fbf565b600060405180830381600087803b15801561167457600080fd5b505af1158015611688573d6000803e3d6000fd5b5050600054604051632f73a94f60e01b81527fb37f965f80de23bbbd6bbedcfc00eaae511237d8cb5db628162221d7a1ea816793506001600160a01b039091169150632f73a94f906116de908d906004016130d1565b60206040518083038186803b1580156116f657600080fd5b505afa15801561170a573d6000803e3d6000fd5b505050506040513d601f19601f8201168201806040525081019061172e9190612cdc565b60405161173b9190612fbf565b60405180910390a161266a565b60408051808201909152600f81526e3932b6b7bb32afb3b7bb32b93737b960891b6020918201528951908a01207f04e49d8b1fd8837abeba585912ed5e4baf9afab856352e8d561ec583ec3e07c91415611b28576000805460408051637c05a9a960e11b81529051600019936001600160a01b039093169263f80b53529260048082019391829003018186803b1580156117e157600080fd5b505afa1580156117f5573d6000803e3d6000fd5b505050506040513d6000823e601f3d908101601f1916820160405261181d9190810190612cf8565b805161183191600391602090910190612bf4565b5060005b60035481101561190057600054604051632f73a94f60e01b81526001600160a01b0390911690632f73a94f9061186f908e906004016130d1565b60206040518083038186803b15801561188757600080fd5b505afa15801561189b573d6000803e3d6000fd5b505050506040513d601f19601f820116820180604052508101906118bf9190612cdc565b6001600160a01b0316600382815481106118d557fe5b6000918252602090912001546001600160a01b031614156118f857809150611900565b600101611835565b508060001914156119235760405162461bcd60e51b8152600401610315906131b5565b6003548190600019810182141561196657600380548061193f57fe5b600082815260209020810160001990810180546001600160a01b03191690550190556119f8565b6003600182038154811061197657fe5b600091825260209091200154600380546001600160a01b03909216918490811061199c57fe5b9060005260206000200160006101000a8154816001600160a01b0302191690836001600160a01b0316021790555060038054806119d557fe5b600082815260209020810160001990810180546001600160a01b03191690550190555b600054604051631e8f85cf60e21b81526001600160a01b0390911690637a3e173c90611a2990600390600401613012565b600060405180830381600087803b158015611a4357600080fd5b505af1158015611a57573d6000803e3d6000fd5b505050507f2d9464f7dd09f576b3463991f3c9523a2ca7de6422d0ceb3b2548c3b785b755960008054906101000a90046001600160a01b03166001600160a01b0316632f73a94f8e6040518263ffffffff1660e01b8152600401611abb91906130d1565b60206040518083038186803b158015611ad357600080fd5b505afa158015611ae7573d6000803e3d6000fd5b505050506040513d601f19601f82011682018060405250810190611b0b9190612cdc565b604051611b189190612fbf565b60405180910390a150505061266a565b604080518082019091526015815274616c7465725f6d61696e5f706f6f6c5f707269636560581b6020918201528951908a01207f196b5e64207ae38d7cf12d5a9f80210be0c0127de94f3c1c1bb3c7a1ad2e6e2a1415611d12576000546040516370925c3560e11b81526001600160a01b03909116906352b79fbb90670de0b6b3a764000090839063e124b86a90611bc4908f906004016130d1565b60206040518083038186803b158015611bdc57600080fd5b505afa158015611bf0573d6000803e3d6000fd5b505050506040513d601f19601f82011682018060405250810190611c149190612e98565b026040518263ffffffff1660e01b8152600401611c3191906133af565b600060405180830381600087803b158015611c4b57600080fd5b505af1158015611c5f573d6000803e3d6000fd5b50506000546040516370925c3560e11b81527fa2d47ee3b232ba79f13d1b9d02e36296747f6e5464d10618b564fe27cb65d3cc93506001600160a01b03909116915063e124b86a90611cb5908d906004016130d1565b60206040518083038186803b158015611ccd57600080fd5b505afa158015611ce1573d6000803e3d6000fd5b505050506040513d601f19601f82011682018060405250810190611d059190612e98565b60405161173b91906133af565b604080518082019091526014815273616c7465725f6d61696e5f706f6f6c5f73697a6560601b6020918201528951908a01207f0942b0235ba5d27cb77e91ef9fd81696ff66e99c74efc4ef7f723e0cebdec42b1415611e93576000546040516370925c3560e11b81526001600160a01b039091169063a758023b90829063e124b86a90611da3908e906004016130d1565b60206040518083038186803b158015611dbb57600080fd5b505afa158015611dcf573d6000803e3d6000fd5b505050506040513d601f19601f82011682018060405250810190611df39190612e98565b6040518263ffffffff1660e01b8152600401611e0f91906133af565b600060405180830381600087803b158015611e2957600080fd5b505af1158015611e3d573d6000803e3d6000fd5b50506000546040516370925c3560e11b81527f7ba8c21b5aa33368aa7a28375b678116081c8430095b3001ee523c44ef0d84f793506001600160a01b03909116915063e124b86a90611cb5908d906004016130d1565b60408051808201909152600f81526e185b1d195c97da1bdd5cd957d8dd5d608a1b6020918201528951908a01207f8227f9c81996570661d4efffba1595c79a52330f3fcc6285320b8f29f23d5f4f141561200f576000546040516370925c3560e11b81526001600160a01b039091169063ea99117590829063e124b86a90611f1f908e906004016130d1565b60206040518083038186803b158015611f3757600080fd5b505afa158015611f4b573d6000803e3d6000fd5b505050506040513d601f19601f82011682018060405250810190611f6f9190612e98565b6040518263ffffffff1660e01b8152600401611f8b91906133af565b600060405180830381600087803b158015611fa557600080fd5b505af1158015611fb9573d6000803e3d6000fd5b50506000546040516370925c3560e11b81527f83dfc73b61bd22c410bd87d5b255b1c56cd979358d2ba7e6dd4baf1dca7d212d93506001600160a01b03909116915063e124b86a90611cb5908d906004016130d1565b604080518082019091526016815275616c7465725f686f7573655f6375745f746f6b656e7360501b6020918201528951908a01207f2d3030f07f0a90dec7ab1877dbd98007306ce6ba4b2b43c374c6d0d1980400551415612192576000546040516370925c3560e11b81526001600160a01b039091169063496ec48b90829063e124b86a906120a2908e906004016130d1565b60206040518083038186803b1580156120ba57600080fd5b505afa1580156120ce573d6000803e3d6000fd5b505050506040513d601f19601f820116820180604052508101906120f29190612e98565b6040518263ffffffff1660e01b815260040161210e91906133af565b600060405180830381600087803b15801561212857600080fd5b505af115801561213c573d6000803e3d6000fd5b50506000546040516370925c3560e11b81527f6f0a96c86f431a6875229c3e2aeabebfe6c14f4ce93ad4fe22855b73f0d7f36693506001600160a01b03909116915063e124b86a90611cb5908d906004016130d1565b60408051808201909152600f81526e616c7465725f6d696e5f707269636560881b6020918201528951908a01207f464323d588378f6cefad26fe934e38fcbace0e080eecc10fd7bdbb4d45b8fde8141561230e576000546040516370925c3560e11b81526001600160a01b039091169063d211315090829063e124b86a9061221e908e906004016130d1565b60206040518083038186803b15801561223657600080fd5b505afa15801561224a573d6000803e3d6000fd5b505050506040513d601f19601f8201168201806040525081019061226e9190612e98565b6040518263ffffffff1660e01b815260040161228a91906133af565b600060405180830381600087803b1580156122a457600080fd5b505af11580156122b8573d6000803e3d6000fd5b50506000546040516370925c3560e11b81527f987c749eb39f5b368e214422ba14eae023327542dd5e9f1de7a66c0e7695dc6393506001600160a01b03909116915063e124b86a90611cb5908d906004016130d1565b60408051808201909152600e81526d616c7465725f6d696e5f73697a6560901b6020918201528951908a01207f7e2b58d3e83d88154e07165a17e5a021a048757afdca55d7835ce7c9fe73f0b41415612489576000546040516370925c3560e11b81526001600160a01b039091169063fbea6b8b90829063e124b86a90612399908e906004016130d1565b60206040518083038186803b1580156123b157600080fd5b505afa1580156123c5573d6000803e3d6000fd5b505050506040513d601f19601f820116820180604052508101906123e99190612e98565b6040518263ffffffff1660e01b815260040161240591906133af565b600060405180830381600087803b15801561241f57600080fd5b505af1158015612433573d6000803e3d6000fd5b50506000546040516370925c3560e11b81527ff0d65f4e04e67de6178ec59320a74c6a98d68a3c481c8ee20781fcd0c9b4a4db93506001600160a01b03909116915063e124b86a90611cb5908d906004016130d1565b60408051808201909152600e81526d616c7465725f6d61785f73697a6560901b6020918201528951908a01207fd96688e081841742f577ac2e7b7dd24b06ac82387bf276310f801ecbb10b9cc5141561266a576000546040516370925c3560e11b81526001600160a01b039091169063bd1b2d2e90829063e124b86a90612514908e906004016130d1565b60206040518083038186803b15801561252c57600080fd5b505afa158015612540573d6000803e3d6000fd5b505050506040513d601f19601f820116820180604052508101906125649190612e98565b6040518263ffffffff1660e01b815260040161258091906133af565b600060405180830381600087803b15801561259a57600080fd5b505af11580156125ae573d6000803e3d6000fd5b50506000546040516370925c3560e11b81527f7790b78d3f3db987c662c58ac83f25dcbf7d923e63bd22524145525c2d4d20d193506001600160a01b03909116915063e124b86a90612604908d906004016130d1565b60206040518083038186803b15801561261c57600080fd5b505afa158015612630573d6000803e3d6000fd5b505050506040513d601f19601f820116820180604052508101906126549190612e98565b60405161266191906133af565b60405180910390a15b6126a7565b7fff0c776a5fd7e993e16093294b93f713d3feaa3645224bae480d0def247077a28960405161269e91906130d1565b60405180910390a15b6126b0896126fe565b50505050506105ea565b60405162461bcd60e51b815260040161031590613240565b6000828201838110156126f75760405162461bcd60e51b8152600401610315906131e2565b9392505050565b6000805460405163e56de7c160e01b81526001600160a01b039091169163e56de7c19161272f918591600401613193565b600060405180830381600087803b15801561274957600080fd5b505af115801561275d573d6000803e3d6000fd5b505060005460405163878af33560e01b81526001600160a01b03909116925063878af33591506127919084906004016130d1565b60006040518083038186803b1580156127a957600080fd5b505afa1580156127bd573d6000803e3d6000fd5b505050506040513d6000823e601f3d908101601f191682016040526127e59190810190612cf8565b80516127f991600291602090910190612bf4565b5060025460005b818110156128975760006002828154811061281757fe5b600091825260208220015481546040516383935b3d60e01b81526001600160a01b0392831694509116916383935b3d9161285891889186919060040161310e565b600060405180830381600087803b15801561287257600080fd5b505af1158015612886573d6000803e3d6000fd5b505060019093019250612800915050565b50600054604051637d5ff84760e11b81526060916001600160a01b03169063fabff08e906128cb9086908590600401613141565b600060405180830381600087803b1580156128e557600080fd5b505af11580156128f9573d6000803e3d6000fd5b505060008054604051635a37203f60e11b81526001600160a01b03909116935063b46e407e925061292e918791600401613193565b600060405180830381600087803b15801561294857600080fd5b505af115801561295c573d6000803e3d6000fd5b50506000805460405163bb3ab55760e01b81526001600160a01b03909116935063bb3ab5579250612991918791600401613193565b600060405180830381600087803b1580156129ab57600080fd5b505af11580156129bf573d6000803e3d6000fd5b505060008054604051631fe70f0560e21b81526001600160a01b039091169350637f9c3c1492506129f491879160040161316f565b600060405180830381600087803b158015612a0e57600080fd5b505af1158015612a22573d6000803e3d6000fd5b505060408051808201909152601081526f30b2322fb732bbafb3b7bb32b93737b960811b6020918201528551908601207f7c64a97697d6fd1a3c36cd0f89c12647b7e3fb1ce5ffd2b48d456f724ed869e6149150819050612ace575060408051808201909152600f81526e3932b6b7bb32afb3b7bb32b93737b960891b6020918201528351908401207f04e49d8b1fd8837abeba585912ed5e4baf9afab856352e8d561ec583ec3e07c9145b15612b3b576000805460405163b06f8f8160e01b81526001600160a01b039091169163b06f8f8191612b049187916004016130e4565b600060405180830381600087803b158015612b1e57600080fd5b505af1158015612b32573d6000803e3d6000fd5b50505050612b9f565b60008054604051633335686560e11b81526001600160a01b039091169163666ad0ca91612b6c918791600401613193565b600060405180830381600087803b158015612b8657600080fd5b505af1158015612b9a573d6000803e3d6000fd5b505050505b505050565b60405180610100016040528060608152602001600015158152602001606081526020016000815260200160008152602001600081526020016000815260200160006001600160a01b031681525090565b828054828255906000526020600020908101928215612c49579160200282015b82811115612c4957825182546001600160a01b0319166001600160a01b03909116178255602090920191600190910190612c14565b50612c55929150612c59565b5090565b5b80821115612c555760008155600101612c5a565b8051610ad9816133dc565b60008083601f840112612c8a578182fd5b50813567ffffffffffffffff811115612ca1578182fd5b602083019150836020828501011115612cb957600080fd5b9250929050565b600060208284031215612cd1578081fd5b81356126f7816133dc565b600060208284031215612ced578081fd5b81516126f7816133dc565b60006020808385031215612d0a578182fd5b825167ffffffffffffffff80821115612d21578384fd5b818501915085601f830112612d34578384fd5b815181811115612d4057fe5b8381029150612d508483016133b8565b8181528481019084860184860187018a1015612d6a578788fd5b8795505b83861015612d9357612d7f81612c6e565b835260019590950194918601918601612d6e565b5098975050505050505050565b600060208284031215612db1578081fd5b81516126f7816133f4565b600080600060408486031215612dd0578182fd5b833567ffffffffffffffff811115612de6578283fd5b612df286828701612c79565b9094509250506020840135612e06816133f4565b809150509250925092565b60006020808385031215612e23578182fd5b823567ffffffffffffffff80821115612e3a578384fd5b818501915085601f830112612e4d578384fd5b813581811115612e5957fe5b612e6b601f8201601f191685016133b8565b91508082528684828501011115612e80578485fd5b80848401858401378101909201929092529392505050565b600060208284031215612ea9578081fd5b5051919050565b600080600060408486031215612ec4578283fd5b83359250602084013567ffffffffffffffff811115612ee1578283fd5b612eed86828701612c79565b9497909650939450505050565b6001600160a01b03169052565b6000815180845260208085019450808401835b83811015612f3f5781516001600160a01b031687529582019590820190600101612f1a565b509495945050505050565b60008284528282602086013780602084860101526020601f19601f85011685010190509392505050565b60008151808452815b81811015612f9957602081850181015186830182015201612f7d565b81811115612faa5782602083870101525b50601f01601f19169290920160200192915050565b6001600160a01b0391909116815260200190565b6001600160a01b0383168152604060208201819052600090612ff790830184612f74565b949350505050565b6000602082526126f76020830184612f07565b6020808252825482820181905260008481528281209092916040850190845b818110156130565783546001600160a01b031683526001938401939285019201613031565b50909695505050505050565b901515815260200190565b600060208252612ff7602083018486612f4a565b600060408252613095604083018587612f4a565b905060018060a01b0383166020830152949350505050565b6000604082526130c1604083018587612f4a565b9050826020830152949350505050565b6000602082526126f76020830184612f74565b6000604082526130f76040830185612f74565b905060018060a01b03831660208301529392505050565b6000606082526131216060830186612f74565b6001600160a01b0394909416602083015250901515604090910152919050565b6000604082526131546040830185612f74565b82810360208401526131668185612f07565b95945050505050565b6000604082526131826040830185612f74565b905082151560208301529392505050565b6000604082526131a66040830185612f74565b90508260208301529392505050565b60208082526013908201527233b7bb32b93737b9103737ba103337bab7321760691b604082015260600190565b6020808252601b908201527f536166654d6174683a206164646974696f6e206f766572666c6f770000000000604082015260600190565b6020808252600d908201526c105b1c9958591e481d9bdd1959609a1b604082015260600190565b6020808252600f908201526e4e6f7420696e2070726f677265737360881b604082015260600190565b60208082526012908201527120b63932b0b23c90309033b7bb32b93737b960711b604082015260600190565b6020808252600e908201526d2737ba10309033b7bb32b93737b960911b604082015260600190565b6020808252601b908201527f4f6e6c79206120676f7665726e6f722063616e20646f20746861740000000000604082015260600190565b602080825260139082015272416c726561647920496e2050726f677265737360681b604082015260600190565b6000602082528251610100806020850152613340610120850183612f74565b91506020850151151560408501526040850151601f198584030160608601526133698382612f07565b92505060608501516080850152608085015160a085015260a085015160c085015260c085015160e085015260e08501516133a582860182612efa565b5090949350505050565b90815260200190565b60405181810167ffffffffffffffff811182821017156133d457fe5b604052919050565b6001600160a01b03811681146133f157600080fd5b50565b80151581146133f157600080fdfea26469706673582212207b6aad1999ca9b63bd679e72e06f30a4873c8584a8e3f14c67a57285c31ab96564736f6c63430007030033",
  "linkReferences": {},
  "deployedLinkReferences": {}
}