{
  "_format": "hh-sol-artifact-1",
  "contractName": "Governance",
  "sourceName": "contracts/Governance.sol",
  "abi": [
    {
      "inputs": [],
      "stateMutability": "nonpayable",
      "type": "constructor"
    },
    {
      "anonymous": false,
      "inputs": [
        {
          "indexed": false,
          "internalType": "address",
          "name": "",
          "type": "address"
        }
      ],
      "name": "GOVERNOR_REMOVED",
      "type": "event"
    },
    {
      "anonymous": false,
      "inputs": [
        {
          "indexed": false,
          "internalType": "uint256",
          "name": "",
          "type": "uint256"
        }
      ],
      "name": "HOUSE_CUT_CHANGED",
      "type": "event"
    },
    {
      "anonymous": false,
      "inputs": [
        {
          "indexed": false,
          "internalType": "uint256",
          "name": "",
          "type": "uint256"
        }
      ],
      "name": "HOUSE_CUT_NEW_TOKENS_CHANGED",
      "type": "event"
    },
    {
      "anonymous": false,
      "inputs": [
        {
          "indexed": false,
          "internalType": "uint256",
          "name": "",
          "type": "uint256"
        }
      ],
      "name": "MAIN_POOL_PRICE_CHANGED",
      "type": "event"
    },
    {
      "anonymous": false,
      "inputs": [
        {
          "indexed": false,
          "internalType": "uint256",
          "name": "",
          "type": "uint256"
        }
      ],
      "name": "MAIN_POOL_SIZE_CHANGED",
      "type": "event"
    },
    {
      "anonymous": false,
      "inputs": [
        {
          "indexed": false,
          "internalType": "uint256",
          "name": "",
          "type": "uint256"
        }
      ],
      "name": "MAXIMUM_POOL_SIZE_CHANGED",
      "type": "event"
    },
    {
      "anonymous": false,
      "inputs": [
        {
          "indexed": false,
          "internalType": "uint256",
          "name": "",
          "type": "uint256"
        }
      ],
      "name": "MINIMUM_POOL_PRICE_CHANGED",
      "type": "event"
    },
    {
      "anonymous": false,
      "inputs": [
        {
          "indexed": false,
          "internalType": "uint256",
          "name": "",
          "type": "uint256"
        }
      ],
      "name": "MINIMUM_POOL_SIZE_CHANGED",
      "type": "event"
    },
    {
      "anonymous": false,
      "inputs": [
        {
          "indexed": false,
          "internalType": "uint256",
          "name": "",
          "type": "uint256"
        }
      ],
      "name": "MIN_GROTTO_GOV_CHANGED",
      "type": "event"
    },
    {
      "anonymous": false,
      "inputs": [
        {
          "indexed": false,
          "internalType": "address",
          "name": "",
          "type": "address"
        }
      ],
      "name": "NEW_GOVERNOR_ADDED",
      "type": "event"
    },
    {
      "anonymous": false,
      "inputs": [
        {
          "indexed": false,
          "internalType": "string",
          "name": "",
          "type": "string"
        }
      ],
      "name": "NEW_PROPOSAL",
      "type": "event"
    },
    {
      "anonymous": false,
      "inputs": [
        {
          "indexed": false,
          "internalType": "string",
          "name": "",
          "type": "string"
        }
      ],
      "name": "NO_CONSENSUS",
      "type": "event"
    },
    {
      "anonymous": false,
      "inputs": [
        {
          "indexed": false,
          "internalType": "address",
          "name": "",
          "type": "address"
        },
        {
          "indexed": false,
          "internalType": "string",
          "name": "",
          "type": "string"
        }
      ],
      "name": "VOTE_CASTED",
      "type": "event"
    },
    {
      "inputs": [],
      "name": "getGovernors",
      "outputs": [
        {
          "internalType": "address[]",
          "name": "",
          "type": "address[]"
        }
      ],
      "stateMutability": "view",
      "type": "function"
    },
    {
      "inputs": [],
      "name": "getHouseCut",
      "outputs": [
        {
          "internalType": "uint256",
          "name": "",
          "type": "uint256"
        }
      ],
      "stateMutability": "view",
      "type": "function"
    },
    {
      "inputs": [],
      "name": "getHouseCutNewTokens",
      "outputs": [
        {
          "internalType": "uint256",
          "name": "",
          "type": "uint256"
        }
      ],
      "stateMutability": "view",
      "type": "function"
    },
    {
      "inputs": [],
      "name": "getMainPoolPrice",
      "outputs": [
        {
          "internalType": "uint256",
          "name": "",
          "type": "uint256"
        }
      ],
      "stateMutability": "view",
      "type": "function"
    },
    {
      "inputs": [],
      "name": "getMainPoolSize",
      "outputs": [
        {
          "internalType": "uint256",
          "name": "",
          "type": "uint256"
        }
      ],
      "stateMutability": "view",
      "type": "function"
    },
    {
      "inputs": [],
      "name": "getMaximumPoolSize",
      "outputs": [
        {
          "internalType": "uint256",
          "name": "",
          "type": "uint256"
        }
      ],
      "stateMutability": "view",
      "type": "function"
    },
    {
      "inputs": [],
      "name": "getMinGrottoGovernor",
      "outputs": [
        {
          "internalType": "uint256",
          "name": "",
          "type": "uint256"
        }
      ],
      "stateMutability": "view",
      "type": "function"
    },
    {
      "inputs": [],
      "name": "getMinimumPoolPrice",
      "outputs": [
        {
          "internalType": "uint256",
          "name": "",
          "type": "uint256"
        }
      ],
      "stateMutability": "view",
      "type": "function"
    },
    {
      "inputs": [],
      "name": "getMinimumPoolSize",
      "outputs": [
        {
          "internalType": "uint256",
          "name": "",
          "type": "uint256"
        }
      ],
      "stateMutability": "view",
      "type": "function"
    },
    {
      "inputs": [
        {
          "internalType": "address",
          "name": "governor",
          "type": "address"
        }
      ],
      "name": "isGovernor",
      "outputs": [
        {
          "internalType": "bool",
          "name": "",
          "type": "bool"
        }
      ],
      "stateMutability": "view",
      "type": "function"
    },
    {
      "inputs": [
        {
          "internalType": "address",
          "name": "newGovernor",
          "type": "address"
        }
      ],
      "name": "proposeNewGovernor",
      "outputs": [],
      "stateMutability": "nonpayable",
      "type": "function"
    },
    {
      "inputs": [
        {
          "internalType": "uint256",
          "name": "value",
          "type": "uint256"
        },
        {
          "internalType": "string",
          "name": "voteId",
          "type": "string"
        }
      ],
      "name": "proposeNewValue",
      "outputs": [],
      "stateMutability": "nonpayable",
      "type": "function"
    },
    {
      "inputs": [
        {
          "internalType": "address",
          "name": "oldGovernor",
          "type": "address"
        }
      ],
      "name": "proposeRemoveGovernor",
      "outputs": [],
      "stateMutability": "nonpayable",
      "type": "function"
    },
    {
      "inputs": [
        {
          "internalType": "address",
          "name": "newAddress",
          "type": "address"
        }
      ],
      "name": "updateGov",
      "outputs": [],
      "stateMutability": "nonpayable",
      "type": "function"
    },
    {
      "inputs": [
        {
          "internalType": "string",
          "name": "voteId",
          "type": "string"
        },
        {
          "internalType": "bool",
          "name": "yesVote",
          "type": "bool"
        }
      ],
      "name": "vote",
      "outputs": [],
      "stateMutability": "nonpayable",
      "type": "function"
    },
    {
      "inputs": [
        {
          "internalType": "string",
          "name": "voteId",
          "type": "string"
        }
      ],
      "name": "votingDetails",
      "outputs": [
        {
          "components": [
            {
              "internalType": "string",
              "name": "voteId",
              "type": "string"
            },
            {
              "internalType": "bool",
              "name": "inProgress",
              "type": "bool"
            },
            {
              "internalType": "address[]",
              "name": "voters",
              "type": "address[]"
            },
            {
              "internalType": "uint256",
              "name": "yesVotes",
              "type": "uint256"
            },
            {
              "internalType": "uint256",
              "name": "noVotes",
              "type": "uint256"
            },
            {
              "internalType": "uint256",
              "name": "votes",
              "type": "uint256"
            },
            {
              "internalType": "uint256",
              "name": "proposedValue",
              "type": "uint256"
            },
            {
              "internalType": "address",
              "name": "proposedGovernor",
              "type": "address"
            }
          ],
          "internalType": "struct Data.Vote",
          "name": "",
          "type": "tuple"
        }
      ],
      "stateMutability": "view",
      "type": "function"
    }
  ],
  "bytecode": "0x6080604052600180546001600160a01b0319908116731a6c3a7e42909b38baaf482e9ca32bfde4f6bef31790915560028054909116735713f407ab8776643d31fd2e8133067febe94bc31790553480156200005957600080fd5b50600154600080546001600160a01b0319166001600160a01b0392831617908190556040516303c4a25d60e41b8152911690633c4a25d090620000b59073c04915f6b3ff85b50a863eb1fcbf36817153941390600401620002fa565b600060405180830381600087803b158015620000d057600080fd5b505af1158015620000e5573d6000803e3d6000fd5b50506000546040516303c4a25d60e41b81526001600160a01b039091169250633c4a25d091506200012f9073b58c226a300ff6dc1ef762d62c536c7aed5cea7490600401620002fa565b600060405180830381600087803b1580156200014a57600080fd5b505af11580156200015f573d6000803e3d6000fd5b50506000546040516303c4a25d60e41b81526001600160a01b039091169250633c4a25d09150620001a99073b6d80f6d661927afef42f39e52d630e250696bc490600401620002fa565b600060405180830381600087803b158015620001c457600080fd5b505af1158015620001d9573d6000803e3d6000fd5b50506000546040516303c4a25d60e41b81526001600160a01b039091169250633c4a25d091506200022390736b33d96c8353d03433034171433b0bd9bdafac8b90600401620002fa565b600060405180830381600087803b1580156200023e57600080fd5b505af115801562000253573d6000803e3d6000fd5b50506000546040516303c4a25d60e41b81526001600160a01b039091169250633c4a25d091506200029d90730a0c8e469fef425ef7c6e9754dc563f9bba588f090600401620002fa565b600060405180830381600087803b158015620002b857600080fd5b505af1158015620002cd573d6000803e3d6000fd5b5050600254600380546001600160a01b0319166001600160a01b03909216919091179055506200030e9050565b6001600160a01b0391909116815260200190565b6138a2806200031e6000396000f3fe608060405234801561001057600080fd5b50600436106101005760003560e01c806375336ae611610097578063e43581b811610066578063e43581b8146101cc578063f417bd9c146101ec578063f80b5352146101f4578063fd7f82531461020957610100565b806375336ae6146101ac57806381014bbe146101b4578063d8692395146101bc578063e0a11c20146101c457610100565b806327d3410c116100d357806327d3410c1461015e5780632880c473146101715780632c0797ef146101915780636a329ce41461019957610100565b806305868b26146101055780630b33ba7a146101235780631f9244d61461013857806326904efd1461014b575b600080fd5b61010d610211565b60405161011a9190613819565b60405180910390f35b61013661013136600461312a565b61029d565b005b61013661014636600461331a565b610364565b61013661015936600461312a565b6104dc565b61013661016c366004613226565b610665565b61018461017f36600461327b565b61076f565b60405161011a919061378b565b61010d610b53565b6101366101a736600461312a565b610ba2565b61010d610c45565b61010d610c94565b61010d610ce3565b61010d610d32565b6101df6101da36600461312a565b610d81565b60405161011a91906134cc565b61010d610f6d565b6101fc610fbc565b60405161011a9190613469565b61010d61103c565b60008060009054906101000a90046001600160a01b03166001600160a01b03166305868b266040518163ffffffff1660e01b815260040160206040518083038186803b15801561026057600080fd5b505afa158015610274573d6000803e3d6000fd5b505050506040513d601f19601f820116820180604052508101906102989190613302565b905090565b6000546040516367d6abd160e11b81526001600160a01b039091169063cfad57a2906102cd908490600401613429565b600060405180830381600087803b1580156102e757600080fd5b505af11580156102fb573d6000803e3d6000fd5b5050600354604051631637a58360e01b81526001600160a01b039091169250631637a583915061032f908490600401613429565b600060405180830381600087803b15801561034957600080fd5b505af115801561035d573d6000803e3d6000fd5b5050505050565b3361036e81610d81565b6103935760405162461bcd60e51b815260040161038a90613727565b60405180910390fd5b60008054604051622176b560e91b81526001600160a01b03909116906342ed6a00906103c590879087906004016134d7565b60206040518083038186803b1580156103dd57600080fd5b505afa1580156103f1573d6000803e3d6000fd5b505050506040513d601f19601f82011682018060405250810190610415919061320a565b905080156104355760405162461bcd60e51b815260040161038a9061375e565b600054604051633335686560e11b81526001600160a01b039091169063666ad0ca9061046990879087908a90600401613517565b600060405180830381600087803b15801561048357600080fd5b505af1158015610497573d6000803e3d6000fd5b5050505061035d84848080601f01602080910402602001604051908101604052809392919081815260200183838082843760009201919091525086925061108b915050565b336104e681610d81565b6105025760405162461bcd60e51b815260040161038a90613727565b61050b82610d81565b156105285760405162461bcd60e51b815260040161038a906136d3565b604080518082018252601081526f30b2322fb732bbafb3b7bb32b93737b960811b6020820152600080549251622176b560e91b8152919290916001600160a01b03909116906342ed6a009061058190859060040161353b565b60206040518083038186803b15801561059957600080fd5b505afa1580156105ad573d6000803e3d6000fd5b505050506040513d601f19601f820116820180604052508101906105d1919061320a565b905080156105f15760405162461bcd60e51b815260040161038a9061375e565b60005460405163b06f8f8160e01b81526001600160a01b039091169063b06f8f8190610623908590889060040161354e565b600060405180830381600087803b15801561063d57600080fd5b505af1158015610651573d6000803e3d6000fd5b5050505061065f828461108b565b50505050565b3361066f81610d81565b61068b5760405162461bcd60e51b815260040161038a90613727565b600054604051634b3e33eb60e01b81526001600160a01b0390911690634b3e33eb906106bf908790879086906004016134eb565b60206040518083038186803b1580156106d757600080fd5b505afa1580156106eb573d6000803e3d6000fd5b505050506040513d601f19601f8201168201806040525081019061070f919061320a565b1561072c5760405162461bcd60e51b815260040161038a90613683565b61065f84848080601f0160208091040260200160405190810160405280939291908181526020018383808284376000920191909152508592508691506111379050565b61077761300e565b60408051610100810182528381526000549151622176b560e91b8152909160208301916001600160a01b03909116906342ed6a00906107ba90879060040161353b565b60206040518083038186803b1580156107d257600080fd5b505afa1580156107e6573d6000803e3d6000fd5b505050506040513d601f19601f8201168201806040525081019061080a919061320a565b1515815260005460405163878af33560e01b81526020909201916001600160a01b039091169063878af3359061084490879060040161353b565b60006040518083038186803b15801561085c57600080fd5b505afa158015610870573d6000803e3d6000fd5b505050506040513d6000823e601f3d908101601f191682016040526108989190810190613162565b8152600054604051633ab5356760e21b81526020909201916001600160a01b039091169063ead4d59c906108d090879060040161353b565b60206040518083038186803b1580156108e857600080fd5b505afa1580156108fc573d6000803e3d6000fd5b505050506040513d601f19601f820116820180604052508101906109209190613302565b8152600054604051636f37a7eb60e01b81526020909201916001600160a01b0390911690636f37a7eb9061095890879060040161353b565b60206040518083038186803b15801561097057600080fd5b505afa158015610984573d6000803e3d6000fd5b505050506040513d601f19601f820116820180604052508101906109a89190613302565b815260005460405163805265e560e01b81526020909201916001600160a01b039091169063805265e5906109e090879060040161353b565b60206040518083038186803b1580156109f857600080fd5b505afa158015610a0c573d6000803e3d6000fd5b505050506040513d601f19601f82011682018060405250810190610a309190613302565b81526000546040516370925c3560e11b81526020909201916001600160a01b039091169063e124b86a90610a6890879060040161353b565b60206040518083038186803b158015610a8057600080fd5b505afa158015610a94573d6000803e3d6000fd5b505050506040513d601f19601f82011682018060405250810190610ab89190613302565b8152600054604051632f73a94f60e01b81526020909201916001600160a01b0390911690632f73a94f90610af090879060040161353b565b60206040518083038186803b158015610b0857600080fd5b505afa158015610b1c573d6000803e3d6000fd5b505050506040513d601f19601f82011682018060405250810190610b409190613146565b6001600160a01b0316905290505b919050565b60008060009054906101000a90046001600160a01b03166001600160a01b0316632c0797ef6040518163ffffffff1660e01b815260040160206040518083038186803b15801561026057600080fd5b33610bac81610d81565b610bc85760405162461bcd60e51b815260040161038a90613727565b610bd182610d81565b610bed5760405162461bcd60e51b815260040161038a906136ff565b604080518082018252600f81526e3932b6b7bb32afb3b7bb32b93737b960891b6020820152600080549251622176b560e91b8152919290916001600160a01b03909116906342ed6a009061058190859060040161353b565b60008060009054906101000a90046001600160a01b03166001600160a01b03166375336ae66040518163ffffffff1660e01b815260040160206040518083038186803b15801561026057600080fd5b60008060009054906101000a90046001600160a01b03166001600160a01b03166381014bbe6040518163ffffffff1660e01b815260040160206040518083038186803b15801561026057600080fd5b60008060009054906101000a90046001600160a01b03166001600160a01b031663d86923956040518163ffffffff1660e01b815260040160206040518083038186803b15801561026057600080fd5b60008060009054906101000a90046001600160a01b03166001600160a01b031663e0a11c206040518163ffffffff1660e01b815260040160206040518083038186803b15801561026057600080fd5b6000805460408051637c05a9a960e11b815290516060926001600160a01b03169163f80b53529160048083019287929190829003018186803b158015610dc657600080fd5b505afa158015610dda573d6000803e3d6000fd5b505050506040513d6000823e601f3d908101601f19168201604052610e029190810190613162565b905060005b8151811015610e5057836001600160a01b0316828281518110610e2657fe5b60200260200101516001600160a01b03161415610e4857600192505050610b4e565b600101610e07565b5060008054906101000a90046001600160a01b03166001600160a01b03166375336ae66040518163ffffffff1660e01b815260040160206040518083038186803b158015610e9d57600080fd5b505afa158015610eb1573d6000803e3d6000fd5b505050506040513d601f19601f82011682018060405250810190610ed59190613302565b6003546040516370a0823160e01b81526001600160a01b03909116906370a0823190610f05908790600401613429565b60206040518083038186803b158015610f1d57600080fd5b505afa158015610f31573d6000803e3d6000fd5b505050506040513d601f19601f82011682018060405250810190610f559190613302565b10610f64576001915050610b4e565b50600092915050565b60008060009054906101000a90046001600160a01b03166001600160a01b031663f417bd9c6040518163ffffffff1660e01b815260040160206040518083038186803b15801561026057600080fd5b6000805460408051637c05a9a960e11b815290516060936001600160a01b039093169263f80b53529260048082019391829003018186803b15801561100057600080fd5b505afa158015611014573d6000803e3d6000fd5b505050506040513d6000823e601f3d908101601f191682016040526102989190810190613162565b60008060009054906101000a90046001600160a01b03166001600160a01b031663fd7f82536040518163ffffffff1660e01b815260040160206040518083038186803b15801561026057600080fd5b600054604051631fe70f0560e21b81526001600160a01b0390911690637f9c3c14906110be9085906001906004016135d9565b600060405180830381600087803b1580156110d857600080fd5b505af11580156110ec573d6000803e3d6000fd5b505050506110fc82826001611137565b7ff5346fd029345ac090ffe009531c8b769cf488b789bd5b9b6a51f04f693c8cdb8260405161112b919061353b565b60405180910390a15050565b60008054604051622176b560e91b81526001600160a01b03909116906342ed6a009061116790879060040161353b565b60206040518083038186803b15801561117f57600080fd5b505afa158015611193573d6000803e3d6000fd5b505050506040513d601f19601f820116820180604052508101906111b7919061320a565b90508015612a535781156112b057600054604051633ab5356760e21b81526001600160a01b039091169063b46e407e90869061125c90600190859063ead4d59c9061120690869060040161353b565b60206040518083038186803b15801561121e57600080fd5b505afa158015611232573d6000803e3d6000fd5b505050506040513d601f19601f820116820180604052508101906112569190613302565b90612a6b565b6040518363ffffffff1660e01b81526004016112799291906135fd565b600060405180830381600087803b15801561129357600080fd5b505af11580156112a7573d6000803e3d6000fd5b50505050611341565b600054604051636f37a7eb60e01b81526001600160a01b039091169063bb3ab5579086906112f1906001908590636f37a7eb9061120690869060040161353b565b6040518363ffffffff1660e01b815260040161130e9291906135fd565b600060405180830381600087803b15801561132857600080fd5b505af115801561133c573d6000803e3d6000fd5b505050505b600054604051635607395b60e01b81526001600160a01b0390911690635607395b90611373908790879060040161354e565b600060405180830381600087803b15801561138d57600080fd5b505af11580156113a1573d6000803e3d6000fd5b505060005460405163805265e560e01b81526001600160a01b03909116925063e56de7c1915086906113e690600190859063805265e59061120690869060040161353b565b6040518363ffffffff1660e01b81526004016114039291906135fd565b600060405180830381600087803b15801561141d57600080fd5b505af1158015611431573d6000803e3d6000fd5b50506000546040516383935b3d60e01b81526001600160a01b0390911692506383935b3d915061146a9087908790600190600401613578565b600060405180830381600087803b15801561148457600080fd5b505af1158015611498573d6000803e3d6000fd5b505050507fd17e420d38fa7b9aa70264ae407a1c4bd99f817d1bbcdc3ac66034373d3d522e83856040516114cd92919061343d565b60405180910390a160008060009054906101000a90046001600160a01b03166001600160a01b031663f80b53526040518163ffffffff1660e01b815260040160006040518083038186803b15801561152457600080fd5b505afa158015611538573d6000803e3d6000fd5b505050506040513d6000823e601f3d908101601f191682016040526115609190810190613162565b5160008054604051633ab5356760e21b815292935090916001600160a01b039091169063ead4d59c9061159790899060040161353b565b60206040518083038186803b1580156115af57600080fd5b505afa1580156115c3573d6000803e3d6000fd5b505050506040513d601f19601f820116820180604052508101906115e79190613302565b60008054604051636f37a7eb60e01b815292935090916001600160a01b0390911690636f37a7eb9061161d908a9060040161353b565b60206040518083038186803b15801561163557600080fd5b505afa158015611649573d6000803e3d6000fd5b505050506040513d601f19601f8201168201806040525081019061166d9190613302565b6000805460405163805265e560e01b815292935090916001600160a01b039091169063805265e5906116a3908b9060040161353b565b60206040518083038186803b1580156116bb57600080fd5b505afa1580156116cf573d6000803e3d6000fd5b505050506040513d601f19601f820116820180604052508101906116f39190613302565b90508381148061172a57828411801561170f5750838486038401105b80611727575083831180156117275750828386038501105b90505b8015612a495761173989612a97565b1561177a577fff0c776a5fd7e993e16093294b93f713d3feaa3645224bae480d0def247077a28960405161176d919061353b565b60405180910390a1612a40565b82841115612a085760408051808201909152601081526f30b2322fb732bbafb3b7bb32b93737b960811b6020918201528951908a01207f7c64a97697d6fd1a3c36cd0f89c12647b7e3fb1ce5ffd2b48d456f724ed869e6141561196957600054604051632f73a94f60e01b81526001600160a01b0390911690633c4a25d0908290632f73a94f9061180f908e9060040161353b565b60206040518083038186803b15801561182757600080fd5b505afa15801561183b573d6000803e3d6000fd5b505050506040513d601f19601f8201168201806040525081019061185f9190613146565b6040518263ffffffff1660e01b815260040161187b9190613429565b600060405180830381600087803b15801561189557600080fd5b505af11580156118a9573d6000803e3d6000fd5b5050600054604051632f73a94f60e01b81527fb37f965f80de23bbbd6bbedcfc00eaae511237d8cb5db628162221d7a1ea816793506001600160a01b039091169150632f73a94f906118ff908d9060040161353b565b60206040518083038186803b15801561191757600080fd5b505afa15801561192b573d6000803e3d6000fd5b505050506040513d601f19601f8201168201806040525081019061194f9190613146565b60405161195c9190613429565b60405180910390a1612a03565b60408051808201909152600f81526e3932b6b7bb32afb3b7bb32b93737b960891b6020918201528951908a01207f04e49d8b1fd8837abeba585912ed5e4baf9afab856352e8d561ec583ec3e07c91415611d49576000805460408051637c05a9a960e11b81529051600019936001600160a01b039093169263f80b53529260048082019391829003018186803b158015611a0257600080fd5b505afa158015611a16573d6000803e3d6000fd5b505050506040513d6000823e601f3d908101601f19168201604052611a3e9190810190613162565b8051611a529160059160209091019061305e565b5060005b600554811015611b2157600054604051632f73a94f60e01b81526001600160a01b0390911690632f73a94f90611a90908e9060040161353b565b60206040518083038186803b158015611aa857600080fd5b505afa158015611abc573d6000803e3d6000fd5b505050506040513d601f19601f82011682018060405250810190611ae09190613146565b6001600160a01b031660058281548110611af657fe5b6000918252602090912001546001600160a01b03161415611b1957809150611b21565b600101611a56565b50806000191415611b445760405162461bcd60e51b815260040161038a9061361f565b60055481906000198101821415611b87576005805480611b6057fe5b600082815260209020810160001990810180546001600160a01b0319169055019055611c19565b60056001820381548110611b9757fe5b600091825260209091200154600580546001600160a01b039092169184908110611bbd57fe5b9060005260206000200160006101000a8154816001600160a01b0302191690836001600160a01b031602179055506005805480611bf657fe5b600082815260209020810160001990810180546001600160a01b03191690550190555b600054604051631e8f85cf60e21b81526001600160a01b0390911690637a3e173c90611c4a9060059060040161347c565b600060405180830381600087803b158015611c6457600080fd5b505af1158015611c78573d6000803e3d6000fd5b505050507f2d9464f7dd09f576b3463991f3c9523a2ca7de6422d0ceb3b2548c3b785b755960008054906101000a90046001600160a01b03166001600160a01b0316632f73a94f8e6040518263ffffffff1660e01b8152600401611cdc919061353b565b60206040518083038186803b158015611cf457600080fd5b505afa158015611d08573d6000803e3d6000fd5b505050506040513d601f19601f82011682018060405250810190611d2c9190613146565b604051611d399190613429565b60405180910390a1505050612a03565b604080518082019091526015815274616c7465725f6d61696e5f706f6f6c5f707269636560581b6020918201528951908a01207f196b5e64207ae38d7cf12d5a9f80210be0c0127de94f3c1c1bb3c7a1ad2e6e2a1415611f33576000546040516370925c3560e11b81526001600160a01b03909116906352b79fbb90670de0b6b3a764000090839063e124b86a90611de5908f9060040161353b565b60206040518083038186803b158015611dfd57600080fd5b505afa158015611e11573d6000803e3d6000fd5b505050506040513d601f19601f82011682018060405250810190611e359190613302565b026040518263ffffffff1660e01b8152600401611e529190613819565b600060405180830381600087803b158015611e6c57600080fd5b505af1158015611e80573d6000803e3d6000fd5b50506000546040516370925c3560e11b81527fa2d47ee3b232ba79f13d1b9d02e36296747f6e5464d10618b564fe27cb65d3cc93506001600160a01b03909116915063e124b86a90611ed6908d9060040161353b565b60206040518083038186803b158015611eee57600080fd5b505afa158015611f02573d6000803e3d6000fd5b505050506040513d601f19601f82011682018060405250810190611f269190613302565b60405161195c9190613819565b604080518082019091526014815273616c7465725f6d61696e5f706f6f6c5f73697a6560601b6020918201528951908a01207f0942b0235ba5d27cb77e91ef9fd81696ff66e99c74efc4ef7f723e0cebdec42b14156120b4576000546040516370925c3560e11b81526001600160a01b039091169063a758023b90829063e124b86a90611fc4908e9060040161353b565b60206040518083038186803b158015611fdc57600080fd5b505afa158015611ff0573d6000803e3d6000fd5b505050506040513d601f19601f820116820180604052508101906120149190613302565b6040518263ffffffff1660e01b81526004016120309190613819565b600060405180830381600087803b15801561204a57600080fd5b505af115801561205e573d6000803e3d6000fd5b50506000546040516370925c3560e11b81527f7ba8c21b5aa33368aa7a28375b678116081c8430095b3001ee523c44ef0d84f793506001600160a01b03909116915063e124b86a90611ed6908d9060040161353b565b60408051808201909152600f81526e185b1d195c97da1bdd5cd957d8dd5d608a1b6020918201528951908a01207f8227f9c81996570661d4efffba1595c79a52330f3fcc6285320b8f29f23d5f4f1415612230576000546040516370925c3560e11b81526001600160a01b039091169063ea99117590829063e124b86a90612140908e9060040161353b565b60206040518083038186803b15801561215857600080fd5b505afa15801561216c573d6000803e3d6000fd5b505050506040513d601f19601f820116820180604052508101906121909190613302565b6040518263ffffffff1660e01b81526004016121ac9190613819565b600060405180830381600087803b1580156121c657600080fd5b505af11580156121da573d6000803e3d6000fd5b50506000546040516370925c3560e11b81527f83dfc73b61bd22c410bd87d5b255b1c56cd979358d2ba7e6dd4baf1dca7d212d93506001600160a01b03909116915063e124b86a90611ed6908d9060040161353b565b604080518082019091526016815275616c7465725f686f7573655f6375745f746f6b656e7360501b6020918201528951908a01207f2d3030f07f0a90dec7ab1877dbd98007306ce6ba4b2b43c374c6d0d19804005514156123b3576000546040516370925c3560e11b81526001600160a01b039091169063496ec48b90829063e124b86a906122c3908e9060040161353b565b60206040518083038186803b1580156122db57600080fd5b505afa1580156122ef573d6000803e3d6000fd5b505050506040513d601f19601f820116820180604052508101906123139190613302565b6040518263ffffffff1660e01b815260040161232f9190613819565b600060405180830381600087803b15801561234957600080fd5b505af115801561235d573d6000803e3d6000fd5b50506000546040516370925c3560e11b81527f6f0a96c86f431a6875229c3e2aeabebfe6c14f4ce93ad4fe22855b73f0d7f36693506001600160a01b03909116915063e124b86a90611ed6908d9060040161353b565b60408051808201909152600f81526e616c7465725f6d696e5f707269636560881b6020918201528951908a01207f464323d588378f6cefad26fe934e38fcbace0e080eecc10fd7bdbb4d45b8fde8141561252f576000546040516370925c3560e11b81526001600160a01b039091169063d211315090829063e124b86a9061243f908e9060040161353b565b60206040518083038186803b15801561245757600080fd5b505afa15801561246b573d6000803e3d6000fd5b505050506040513d601f19601f8201168201806040525081019061248f9190613302565b6040518263ffffffff1660e01b81526004016124ab9190613819565b600060405180830381600087803b1580156124c557600080fd5b505af11580156124d9573d6000803e3d6000fd5b50506000546040516370925c3560e11b81527f987c749eb39f5b368e214422ba14eae023327542dd5e9f1de7a66c0e7695dc6393506001600160a01b03909116915063e124b86a90611ed6908d9060040161353b565b60408051808201909152600e81526d616c7465725f6d696e5f73697a6560901b6020918201528951908a01207f7e2b58d3e83d88154e07165a17e5a021a048757afdca55d7835ce7c9fe73f0b414156126aa576000546040516370925c3560e11b81526001600160a01b039091169063fbea6b8b90829063e124b86a906125ba908e9060040161353b565b60206040518083038186803b1580156125d257600080fd5b505afa1580156125e6573d6000803e3d6000fd5b505050506040513d601f19601f8201168201806040525081019061260a9190613302565b6040518263ffffffff1660e01b81526004016126269190613819565b600060405180830381600087803b15801561264057600080fd5b505af1158015612654573d6000803e3d6000fd5b50506000546040516370925c3560e11b81527ff0d65f4e04e67de6178ec59320a74c6a98d68a3c481c8ee20781fcd0c9b4a4db93506001600160a01b03909116915063e124b86a90611ed6908d9060040161353b565b60408051808201909152600e81526d616c7465725f6d61785f73697a6560901b6020918201528951908a01207fd96688e081841742f577ac2e7b7dd24b06ac82387bf276310f801ecbb10b9cc51415612825576000546040516370925c3560e11b81526001600160a01b039091169063bd1b2d2e90829063e124b86a90612735908e9060040161353b565b60206040518083038186803b15801561274d57600080fd5b505afa158015612761573d6000803e3d6000fd5b505050506040513d601f19601f820116820180604052508101906127859190613302565b6040518263ffffffff1660e01b81526004016127a19190613819565b600060405180830381600087803b1580156127bb57600080fd5b505af11580156127cf573d6000803e3d6000fd5b50506000546040516370925c3560e11b81527f7790b78d3f3db987c662c58ac83f25dcbf7d923e63bd22524145525c2d4d20d193506001600160a01b03909116915063e124b86a90611ed6908d9060040161353b565b604080518082019091526014815273616c7465725f6d696e5f676f765f67726f74746f60601b6020918201528951908a01207f8671c59c40bf6f5af4bc5e10423b68f7c399490af0dece95fec5dc0b9e5672511415612a03576000546040516370925c3560e11b81526001600160a01b03909116906381ecd27a90829063e124b86a906128b6908e9060040161353b565b60206040518083038186803b1580156128ce57600080fd5b505afa1580156128e2573d6000803e3d6000fd5b505050506040513d601f19601f820116820180604052508101906129069190613302565b6040518263ffffffff1660e01b81526004016129229190613819565b600060405180830381600087803b15801561293c57600080fd5b505af1158015612950573d6000803e3d6000fd5b50506000546040516370925c3560e11b81527fee3144816c8f5dea27f2bbf70e0ea4f675d2bb9da6f0ebde8b6477d7340b9b3393506001600160a01b03909116915063e124b86a906129a6908d9060040161353b565b60206040518083038186803b1580156129be57600080fd5b505afa1580156129d2573d6000803e3d6000fd5b505050506040513d601f19601f820116820180604052508101906129f69190613302565b60405161176d9190613819565b612a40565b7fff0c776a5fd7e993e16093294b93f713d3feaa3645224bae480d0def247077a289604051612a37919061353b565b60405180910390a15b612a4989612b68565b505050505061065f565b60405162461bcd60e51b815260040161038a906136aa565b600082820183811015612a905760405162461bcd60e51b815260040161038a9061364c565b9392505050565b6000805460405163878af33560e01b81526060916001600160a01b03169063878af33590612ac990869060040161353b565b60006040518083038186803b158015612ae157600080fd5b505afa158015612af5573d6000803e3d6000fd5b505050506040513d6000823e601f3d908101601f19168201604052612b1d9190810190613162565b905060005b8151811015612b5e57612b47828281518110612b3a57fe5b6020026020010151610d81565b612b5657600192505050610b4e565b600101612b22565b5060009392505050565b6000805460405163e56de7c160e01b81526001600160a01b039091169163e56de7c191612b999185916004016135fd565b600060405180830381600087803b158015612bb357600080fd5b505af1158015612bc7573d6000803e3d6000fd5b505060005460405163878af33560e01b81526001600160a01b03909116925063878af3359150612bfb90849060040161353b565b60006040518083038186803b158015612c1357600080fd5b505afa158015612c27573d6000803e3d6000fd5b505050506040513d6000823e601f3d908101601f19168201604052612c4f9190810190613162565b8051612c639160049160209091019061305e565b5060045460005b81811015612d0157600060048281548110612c8157fe5b600091825260208220015481546040516383935b3d60e01b81526001600160a01b0392831694509116916383935b3d91612cc2918891869190600401613578565b600060405180830381600087803b158015612cdc57600080fd5b505af1158015612cf0573d6000803e3d6000fd5b505060019093019250612c6a915050565b50600054604051637d5ff84760e11b81526060916001600160a01b03169063fabff08e90612d3590869085906004016135ab565b600060405180830381600087803b158015612d4f57600080fd5b505af1158015612d63573d6000803e3d6000fd5b505060008054604051635a37203f60e11b81526001600160a01b03909116935063b46e407e9250612d989187916004016135fd565b600060405180830381600087803b158015612db257600080fd5b505af1158015612dc6573d6000803e3d6000fd5b50506000805460405163bb3ab55760e01b81526001600160a01b03909116935063bb3ab5579250612dfb9187916004016135fd565b600060405180830381600087803b158015612e1557600080fd5b505af1158015612e29573d6000803e3d6000fd5b505060008054604051631fe70f0560e21b81526001600160a01b039091169350637f9c3c149250612e5e9187916004016135d9565b600060405180830381600087803b158015612e7857600080fd5b505af1158015612e8c573d6000803e3d6000fd5b505060408051808201909152601081526f30b2322fb732bbafb3b7bb32b93737b960811b6020918201528551908601207f7c64a97697d6fd1a3c36cd0f89c12647b7e3fb1ce5ffd2b48d456f724ed869e6149150819050612f38575060408051808201909152600f81526e3932b6b7bb32afb3b7bb32b93737b960891b6020918201528351908401207f04e49d8b1fd8837abeba585912ed5e4baf9afab856352e8d561ec583ec3e07c9145b15612fa5576000805460405163b06f8f8160e01b81526001600160a01b039091169163b06f8f8191612f6e91879160040161354e565b600060405180830381600087803b158015612f8857600080fd5b505af1158015612f9c573d6000803e3d6000fd5b50505050613009565b60008054604051633335686560e11b81526001600160a01b039091169163666ad0ca91612fd69187916004016135fd565b600060405180830381600087803b158015612ff057600080fd5b505af1158015613004573d6000803e3d6000fd5b505050505b505050565b60405180610100016040528060608152602001600015158152602001606081526020016000815260200160008152602001600081526020016000815260200160006001600160a01b031681525090565b8280548282559060005260206000209081019282156130b3579160200282015b828111156130b357825182546001600160a01b0319166001600160a01b0390911617825560209092019160019091019061307e565b506130bf9291506130c3565b5090565b5b808211156130bf57600081556001016130c4565b8051610b4e81613846565b60008083601f8401126130f4578182fd5b50813567ffffffffffffffff81111561310b578182fd5b60208301915083602082850101111561312357600080fd5b9250929050565b60006020828403121561313b578081fd5b8135612a9081613846565b600060208284031215613157578081fd5b8151612a9081613846565b60006020808385031215613174578182fd5b825167ffffffffffffffff8082111561318b578384fd5b818501915085601f83011261319e578384fd5b8151818111156131aa57fe5b83810291506131ba848301613822565b8181528481019084860184860187018a10156131d4578788fd5b8795505b838610156131fd576131e9816130d8565b8352600195909501949186019186016131d8565b5098975050505050505050565b60006020828403121561321b578081fd5b8151612a908161385e565b60008060006040848603121561323a578182fd5b833567ffffffffffffffff811115613250578283fd5b61325c868287016130e3565b90945092505060208401356132708161385e565b809150509250925092565b6000602080838503121561328d578182fd5b823567ffffffffffffffff808211156132a4578384fd5b818501915085601f8301126132b7578384fd5b8135818111156132c357fe5b6132d5601f8201601f19168501613822565b915080825286848285010111156132ea578485fd5b80848401858401378101909201929092529392505050565b600060208284031215613313578081fd5b5051919050565b60008060006040848603121561332e578283fd5b83359250602084013567ffffffffffffffff81111561334b578283fd5b613357868287016130e3565b9497909650939450505050565b6001600160a01b03169052565b6000815180845260208085019450808401835b838110156133a95781516001600160a01b031687529582019590820190600101613384565b509495945050505050565b60008284528282602086013780602084860101526020601f19601f85011685010190509392505050565b60008151808452815b81811015613403576020818501810151868301820152016133e7565b818111156134145782602083870101525b50601f01601f19169290920160200192915050565b6001600160a01b0391909116815260200190565b6001600160a01b0383168152604060208201819052600090613461908301846133de565b949350505050565b600060208252612a906020830184613371565b6020808252825482820181905260008481528281209092916040850190845b818110156134c05783546001600160a01b03168352600193840193928501920161349b565b50909695505050505050565b901515815260200190565b6000602082526134616020830184866133b4565b6000604082526134ff6040830185876133b4565b905060018060a01b0383166020830152949350505050565b60006040825261352b6040830185876133b4565b9050826020830152949350505050565b600060208252612a9060208301846133de565b60006040825261356160408301856133de565b905060018060a01b03831660208301529392505050565b60006060825261358b60608301866133de565b6001600160a01b0394909416602083015250901515604090910152919050565b6000604082526135be60408301856133de565b82810360208401526135d08185613371565b95945050505050565b6000604082526135ec60408301856133de565b905082151560208301529392505050565b60006040825261361060408301856133de565b90508260208301529392505050565b60208082526013908201527233b7bb32b93737b9103737ba103337bab7321760691b604082015260600190565b6020808252601b908201527f536166654d6174683a206164646974696f6e206f766572666c6f770000000000604082015260600190565b6020808252600d908201526c105b1c9958591e481d9bdd1959609a1b604082015260600190565b6020808252600f908201526e4e6f7420696e2070726f677265737360881b604082015260600190565b60208082526012908201527120b63932b0b23c90309033b7bb32b93737b960711b604082015260600190565b6020808252600e908201526d2737ba10309033b7bb32b93737b960911b604082015260600190565b6020808252601b908201527f4f6e6c79206120676f7665726e6f722063616e20646f20746861740000000000604082015260600190565b602080825260139082015272416c726561647920496e2050726f677265737360681b604082015260600190565b60006020825282516101008060208501526137aa6101208501836133de565b91506020850151151560408501526040850151601f198584030160608601526137d38382613371565b92505060608501516080850152608085015160a085015260a085015160c085015260c085015160e085015260e085015161380f82860182613364565b5090949350505050565b90815260200190565b60405181810167ffffffffffffffff8111828210171561383e57fe5b604052919050565b6001600160a01b038116811461385b57600080fd5b50565b801515811461385b57600080fdfea26469706673582212209b037203c225ea080216c6e01241355da0392c213c0f9811845aa2fb3da893dd64736f6c63430007030033",
  "linkReferences": {},
  "deployedLinkReferences": {}
}