{
  "_format": "hh-sol-artifact-1",
  "contractName": "Governance",
  "sourceName": "contracts/Governance.sol",
  "abi": [
    {
      "inputs": [],
      "stateMutability": "nonpayable",
      "type": "constructor"
    },
    {
      "anonymous": false,
      "inputs": [
        {
          "indexed": true,
          "internalType": "address",
          "name": "owner",
          "type": "address"
        },
        {
          "indexed": true,
          "internalType": "address",
          "name": "spender",
          "type": "address"
        },
        {
          "indexed": false,
          "internalType": "uint256",
          "name": "value",
          "type": "uint256"
        }
      ],
      "name": "Approval",
      "type": "event"
    },
    {
      "anonymous": false,
      "inputs": [
        {
          "indexed": false,
          "internalType": "address",
          "name": "",
          "type": "address"
        }
      ],
      "name": "GOVERNOR_REMOVED",
      "type": "event"
    },
    {
      "anonymous": false,
      "inputs": [
        {
          "indexed": false,
          "internalType": "uint256",
          "name": "",
          "type": "uint256"
        }
      ],
      "name": "HOUSE_CUT_CHANGED",
      "type": "event"
    },
    {
      "anonymous": false,
      "inputs": [
        {
          "indexed": false,
          "internalType": "uint256",
          "name": "",
          "type": "uint256"
        }
      ],
      "name": "HOUSE_CUT_NEW_TOKENS_CHANGED",
      "type": "event"
    },
    {
      "anonymous": false,
      "inputs": [
        {
          "indexed": false,
          "internalType": "uint256",
          "name": "",
          "type": "uint256"
        }
      ],
      "name": "MAIN_POOL_PRICE_CHANGED",
      "type": "event"
    },
    {
      "anonymous": false,
      "inputs": [
        {
          "indexed": false,
          "internalType": "uint256",
          "name": "",
          "type": "uint256"
        }
      ],
      "name": "MAIN_POOL_SIZE_CHANGED",
      "type": "event"
    },
    {
      "anonymous": false,
      "inputs": [
        {
          "indexed": false,
          "internalType": "uint256",
          "name": "",
          "type": "uint256"
        }
      ],
      "name": "MAXIMUM_POOL_SIZE_CHANGED",
      "type": "event"
    },
    {
      "anonymous": false,
      "inputs": [
        {
          "indexed": false,
          "internalType": "uint256",
          "name": "",
          "type": "uint256"
        }
      ],
      "name": "MINIMUM_POOL_PRICE_CHANGED",
      "type": "event"
    },
    {
      "anonymous": false,
      "inputs": [
        {
          "indexed": false,
          "internalType": "uint256",
          "name": "",
          "type": "uint256"
        }
      ],
      "name": "MINIMUM_POOL_SIZE_CHANGED",
      "type": "event"
    },
    {
      "anonymous": false,
      "inputs": [
        {
          "indexed": false,
          "internalType": "address",
          "name": "",
          "type": "address"
        }
      ],
      "name": "NEW_GOVERNOR_ADDED",
      "type": "event"
    },
    {
      "anonymous": false,
      "inputs": [
        {
          "indexed": false,
          "internalType": "string",
          "name": "",
          "type": "string"
        }
      ],
      "name": "NEW_PROPOSAL",
      "type": "event"
    },
    {
      "anonymous": false,
      "inputs": [
        {
          "indexed": false,
          "internalType": "string",
          "name": "",
          "type": "string"
        }
      ],
      "name": "NO_CONSENSUS",
      "type": "event"
    },
    {
      "anonymous": false,
      "inputs": [
        {
          "indexed": true,
          "internalType": "address",
          "name": "from",
          "type": "address"
        },
        {
          "indexed": true,
          "internalType": "address",
          "name": "to",
          "type": "address"
        },
        {
          "indexed": false,
          "internalType": "uint256",
          "name": "value",
          "type": "uint256"
        }
      ],
      "name": "Transfer",
      "type": "event"
    },
    {
      "anonymous": false,
      "inputs": [
        {
          "indexed": false,
          "internalType": "address",
          "name": "",
          "type": "address"
        },
        {
          "indexed": false,
          "internalType": "string",
          "name": "",
          "type": "string"
        }
      ],
      "name": "VOTE_CASTED",
      "type": "event"
    },
    {
      "inputs": [
        {
          "internalType": "address",
          "name": "owner",
          "type": "address"
        },
        {
          "internalType": "address",
          "name": "spender",
          "type": "address"
        }
      ],
      "name": "allowance",
      "outputs": [
        {
          "internalType": "uint256",
          "name": "",
          "type": "uint256"
        }
      ],
      "stateMutability": "view",
      "type": "function"
    },
    {
      "inputs": [
        {
          "internalType": "address",
          "name": "spender",
          "type": "address"
        },
        {
          "internalType": "uint256",
          "name": "amount",
          "type": "uint256"
        }
      ],
      "name": "approve",
      "outputs": [
        {
          "internalType": "bool",
          "name": "",
          "type": "bool"
        }
      ],
      "stateMutability": "nonpayable",
      "type": "function"
    },
    {
      "inputs": [
        {
          "internalType": "address",
          "name": "account",
          "type": "address"
        }
      ],
      "name": "balanceOf",
      "outputs": [
        {
          "internalType": "uint256",
          "name": "",
          "type": "uint256"
        }
      ],
      "stateMutability": "view",
      "type": "function"
    },
    {
      "inputs": [],
      "name": "decimals",
      "outputs": [
        {
          "internalType": "uint8",
          "name": "",
          "type": "uint8"
        }
      ],
      "stateMutability": "view",
      "type": "function"
    },
    {
      "inputs": [
        {
          "internalType": "address",
          "name": "spender",
          "type": "address"
        },
        {
          "internalType": "uint256",
          "name": "subtractedValue",
          "type": "uint256"
        }
      ],
      "name": "decreaseAllowance",
      "outputs": [
        {
          "internalType": "bool",
          "name": "",
          "type": "bool"
        }
      ],
      "stateMutability": "nonpayable",
      "type": "function"
    },
    {
      "inputs": [],
      "name": "getGovernors",
      "outputs": [
        {
          "internalType": "address[]",
          "name": "",
          "type": "address[]"
        }
      ],
      "stateMutability": "view",
      "type": "function"
    },
    {
      "inputs": [],
      "name": "getHouseCut",
      "outputs": [
        {
          "internalType": "uint256",
          "name": "",
          "type": "uint256"
        }
      ],
      "stateMutability": "view",
      "type": "function"
    },
    {
      "inputs": [],
      "name": "getHouseCutNewTokens",
      "outputs": [
        {
          "internalType": "uint256",
          "name": "",
          "type": "uint256"
        }
      ],
      "stateMutability": "view",
      "type": "function"
    },
    {
      "inputs": [],
      "name": "getMainPoolPrice",
      "outputs": [
        {
          "internalType": "uint256",
          "name": "",
          "type": "uint256"
        }
      ],
      "stateMutability": "view",
      "type": "function"
    },
    {
      "inputs": [],
      "name": "getMainPoolSize",
      "outputs": [
        {
          "internalType": "uint256",
          "name": "",
          "type": "uint256"
        }
      ],
      "stateMutability": "view",
      "type": "function"
    },
    {
      "inputs": [],
      "name": "getMaximumPoolSize",
      "outputs": [
        {
          "internalType": "uint256",
          "name": "",
          "type": "uint256"
        }
      ],
      "stateMutability": "view",
      "type": "function"
    },
    {
      "inputs": [],
      "name": "getMinimumPoolPrice",
      "outputs": [
        {
          "internalType": "uint256",
          "name": "",
          "type": "uint256"
        }
      ],
      "stateMutability": "view",
      "type": "function"
    },
    {
      "inputs": [],
      "name": "getMinimumPoolSize",
      "outputs": [
        {
          "internalType": "uint256",
          "name": "",
          "type": "uint256"
        }
      ],
      "stateMutability": "view",
      "type": "function"
    },
    {
      "inputs": [],
      "name": "getTransferGas",
      "outputs": [
        {
          "internalType": "uint256",
          "name": "",
          "type": "uint256"
        }
      ],
      "stateMutability": "view",
      "type": "function"
    },
    {
      "inputs": [
        {
          "internalType": "address",
          "name": "spender",
          "type": "address"
        },
        {
          "internalType": "uint256",
          "name": "addedValue",
          "type": "uint256"
        }
      ],
      "name": "increaseAllowance",
      "outputs": [
        {
          "internalType": "bool",
          "name": "",
          "type": "bool"
        }
      ],
      "stateMutability": "nonpayable",
      "type": "function"
    },
    {
      "inputs": [],
      "name": "name",
      "outputs": [
        {
          "internalType": "string",
          "name": "",
          "type": "string"
        }
      ],
      "stateMutability": "view",
      "type": "function"
    },
    {
      "inputs": [
        {
          "internalType": "address",
          "name": "newGovernor",
          "type": "address"
        }
      ],
      "name": "proposeNewGovernor",
      "outputs": [],
      "stateMutability": "nonpayable",
      "type": "function"
    },
    {
      "inputs": [
        {
          "internalType": "uint256",
          "name": "value",
          "type": "uint256"
        },
        {
          "internalType": "string",
          "name": "voteId",
          "type": "string"
        }
      ],
      "name": "proposeNewValue",
      "outputs": [],
      "stateMutability": "nonpayable",
      "type": "function"
    },
    {
      "inputs": [
        {
          "internalType": "address",
          "name": "oldGovernor",
          "type": "address"
        }
      ],
      "name": "proposeRemoveGovernor",
      "outputs": [],
      "stateMutability": "nonpayable",
      "type": "function"
    },
    {
      "inputs": [],
      "name": "symbol",
      "outputs": [
        {
          "internalType": "string",
          "name": "",
          "type": "string"
        }
      ],
      "stateMutability": "view",
      "type": "function"
    },
    {
      "inputs": [],
      "name": "totalSupply",
      "outputs": [
        {
          "internalType": "uint256",
          "name": "",
          "type": "uint256"
        }
      ],
      "stateMutability": "view",
      "type": "function"
    },
    {
      "inputs": [
        {
          "internalType": "address",
          "name": "recipient",
          "type": "address"
        },
        {
          "internalType": "uint256",
          "name": "amount",
          "type": "uint256"
        }
      ],
      "name": "transfer",
      "outputs": [
        {
          "internalType": "bool",
          "name": "",
          "type": "bool"
        }
      ],
      "stateMutability": "nonpayable",
      "type": "function"
    },
    {
      "inputs": [
        {
          "internalType": "address",
          "name": "sender",
          "type": "address"
        },
        {
          "internalType": "address",
          "name": "recipient",
          "type": "address"
        },
        {
          "internalType": "uint256",
          "name": "amount",
          "type": "uint256"
        }
      ],
      "name": "transferFrom",
      "outputs": [
        {
          "internalType": "bool",
          "name": "",
          "type": "bool"
        }
      ],
      "stateMutability": "nonpayable",
      "type": "function"
    },
    {
      "inputs": [
        {
          "internalType": "string",
          "name": "voteId",
          "type": "string"
        },
        {
          "internalType": "bool",
          "name": "yesVote",
          "type": "bool"
        }
      ],
      "name": "vote",
      "outputs": [],
      "stateMutability": "nonpayable",
      "type": "function"
    },
    {
      "inputs": [
        {
          "internalType": "string",
          "name": "voteId",
          "type": "string"
        }
      ],
      "name": "votingDetails",
      "outputs": [
        {
          "components": [
            {
              "internalType": "string",
              "name": "voteId",
              "type": "string"
            },
            {
              "internalType": "bool",
              "name": "inProgress",
              "type": "bool"
            },
            {
              "internalType": "address[]",
              "name": "voters",
              "type": "address[]"
            },
            {
              "internalType": "uint256",
              "name": "yesVotes",
              "type": "uint256"
            },
            {
              "internalType": "uint256",
              "name": "noVotes",
              "type": "uint256"
            },
            {
              "internalType": "uint256",
              "name": "votes",
              "type": "uint256"
            },
            {
              "internalType": "uint256",
              "name": "proposedValue",
              "type": "uint256"
            },
            {
              "internalType": "address",
              "name": "proposedGovernor",
              "type": "address"
            }
          ],
          "internalType": "struct Vote",
          "name": "",
          "type": "tuple"
        }
      ],
      "stateMutability": "view",
      "type": "function"
    }
  ],
  "bytecode": "0x60806040526108fc600f5568056bc75e2d6310000060105560646011819055600a60128190556013819055678ac7230489e800006014556015556016553480156200004957600080fd5b50604080518082018252601381527f476f7665726e616e636520436f6e7472616374000000000000000000000000006020808301918252835180850190945260068452652227aa23a7ab60d11b908401528151919291620000ad91600391620001c9565b508051620000c3906004906020840190620001c9565b50506005805460ff1916601217905550600e80546001818101835560008390527fbb7b4a454dc3493923482f07822329ed19e8244eff582cc204f8554c3620c3fd91820180546001600160a01b031990811673c04915f6b3ff85b50a863eb1fcbf368171539413179091558354808301855583018054821673b58c226a300ff6dc1ef762d62c536c7aed5cea741790558354808301855583018054821673b6d80f6d661927afef42f39e52d630e250696bc417905583548083018555830180548216736b33d96c8353d03433034171433b0bd9bdafac8b1790558354918201909355018054909116730a0c8e469fef425ef7c6e9754dc563f9bba588f017905562000265565b828054600181600116156101000203166002900490600052602060002090601f016020900481019282601f106200020c57805160ff19168380011785556200023c565b828001600101855582156200023c579182015b828111156200023c5782518255916020019190600101906200021f565b506200024a9291506200024e565b5090565b5b808211156200024a57600081556001016200024f565b61231380620002756000396000f3fe608060405234801561001057600080fd5b50600436106101735760003560e01c806339509351116100de578063a9059cbb11610097578063e0a11c2011610071578063e0a11c20146102f0578063f417bd9c146102f8578063f80b535214610300578063fd7f82531461031557610173565b8063a9059cbb146102c2578063d8692395146102d5578063dd62ed3e146102dd57610173565b806339509351146102665780636a329ce41461027957806370a082311461028c57806381014bbe1461029f57806395d89b41146102a7578063a457c2d7146102af57610173565b806323b872dd1161013057806323b872dd146101f057806326904efd1461020357806327d3410c146102165780632880c473146102295780632c0797ef14610249578063313ce5671461025157610173565b806305868b261461017857806306fdde0314610196578063095ea7b3146101ab5780630e7e8ba2146101cb57806318160ddd146101d35780631f9244d6146101db575b600080fd5b61018061031d565b60405161018d9190612227565b60405180910390f35b61019e610323565b60405161018d9190611f0c565b6101be6101b9366004611c6b565b6103b9565b60405161018d9190611f01565b6101806103d6565b6101806103dc565b6101ee6101e9366004611d82565b6103e2565b005b6101be6101fe366004611c30565b6104c7565b6101ee610211366004611be4565b61054e565b6101ee610224366004611c94565b610656565b61023c610237366004611ced565b61071d565b60405161018d9190612199565b61018061089b565b6102596108a1565b60405161018d9190612230565b6101be610274366004611c6b565b6108aa565b6101ee610287366004611be4565b6108f8565b61018061029a366004611be4565b61097b565b610180610996565b61019e61099c565b6101be6102bd366004611c6b565b6109fd565b6101be6102d0366004611c6b565b610a65565b610180610a79565b6101806102eb366004611bfe565b610a7f565b610180610aaa565b610180610ab0565b610308610ab6565b60405161018d9190611eb4565b610180610b17565b60115490565b60038054604080516020601f60026000196101006001881615020190951694909404938401819004810282018101909252828152606093909290918301828280156103af5780601f10610384576101008083540402835291602001916103af565b820191906000526020600020905b81548152906001019060200180831161039257829003601f168201915b5050505050905090565b60006103cd6103c6610b1d565b8484610b21565b50600192915050565b600f5490565b60025490565b33836103ed82610bd5565b6104125760405162461bcd60e51b815260040161040990612135565b60405180910390fd5b6000600b8585604051610426929190611e48565b9081526040519081900360200190205460ff16905080156104595760405162461bcd60e51b81526004016104099061216c565b81600d868660405161046c929190611e48565b9081526020016040518091039020819055506104bf85858080601f016020809104026020016040519081016040528093929190818152602001838380828437600092019190915250879250610c30915050565b505050505050565b60006104d4848484610ca9565b610544846104e0610b1d565b61053f85604051806060016040528060288152602001612291602891396001600160a01b038a1660009081526001602052604081209061051e610b1d565b6001600160a01b031681526020810191909152604001600020549190610dbe565b610b21565b5060019392505050565b3361055881610bd5565b6105745760405162461bcd60e51b815260040161040990612135565b61057d82610bd5565b1561059a5760405162461bcd60e51b815260040161040990612058565b604080518082018252601081526f30b2322fb732bbafb3b7bb32b93737b960811b60208201529051600090600b906105d3908490611e58565b9081526040519081900360200190205460ff16905080156106065760405162461bcd60e51b81526004016104099061216c565b83600c836040516106179190611e58565b90815260405190819003602001902080546001600160a01b03929092166001600160a01b03199092169190911790556106508284610c30565b50505050565b3361066081610bd5565b61067c5760405162461bcd60e51b815260040161040990612135565b6001600160a01b0381166000908152600760205260409081902090516106a59086908690611e48565b9081526040519081900360200190205460ff161515600114156106da5760405162461bcd60e51b815260040161040990612008565b61065084848080601f016020809104026020016040519081016040528093929190818152602001838380828437600092019190915250859250869150610dea9050565b610725611b36565b604051806101000160405280838152602001600b846040516107479190611e58565b90815260408051602092819003830190205460ff161515835251910190600890610772908690611e58565b90815260408051918290036020908101832080548083028501830190935282845291908301828280156107ce57602002820191906000526020600020905b81546001600160a01b031681526001909101906020018083116107b0575b505050505081526020016009846040516107e89190611e58565b9081526020016040518091039020548152602001600a8460405161080c9190611e58565b90815260200160405180910390205481526020016006846040516108309190611e58565b9081526020016040518091039020548152602001600d846040516108549190611e58565b9081526020016040518091039020548152602001600c846040516108789190611e58565b908152604051908190036020019020546001600160a01b0316905290505b919050565b60155490565b60055460ff1690565b60006103cd6108b7610b1d565b8461053f85600160006108c8610b1d565b6001600160a01b03908116825260208083019390935260409182016000908120918c16815292529020549061186c565b3361090281610bd5565b61091e5760405162461bcd60e51b815260040161040990612135565b61092782610bd5565b6109435760405162461bcd60e51b81526004016104099061210d565b604080518082018252600f81526e3932b6b7bb32afb3b7bb32b93737b960891b60208201529051600090600b906105d3908490611e58565b6001600160a01b031660009081526020819052604090205490565b60125490565b60048054604080516020601f60026000196101006001881615020190951694909404938401819004810282018101909252828152606093909290918301828280156103af5780601f10610384576101008083540402835291602001916103af565b60006103cd610a0a610b1d565b8461053f856040518060600160405280602581526020016122b96025913960016000610a34610b1d565b6001600160a01b03908116825260208083019390935260409182016000908120918d16815292529020549190610dbe565b60006103cd610a72610b1d565b8484610ca9565b60165490565b6001600160a01b03918216600090815260016020908152604080832093909416825291909152205490565b60105490565b60145490565b6060600e8054806020026020016040519081016040528092919081815260200182805480156103af57602002820191906000526020600020905b81546001600160a01b03168152600190910190602001808311610af0575050505050905090565b60135490565b3390565b6001600160a01b038316610b475760405162461bcd60e51b8152600401610409906120c9565b6001600160a01b038216610b6d5760405162461bcd60e51b815260040161040990611f8f565b6001600160a01b0380841660008181526001602090815260408083209487168084529490915290819020849055517f8c5be1e5ebec7d5bd14f71427d1e84f3dd0314c0f7b2291e5b200ac8c7c3b92590610bc8908590612227565b60405180910390a3505050565b6000805b600e54811015610c2757826001600160a01b0316600e8281548110610bfa57fe5b6000918252602090912001546001600160a01b03161415610c1f576001915050610896565b600101610bd9565b50600092915050565b6001600b83604051610c429190611e58565b908152604051908190036020019020805491151560ff19909216919091179055610c6e82826001610dea565b7ff5346fd029345ac090ffe009531c8b769cf488b789bd5b9b6a51f04f693c8cdb82604051610c9d9190611f0c565b60405180910390a15050565b6001600160a01b038316610ccf5760405162461bcd60e51b815260040161040990612084565b6001600160a01b038216610cf55760405162461bcd60e51b815260040161040990611f1f565b610d00838383611898565b610d3d8160405180606001604052806026815260200161226b602691396001600160a01b0386166000908152602081905260409020549190610dbe565b6001600160a01b038085166000908152602081905260408082209390935590841681522054610d6c908261186c565b6001600160a01b0380841660008181526020819052604090819020939093559151908516907fddf252ad1be2c89b69c2b068fc378daa952ba7f163c4a11628f55a4df523b3ef90610bc8908590612227565b60008184841115610de25760405162461bcd60e51b81526004016104099190611f0c565b505050900390565b6000600b84604051610dfc9190611e58565b9081526040519081900360200190205460ff1690508015611854578115610e6d57610e486001600986604051610e329190611e58565b908152604051908190036020019020549061186c565b600985604051610e589190611e58565b90815260405190819003602001902055610ea3565b610e826001600a86604051610e329190611e58565b600a85604051610e929190611e58565b908152604051908190036020019020555b600884604051610eb39190611e58565b908152604051602091819003820181208054600180820183556000928352939091200180546001600160a01b0319166001600160a01b038716179055610f029190600690610e32908890611e58565b600685604051610f129190611e58565b9081526040805160209281900383018120939093556001600160a01b038616600090815260079092529020600191610f4b908790611e58565b908152604051908190036020018120805492151560ff19909316929092179091557fd17e420d38fa7b9aa70264ae407a1c4bd99f817d1bbcdc3ac66034373d3d522e90610f9b9085908790611e88565b60405180910390a1600e54604051600690610fb7908790611e58565b908152602001604051809103902054141561184f576000600985604051610fde9190611e58565b90815260200160405180910390205490506000600a866040516110019190611e58565b90815260200160405180910390205490508082111561180b5760408051808201909152601081526f30b2322fb732bbafb3b7bb32b93737b960811b6020918201528651908701207f7c64a97697d6fd1a3c36cd0f89c12647b7e3fb1ce5ffd2b48d456f724ed869e6141561112557600e600c876040516110819190611e58565b90815260405190819003602090810182205483546001810185556000948552919093200180546001600160a01b0319166001600160a01b03909316929092179091557fb37f965f80de23bbbd6bbedcfc00eaae511237d8cb5db628162221d7a1ea816790600c906110f3908990611e58565b90815260405190819003602001812054611118916001600160a01b0390911690611e74565b60405180910390a1611806565b60408051808201909152600f81526e3932b6b7bb32afb3b7bb32b93737b960891b6020918201528651908701207f04e49d8b1fd8837abeba585912ed5e4baf9afab856352e8d561ec583ec3e07c9141561134c5760001960005b600e548110156111ee57600c886040516111999190611e58565b90815260405190819003602001902054600e80546001600160a01b0390921691839081106111c357fe5b6000918252602090912001546001600160a01b031614156111e6578091506111ee565b60010161117f565b508060001914156112115760405162461bcd60e51b815260040161040990611f62565b600e548190600019810182141561125457600e80548061122d57fe5b600082815260209020810160001990810180546001600160a01b03191690550190556112e6565b600e600182038154811061126457fe5b600091825260209091200154600e80546001600160a01b03909216918490811061128a57fe5b9060005260206000200160006101000a8154816001600160a01b0302191690836001600160a01b03160217905550600e8054806112c357fe5b600082815260209020810160001990810180546001600160a01b03191690550190555b7f2d9464f7dd09f576b3463991f3c9523a2ca7de6422d0ceb3b2548c3b785b7559600c8a6040516113179190611e58565b9081526040519081900360200181205461133c916001600160a01b0390911690611e74565b60405180910390a1505050611806565b604080518082019091526015815274616c7465725f6d61696e5f706f6f6c5f707269636560581b6020918201528651908701207f196b5e64207ae38d7cf12d5a9f80210be0c0127de94f3c1c1bb3c7a1ad2e6e2a141561140657670de0b6b3a7640000600d876040516113bf9190611e58565b908152602001604051809103902054026010819055507fa2d47ee3b232ba79f13d1b9d02e36296747f6e5464d10618b564fe27cb65d3cc6010546040516111189190612227565b604080518082019091526014815273616c7465725f6d61696e5f706f6f6c5f73697a6560601b6020918201528651908701207f0942b0235ba5d27cb77e91ef9fd81696ff66e99c74efc4ef7f723e0cebdec42b14156114b057600d8660405161146f9190611e58565b9081526040519081900360200181205460118190557f7ba8c21b5aa33368aa7a28375b678116081c8430095b3001ee523c44ef0d84f7916111189190612227565b60408051808201909152600f81526e185b1d195c97da1bdd5cd957d8dd5d608a1b6020918201528651908701207f8227f9c81996570661d4efffba1595c79a52330f3fcc6285320b8f29f23d5f4f141561155557600d866040516115149190611e58565b9081526040519081900360200181205460128190557f83dfc73b61bd22c410bd87d5b255b1c56cd979358d2ba7e6dd4baf1dca7d212d916111189190612227565b604080518082019091526016815275616c7465725f686f7573655f6375745f746f6b656e7360501b6020918201528651908701207f2d3030f07f0a90dec7ab1877dbd98007306ce6ba4b2b43c374c6d0d198040055141561160157600d866040516115c09190611e58565b9081526040519081900360200181205460138190557f6f0a96c86f431a6875229c3e2aeabebfe6c14f4ce93ad4fe22855b73f0d7f366916111189190612227565b60408051808201909152600f81526e616c7465725f6d696e5f707269636560881b6020918201528651908701207f464323d588378f6cefad26fe934e38fcbace0e080eecc10fd7bdbb4d45b8fde814156116b557670de0b6b3a7640000600d8760405161166e9190611e58565b908152602001604051809103902054026014819055507f987c749eb39f5b368e214422ba14eae023327542dd5e9f1de7a66c0e7695dc636014546040516111189190612227565b60408051808201909152600e81526d616c7465725f6d696e5f73697a6560901b6020918201528651908701207f7e2b58d3e83d88154e07165a17e5a021a048757afdca55d7835ce7c9fe73f0b4141561175957600d866040516117189190611e58565b9081526040519081900360200181205460158190557ff0d65f4e04e67de6178ec59320a74c6a98d68a3c481c8ee20781fcd0c9b4a4db916111189190612227565b60408051808201909152600e81526d616c7465725f6d61785f73697a6560901b6020918201528651908701207fd96688e081841742f577ac2e7b7dd24b06ac82387bf276310f801ecbb10b9cc5141561180657600d866040516117bc9190611e58565b9081526040519081900360200181205460168190557f7790b78d3f3db987c662c58ac83f25dcbf7d923e63bd22524145525c2d4d20d1916117fd9190612227565b60405180910390a15b611843565b7fff0c776a5fd7e993e16093294b93f713d3feaa3645224bae480d0def247077a28660405161183a9190611f0c565b60405180910390a15b61184c8661189d565b50505b610650565b60405162461bcd60e51b81526004016104099061202f565b6000828201838110156118915760405162461bcd60e51b815260040161040990611fd1565b9392505050565b505050565b60006006826040516118af9190611e58565b9081526040519081900360200190205560005b6008826040516118d29190611e58565b908152604051908190036020019020548110156119a7576008826040516118f99190611e58565b908152602001604051809103902080548061191057fe5b6001900381819060005260206000200160006101000a8154906001600160a01b0302191690559055600060076000600e848154811061194b57fe5b60009182526020808320909101546001600160a01b031683528201929092526040908101909120905161197f908590611e58565b908152604051908190036020019020805491151560ff199092169190911790556001016118c2565b5060006009826040516119ba9190611e58565b9081526020016040518091039020819055506000600a826040516119de9190611e58565b9081526020016040518091039020819055506000600b82604051611a029190611e58565b908152604080519182900360209081018320805494151560ff19909516949094179093558181019052601081526f30b2322fb732bbafb3b7bb32b93737b960811b908201528151908201207f7c64a97697d6fd1a3c36cd0f89c12647b7e3fb1ce5ffd2b48d456f724ed869e61480611ac5575060408051808201909152600f81526e3932b6b7bb32afb3b7bb32b93737b960891b6020918201528151908201207f04e49d8b1fd8837abeba585912ed5e4baf9afab856352e8d561ec583ec3e07c9145b15611b10576000600c82604051611adc9190611e58565b90815260405190819003602001902080546001600160a01b03929092166001600160a01b0319909216919091179055611b33565b6000600d82604051611b229190611e58565b908152604051908190036020019020555b50565b60405180610100016040528060608152602001600015158152602001606081526020016000815260200160008152602001600081526020016000815260200160006001600160a01b031681525090565b80356001600160a01b038116811461089657600080fd5b60008083601f840112611bae578182fd5b50813567ffffffffffffffff811115611bc5578182fd5b602083019150836020828501011115611bdd57600080fd5b9250929050565b600060208284031215611bf5578081fd5b61189182611b86565b60008060408385031215611c10578081fd5b611c1983611b86565b9150611c2760208401611b86565b90509250929050565b600080600060608486031215611c44578081fd5b611c4d84611b86565b9250611c5b60208501611b86565b9150604084013590509250925092565b60008060408385031215611c7d578182fd5b611c8683611b86565b946020939093013593505050565b600080600060408486031215611ca8578283fd5b833567ffffffffffffffff811115611cbe578384fd5b611cca86828701611b9d565b90945092505060208401358015158114611ce2578182fd5b809150509250925092565b60006020808385031215611cff578182fd5b823567ffffffffffffffff80821115611d16578384fd5b818501915085601f830112611d29578384fd5b813581811115611d3557fe5b604051601f8201601f1916810185018381118282101715611d5257fe5b6040528181528382018501881015611d68578586fd5b818585018683013790810190930193909352509392505050565b600080600060408486031215611d96578283fd5b83359250602084013567ffffffffffffffff811115611db3578283fd5b611dbf86828701611b9d565b9497909650939450505050565b6001600160a01b03169052565b6000815180845260208085019450808401835b83811015611e115781516001600160a01b031687529582019590820190600101611dec565b509495945050505050565b60008151808452611e3481602086016020860161223e565b601f01601f19169290920160200192915050565b6000828483379101908152919050565b60008251611e6a81846020870161223e565b9190910192915050565b6001600160a01b0391909116815260200190565b6001600160a01b0383168152604060208201819052600090611eac90830184611e1c565b949350505050565b6020808252825182820181905260009190848201906040850190845b81811015611ef55783516001600160a01b031683529284019291840191600101611ed0565b50909695505050505050565b901515815260200190565b6000602082526118916020830184611e1c565b60208082526023908201527f45524332303a207472616e7366657220746f20746865207a65726f206164647260408201526265737360e81b606082015260800190565b60208082526013908201527233b7bb32b93737b9103737ba103337bab7321760691b604082015260600190565b60208082526022908201527f45524332303a20617070726f766520746f20746865207a65726f206164647265604082015261737360f01b606082015260800190565b6020808252601b908201527f536166654d6174683a206164646974696f6e206f766572666c6f770000000000604082015260600190565b6020808252600d908201526c105b1c9958591e481d9bdd1959609a1b604082015260600190565b6020808252600f908201526e4e6f7420696e2070726f677265737360881b604082015260600190565b60208082526012908201527120b63932b0b23c90309033b7bb32b93737b960711b604082015260600190565b60208082526025908201527f45524332303a207472616e736665722066726f6d20746865207a65726f206164604082015264647265737360d81b606082015260800190565b60208082526024908201527f45524332303a20617070726f76652066726f6d20746865207a65726f206164646040820152637265737360e01b606082015260800190565b6020808252600e908201526d2737ba10309033b7bb32b93737b960911b604082015260600190565b6020808252601b908201527f4f6e6c79206120676f7665726e6f722063616e20646f20746861740000000000604082015260600190565b602080825260139082015272416c726561647920496e2050726f677265737360681b604082015260600190565b60006020825282516101008060208501526121b8610120850183611e1c565b91506020850151151560408501526040850151601f198584030160608601526121e18382611dd9565b92505060608501516080850152608085015160a085015260a085015160c085015260c085015160e085015260e085015161221d82860182611dcc565b5090949350505050565b90815260200190565b60ff91909116815260200190565b60005b83811015612259578181015183820152602001612241565b83811115610650575050600091015256fe45524332303a207472616e7366657220616d6f756e7420657863656564732062616c616e636545524332303a207472616e7366657220616d6f756e74206578636565647320616c6c6f77616e636545524332303a2064656372656173656420616c6c6f77616e63652062656c6f77207a65726fa2646970667358221220970e38dc7acf654a20b659ba9452898a546420719fa9b410c53cd841a667930064736f6c63430007030033",
  "linkReferences": {},
  "deployedLinkReferences": {}
}