{
  "_format": "hh-sol-artifact-1",
  "contractName": "Governance",
  "sourceName": "contracts/Governance.sol",
  "abi": [
    {
      "inputs": [],
      "stateMutability": "nonpayable",
      "type": "constructor"
    },
    {
      "anonymous": false,
      "inputs": [
        {
          "indexed": false,
          "internalType": "address",
          "name": "",
          "type": "address"
        }
      ],
      "name": "GOVERNOR_REMOVED",
      "type": "event"
    },
    {
      "anonymous": false,
      "inputs": [
        {
          "indexed": false,
          "internalType": "uint256",
          "name": "",
          "type": "uint256"
        }
      ],
      "name": "HOUSE_CUT_CHANGED",
      "type": "event"
    },
    {
      "anonymous": false,
      "inputs": [
        {
          "indexed": false,
          "internalType": "uint256",
          "name": "",
          "type": "uint256"
        }
      ],
      "name": "HOUSE_CUT_NEW_TOKENS_CHANGED",
      "type": "event"
    },
    {
      "anonymous": false,
      "inputs": [
        {
          "indexed": false,
          "internalType": "uint256",
          "name": "",
          "type": "uint256"
        }
      ],
      "name": "MAIN_POOL_PRICE_CHANGED",
      "type": "event"
    },
    {
      "anonymous": false,
      "inputs": [
        {
          "indexed": false,
          "internalType": "uint256",
          "name": "",
          "type": "uint256"
        }
      ],
      "name": "MAIN_POOL_SIZE_CHANGED",
      "type": "event"
    },
    {
      "anonymous": false,
      "inputs": [
        {
          "indexed": false,
          "internalType": "uint256",
          "name": "",
          "type": "uint256"
        }
      ],
      "name": "MAXIMUM_POOL_SIZE_CHANGED",
      "type": "event"
    },
    {
      "anonymous": false,
      "inputs": [
        {
          "indexed": false,
          "internalType": "uint256",
          "name": "",
          "type": "uint256"
        }
      ],
      "name": "MINIMUM_POOL_PRICE_CHANGED",
      "type": "event"
    },
    {
      "anonymous": false,
      "inputs": [
        {
          "indexed": false,
          "internalType": "uint256",
          "name": "",
          "type": "uint256"
        }
      ],
      "name": "MINIMUM_POOL_SIZE_CHANGED",
      "type": "event"
    },
    {
      "anonymous": false,
      "inputs": [
        {
          "indexed": false,
          "internalType": "uint256",
          "name": "",
          "type": "uint256"
        }
      ],
      "name": "MIN_GROTTO_GOV_CHANGED",
      "type": "event"
    },
    {
      "anonymous": false,
      "inputs": [
        {
          "indexed": false,
          "internalType": "address",
          "name": "",
          "type": "address"
        }
      ],
      "name": "NEW_GOVERNOR_ADDED",
      "type": "event"
    },
    {
      "anonymous": false,
      "inputs": [
        {
          "indexed": false,
          "internalType": "string",
          "name": "",
          "type": "string"
        }
      ],
      "name": "NEW_PROPOSAL",
      "type": "event"
    },
    {
      "anonymous": false,
      "inputs": [
        {
          "indexed": false,
          "internalType": "string",
          "name": "",
          "type": "string"
        }
      ],
      "name": "NO_CONSENSUS",
      "type": "event"
    },
    {
      "anonymous": false,
      "inputs": [
        {
          "indexed": false,
          "internalType": "uint256",
          "name": "",
          "type": "uint256"
        },
        {
          "indexed": false,
          "internalType": "uint256",
          "name": "",
          "type": "uint256"
        },
        {
          "indexed": false,
          "internalType": "uint256",
          "name": "",
          "type": "uint256"
        }
      ],
      "name": "SHARES_CHANGED",
      "type": "event"
    },
    {
      "anonymous": false,
      "inputs": [
        {
          "indexed": false,
          "internalType": "address",
          "name": "",
          "type": "address"
        },
        {
          "indexed": false,
          "internalType": "string",
          "name": "",
          "type": "string"
        }
      ],
      "name": "VOTE_CASTED",
      "type": "event"
    },
    {
      "inputs": [],
      "name": "getGovernors",
      "outputs": [
        {
          "internalType": "address payable[]",
          "name": "",
          "type": "address[]"
        }
      ],
      "stateMutability": "view",
      "type": "function"
    },
    {
      "inputs": [],
      "name": "getHouseCut",
      "outputs": [
        {
          "internalType": "uint256",
          "name": "",
          "type": "uint256"
        }
      ],
      "stateMutability": "view",
      "type": "function"
    },
    {
      "inputs": [],
      "name": "getHouseCutNewTokens",
      "outputs": [
        {
          "internalType": "uint256",
          "name": "",
          "type": "uint256"
        }
      ],
      "stateMutability": "view",
      "type": "function"
    },
    {
      "inputs": [],
      "name": "getHouseCutShares",
      "outputs": [
        {
          "internalType": "uint256",
          "name": "",
          "type": "uint256"
        },
        {
          "internalType": "uint256",
          "name": "",
          "type": "uint256"
        },
        {
          "internalType": "uint256",
          "name": "",
          "type": "uint256"
        }
      ],
      "stateMutability": "view",
      "type": "function"
    },
    {
      "inputs": [],
      "name": "getMainPoolPrice",
      "outputs": [
        {
          "internalType": "uint256",
          "name": "",
          "type": "uint256"
        }
      ],
      "stateMutability": "view",
      "type": "function"
    },
    {
      "inputs": [],
      "name": "getMainPoolSize",
      "outputs": [
        {
          "internalType": "uint256",
          "name": "",
          "type": "uint256"
        }
      ],
      "stateMutability": "view",
      "type": "function"
    },
    {
      "inputs": [],
      "name": "getMaximumPoolSize",
      "outputs": [
        {
          "internalType": "uint256",
          "name": "",
          "type": "uint256"
        }
      ],
      "stateMutability": "view",
      "type": "function"
    },
    {
      "inputs": [],
      "name": "getMinGrottoGovernor",
      "outputs": [
        {
          "internalType": "uint256",
          "name": "",
          "type": "uint256"
        }
      ],
      "stateMutability": "view",
      "type": "function"
    },
    {
      "inputs": [],
      "name": "getMinimumPoolPrice",
      "outputs": [
        {
          "internalType": "uint256",
          "name": "",
          "type": "uint256"
        }
      ],
      "stateMutability": "view",
      "type": "function"
    },
    {
      "inputs": [],
      "name": "getMinimumPoolSize",
      "outputs": [
        {
          "internalType": "uint256",
          "name": "",
          "type": "uint256"
        }
      ],
      "stateMutability": "view",
      "type": "function"
    },
    {
      "inputs": [
        {
          "internalType": "address payable",
          "name": "newGovernor",
          "type": "address"
        }
      ],
      "name": "proposeNewGovernor",
      "outputs": [],
      "stateMutability": "nonpayable",
      "type": "function"
    },
    {
      "inputs": [
        {
          "internalType": "uint256",
          "name": "houseShare",
          "type": "uint256"
        },
        {
          "internalType": "uint256",
          "name": "govsShare",
          "type": "uint256"
        },
        {
          "internalType": "uint256",
          "name": "stakersShare",
          "type": "uint256"
        }
      ],
      "name": "proposeNewShares",
      "outputs": [],
      "stateMutability": "nonpayable",
      "type": "function"
    },
    {
      "inputs": [
        {
          "internalType": "uint256",
          "name": "value",
          "type": "uint256"
        },
        {
          "internalType": "string",
          "name": "voteId",
          "type": "string"
        }
      ],
      "name": "proposeNewValue",
      "outputs": [],
      "stateMutability": "nonpayable",
      "type": "function"
    },
    {
      "inputs": [
        {
          "internalType": "address payable",
          "name": "oldGovernor",
          "type": "address"
        }
      ],
      "name": "proposeRemoveGovernor",
      "outputs": [],
      "stateMutability": "nonpayable",
      "type": "function"
    },
    {
      "inputs": [
        {
          "internalType": "address payable",
          "name": "newAddress",
          "type": "address"
        }
      ],
      "name": "updateGov",
      "outputs": [],
      "stateMutability": "nonpayable",
      "type": "function"
    },
    {
      "inputs": [
        {
          "internalType": "string",
          "name": "voteId",
          "type": "string"
        },
        {
          "internalType": "bool",
          "name": "yesVote",
          "type": "bool"
        }
      ],
      "name": "vote",
      "outputs": [],
      "stateMutability": "nonpayable",
      "type": "function"
    },
    {
      "inputs": [
        {
          "internalType": "string",
          "name": "voteId",
          "type": "string"
        }
      ],
      "name": "votingDetails",
      "outputs": [
        {
          "components": [
            {
              "internalType": "string",
              "name": "voteId",
              "type": "string"
            },
            {
              "internalType": "bool",
              "name": "inProgress",
              "type": "bool"
            },
            {
              "internalType": "address payable[]",
              "name": "voters",
              "type": "address[]"
            },
            {
              "internalType": "uint256",
              "name": "yesVotes",
              "type": "uint256"
            },
            {
              "internalType": "uint256",
              "name": "noVotes",
              "type": "uint256"
            },
            {
              "internalType": "uint256",
              "name": "votes",
              "type": "uint256"
            },
            {
              "internalType": "uint256",
              "name": "proposedValue",
              "type": "uint256"
            },
            {
              "internalType": "address",
              "name": "proposedGovernor",
              "type": "address"
            },
            {
              "components": [
                {
                  "internalType": "uint256",
                  "name": "house",
                  "type": "uint256"
                },
                {
                  "internalType": "uint256",
                  "name": "govs",
                  "type": "uint256"
                },
                {
                  "internalType": "uint256",
                  "name": "stakers",
                  "type": "uint256"
                }
              ],
              "internalType": "struct Data.ProposedShare",
              "name": "proposedShare",
              "type": "tuple"
            }
          ],
          "internalType": "struct Data.Vote",
          "name": "",
          "type": "tuple"
        }
      ],
      "stateMutability": "view",
      "type": "function"
    }
  ],
  "bytecode": "0x6080604052600180546001600160a01b031990811673544b09ceb5a199c15f9481589f4c6fe24e7d07d5179091556002805490911673bd65a77cd02654d94044af07e6e498a7cfa458d31790553480156200005957600080fd5b50600154600080546001600160a01b0319166001600160a01b0392831617908190556040516303c4a25d60e41b8152911690633c4a25d090620000b59073c04915f6b3ff85b50a863eb1fcbf36817153941390600401620002fa565b600060405180830381600087803b158015620000d057600080fd5b505af1158015620000e5573d6000803e3d6000fd5b50506000546040516303c4a25d60e41b81526001600160a01b039091169250633c4a25d091506200012f9073b58c226a300ff6dc1ef762d62c536c7aed5cea7490600401620002fa565b600060405180830381600087803b1580156200014a57600080fd5b505af11580156200015f573d6000803e3d6000fd5b50506000546040516303c4a25d60e41b81526001600160a01b039091169250633c4a25d09150620001a99073b6d80f6d661927afef42f39e52d630e250696bc490600401620002fa565b600060405180830381600087803b158015620001c457600080fd5b505af1158015620001d9573d6000803e3d6000fd5b50506000546040516303c4a25d60e41b81526001600160a01b039091169250633c4a25d091506200022390736b33d96c8353d03433034171433b0bd9bdafac8b90600401620002fa565b600060405180830381600087803b1580156200023e57600080fd5b505af115801562000253573d6000803e3d6000fd5b50506000546040516303c4a25d60e41b81526001600160a01b039091169250633c4a25d091506200029d90730a0c8e469fef425ef7c6e9754dc563f9bba588f090600401620002fa565b600060405180830381600087803b158015620002b857600080fd5b505af1158015620002cd573d6000803e3d6000fd5b5050600254600380546001600160a01b0319166001600160a01b03909216919091179055506200030e9050565b6001600160a01b0391909116815260200190565b614412806200031e6000396000f3fe608060405234801561001057600080fd5b506004361061010b5760003560e01c80636a329ce4116100a2578063d869239511610071578063d8692395146101f1578063e0a11c20146101f9578063f417bd9c14610201578063f80b535214610209578063fd7f82531461021e5761010b565b80636a329ce4146101bb57806375336ae6146101ce57806381014bbe146101d6578063bec099b7146101de5761010b565b806326904efd116100de57806326904efd1461016d57806327d3410c146101805780632880c473146101935780632c0797ef146101b35761010b565b806305868b26146101105780630b33ba7a1461012e5780631f9244d61461014357806322f3752714610156575b600080fd5b610118610226565b6040516101259190614373565b60405180910390f35b61014161013c366004613b07565b6102b2565b005b610141610151366004613cf7565b610317565b61015e610505565b6040516101259392919061437c565b61014161017b366004613b07565b61059a565b61014161018e366004613c03565b6109d1565b6101a66101a1366004613c58565b610b57565b60405161012591906142cb565b610118610ff8565b6101416101c9366004613b07565b611047565b6101186112b5565b610118611304565b6101416101ec366004613d41565b611353565b610118611571565b6101186115c0565b61011861160f565b61021161165e565b6040516101259190613ed8565b6101186116de565b60008060009054906101000a90046001600160a01b03166001600160a01b03166305868b266040518163ffffffff1660e01b815260040160206040518083038186803b15801561027557600080fd5b505afa158015610289573d6000803e3d6000fd5b505050506040513d601f19601f820116820180604052508101906102ad9190613cdf565b905090565b6000546040516367d6abd160e11b81526001600160a01b039091169063cfad57a2906102e2908490600401613e7d565b600060405180830381600087803b1580156102fc57600080fd5b505af1158015610310573d6000803e3d6000fd5b5050505050565b6000546040516318426dab60e31b815233916001600160a01b03169063c2136d5890610347908490600401613e7d565b60206040518083038186803b15801561035f57600080fd5b505afa158015610373573d6000803e3d6000fd5b505050506040513d601f19601f820116820180604052508101906103979190613be7565b6103bc5760405162461bcd60e51b81526004016103b390614267565b60405180910390fd5b60008054604051622176b560e91b81526001600160a01b03909116906342ed6a00906103ee9087908790600401613f3b565b60206040518083038186803b15801561040657600080fd5b505afa15801561041a573d6000803e3d6000fd5b505050506040513d601f19601f8201168201806040525081019061043e9190613be7565b9050801561045e5760405162461bcd60e51b81526004016103b39061429e565b600054604051633335686560e11b81526001600160a01b039091169063666ad0ca9061049290879087908a90600401613f7b565b600060405180830381600087803b1580156104ac57600080fd5b505af11580156104c0573d6000803e3d6000fd5b5050505061031084848080601f01602080910402602001604051908101604052809392919081815260200183838082843760009201919091525086925061172d915050565b60008060008060009054906101000a90046001600160a01b03166001600160a01b03166322f375276040518163ffffffff1660e01b815260040160606040518083038186803b15801561055757600080fd5b505afa15801561056b573d6000803e3d6000fd5b505050506040513d601f19601f8201168201806040525081019061058f9190613d6c565b925092509250909192565b6000546040516318426dab60e31b815233916001600160a01b03169063c2136d58906105ca908490600401613e7d565b60206040518083038186803b1580156105e257600080fd5b505afa1580156105f6573d6000803e3d6000fd5b505050506040513d601f19601f8201168201806040525081019061061a9190613be7565b156106375760405162461bcd60e51b81526004016103b390614267565b6000546040516318426dab60e31b81526001600160a01b039091169063c2136d5890610667908590600401613e7d565b60206040518083038186803b15801561067f57600080fd5b505afa158015610693573d6000803e3d6000fd5b505050506040513d601f19601f820116820180604052508101906106b79190613be7565b156106d45760405162461bcd60e51b81526004016103b3906141cb565b60008054906101000a90046001600160a01b03166001600160a01b03166375336ae66040518163ffffffff1660e01b815260040160206040518083038186803b15801561072057600080fd5b505afa158015610734573d6000803e3d6000fd5b505050506040513d601f19601f820116820180604052508101906107589190613cdf565b6003546040516370a0823160e01b81526001600160a01b03909116906370a0823190610788908690600401613e7d565b60206040518083038186803b1580156107a057600080fd5b505afa1580156107b4573d6000803e3d6000fd5b505050506040513d601f19601f820116820180604052508101906107d89190613cdf565b10156107f65760405162461bcd60e51b81526004016103b3906141f7565b6000805460408051637c05a9a960e11b815290516060936001600160a01b039093169263f80b53529260048082019391829003018186803b15801561083a57600080fd5b505afa15801561084e573d6000803e3d6000fd5b505050506040513d6000823e601f3d908101601f191682016040526108769190810190613b3f565b905060158151111561089a5760405162461bcd60e51b81526004016103b390614145565b604080518082018252601081526f30b2322fb732bbafb3b7bb32b93737b960811b6020820152600080549251622176b560e91b8152919290916001600160a01b03909116906342ed6a00906108f3908590600401613f9f565b60206040518083038186803b15801561090b57600080fd5b505afa15801561091f573d6000803e3d6000fd5b505050506040513d601f19601f820116820180604052508101906109439190613be7565b905080156109635760405162461bcd60e51b81526004016103b39061429e565b60005460405163b06f8f8160e01b81526001600160a01b039091169063b06f8f81906109959085908990600401613fb2565b600060405180830381600087803b1580156109af57600080fd5b505af11580156109c3573d6000803e3d6000fd5b50505050610310828561172d565b6000546040516318426dab60e31b815233916001600160a01b03169063c2136d5890610a01908490600401613e7d565b60206040518083038186803b158015610a1957600080fd5b505afa158015610a2d573d6000803e3d6000fd5b505050506040513d601f19601f82011682018060405250810190610a519190613be7565b610a6d5760405162461bcd60e51b81526004016103b390614267565b600054604051634b3e33eb60e01b81526001600160a01b0390911690634b3e33eb90610aa190879087908690600401613f4f565b60206040518083038186803b158015610ab957600080fd5b505afa158015610acd573d6000803e3d6000fd5b505050506040513d601f19601f82011682018060405250810190610af19190613be7565b15610b0e5760405162461bcd60e51b81526004016103b39061411e565b610b5184848080601f0160208091040260200160405190810160405280939291908181526020018383808284376000920191909152508592508691506117d99050565b50505050565b610b5f6139be565b60008060008060009054906101000a90046001600160a01b03166001600160a01b0316632974a06e6040518163ffffffff1660e01b815260040160606040518083038186803b158015610bb157600080fd5b505afa158015610bc5573d6000803e3d6000fd5b505050506040513d601f19601f82011682018060405250810190610be99190613d6c565b925092509250610bf7613a1a565b506040805160608101825284815260208082018590528183018490528251610120810184528881526000549351622176b560e91b815292939092918301916001600160a01b03909116906342ed6a0090610c55908b90600401613f9f565b60206040518083038186803b158015610c6d57600080fd5b505afa158015610c81573d6000803e3d6000fd5b505050506040513d601f19601f82011682018060405250810190610ca59190613be7565b1515815260005460405163878af33560e01b81526020909201916001600160a01b039091169063878af33590610cdf908b90600401613f9f565b60006040518083038186803b158015610cf757600080fd5b505afa158015610d0b573d6000803e3d6000fd5b505050506040513d6000823e601f3d908101601f19168201604052610d339190810190613b3f565b8152600054604051633ab5356760e21b81526020909201916001600160a01b039091169063ead4d59c90610d6b908b90600401613f9f565b60206040518083038186803b158015610d8357600080fd5b505afa158015610d97573d6000803e3d6000fd5b505050506040513d601f19601f82011682018060405250810190610dbb9190613cdf565b8152600054604051636f37a7eb60e01b81526020909201916001600160a01b0390911690636f37a7eb90610df3908b90600401613f9f565b60206040518083038186803b158015610e0b57600080fd5b505afa158015610e1f573d6000803e3d6000fd5b505050506040513d601f19601f82011682018060405250810190610e439190613cdf565b815260005460405163805265e560e01b81526020909201916001600160a01b039091169063805265e590610e7b908b90600401613f9f565b60206040518083038186803b158015610e9357600080fd5b505afa158015610ea7573d6000803e3d6000fd5b505050506040513d601f19601f82011682018060405250810190610ecb9190613cdf565b81526000546040516370925c3560e11b81526020909201916001600160a01b039091169063e124b86a90610f03908b90600401613f9f565b60206040518083038186803b158015610f1b57600080fd5b505afa158015610f2f573d6000803e3d6000fd5b505050506040513d601f19601f82011682018060405250810190610f539190613cdf565b8152600054604051632f73a94f60e01b81526020909201916001600160a01b0390911690632f73a94f90610f8b908b90600401613f9f565b60206040518083038186803b158015610fa357600080fd5b505afa158015610fb7573d6000803e3d6000fd5b505050506040513d601f19601f82011682018060405250810190610fdb9190613b23565b6001600160a01b031681526020019190915293505050505b919050565b60008060009054906101000a90046001600160a01b03166001600160a01b0316632c0797ef6040518163ffffffff1660e01b815260040160206040518083038186803b15801561027557600080fd5b6000546040516318426dab60e31b815233916001600160a01b03169063c2136d5890611077908490600401613e7d565b60206040518083038186803b15801561108f57600080fd5b505afa1580156110a3573d6000803e3d6000fd5b505050506040513d601f19601f820116820180604052508101906110c79190613be7565b6110e35760405162461bcd60e51b81526004016103b390614267565b6000546040516318426dab60e31b81526001600160a01b039091169063c2136d5890611113908590600401613e7d565b60206040518083038186803b15801561112b57600080fd5b505afa15801561113f573d6000803e3d6000fd5b505050506040513d601f19601f820116820180604052508101906111639190613be7565b61117f5760405162461bcd60e51b81526004016103b39061423f565b604080518082018252600f81526e3932b6b7bb32afb3b7bb32b93737b960891b6020820152600080549251622176b560e91b8152919290916001600160a01b03909116906342ed6a00906111d7908590600401613f9f565b60206040518083038186803b1580156111ef57600080fd5b505afa158015611203573d6000803e3d6000fd5b505050506040513d601f19601f820116820180604052508101906112279190613be7565b905080156112475760405162461bcd60e51b81526004016103b39061429e565b60005460405163b06f8f8160e01b81526001600160a01b039091169063b06f8f81906112799085908890600401613fb2565b600060405180830381600087803b15801561129357600080fd5b505af11580156112a7573d6000803e3d6000fd5b50505050610b51828461172d565b60008060009054906101000a90046001600160a01b03166001600160a01b03166375336ae66040518163ffffffff1660e01b815260040160206040518083038186803b15801561027557600080fd5b60008060009054906101000a90046001600160a01b03166001600160a01b03166381014bbe6040518163ffffffff1660e01b815260040160206040518083038186803b15801561027557600080fd5b600061135f84846133a5565b905061136b81836133a5565b90508060641461138d5760405162461bcd60e51b81526004016103b3906140b0565b6000546040516318426dab60e31b815233916001600160a01b03169063c2136d58906113bd908490600401613e7d565b60206040518083038186803b1580156113d557600080fd5b505afa1580156113e9573d6000803e3d6000fd5b505050506040513d601f19601f8201168201806040525081019061140d9190613be7565b6114295760405162461bcd60e51b81526004016103b390614267565b6040805180820182526016815275616c7465725f686f7573655f6375745f73686172657360501b6020820152600080549251622176b560e91b8152919290916001600160a01b03909116906342ed6a0090611488908590600401613f9f565b60206040518083038186803b1580156114a057600080fd5b505afa1580156114b4573d6000803e3d6000fd5b505050506040513d601f19601f820116820180604052508101906114d89190613be7565b905080156114f85760405162461bcd60e51b81526004016103b39061429e565b6000546040516307659b8d60e51b81526001600160a01b039091169063ecb371a09061152c908a908a908a9060040161437c565b600060405180830381600087803b15801561154657600080fd5b505af115801561155a573d6000803e3d6000fd5b50505050611568828461172d565b50505050505050565b60008060009054906101000a90046001600160a01b03166001600160a01b031663d86923956040518163ffffffff1660e01b815260040160206040518083038186803b15801561027557600080fd5b60008060009054906101000a90046001600160a01b03166001600160a01b031663e0a11c206040518163ffffffff1660e01b815260040160206040518083038186803b15801561027557600080fd5b60008060009054906101000a90046001600160a01b03166001600160a01b031663f417bd9c6040518163ffffffff1660e01b815260040160206040518083038186803b15801561027557600080fd5b6000805460408051637c05a9a960e11b815290516060936001600160a01b039093169263f80b53529260048082019391829003018186803b1580156116a257600080fd5b505afa1580156116b6573d6000803e3d6000fd5b505050506040513d6000823e601f3d908101601f191682016040526102ad9190810190613b3f565b60008060009054906101000a90046001600160a01b03166001600160a01b031663fd7f82536040518163ffffffff1660e01b815260040160206040518083038186803b15801561027557600080fd5b600054604051631fe70f0560e21b81526001600160a01b0390911690637f9c3c149061176090859060019060040161403d565b600060405180830381600087803b15801561177a57600080fd5b505af115801561178e573d6000803e3d6000fd5b5050505061179e828260016117d9565b7ff5346fd029345ac090ffe009531c8b769cf488b789bd5b9b6a51f04f693c8cdb826040516117cd9190613f9f565b60405180910390a15050565b60008054604051622176b560e91b81526001600160a01b03909116906342ed6a0090611809908790600401613f9f565b60206040518083038186803b15801561182157600080fd5b505afa158015611835573d6000803e3d6000fd5b505050506040513d601f19601f820116820180604052508101906118599190613be7565b9050801561338d57811561195257600054604051633ab5356760e21b81526001600160a01b039091169063b46e407e9086906118fe90600190859063ead4d59c906118a8908690600401613f9f565b60206040518083038186803b1580156118c057600080fd5b505afa1580156118d4573d6000803e3d6000fd5b505050506040513d601f19601f820116820180604052508101906118f89190613cdf565b906133a5565b6040518363ffffffff1660e01b815260040161191b929190614061565b600060405180830381600087803b15801561193557600080fd5b505af1158015611949573d6000803e3d6000fd5b505050506119e3565b600054604051636f37a7eb60e01b81526001600160a01b039091169063bb3ab557908690611993906001908590636f37a7eb906118a8908690600401613f9f565b6040518363ffffffff1660e01b81526004016119b0929190614061565b600060405180830381600087803b1580156119ca57600080fd5b505af11580156119de573d6000803e3d6000fd5b505050505b600054604051635607395b60e01b81526001600160a01b0390911690635607395b90611a159087908790600401613fb2565b600060405180830381600087803b158015611a2f57600080fd5b505af1158015611a43573d6000803e3d6000fd5b505060005460405163805265e560e01b81526001600160a01b03909116925063e56de7c191508690611a8890600190859063805265e5906118a8908690600401613f9f565b6040518363ffffffff1660e01b8152600401611aa5929190614061565b600060405180830381600087803b158015611abf57600080fd5b505af1158015611ad3573d6000803e3d6000fd5b50506000546040516383935b3d60e01b81526001600160a01b0390911692506383935b3d9150611b0c9087908790600190600401613fdc565b600060405180830381600087803b158015611b2657600080fd5b505af1158015611b3a573d6000803e3d6000fd5b505050507fd17e420d38fa7b9aa70264ae407a1c4bd99f817d1bbcdc3ac66034373d3d522e8385604051611b6f929190613eac565b60405180910390a160008060009054906101000a90046001600160a01b03166001600160a01b031663f80b53526040518163ffffffff1660e01b815260040160006040518083038186803b158015611bc657600080fd5b505afa158015611bda573d6000803e3d6000fd5b505050506040513d6000823e601f3d908101601f19168201604052611c029190810190613b3f565b5160008054604051633ab5356760e21b815292935090916001600160a01b039091169063ead4d59c90611c39908990600401613f9f565b60206040518083038186803b158015611c5157600080fd5b505afa158015611c65573d6000803e3d6000fd5b505050506040513d601f19601f82011682018060405250810190611c899190613cdf565b60008054604051636f37a7eb60e01b815292935090916001600160a01b0390911690636f37a7eb90611cbf908a90600401613f9f565b60206040518083038186803b158015611cd757600080fd5b505afa158015611ceb573d6000803e3d6000fd5b505050506040513d601f19601f82011682018060405250810190611d0f9190613cdf565b6000805460405163805265e560e01b815292935090916001600160a01b039091169063805265e590611d45908b90600401613f9f565b60206040518083038186803b158015611d5d57600080fd5b505afa158015611d71573d6000803e3d6000fd5b505050506040513d601f19601f82011682018060405250810190611d959190613cdf565b905083811480611dcc578284118015611db15750838486038401105b80611dc957508383118015611dc95750828386038501105b90505b801561338357611ddb896133d1565b15611e1c577fff0c776a5fd7e993e16093294b93f713d3feaa3645224bae480d0def247077a289604051611e0f9190613f9f565b60405180910390a161337a565b828411156133425760408051808201909152601081526f30b2322fb732bbafb3b7bb32b93737b960811b6020918201528951908a01207f7c64a97697d6fd1a3c36cd0f89c12647b7e3fb1ce5ffd2b48d456f724ed869e6141561200b57600054604051632f73a94f60e01b81526001600160a01b0390911690633c4a25d0908290632f73a94f90611eb1908e90600401613f9f565b60206040518083038186803b158015611ec957600080fd5b505afa158015611edd573d6000803e3d6000fd5b505050506040513d601f19601f82011682018060405250810190611f019190613b23565b6040518263ffffffff1660e01b8152600401611f1d9190613e7d565b600060405180830381600087803b158015611f3757600080fd5b505af1158015611f4b573d6000803e3d6000fd5b5050600054604051632f73a94f60e01b81527fb37f965f80de23bbbd6bbedcfc00eaae511237d8cb5db628162221d7a1ea816793506001600160a01b039091169150632f73a94f90611fa1908d90600401613f9f565b60206040518083038186803b158015611fb957600080fd5b505afa158015611fcd573d6000803e3d6000fd5b505050506040513d601f19601f82011682018060405250810190611ff19190613b23565b604051611ffe9190613e7d565b60405180910390a161333d565b60408051808201909152600f81526e3932b6b7bb32afb3b7bb32b93737b960891b6020918201528951908a01207f04e49d8b1fd8837abeba585912ed5e4baf9afab856352e8d561ec583ec3e07c9141561247a576000805460408051637c05a9a960e11b81529051600019936001600160a01b039093169263f80b53529260048082019391829003018186803b1580156120a457600080fd5b505afa1580156120b8573d6000803e3d6000fd5b505050506040513d6000823e601f3d908101601f191682016040526120e09190810190613b3f565b80516120f491600591602090910190613a3b565b5060005b6005548110156121c357600054604051632f73a94f60e01b81526001600160a01b0390911690632f73a94f90612132908e90600401613f9f565b60206040518083038186803b15801561214a57600080fd5b505afa15801561215e573d6000803e3d6000fd5b505050506040513d601f19601f820116820180604052508101906121829190613b23565b6001600160a01b03166005828154811061219857fe5b6000918252602090912001546001600160a01b031614156121bb578091506121c3565b6001016120f8565b508060001914156121e65760405162461bcd60e51b81526004016103b390614083565b60008190506000600582815481106121fa57fe5b6000918252602090912001546005546001600160a01b039091169150600019810183141561225457600580548061222d57fe5b600082815260209020810160001990810180546001600160a01b03191690550190556122e6565b6005600182038154811061226457fe5b600091825260209091200154600580546001600160a01b03909216918590811061228a57fe5b9060005260206000200160006101000a8154816001600160a01b0302191690836001600160a01b0316021790555060058054806122c357fe5b600082815260209020810160001990810180546001600160a01b03191690550190555b600054604051631e8f85cf60e21b81526001600160a01b0390911690637a3e173c9061231790600590600401613eeb565b600060405180830381600087803b15801561233157600080fd5b505af1158015612345573d6000803e3d6000fd5b505060008054604051635b3fa43360e11b81526001600160a01b03909116935063b67f4866925061237a918691600401613e91565b600060405180830381600087803b15801561239457600080fd5b505af11580156123a8573d6000803e3d6000fd5b505050507f2d9464f7dd09f576b3463991f3c9523a2ca7de6422d0ceb3b2548c3b785b755960008054906101000a90046001600160a01b03166001600160a01b0316632f73a94f8f6040518263ffffffff1660e01b815260040161240c9190613f9f565b60206040518083038186803b15801561242457600080fd5b505afa158015612438573d6000803e3d6000fd5b505050506040513d601f19601f8201168201806040525081019061245c9190613b23565b6040516124699190613e7d565b60405180910390a15050505061333d565b604080518082019091526015815274616c7465725f6d61696e5f706f6f6c5f707269636560581b6020918201528951908a01207f196b5e64207ae38d7cf12d5a9f80210be0c0127de94f3c1c1bb3c7a1ad2e6e2a1415612664576000546040516370925c3560e11b81526001600160a01b03909116906352b79fbb90670de0b6b3a764000090839063e124b86a90612516908f90600401613f9f565b60206040518083038186803b15801561252e57600080fd5b505afa158015612542573d6000803e3d6000fd5b505050506040513d601f19601f820116820180604052508101906125669190613cdf565b026040518263ffffffff1660e01b81526004016125839190614373565b600060405180830381600087803b15801561259d57600080fd5b505af11580156125b1573d6000803e3d6000fd5b50506000546040516370925c3560e11b81527fa2d47ee3b232ba79f13d1b9d02e36296747f6e5464d10618b564fe27cb65d3cc93506001600160a01b03909116915063e124b86a90612607908d90600401613f9f565b60206040518083038186803b15801561261f57600080fd5b505afa158015612633573d6000803e3d6000fd5b505050506040513d601f19601f820116820180604052508101906126579190613cdf565b604051611ffe9190614373565b604080518082019091526014815273616c7465725f6d61696e5f706f6f6c5f73697a6560601b6020918201528951908a01207f0942b0235ba5d27cb77e91ef9fd81696ff66e99c74efc4ef7f723e0cebdec42b14156127e5576000546040516370925c3560e11b81526001600160a01b039091169063a758023b90829063e124b86a906126f5908e90600401613f9f565b60206040518083038186803b15801561270d57600080fd5b505afa158015612721573d6000803e3d6000fd5b505050506040513d601f19601f820116820180604052508101906127459190613cdf565b6040518263ffffffff1660e01b81526004016127619190614373565b600060405180830381600087803b15801561277b57600080fd5b505af115801561278f573d6000803e3d6000fd5b50506000546040516370925c3560e11b81527f7ba8c21b5aa33368aa7a28375b678116081c8430095b3001ee523c44ef0d84f793506001600160a01b03909116915063e124b86a90612607908d90600401613f9f565b60408051808201909152600f81526e185b1d195c97da1bdd5cd957d8dd5d608a1b6020918201528951908a01207f8227f9c81996570661d4efffba1595c79a52330f3fcc6285320b8f29f23d5f4f1415612961576000546040516370925c3560e11b81526001600160a01b039091169063ea99117590829063e124b86a90612871908e90600401613f9f565b60206040518083038186803b15801561288957600080fd5b505afa15801561289d573d6000803e3d6000fd5b505050506040513d601f19601f820116820180604052508101906128c19190613cdf565b6040518263ffffffff1660e01b81526004016128dd9190614373565b600060405180830381600087803b1580156128f757600080fd5b505af115801561290b573d6000803e3d6000fd5b50506000546040516370925c3560e11b81527f83dfc73b61bd22c410bd87d5b255b1c56cd979358d2ba7e6dd4baf1dca7d212d93506001600160a01b03909116915063e124b86a90612607908d90600401613f9f565b604080518082019091526016815275616c7465725f686f7573655f6375745f746f6b656e7360501b6020918201528951908a01207f2d3030f07f0a90dec7ab1877dbd98007306ce6ba4b2b43c374c6d0d1980400551415612ae4576000546040516370925c3560e11b81526001600160a01b039091169063496ec48b90829063e124b86a906129f4908e90600401613f9f565b60206040518083038186803b158015612a0c57600080fd5b505afa158015612a20573d6000803e3d6000fd5b505050506040513d601f19601f82011682018060405250810190612a449190613cdf565b6040518263ffffffff1660e01b8152600401612a609190614373565b600060405180830381600087803b158015612a7a57600080fd5b505af1158015612a8e573d6000803e3d6000fd5b50506000546040516370925c3560e11b81527f6f0a96c86f431a6875229c3e2aeabebfe6c14f4ce93ad4fe22855b73f0d7f36693506001600160a01b03909116915063e124b86a90612607908d90600401613f9f565b60408051808201909152600f81526e616c7465725f6d696e5f707269636560881b6020918201528951908a01207f464323d588378f6cefad26fe934e38fcbace0e080eecc10fd7bdbb4d45b8fde81415612c6b576000546040516370925c3560e11b81526001600160a01b039091169063d211315090670de0b6b3a764000090839063e124b86a90612b7a908f90600401613f9f565b60206040518083038186803b158015612b9257600080fd5b505afa158015612ba6573d6000803e3d6000fd5b505050506040513d601f19601f82011682018060405250810190612bca9190613cdf565b026040518263ffffffff1660e01b8152600401612be79190614373565b600060405180830381600087803b158015612c0157600080fd5b505af1158015612c15573d6000803e3d6000fd5b50506000546040516370925c3560e11b81527f987c749eb39f5b368e214422ba14eae023327542dd5e9f1de7a66c0e7695dc6393506001600160a01b03909116915063e124b86a90612607908d90600401613f9f565b60408051808201909152600e81526d616c7465725f6d696e5f73697a6560901b6020918201528951908a01207f7e2b58d3e83d88154e07165a17e5a021a048757afdca55d7835ce7c9fe73f0b41415612de6576000546040516370925c3560e11b81526001600160a01b039091169063fbea6b8b90829063e124b86a90612cf6908e90600401613f9f565b60206040518083038186803b158015612d0e57600080fd5b505afa158015612d22573d6000803e3d6000fd5b505050506040513d601f19601f82011682018060405250810190612d469190613cdf565b6040518263ffffffff1660e01b8152600401612d629190614373565b600060405180830381600087803b158015612d7c57600080fd5b505af1158015612d90573d6000803e3d6000fd5b50506000546040516370925c3560e11b81527ff0d65f4e04e67de6178ec59320a74c6a98d68a3c481c8ee20781fcd0c9b4a4db93506001600160a01b03909116915063e124b86a90612607908d90600401613f9f565b60408051808201909152600e81526d616c7465725f6d61785f73697a6560901b6020918201528951908a01207fd96688e081841742f577ac2e7b7dd24b06ac82387bf276310f801ecbb10b9cc51415612f61576000546040516370925c3560e11b81526001600160a01b039091169063bd1b2d2e90829063e124b86a90612e71908e90600401613f9f565b60206040518083038186803b158015612e8957600080fd5b505afa158015612e9d573d6000803e3d6000fd5b505050506040513d601f19601f82011682018060405250810190612ec19190613cdf565b6040518263ffffffff1660e01b8152600401612edd9190614373565b600060405180830381600087803b158015612ef757600080fd5b505af1158015612f0b573d6000803e3d6000fd5b50506000546040516370925c3560e11b81527f7790b78d3f3db987c662c58ac83f25dcbf7d923e63bd22524145525c2d4d20d193506001600160a01b03909116915063e124b86a90612607908d90600401613f9f565b604080518082019091526014815273616c7465725f6d696e5f676f765f67726f74746f60601b6020918201528951908a01207f8671c59c40bf6f5af4bc5e10423b68f7c399490af0dece95fec5dc0b9e56725114156130ed576000546040516370925c3560e11b81526001600160a01b03909116906381ecd27a90670de0b6b3a764000090839063e124b86a90612ffc908f90600401613f9f565b60206040518083038186803b15801561301457600080fd5b505afa158015613028573d6000803e3d6000fd5b505050506040513d601f19601f8201168201806040525081019061304c9190613cdf565b026040518263ffffffff1660e01b81526004016130699190614373565b600060405180830381600087803b15801561308357600080fd5b505af1158015613097573d6000803e3d6000fd5b50506000546040516370925c3560e11b81527fee3144816c8f5dea27f2bbf70e0ea4f675d2bb9da6f0ebde8b6477d7340b9b3393506001600160a01b03909116915063e124b86a90612607908d90600401613f9f565b604080518082019091526016815275616c7465725f686f7573655f6375745f73686172657360501b6020918201528951908a01207f86cf7bbebdf86e52dde3ff1fbbb578d18aa85368b242ea74d713182f1072da44141561333d5760008060008060009054906101000a90046001600160a01b03166001600160a01b0316632974a06e6040518163ffffffff1660e01b815260040160606040518083038186803b15801561319a57600080fd5b505afa1580156131ae573d6000803e3d6000fd5b505050506040513d601f19601f820116820180604052508101906131d29190613d6c565b600054604051630c75bf5d60e01b815293965091945092506001600160a01b031690630c75bf5d90613208908690600401614373565b600060405180830381600087803b15801561322257600080fd5b505af1158015613236573d6000803e3d6000fd5b50506000546040516373cf71c160e11b81526001600160a01b03909116925063e79ee382915061326a908490600401614373565b600060405180830381600087803b15801561328457600080fd5b505af1158015613298573d6000803e3d6000fd5b505060005460405163c665de8b60e01b81526001600160a01b03909116925063c665de8b91506132cc908590600401614373565b600060405180830381600087803b1580156132e657600080fd5b505af11580156132fa573d6000803e3d6000fd5b505050507f1f7abe51c39b33f29fe0af45d6c928f3311156877b6940dda580d5b3ebbb547d8383836040516133319392919061437c565b60405180910390a15050505b61337a565b7fff0c776a5fd7e993e16093294b93f713d3feaa3645224bae480d0def247077a2896040516133719190613f9f565b60405180910390a15b6133838961351d565b5050505050610b51565b60405162461bcd60e51b81526004016103b3906141a2565b6000828201838110156133ca5760405162461bcd60e51b81526004016103b3906140e7565b9392505050565b6000805460405163878af33560e01b81526060916001600160a01b03169063878af33590613403908690600401613f9f565b60006040518083038186803b15801561341b57600080fd5b505afa15801561342f573d6000803e3d6000fd5b505050506040513d6000823e601f3d908101601f191682016040526134579190810190613b3f565b905060005b81518110156135135760005482516001600160a01b039091169063c2136d589084908490811061348857fe5b60200260200101516040518263ffffffff1660e01b81526004016134ac9190613e7d565b60206040518083038186803b1580156134c457600080fd5b505afa1580156134d8573d6000803e3d6000fd5b505050506040513d601f19601f820116820180604052508101906134fc9190613be7565b61350b57600192505050610ff3565b60010161345c565b5060009392505050565b6000805460405163e56de7c160e01b81526001600160a01b039091169163e56de7c19161354e918591600401614061565b600060405180830381600087803b15801561356857600080fd5b505af115801561357c573d6000803e3d6000fd5b505060005460405163878af33560e01b81526001600160a01b03909116925063878af33591506135b0908490600401613f9f565b60006040518083038186803b1580156135c857600080fd5b505afa1580156135dc573d6000803e3d6000fd5b505050506040513d6000823e601f3d908101601f191682016040526136049190810190613b3f565b805161361891600491602090910190613a3b565b5060045460005b818110156136b65760006004828154811061363657fe5b600091825260208220015481546040516383935b3d60e01b81526001600160a01b0392831694509116916383935b3d91613677918891869190600401613fdc565b600060405180830381600087803b15801561369157600080fd5b505af11580156136a5573d6000803e3d6000fd5b50506001909301925061361f915050565b50600054604051637d5ff84760e11b81526060916001600160a01b03169063fabff08e906136ea908690859060040161400f565b600060405180830381600087803b15801561370457600080fd5b505af1158015613718573d6000803e3d6000fd5b505060008054604051635a37203f60e11b81526001600160a01b03909116935063b46e407e925061374d918791600401614061565b600060405180830381600087803b15801561376757600080fd5b505af115801561377b573d6000803e3d6000fd5b50506000805460405163bb3ab55760e01b81526001600160a01b03909116935063bb3ab55792506137b0918791600401614061565b600060405180830381600087803b1580156137ca57600080fd5b505af11580156137de573d6000803e3d6000fd5b505060008054604051631fe70f0560e21b81526001600160a01b039091169350637f9c3c14925061381391879160040161403d565b600060405180830381600087803b15801561382d57600080fd5b505af1158015613841573d6000803e3d6000fd5b505060408051808201909152601081526f30b2322fb732bbafb3b7bb32b93737b960811b6020918201528551908601207f7c64a97697d6fd1a3c36cd0f89c12647b7e3fb1ce5ffd2b48d456f724ed869e61491508190506138ed575060408051808201909152600f81526e3932b6b7bb32afb3b7bb32b93737b960891b6020918201528351908401207f04e49d8b1fd8837abeba585912ed5e4baf9afab856352e8d561ec583ec3e07c9145b1561395a576000805460405163b06f8f8160e01b81526001600160a01b039091169163b06f8f8191613923918791600401613fb2565b600060405180830381600087803b15801561393d57600080fd5b505af1158015613951573d6000803e3d6000fd5b505050506139b9565b60008054604051633335686560e11b81526001600160a01b039091169163666ad0ca9161398b918791600401614061565b600060405180830381600087803b1580156139a557600080fd5b505af1158015611568573d6000803e3d6000fd5b505050565b60405180610120016040528060608152602001600015158152602001606081526020016000815260200160008152602001600081526020016000815260200160006001600160a01b03168152602001613a15613a1a565b905290565b60405180606001604052806000815260200160008152602001600081525090565b828054828255906000526020600020908101928215613a90579160200282015b82811115613a9057825182546001600160a01b0319166001600160a01b03909116178255602090920191600190910190613a5b565b50613a9c929150613aa0565b5090565b5b80821115613a9c5760008155600101613aa1565b8051610ff3816143b6565b60008083601f840112613ad1578182fd5b50813567ffffffffffffffff811115613ae8578182fd5b602083019150836020828501011115613b0057600080fd5b9250929050565b600060208284031215613b18578081fd5b81356133ca816143b6565b600060208284031215613b34578081fd5b81516133ca816143b6565b60006020808385031215613b51578182fd5b825167ffffffffffffffff80821115613b68578384fd5b818501915085601f830112613b7b578384fd5b815181811115613b8757fe5b8381029150613b97848301614392565b8181528481019084860184860187018a1015613bb1578788fd5b8795505b83861015613bda57613bc681613ab5565b835260019590950194918601918601613bb5565b5098975050505050505050565b600060208284031215613bf8578081fd5b81516133ca816143ce565b600080600060408486031215613c17578182fd5b833567ffffffffffffffff811115613c2d578283fd5b613c3986828701613ac0565b9094509250506020840135613c4d816143ce565b809150509250925092565b60006020808385031215613c6a578182fd5b823567ffffffffffffffff80821115613c81578384fd5b818501915085601f830112613c94578384fd5b813581811115613ca057fe5b613cb2601f8201601f19168501614392565b91508082528684828501011115613cc7578485fd5b80848401858401378101909201929092529392505050565b600060208284031215613cf0578081fd5b5051919050565b600080600060408486031215613d0b578283fd5b83359250602084013567ffffffffffffffff811115613d28578283fd5b613d3486828701613ac0565b9497909650939450505050565b600080600060608486031215613d55578283fd5b505081359360208301359350604090920135919050565b600080600060608486031215613d80578283fd5b8351925060208401519150604084015190509250925092565b6001600160a01b03169052565b6000815180845260208085019450808401835b83811015613dde5781516001600160a01b031687529582019590820190600101613db9565b509495945050505050565b15159052565b60008284528282602086013780602084860101526020601f19601f85011685010190509392505050565b60008151808452815b81811015613e3e57602081850181015186830182015201613e22565b81811115613e4f5782602083870101525b50601f01601f19169290920160200192915050565b8051825260208082015190830152604090810151910152565b6001600160a01b0391909116815260200190565b6001600160a01b039290921682521515602082015260400190565b6001600160a01b0383168152604060208201819052600090613ed090830184613e19565b949350505050565b6000602082526133ca6020830184613da6565b6020808252825482820181905260008481528281209092916040850190845b81811015613f2f5783546001600160a01b031683526001938401939285019201613f0a565b50909695505050505050565b600060208252613ed0602083018486613def565b600060408252613f63604083018587613def565b905060018060a01b0383166020830152949350505050565b600060408252613f8f604083018587613def565b9050826020830152949350505050565b6000602082526133ca6020830184613e19565b600060408252613fc56040830185613e19565b905060018060a01b03831660208301529392505050565b600060608252613fef6060830186613e19565b6001600160a01b0394909416602083015250901515604090910152919050565b6000604082526140226040830185613e19565b82810360208401526140348185613da6565b95945050505050565b6000604082526140506040830185613e19565b905082151560208301529392505050565b6000604082526140746040830185613e19565b90508260208301529392505050565b60208082526013908201527233b7bb32b93737b9103737ba103337bab7321760691b604082015260600190565b6020808252601f908201527f536861726573206e6f742070726f7065726c7920646973747269627574656400604082015260600190565b6020808252601b908201527f536166654d6174683a206164646974696f6e206f766572666c6f770000000000604082015260600190565b6020808252600d908201526c105b1c9958591e481d9bdd1959609a1b604082015260600190565b60208082526037908201527f596f752063616e206e6f7420616464206d6f726520676f7665726e6f72732e2060408201527f52656d6f7665206120676f7665726e6f72206669727374000000000000000000606082015260800190565b6020808252600f908201526e4e6f7420696e2070726f677265737360881b604082015260600190565b60208082526012908201527120b63932b0b23c90309033b7bb32b93737b960711b604082015260600190565b60208082526028908201527f4e657720476f7665726e6f7220646f6573206e6f74206861766520656e6f7567604082015267682047524f54544f60c01b606082015260800190565b6020808252600e908201526d2737ba10309033b7bb32b93737b960911b604082015260600190565b6020808252601b908201527f4f6e6c79206120676f7665726e6f722063616e20646f20746861740000000000604082015260600190565b602080825260139082015272416c726561647920496e2050726f677265737360681b604082015260600190565b600060208252825161016060208401526142e9610180840182613e19565b905060208401516142fd6040850182613de9565b506040840151838203601f190160608501526143198282613da6565b91505060608401516080840152608084015160a084015260a084015160c084015260c084015160e084015260e084015161010061435881860183613d99565b850151905061436b610120850182613e64565b509392505050565b90815260200190565b9283526020830191909152604082015260600190565b60405181810167ffffffffffffffff811182821017156143ae57fe5b604052919050565b6001600160a01b03811681146143cb57600080fd5b50565b80151581146143cb57600080fdfea2646970667358221220eb0e782e318e08adc4d60c8ef01daae500ea0c41e046fb810aa46451436c1d4864736f6c63430007030033",
  "linkReferences": {},
  "deployedLinkReferences": {}
}