{
  "_format": "hh-sol-artifact-1",
  "contractName": "Grotto",
  "sourceName": "contracts/Grotto.sol",
  "abi": [
    {
      "inputs": [],
      "stateMutability": "nonpayable",
      "type": "constructor"
    },
    {
      "anonymous": false,
      "inputs": [
        {
          "indexed": false,
          "internalType": "bytes32",
          "name": "",
          "type": "bytes32"
        },
        {
          "indexed": false,
          "internalType": "address",
          "name": "",
          "type": "address"
        }
      ],
      "name": "POOL_CREATED",
      "type": "event"
    },
    {
      "anonymous": false,
      "inputs": [
        {
          "indexed": false,
          "internalType": "bytes32",
          "name": "",
          "type": "bytes32"
        },
        {
          "indexed": false,
          "internalType": "address",
          "name": "",
          "type": "address"
        }
      ],
      "name": "POOL_JOINED",
      "type": "event"
    },
    {
      "anonymous": false,
      "inputs": [
        {
          "indexed": false,
          "internalType": "bytes32",
          "name": "",
          "type": "bytes32"
        },
        {
          "indexed": false,
          "internalType": "address",
          "name": "",
          "type": "address"
        }
      ],
      "name": "WINNER_FOUND",
      "type": "event"
    },
    {
      "inputs": [],
      "name": "BSC_ETH_USD_PF",
      "outputs": [
        {
          "internalType": "address",
          "name": "",
          "type": "address"
        }
      ],
      "stateMutability": "view",
      "type": "function"
    },
    {
      "inputs": [],
      "name": "KOVAN_ETH_USD_PF",
      "outputs": [
        {
          "internalType": "address",
          "name": "",
          "type": "address"
        }
      ],
      "stateMutability": "view",
      "type": "function"
    },
    {
      "inputs": [],
      "name": "MAINNET_ETH_USD_PF",
      "outputs": [
        {
          "internalType": "address",
          "name": "",
          "type": "address"
        }
      ],
      "stateMutability": "view",
      "type": "function"
    },
    {
      "inputs": [
        {
          "internalType": "bytes32",
          "name": "poolId",
          "type": "bytes32"
        }
      ],
      "name": "enterPool",
      "outputs": [],
      "stateMutability": "payable",
      "type": "function"
    },
    {
      "inputs": [],
      "name": "getAllPools",
      "outputs": [
        {
          "components": [
            {
              "internalType": "address",
              "name": "winner",
              "type": "address"
            },
            {
              "internalType": "uint256",
              "name": "currentPoolSize",
              "type": "uint256"
            },
            {
              "internalType": "bool",
              "name": "isInMainPool",
              "type": "bool"
            },
            {
              "internalType": "uint256",
              "name": "poolSize",
              "type": "uint256"
            },
            {
              "internalType": "uint256",
              "name": "poolPrice",
              "type": "uint256"
            },
            {
              "internalType": "address",
              "name": "poolCreator",
              "type": "address"
            },
            {
              "internalType": "bool",
              "name": "isPoolConcluded",
              "type": "bool"
            },
            {
              "internalType": "uint256",
              "name": "poolPriceInEther",
              "type": "uint256"
            },
            {
              "internalType": "bytes32",
              "name": "poolId",
              "type": "bytes32"
            },
            {
              "internalType": "uint256",
              "name": "totalStaked",
              "type": "uint256"
            }
          ],
          "internalType": "struct Data.Pool[]",
          "name": "",
          "type": "tuple[]"
        }
      ],
      "stateMutability": "view",
      "type": "function"
    },
    {
      "inputs": [],
      "name": "getLatestPrice",
      "outputs": [
        {
          "internalType": "uint256",
          "name": "",
          "type": "uint256"
        }
      ],
      "stateMutability": "pure",
      "type": "function"
    },
    {
      "inputs": [
        {
          "internalType": "uint256",
          "name": "poolSize",
          "type": "uint256"
        },
        {
          "internalType": "bytes32",
          "name": "poolId",
          "type": "bytes32"
        }
      ],
      "name": "startNewPool",
      "outputs": [],
      "stateMutability": "payable",
      "type": "function"
    },
    {
      "inputs": [
        {
          "internalType": "address payable",
          "name": "newAddress",
          "type": "address"
        }
      ],
      "name": "updateGrotto",
      "outputs": [],
      "stateMutability": "nonpayable",
      "type": "function"
    }
  ],
  "bytecode": "0x6080604052600280546001600160a01b0319908116735713f407ab8776643d31fd2e8133067febe94bc31790915560038054909116731a6c3a7e42909b38baaf482e9ca32bfde4f6bef317905534801561005857600080fd5b50600354600180546001600160a01b03199081166001600160a01b0393841617918290556002546004805490921690841617815560405162fe551560e71b81529190921691637f2a8a80916100af9133910161010d565b600060405180830381600087803b1580156100c957600080fd5b505af11580156100dd573d6000803e3d6000fd5b5050600080546001600160a01b031916739326bfa02add2366b30bacb125260af641031331179055506101219050565b6001600160a01b0391909116815260200190565b6121e480620001316000396000f3fe60806040526004361061007b5760003560e01c8063aef3bc921161004e578063aef3bc9214610102578063afa08c3914610117578063b3e0f3d31461012c578063d88ff1f41461013f5761007b565b80633760c101146100805780634ccfc5d2146100ab5780635923dfc7146100cd5780638e15f473146100e0575b600080fd5b34801561008c57600080fd5b50610095610161565b6040516100a29190611e74565b60405180910390f35b3480156100b757600080fd5b506100cb6100c6366004611baa565b610179565b005b6100cb6100db366004611d1f565b610338565b3480156100ec57600080fd5b506100f5610a5d565b6040516100a29190611ef0565b34801561010e57600080fd5b50610095610a63565b34801561012357600080fd5b50610095610a7b565b6100cb61013a366004611d72565b610a93565b34801561014b57600080fd5b50610154610fe2565b6040516100a29190611ea1565b735f4ec3df9cbd43714fe2740f5e3616155c5b841981565b600160009054906101000a90046001600160a01b03166001600160a01b03166304e2064f6040518163ffffffff1660e01b815260040160206040518083038186803b1580156101c757600080fd5b505afa1580156101db573d6000803e3d6000fd5b505050506040513d601f19601f820116820180604052508101906101ff9190611bc6565b6001600160a01b0316336001600160a01b0316146102385760405162461bcd60e51b815260040161022f906120cb565b60405180910390fd5b600154604051631637a58360e01b81526001600160a01b0390911690631637a58390610268908490600401611e74565b600060405180830381600087803b15801561028257600080fd5b505af1158015610296573d6000803e3d6000fd5b505060048054604051631637a58360e01b81526001600160a01b039091169350631637a58392506102c991859101611e74565b600060405180830381600087803b1580156102e357600080fd5b505af11580156102f7573d6000803e3d6000fd5b50506040514792506001600160a01b038416915082156108fc029083906000818181858888f19350505050158015610333573d6000803e3d6000fd5b505050565b3433610342611a93565b60015460405163f6c0092760e01b81526001600160a01b039091169063f6c0092790610372908790600401611ef0565b6101406040518083038186803b15801561038b57600080fd5b505afa15801561039f573d6000803e3d6000fd5b505050506040513d601f19601f820116820180604052508101906103c39190611d37565b606081015160015460405163b91a440d60e01b815292935090916001600160a01b039091169063b91a440d906103fd908890600401611ef0565b60006040518083038186803b15801561041557600080fd5b505afa158015610429573d6000803e3d6000fd5b505050506040513d6000823e601f3d908101601f191682016040526104519190810190611be2565b511061046f5760405162461bcd60e51b815260040161022f9061205f565b6020810151156104af578060a001516001600160a01b0316826001600160a01b031614156104af5760405162461bcd60e51b815260040161022f9061201c565b60006104b9610a5d565b905060006104c78286611068565b905082608001518110156104ed5760405162461bcd60e51b815260040161022f90612102565b6001546040516330115af360e11b81526000916001600160a01b031690636022b5e69061051e908a90600401611ef0565b60206040518083038186803b15801561053657600080fd5b505afa15801561054a573d6000803e3d6000fd5b505050506040513d601f19601f8201168201806040525081019061056e9190611d5a565b6001549091506001600160a01b03166387bb95888861058d848a6110ab565b6040518363ffffffff1660e01b81526004016105aa929190611e66565b600060405180830381600087803b1580156105c457600080fd5b505af11580156105d8573d6000803e3d6000fd5b5050600154604051627a72b360e31b81526001600160a01b0390911692506303d39598915061060d908a908990600401611ef9565b600060405180830381600087803b15801561062757600080fd5b505af115801561063b573d6000803e3d6000fd5b505060015460405163b91a440d60e01b8152606093506001600160a01b03909116915063b91a440d90610672908b90600401611ef0565b60006040518083038186803b15801561068a57600080fd5b505afa15801561069e573d6000803e3d6000fd5b505050506040513d6000823e601f3d908101601f191682016040526106c69190810190611be2565b6001548151604051634c8aeb4360e11b81529293506001600160a01b0390911691639915d686916106fc918c9190600401611e66565b600060405180830381600087803b15801561071657600080fd5b505af115801561072a573d6000803e3d6000fd5b505050506000600160009054906101000a90046001600160a01b03166001600160a01b031663d37c0d946040518163ffffffff1660e01b815260040160206040518083038186803b15801561077e57600080fd5b505afa158015610792573d6000803e3d6000fd5b505050506040513d601f19601f820116820180604052508101906107b69190611d5a565b111561098157600154604080516334df036560e21b815290516000926001600160a01b03169163d37c0d94916004808301926020929190829003018186803b15801561080157600080fd5b505afa158015610815573d6000803e3d6000fd5b505050506040513d601f19601f820116820180604052508101906108399190611d5a565b9050670de0b6b3a764000081111561097f57600160009054906101000a90046001600160a01b03166001600160a01b03166304e2064f6040518163ffffffff1660e01b815260040160206040518083038186803b15801561089957600080fd5b505afa1580156108ad573d6000803e3d6000fd5b505050506040513d601f19601f820116820180604052508101906108d19190611bc6565b6040516001600160a01b039190911690600090670de0b6b3a76400009082818181858883f1935050505015801561090c573d6000803e3d6000fd5b506001546001600160a01b0316631c69086461093083670de0b6b3a76400006110d0565b6040518263ffffffff1660e01b815260040161094c9190611ef0565b600060405180830381600087803b15801561096657600080fd5b505af115801561097a573d6000803e3d6000fd5b505050505b505b60015460405163f6c0092760e01b81526001600160a01b039091169063f6c00927906109b1908b90600401611ef0565b6101406040518083038186803b1580156109ca57600080fd5b505afa1580156109de573d6000803e3d6000fd5b505050506040513d601f19601f82011682018060405250810190610a029190611d37565b9450846060015181511415610a1a57610a1a886110f8565b7f08de3d5214e026e4f3a80f833a13b149bbb5dd61a5d83f4650c4a5ba00d9475e8887604051610a4b929190611ef9565b60405180910390a15050505050505050565b6101f490565b739326bfa02add2366b30bacb125260af64103133181565b739ef1b8c0e4f7dc8bf5719ea496883dc6401d5b2e81565b346000610aa882610aa2610a5d565b90611068565b9050600080600160009054906101000a90046001600160a01b03166001600160a01b031663f417bd9c6040518163ffffffff1660e01b815260040160206040518083038186803b158015610afb57600080fd5b505afa158015610b0f573d6000803e3d6000fd5b505050506040513d601f19601f82011682018060405250810190610b339190611d5a565b600154604080516304e2064f60e01b8152905192935033926001600160a01b03909216916304e2064f91600480820192602092909190829003018186803b158015610b7d57600080fd5b505afa158015610b91573d6000803e3d6000fd5b505050506040513d601f19601f82011682018060405250810190610bb59190611bc6565b6001600160a01b0316816001600160a01b03161415610d6f57600160009054906101000a90046001600160a01b03166001600160a01b031663e0a11c206040518163ffffffff1660e01b815260040160206040518083038186803b158015610c1c57600080fd5b505afa158015610c30573d6000803e3d6000fd5b505050506040513d601f19601f82011682018060405250810190610c549190611d5a565b9350600160009054906101000a90046001600160a01b03166001600160a01b031663e0a11c206040518163ffffffff1660e01b815260040160206040518083038186803b158015610ca457600080fd5b505afa158015610cb8573d6000803e3d6000fd5b505050506040513d601f19601f82011682018060405250810190610cdc9190611d5a565b9150600160009054906101000a90046001600160a01b03166001600160a01b03166305868b266040518163ffffffff1660e01b815260040160206040518083038186803b158015610d2c57600080fd5b505afa158015610d40573d6000803e3d6000fd5b505050506040513d601f19601f82011682018060405250810190610d649190611d5a565b965060019250610eb9565b600160009054906101000a90046001600160a01b03166001600160a01b0316632c0797ef6040518163ffffffff1660e01b815260040160206040518083038186803b158015610dbd57600080fd5b505afa158015610dd1573d6000803e3d6000fd5b505050506040513d601f19601f82011682018060405250810190610df59190611d5a565b871015610e145760405162461bcd60e51b815260040161022f90611f83565b600160009054906101000a90046001600160a01b03166001600160a01b031663d86923956040518163ffffffff1660e01b815260040160206040518083038186803b158015610e6257600080fd5b505afa158015610e76573d6000803e3d6000fd5b505050506040513d601f19601f82011682018060405250810190610e9a9190611d5a565b871115610eb95760405162461bcd60e51b815260040161022f90611f20565b81841015610ed95760405162461bcd60e51b815260040161022f90612102565b6000808481610ee6611a93565b5060408051610140810182526001600160a01b0380871682526020820186905284151582840152606082018e9052608082018b905287811660a083015283151560c083015260e082018c905261010082018d90526000610120830152600154925163edf3c35760e01b81529192169063edf3c35790610f69908490600401612145565b600060405180830381600087803b158015610f8357600080fd5b505af1158015610f97573d6000803e3d6000fd5b505050507f081567f6f781ee2fc9b4c57b8f27190ffbf89fc9f3ae11d27893cc6481d6f9818b87604051610fcc929190611ef9565b60405180910390a1505050505050505050505050565b60015460408051633623fc7d60e21b815290516060926001600160a01b03169163d88ff1f4916004808301926000929190829003018186803b15801561102757600080fd5b505afa15801561103b573d6000803e3d6000fd5b505050506040513d6000823e601f3d908101601f191682016040526110639190810190611c80565b905090565b600082611077575060006110a5565b8282028284828161108457fe5b04146110a25760405162461bcd60e51b815260040161022f9061208a565b90505b92915050565b6000828201838110156110a25760405162461bcd60e51b815260040161022f90611f4c565b6000828211156110f25760405162461bcd60e51b815260040161022f90611fae565b50900390565b611100611a93565b60015460405163f6c0092760e01b81526001600160a01b039091169063f6c0092790611130908590600401611ef0565b6101406040518083038186803b15801561114957600080fd5b505afa15801561115d573d6000803e3d6000fd5b505050506040513d601f19601f820116820180604052508101906111819190611d37565b60015460405163b91a440d60e01b81529192506060916001600160a01b039091169063b91a440d906111b7908690600401611ef0565b60006040518083038186803b1580156111cf57600080fd5b505afa1580156111e3573d6000803e3d6000fd5b505050506040513d6000823e601f3d908101601f1916820160405261120b9190810190611be2565b6001546040516330115af360e11b81529192506000916001600160a01b0390911690636022b5e690611241908790600401611ef0565b60206040518083038186803b15801561125957600080fd5b505afa15801561126d573d6000803e3d6000fd5b505050506040513d601f19601f820116820180604052508101906112919190611d5a565b90506000826000815181106112a257fe5b60200260200101516040516020016112ba9190611e29565b60408051601f198184030181529190528051602090910120905060015b84606001518160ff1610156113315781848260ff16815181106112f657fe5b602002602001015160405160200161130f929190611e46565b60408051601f19818403018152919052805160209091012091506001016112d7565b5060006113cf60646113c9600160009054906101000a90046001600160a01b03166001600160a01b03166381014bbe6040518163ffffffff1660e01b815260040160206040518083038186803b15801561138a57600080fd5b505afa15801561139e573d6000803e3d6000fd5b505050506040513d601f19601f820116820180604052508101906113c29190611d5a565b8690611068565b90611a61565b9050600084866060015185856040516020016113ec929190611e66565b6040516020818303038152906040528051906020012060001c8161140c57fe5b068151811061141757fe5b60200260200101519050806001600160a01b03166108fc61144184876110d090919063ffffffff16565b6040518115909202916000818181858888f19350505050158015611469573d6000803e3d6000fd5b50600160009054906101000a90046001600160a01b03166001600160a01b03166304e2064f6040518163ffffffff1660e01b815260040160206040518083038186803b1580156114b857600080fd5b505afa1580156114cc573d6000803e3d6000fd5b505050506040513d601f19601f820116820180604052508101906114f09190611bc6565b6001600160a01b03166108fc839081150290604051600060405180830381858888f19350505050158015611528573d6000803e3d6000fd5b50600154604051636894da0b60e01b81526001600160a01b0390911690636894da0b9061155b908a908590600401611ef9565b600060405180830381600087803b15801561157557600080fd5b505af1158015611589573d6000803e3d6000fd5b5050600180546040516344b0ef3b60e01b81526001600160a01b0390911693506344b0ef3b92506115be918b91600401611f10565b600060405180830381600087803b1580156115d857600080fd5b505af11580156115ec573d6000803e3d6000fd5b5050600154604051636894da0b60e01b81526001600160a01b039091169250636894da0b9150611622908a908590600401611ef9565b600060405180830381600087803b15801561163c57600080fd5b505af1158015611650573d6000803e3d6000fd5b5050600180546040516344b0ef3b60e01b81526001600160a01b0390911693506344b0ef3b9250611685918b91600401611f10565b600060405180830381600087803b15801561169f57600080fd5b505af11580156116b3573d6000803e3d6000fd5b505060015460405163f6c0092760e01b81526001600160a01b03909116925063f6c0092791506116e7908a90600401611ef0565b6101406040518083038186803b15801561170057600080fd5b505afa158015611714573d6000803e3d6000fd5b505050506040513d601f19601f820116820180604052508101906117389190611d37565b955060006117578760600151886080015161106890919063ffffffff16565b905060006117f060646113c9600160009054906101000a90046001600160a01b03166001600160a01b031663fd7f82536040518163ffffffff1660e01b815260040160206040518083038186803b1580156117b157600080fd5b505afa1580156117c5573d6000803e3d6000fd5b505050506040513d601f19601f820116820180604052508101906117e99190611d5a565b8590611068565b60045460a08a01519192506001600160a01b0316906379c650689061181585856110d0565b6040518363ffffffff1660e01b8152600401611832929190611e88565b600060405180830381600087803b15801561184c57600080fd5b505af1158015611860573d6000803e3d6000fd5b505060048054600154604080516304e2064f60e01b815290516001600160a01b0393841696506379c65068955092909116926304e2064f928282019260209290829003018186803b1580156118b457600080fd5b505afa1580156118c8573d6000803e3d6000fd5b505050506040513d601f19601f820116820180604052508101906118ec9190611bc6565b836040518363ffffffff1660e01b815260040161190a929190611e88565b600060405180830381600087803b15801561192457600080fd5b505af1158015611938573d6000803e3d6000fd5b505060015460e08b0151604080516334df036560e21b815290516001600160a01b039093169450631c69086493506119cf92859163d37c0d94916004808301926020929190829003018186803b15801561199157600080fd5b505afa1580156119a5573d6000803e3d6000fd5b505050506040513d601f19601f820116820180604052508101906119c99190611d5a565b906110ab565b6040518263ffffffff1660e01b81526004016119eb9190611ef0565b600060405180830381600087803b158015611a0557600080fd5b505af1158015611a19573d6000803e3d6000fd5b505050507f4ce558cfe085137a30c6c4374f76c2233d6a076a07a45f309bd578a1f922166c8984604051611a4e929190611ef9565b60405180910390a1505050505050505050565b6000808211611a825760405162461bcd60e51b815260040161022f90611fe5565b818381611a8b57fe5b049392505050565b6040805161014081018252600080825260208201819052918101829052606081018290526080810182905260a0810182905260c0810182905260e08101829052610100810182905261012081019190915290565b8051611af281612196565b919050565b80518015158114611af257600080fd5b6000610140808385031215611b1a578182fd5b611b2381612154565b915050611b2f82611ae7565b815260208201516020820152611b4760408301611af7565b60408201526060820151606082015260808201516080820152611b6c60a08301611ae7565b60a0820152611b7d60c08301611af7565b60c082015260e082015160e082015261010080830151818301525061012080830151818301525092915050565b600060208284031215611bbb578081fd5b81356110a281612196565b600060208284031215611bd7578081fd5b81516110a281612196565b60006020808385031215611bf4578182fd5b825167ffffffffffffffff811115611c0a578283fd5b8301601f81018513611c1a578283fd5b8051611c2d611c2882612178565b612154565b8181528381019083850185840285018601891015611c49578687fd5b8694505b83851015611c74578051611c6081612196565b835260019490940193918501918501611c4d565b50979650505050505050565b60006020808385031215611c92578182fd5b825167ffffffffffffffff811115611ca8578283fd5b8301601f81018513611cb8578283fd5b8051611cc6611c2882612178565b81815283810190838501610140808502860187018a1015611ce5578788fd5b8795505b84861015611d1157611cfb8a83611b07565b8452600195909501949286019290810190611ce9565b509098975050505050505050565b600060208284031215611d30578081fd5b5035919050565b60006101408284031215611d49578081fd5b611d538383611b07565b9392505050565b600060208284031215611d6b578081fd5b5051919050565b60008060408385031215611d84578081fd5b50508035926020909101359150565b6001600160a01b03169052565b15159052565b611db1828251611d93565b602081015160208301526040810151611dcd6040840182611da0565b50606081015160608301526080810151608083015260a0810151611df460a0840182611d93565b5060c0810151611e0760c0840182611da0565b5060e08181015190830152610100808201519083015261012090810151910152565b60609190911b6bffffffffffffffffffffffff1916815260140190565b91825260601b6bffffffffffffffffffffffff1916602082015260340190565b918252602082015260400190565b6001600160a01b0391909116815260200190565b6001600160a01b03929092168252602082015260400190565b6020808252825182820181905260009190848201906040850190845b81811015611ee457611ed0838551611da6565b928401926101409290920191600101611ebd565b50909695505050505050565b90815260200190565b9182526001600160a01b0316602082015260400190565b9182521515602082015260400190565b6020808252601290820152710a0deded840e6d2f4ca40e8dede40d0d2ced60731b604082015260600190565b6020808252601b908201527f536166654d6174683a206164646974696f6e206f766572666c6f770000000000604082015260600190565b602080825260119082015270506f6f6c2073697a6520746f6f206c6f7760781b604082015260600190565b6020808252601e908201527f536166654d6174683a207375627472616374696f6e206f766572666c6f770000604082015260600190565b6020808252601a908201527f536166654d6174683a206469766973696f6e206279207a65726f000000000000604082015260600190565b60208082526023908201527f596f752063616e277420706172746963697061746520696e207468697320706f60408201526237b61760e91b606082015260800190565b602080825260119082015270151a1a5cc8141bdbdb081a5cc8199d5b1b607a1b604082015260600190565b60208082526021908201527f536166654d6174683a206d756c7469706c69636174696f6e206f766572666c6f6040820152607760f81b606082015260800190565b60208082526018908201527f4f6e6c79206120686f7573652063616e20646f20746861740000000000000000604082015260600190565b60208082526023908201527f56616c75652053656e74206973206c657373207468616e20706f6f6c2070726960408201526231b29760e91b606082015260800190565b61014081016110a58284611da6565b60405181810167ffffffffffffffff8111828210171561217057fe5b604052919050565b600067ffffffffffffffff82111561218c57fe5b5060209081020190565b6001600160a01b03811681146121ab57600080fd5b5056fea2646970667358221220bc1ec6451e41dfb531a31a807e49602e9870fd455b88894f14817a7f26ffa29364736f6c63430007030033",
  "linkReferences": {},
  "deployedLinkReferences": {}
}