{
  "_format": "hh-sol-artifact-1",
  "contractName": "Grotto",
  "sourceName": "contracts/Grotto.sol",
  "abi": [
    {
      "inputs": [
        {
          "internalType": "address",
          "name": "_tokenAddress",
          "type": "address"
        },
        {
          "internalType": "address",
          "name": "_storeAddress",
          "type": "address"
        }
      ],
      "stateMutability": "nonpayable",
      "type": "constructor"
    },
    {
      "anonymous": false,
      "inputs": [
        {
          "indexed": false,
          "internalType": "bytes32",
          "name": "",
          "type": "bytes32"
        },
        {
          "indexed": false,
          "internalType": "address",
          "name": "",
          "type": "address"
        }
      ],
      "name": "POOL_CREATED",
      "type": "event"
    },
    {
      "anonymous": false,
      "inputs": [
        {
          "indexed": false,
          "internalType": "bytes32",
          "name": "",
          "type": "bytes32"
        },
        {
          "indexed": false,
          "internalType": "address",
          "name": "",
          "type": "address"
        }
      ],
      "name": "POOL_JOINED",
      "type": "event"
    },
    {
      "anonymous": false,
      "inputs": [
        {
          "indexed": false,
          "internalType": "bytes32",
          "name": "",
          "type": "bytes32"
        },
        {
          "indexed": false,
          "internalType": "address",
          "name": "",
          "type": "address"
        }
      ],
      "name": "WINNER_FOUND",
      "type": "event"
    },
    {
      "inputs": [],
      "name": "BSC_ETH_USD_PF",
      "outputs": [
        {
          "internalType": "address",
          "name": "",
          "type": "address"
        }
      ],
      "stateMutability": "view",
      "type": "function"
    },
    {
      "inputs": [],
      "name": "KOVAN_ETH_USD_PF",
      "outputs": [
        {
          "internalType": "address",
          "name": "",
          "type": "address"
        }
      ],
      "stateMutability": "view",
      "type": "function"
    },
    {
      "inputs": [],
      "name": "MAINNET_ETH_USD_PF",
      "outputs": [
        {
          "internalType": "address",
          "name": "",
          "type": "address"
        }
      ],
      "stateMutability": "view",
      "type": "function"
    },
    {
      "inputs": [
        {
          "internalType": "bytes32",
          "name": "poolId",
          "type": "bytes32"
        }
      ],
      "name": "enterPool",
      "outputs": [],
      "stateMutability": "payable",
      "type": "function"
    },
    {
      "inputs": [],
      "name": "getAllPools",
      "outputs": [
        {
          "components": [
            {
              "internalType": "address",
              "name": "winner",
              "type": "address"
            },
            {
              "internalType": "uint256",
              "name": "currentPoolSize",
              "type": "uint256"
            },
            {
              "internalType": "bool",
              "name": "isInMainPool",
              "type": "bool"
            },
            {
              "internalType": "uint256",
              "name": "poolSize",
              "type": "uint256"
            },
            {
              "internalType": "uint256",
              "name": "poolPrice",
              "type": "uint256"
            },
            {
              "internalType": "address",
              "name": "poolCreator",
              "type": "address"
            },
            {
              "internalType": "bool",
              "name": "isPoolConcluded",
              "type": "bool"
            },
            {
              "internalType": "uint256",
              "name": "poolPriceInEther",
              "type": "uint256"
            },
            {
              "internalType": "bytes32",
              "name": "poolId",
              "type": "bytes32"
            },
            {
              "internalType": "uint256",
              "name": "totalStaked",
              "type": "uint256"
            }
          ],
          "internalType": "struct Data.Pool[]",
          "name": "",
          "type": "tuple[]"
        }
      ],
      "stateMutability": "view",
      "type": "function"
    },
    {
      "inputs": [],
      "name": "getCompletedStakePools",
      "outputs": [
        {
          "internalType": "uint256[]",
          "name": "",
          "type": "uint256[]"
        }
      ],
      "stateMutability": "view",
      "type": "function"
    },
    {
      "inputs": [],
      "name": "getGovernors",
      "outputs": [
        {
          "internalType": "address payable[]",
          "name": "",
          "type": "address[]"
        }
      ],
      "stateMutability": "view",
      "type": "function"
    },
    {
      "inputs": [
        {
          "internalType": "address",
          "name": "account",
          "type": "address"
        }
      ],
      "name": "getGrottoTokenBalance",
      "outputs": [
        {
          "internalType": "uint256",
          "name": "",
          "type": "uint256"
        }
      ],
      "stateMutability": "view",
      "type": "function"
    },
    {
      "inputs": [],
      "name": "getLatestPrice",
      "outputs": [
        {
          "internalType": "uint256",
          "name": "",
          "type": "uint256"
        }
      ],
      "stateMutability": "pure",
      "type": "function"
    },
    {
      "inputs": [],
      "name": "getPendingGrottoMintingPayments",
      "outputs": [
        {
          "internalType": "uint256",
          "name": "",
          "type": "uint256"
        }
      ],
      "stateMutability": "view",
      "type": "function"
    },
    {
      "inputs": [
        {
          "internalType": "uint256",
          "name": "stakePoolIndex",
          "type": "uint256"
        }
      ],
      "name": "getRewardPerGrotto",
      "outputs": [
        {
          "internalType": "uint256",
          "name": "",
          "type": "uint256"
        }
      ],
      "stateMutability": "view",
      "type": "function"
    },
    {
      "inputs": [
        {
          "internalType": "address",
          "name": "staker",
          "type": "address"
        }
      ],
      "name": "getStake",
      "outputs": [
        {
          "internalType": "uint256",
          "name": "",
          "type": "uint256"
        }
      ],
      "stateMutability": "view",
      "type": "function"
    },
    {
      "inputs": [
        {
          "internalType": "address",
          "name": "staker",
          "type": "address"
        },
        {
          "internalType": "uint256",
          "name": "stakePoolIndex",
          "type": "uint256"
        }
      ],
      "name": "getStakeInPool",
      "outputs": [
        {
          "internalType": "uint256",
          "name": "",
          "type": "uint256"
        }
      ],
      "stateMutability": "view",
      "type": "function"
    },
    {
      "inputs": [],
      "name": "getStakers",
      "outputs": [
        {
          "internalType": "address payable[]",
          "name": "",
          "type": "address[]"
        }
      ],
      "stateMutability": "view",
      "type": "function"
    },
    {
      "inputs": [],
      "name": "getStakingMasterBalance",
      "outputs": [
        {
          "internalType": "uint256",
          "name": "",
          "type": "uint256"
        }
      ],
      "stateMutability": "view",
      "type": "function"
    },
    {
      "inputs": [],
      "name": "processShares",
      "outputs": [],
      "stateMutability": "nonpayable",
      "type": "function"
    },
    {
      "inputs": [
        {
          "internalType": "uint256",
          "name": "amount",
          "type": "uint256"
        }
      ],
      "name": "stake",
      "outputs": [],
      "stateMutability": "nonpayable",
      "type": "function"
    },
    {
      "inputs": [
        {
          "internalType": "uint256",
          "name": "poolSize",
          "type": "uint256"
        },
        {
          "internalType": "bytes32",
          "name": "poolId",
          "type": "bytes32"
        }
      ],
      "name": "startNewPool",
      "outputs": [],
      "stateMutability": "payable",
      "type": "function"
    },
    {
      "inputs": [],
      "name": "withdrawStake",
      "outputs": [],
      "stateMutability": "nonpayable",
      "type": "function"
    },
    {
      "inputs": [
        {
          "internalType": "uint256",
          "name": "stakePoolIndex",
          "type": "uint256"
        }
      ],
      "name": "withdrawStakeRewards",
      "outputs": [],
      "stateMutability": "nonpayable",
      "type": "function"
    }
  ],
  "bytecode": "0x6080604052600280546001600160a01b03199081169091556003805490911690553480156200002d57600080fd5b5060405162003d5b38038062003d5b833981016040819052620000509162000557565b600280546001600160a01b038085166001600160a01b0319928316179283905560038054858316908416179055600480549092169281169290921780825560405163342977ad60e11b8152921691636852ef5a91620000b49130913391016200068d565b600060405180830381600087803b158015620000cf57600080fd5b505af1158015620000e4573d6000803e3d6000fd5b5050600354600180546001600160a01b0319166001600160a01b03928316179081905560405163342977ad60e11b815291169250636852ef5a91506200013190309033906004016200068d565b600060405180830381600087803b1580156200014c57600080fd5b505af115801562000161573d6000803e3d6000fd5b505060015460405162fe551560e71b81526001600160a01b039091169250637f2a8a8091506200019690339060040162000660565b600060405180830381600087803b158015620001b157600080fd5b505af1158015620001c6573d6000803e3d6000fd5b5050600080546001600160a01b031916739326bfa02add2366b30bacb125260af64103133117905550620001fb9050620002f7565b6004805460015460408051633a99b57360e11b815290516001600160a01b03938416946379c650689473e447b45ea6fd4c8b76b25354a503c793826e52949416926375336ae69281830192602092829003018186803b1580156200025e57600080fd5b505afa15801562000273573d6000803e3d6000fd5b505050506040513d601f19601f8201168201806040525081019062000299919062000647565b600a026040518363ffffffff1660e01b8152600401620002bb92919062000674565b600060405180830381600087803b158015620002d657600080fd5b505af1158015620002eb573d6000803e3d6000fd5b505050505050620006e4565b60015460408051637c05a9a960e11b815290516060926001600160a01b03169163f80b5352916004808301926000929190829003018186803b1580156200033d57600080fd5b505afa15801562000352573d6000803e3d6000fd5b505050506040513d6000823e601f3d908101601f191682016040526200037c919081019062000595565b905060005b8151811015620005415760045482516001600160a01b03909116906370a0823190849084908110620003af57fe5b60200260200101516040518263ffffffff1660e01b8152600401620003d5919062000660565b60206040518083038186803b158015620003ee57600080fd5b505afa15801562000403573d6000803e3d6000fd5b505050506040513d601f19601f8201168201806040525081019062000429919062000647565b620005385760045482516001600160a01b03909116906379c65068908490849081106200045257fe5b6020026020010151600160009054906101000a90046001600160a01b03166001600160a01b03166375336ae66040518163ffffffff1660e01b815260040160206040518083038186803b158015620004a957600080fd5b505afa158015620004be573d6000803e3d6000fd5b505050506040513d601f19601f82011682018060405250810190620004e4919062000647565b6040518363ffffffff1660e01b81526004016200050392919062000674565b600060405180830381600087803b1580156200051e57600080fd5b505af115801562000533573d6000803e3d6000fd5b505050505b60010162000381565b5050565b80516200055281620006cb565b919050565b600080604083850312156200056a578182fd5b82516200057781620006cb565b60208401519092506200058a81620006cb565b809150509250929050565b60006020808385031215620005a8578182fd5b82516001600160401b0380821115620005bf578384fd5b818501915085601f830112620005d3578384fd5b815181811115620005e057fe5b8381029150620005f2848301620006a7565b8181528481019084860184860187018a10156200060d578788fd5b8795505b838610156200063a57620006258162000545565b83526001959095019491860191860162000611565b5098975050505050505050565b60006020828403121562000659578081fd5b5051919050565b6001600160a01b0391909116815260200190565b6001600160a01b03929092168252602082015260400190565b6001600160a01b0392831681529116602082015260400190565b6040518181016001600160401b0381118282101715620006c357fe5b604052919050565b6001600160a01b0381168114620006e157600080fd5b50565b61366780620006f46000396000f3fe60806040526004361061011f5760003560e01c8063a694fc3a116100a0578063bed9d86111610064578063bed9d861146102d1578063d37c0d94146102e6578063d88ff1f4146102fb578063df174ef91461031d578063f80b53521461033d5761011f565b8063a694fc3a14610254578063aef3bc9214610274578063afa08c3914610289578063b3e0f3d31461029e578063bdd33175146102b15761011f565b806349d6078b116100e757806349d6078b146101e25780635923dfc7146101f75780637a7664601461020a5780637edf96cb1461022a5780638e15f4731461023f5761011f565b806317323ded1461012457806317d8fcc21461015a5780631d35351a1461017c5780633760c1011461019e57806343352d61146101c0575b600080fd5b34801561013057600080fd5b5061014461013f366004612e2d565b610352565b60405161015191906132bb565b60405180910390f35b34801561016657600080fd5b5061016f6103de565b6040516101519190613283565b34801561018857600080fd5b5061019c610197366004613033565b610464565b005b3480156101aa57600080fd5b506101b361063f565b6040516101519190613181565b3480156101cc57600080fd5b506101d5610657565b60405161015191906131f3565b3480156101ee57600080fd5b5061019c6106d8565b61019c610205366004613033565b610efd565b34801561021657600080fd5b50610144610225366004612df5565b611477565b34801561023657600080fd5b50610144611500565b34801561024b57600080fd5b506101446115f3565b34801561026057600080fd5b5061019c61026f366004613033565b6115f9565b34801561028057600080fd5b506101b361186c565b34801561029557600080fd5b506101b3611884565b61019c6102ac36600461307f565b61189c565b3480156102bd57600080fd5b506101446102cc366004613033565b611deb565b3480156102dd57600080fd5b5061019c611e1c565b3480156102f257600080fd5b506101446120e7565b34801561030757600080fd5b5061031061212c565b6040516101519190613240565b34801561032957600080fd5b50610144610338366004612df5565b6121ad565b34801561034957600080fd5b506101d56121df565b60015460405163cfd4766360e01b81526000916001600160a01b03169063cfd476639061038590869086906004016131b9565b60206040518083038186803b15801561039d57600080fd5b505afa1580156103b1573d6000803e3d6000fd5b505050506040513d601f19601f820116820180604052508101906103d59190613067565b90505b92915050565b60015460408051635b47fd0160e11b815290516060926001600160a01b03169163b68ffa02916004808301926000929190829003018186803b15801561042357600080fd5b505afa158015610437573d6000803e3d6000fd5b505050506040513d6000823e601f3d908101601f1916820160405261045f9190810190612f95565b905090565b60015460405163cfd4766360e01b815233916000916001600160a01b039091169063cfd476639061049b90859087906004016131b9565b60206040518083038186803b1580156104b357600080fd5b505afa1580156104c7573d6000803e3d6000fd5b505050506040513d601f19601f820116820180604052508101906104eb9190613067565b600154604051630216187360e21b81529192506000916001600160a01b039091169063085861cc906105219087906004016132bb565b60206040518083038186803b15801561053957600080fd5b505afa15801561054d573d6000803e3d6000fd5b505050506040513d601f19601f820116820180604052508101906105719190613067565b90506000670de0b6b3a76400006105888484612224565b8161058f57fe5b04905061059a611e1c565b600154604051630ddfdf2d60e11b81526001600160a01b0390911690631bbfbe5a906105cf90879089906000906004016131d2565b600060405180830381600087803b1580156105e957600080fd5b505af11580156105fd573d6000803e3d6000fd5b50506040516001600160a01b038716925083156108fc02915083906000818181858888f19350505050158015610637573d6000803e3d6000fd5b505050505050565b735f4ec3df9cbd43714fe2740f5e3616155c5b841981565b600154604080516343352d6160e01b815290516060926001600160a01b0316916343352d61916004808301926000929190829003018186803b15801561069c57600080fd5b505afa1580156106b0573d6000803e3d6000fd5b505050506040513d6000823e601f3d908101601f1916820160405261045f9190810190612e58565b600154604080516334df036560e21b81529051678ac7230489e80000926001600160a01b03169163d37c0d94916004808301926020929190829003018186803b15801561072457600080fd5b505afa158015610738573d6000803e3d6000fd5b505050506040513d601f19601f8201168201806040525081019061075c9190613067565b10610efb57600154604080516334df036560e21b815290516000926001600160a01b03169163d37c0d94916004808301926020929190829003018186803b1580156107a657600080fd5b505afa1580156107ba573d6000803e3d6000fd5b505050506040513d601f19601f820116820180604052508101906107de9190613067565b9050600061087d6064610877600160009054906101000a90046001600160a01b03166001600160a01b03166363e9669b6040518163ffffffff1660e01b815260040160206040518083038186803b15801561083857600080fd5b505afa15801561084c573d6000803e3d6000fd5b505050506040513d601f19601f820116820180604052508101906108709190613067565b8590612224565b9061225e565b905060006109166064610877600160009054906101000a90046001600160a01b03166001600160a01b03166356d01f776040518163ffffffff1660e01b815260040160206040518083038186803b1580156108d757600080fd5b505afa1580156108eb573d6000803e3d6000fd5b505050506040513d601f19601f8201168201806040525081019061090f9190613067565b8690612224565b905060006109af6064610877600160009054906101000a90046001600160a01b03166001600160a01b031663ef19168d6040518163ffffffff1660e01b815260040160206040518083038186803b15801561097057600080fd5b505afa158015610984573d6000803e3d6000fd5b505050506040513d601f19601f820116820180604052508101906109a89190613067565b8790612224565b60015460408051632b40fef360e01b815290519293506000926001600160a01b039092169163cfd47663918391632b40fef391600480820192602092909190829003018186803b158015610a0257600080fd5b505afa158015610a16573d6000803e3d6000fd5b505050506040513d601f19601f82011682018060405250810190610a3a9190612e11565b600160009054906101000a90046001600160a01b03166001600160a01b031663ce220d886040518163ffffffff1660e01b815260040160206040518083038186803b158015610a8857600080fd5b505afa158015610a9c573d6000803e3d6000fd5b505050506040513d601f19601f82011682018060405250810190610ac09190613067565b6040518363ffffffff1660e01b8152600401610add9291906131b9565b60206040518083038186803b158015610af557600080fd5b505afa158015610b09573d6000803e3d6000fd5b505050506040513d601f19601f82011682018060405250810190610b2d9190613067565b90506000610b478261087785670de0b6b3a7640000612224565b600154604080516319c441b160e31b815290519293506001600160a01b03909116916308c830ed91839163ce220d8891600480820192602092909190829003018186803b158015610b9757600080fd5b505afa158015610bab573d6000803e3d6000fd5b505050506040513d601f19601f82011682018060405250810190610bcf9190613067565b836040518363ffffffff1660e01b8152600401610bed929190613173565b600060405180830381600087803b158015610c0757600080fd5b505af1158015610c1b573d6000803e3d6000fd5b505060015460405163071a421960e21b81526001600160a01b039091169250631c6908649150610c50906000906004016132bb565b600060405180830381600087803b158015610c6a57600080fd5b505af1158015610c7e573d6000803e3d6000fd5b5050600154604080516319c441b160e31b815290516001600160a01b03909216935063b4f09ad49250839163ce220d8891600480820192602092909190829003018186803b158015610ccf57600080fd5b505afa158015610ce3573d6000803e3d6000fd5b505050506040513d601f19601f82011682018060405250810190610d079190613067565b6040518263ffffffff1660e01b8152600401610d2391906132bb565b600060405180830381600087803b158015610d3d57600080fd5b505af1158015610d51573d6000803e3d6000fd5b505060018054604080516319c441b160e31b815290516001600160a01b03909216945063f11060259350610de59291859163ce220d88916004808301926020929190829003018186803b158015610da757600080fd5b505afa158015610dbb573d6000803e3d6000fd5b505050506040513d601f19601f82011682018060405250810190610ddf9190613067565b90612290565b6040518263ffffffff1660e01b8152600401610e0191906132bb565b600060405180830381600087803b158015610e1b57600080fd5b505af1158015610e2f573d6000803e3d6000fd5b50505050600160009054906101000a90046001600160a01b03166001600160a01b03166304e2064f6040518163ffffffff1660e01b815260040160206040518083038186803b158015610e8157600080fd5b505afa158015610e95573d6000803e3d6000fd5b505050506040513d601f19601f82011682018060405250810190610eb99190612e11565b6001600160a01b03166108fc869081150290604051600060405180830381858888f19350505050158015610ef1573d6000803e3d6000fd5b50610637846122b5565b565b3433610f07612ce3565b60015460405163f6c0092760e01b81526001600160a01b039091169063f6c0092790610f379087906004016132bb565b6101406040518083038186803b158015610f5057600080fd5b505afa158015610f64573d6000803e3d6000fd5b505050506040513d601f19601f82011682018060405250810190610f88919061304b565b606081015160015460405163b91a440d60e01b815292935090916001600160a01b039091169063b91a440d90610fc29088906004016132bb565b60006040518083038186803b158015610fda57600080fd5b505afa158015610fee573d6000803e3d6000fd5b505050506040513d6000823e601f3d908101601f191682016040526110169190810190612e58565b511061103d5760405162461bcd60e51b8152600401611034906134ab565b60405180910390fd5b8060a001516001600160a01b0316826001600160a01b031614156110735760405162461bcd60e51b815260040161103490613468565b806040015180156110ff57506001546040516318426dab60e31b81526001600160a01b039091169063c2136d58906110af903390600401613181565b60206040518083038186803b1580156110c757600080fd5b505afa1580156110db573d6000803e3d6000fd5b505050506040513d601f19601f820116820180604052508101906110ff9190613019565b1561111c5760405162461bcd60e51b81526004016110349061334e565b60006111266115f3565b905060006111348286612224565b9050826080015181101561115a5760405162461bcd60e51b815260040161103490613517565b6001546040516330115af360e11b81526000916001600160a01b031690636022b5e69061118b908a906004016132bb565b60206040518083038186803b1580156111a357600080fd5b505afa1580156111b7573d6000803e3d6000fd5b505050506040513d601f19601f820116820180604052508101906111db9190613067565b6001549091506001600160a01b03166387bb9588886111fa848a612290565b6040518363ffffffff1660e01b8152600401611217929190613173565b600060405180830381600087803b15801561123157600080fd5b505af1158015611245573d6000803e3d6000fd5b5050600154604051627a72b360e31b81526001600160a01b0390911692506303d39598915061127a908a9089906004016132c4565b600060405180830381600087803b15801561129457600080fd5b505af11580156112a8573d6000803e3d6000fd5b505060015460405163b91a440d60e01b8152606093506001600160a01b03909116915063b91a440d906112df908b906004016132bb565b60006040518083038186803b1580156112f757600080fd5b505afa15801561130b573d6000803e3d6000fd5b505050506040513d6000823e601f3d908101601f191682016040526113339190810190612e58565b6001548151604051634c8aeb4360e11b81529293506001600160a01b0390911691639915d68691611369918c9190600401613173565b600060405180830381600087803b15801561138357600080fd5b505af1158015611397573d6000803e3d6000fd5b505060015460405163f6c0092760e01b81526001600160a01b03909116925063f6c0092791506113cb908b906004016132bb565b6101406040518083038186803b1580156113e457600080fd5b505afa1580156113f8573d6000803e3d6000fd5b505050506040513d601f19601f8201168201806040525081019061141c919061304b565b945084606001518151141561143457611434886123b7565b7f08de3d5214e026e4f3a80f833a13b149bbb5dd61a5d83f4650c4a5ba00d9475e88876040516114659291906132c4565b60405180910390a15050505050505050565b60015460405163842e298160e01b81526000916001600160a01b03169063842e2981906114a8908590600401613181565b60206040518083038186803b1580156114c057600080fd5b505afa1580156114d4573d6000803e3d6000fd5b505050506040513d601f19601f820116820180604052508101906114f89190613067565b90505b919050565b6004805460015460408051632b40fef360e01b815290516000946001600160a01b03948516946370a08231941692632b40fef39281830192602092829003018186803b15801561154f57600080fd5b505afa158015611563573d6000803e3d6000fd5b505050506040513d601f19601f820116820180604052508101906115879190612e11565b6040518263ffffffff1660e01b81526004016115a39190613181565b60206040518083038186803b1580156115bb57600080fd5b505afa1580156115cf573d6000803e3d6000fd5b505050506040513d601f19601f8201168201806040525081019061045f9190613067565b6101f490565b600480546040516370a0823160e01b8152339284926001600160a01b0316916370a082319161162a91869101613181565b60206040518083038186803b15801561164257600080fd5b505afa158015611656573d6000803e3d6000fd5b505050506040513d601f19601f8201168201806040525081019061167a9190613067565b10156116985760405162461bcd60e51b815260040161103490613591565b6001546040516318426dab60e31b81526001600160a01b039091169063c2136d58906116c8908490600401613181565b60206040518083038186803b1580156116e057600080fd5b505afa1580156116f4573d6000803e3d6000fd5b505050506040513d601f19601f820116820180604052508101906117189190613019565b156117355760405162461bcd60e51b81526004016110349061355a565b6004805460015460408051632b40fef360e01b815290516001600160a01b039384169463bf6eac2f9487941692632b40fef39281830192602092829003018186803b15801561178357600080fd5b505afa158015611797573d6000803e3d6000fd5b505050506040513d601f19601f820116820180604052508101906117bb9190612e11565b856040518463ffffffff1660e01b81526004016117da93929190613195565b600060405180830381600087803b1580156117f457600080fd5b505af1158015611808573d6000803e3d6000fd5b50506001546040516331ba14cf60e11b81526001600160a01b039091169250636374299e915061183e90849086906004016131b9565b600060405180830381600087803b15801561185857600080fd5b505af1158015610637573d6000803e3d6000fd5b739326bfa02add2366b30bacb125260af64103133181565b739ef1b8c0e4f7dc8bf5719ea496883dc6401d5b2e81565b3460006118b1826118ab6115f3565b90612224565b9050600080600160009054906101000a90046001600160a01b03166001600160a01b031663f417bd9c6040518163ffffffff1660e01b815260040160206040518083038186803b15801561190457600080fd5b505afa158015611918573d6000803e3d6000fd5b505050506040513d601f19601f8201168201806040525081019061193c9190613067565b600154604080516304e2064f60e01b8152905192935033926001600160a01b03909216916304e2064f91600480820192602092909190829003018186803b15801561198657600080fd5b505afa15801561199a573d6000803e3d6000fd5b505050506040513d601f19601f820116820180604052508101906119be9190612e11565b6001600160a01b0316816001600160a01b03161415611b7857600160009054906101000a90046001600160a01b03166001600160a01b031663e0a11c206040518163ffffffff1660e01b815260040160206040518083038186803b158015611a2557600080fd5b505afa158015611a39573d6000803e3d6000fd5b505050506040513d601f19601f82011682018060405250810190611a5d9190613067565b9350600160009054906101000a90046001600160a01b03166001600160a01b031663e0a11c206040518163ffffffff1660e01b815260040160206040518083038186803b158015611aad57600080fd5b505afa158015611ac1573d6000803e3d6000fd5b505050506040513d601f19601f82011682018060405250810190611ae59190613067565b9150600160009054906101000a90046001600160a01b03166001600160a01b03166305868b266040518163ffffffff1660e01b815260040160206040518083038186803b158015611b3557600080fd5b505afa158015611b49573d6000803e3d6000fd5b505050506040513d601f19601f82011682018060405250810190611b6d9190613067565b965060019250611cc2565b600160009054906101000a90046001600160a01b03166001600160a01b0316632c0797ef6040518163ffffffff1660e01b815260040160206040518083038186803b158015611bc657600080fd5b505afa158015611bda573d6000803e3d6000fd5b505050506040513d601f19601f82011682018060405250810190611bfe9190613067565b871015611c1d5760405162461bcd60e51b815260040161103490613398565b600160009054906101000a90046001600160a01b03166001600160a01b031663d86923956040518163ffffffff1660e01b815260040160206040518083038186803b158015611c6b57600080fd5b505afa158015611c7f573d6000803e3d6000fd5b505050506040513d601f19601f82011682018060405250810190611ca39190613067565b871115611cc25760405162461bcd60e51b8152600401611034906132eb565b81841015611ce25760405162461bcd60e51b815260040161103490613517565b6000808481611cef612ce3565b5060408051610140810182526001600160a01b0380871682526020820186905284151582840152606082018e9052608082018b905287811660a083015283151560c083015260e082018c905261010082018d90526000610120830152600154925163edf3c35760e01b81529192169063edf3c35790611d729084906004016135c8565b600060405180830381600087803b158015611d8c57600080fd5b505af1158015611da0573d6000803e3d6000fd5b505050507f081567f6f781ee2fc9b4c57b8f27190ffbf89fc9f3ae11d27893cc6481d6f9818b87604051611dd59291906132c4565b60405180910390a1505050505050505050505050565b600154604051630216187360e21b81526000916001600160a01b03169063085861cc906114a89085906004016132bb565b60015460405163842e298160e01b815233916000916001600160a01b039091169063842e298190611e51908590600401613181565b60206040518083038186803b158015611e6957600080fd5b505afa158015611e7d573d6000803e3d6000fd5b505050506040513d601f19601f82011682018060405250810190611ea19190613067565b11611ebe5760405162461bcd60e51b815260040161103490613431565b6001546040516318426dab60e31b81526001600160a01b039091169063c2136d5890611eee908490600401613181565b60206040518083038186803b158015611f0657600080fd5b505afa158015611f1a573d6000803e3d6000fd5b505050506040513d601f19601f82011682018060405250810190611f3e9190613019565b15611f5b5760405162461bcd60e51b81526004016110349061355a565b60015460405163842e298160e01b81526000916001600160a01b03169063842e298190611f8c908590600401613181565b60206040518083038186803b158015611fa457600080fd5b505afa158015611fb8573d6000803e3d6000fd5b505050506040513d601f19601f82011682018060405250810190611fdc9190613067565b60015460405163611d2e7560e11b81529192506001600160a01b03169063c23a5cea9061200d908590600401613181565b600060405180830381600087803b15801561202757600080fd5b505af115801561203b573d6000803e3d6000fd5b50506004805460015460408051632b40fef360e01b815290516001600160a01b0393841696506360829f8a95509290911692632b40fef3928282019260209290829003018186803b15801561208f57600080fd5b505afa1580156120a3573d6000803e3d6000fd5b505050506040513d601f19601f820116820180604052508101906120c79190612e11565b84846040518463ffffffff1660e01b815260040161183e93929190613195565b600154604080516334df036560e21b815290516000926001600160a01b03169163d37c0d94916004808301926020929190829003018186803b1580156115bb57600080fd5b60015460408051633623fc7d60e21b815290516060926001600160a01b03169163d88ff1f4916004808301926000929190829003018186803b15801561217157600080fd5b505afa158015612185573d6000803e3d6000fd5b505050506040513d6000823e601f3d908101601f1916820160405261045f9190810190612ef6565b600480546040516370a0823160e01b81526000926001600160a01b03909216916370a08231916114a891869101613181565b60015460408051637c05a9a960e11b815290516060926001600160a01b03169163f80b5352916004808301926000929190829003018186803b15801561069c57600080fd5b600082612233575060006103d8565b8282028284828161224057fe5b04146103d55760405162461bcd60e51b8152600401611034906134d6565b600080821161227f5760405162461bcd60e51b8152600401611034906133fa565b81838161228857fe5b049392505050565b6000828201838110156103d55760405162461bcd60e51b815260040161103490613317565b60015460408051637c05a9a960e11b815290516060926001600160a01b03169163f80b5352916004808301926000929190829003018186803b1580156122fa57600080fd5b505afa15801561230e573d6000803e3d6000fd5b505050506040513d6000823e601f3d908101601f191682016040526123369190810190612e58565b9050600061234e82518461225e90919063ffffffff16565b905060005b82518110156123b15782818151811061236857fe5b60200260200101516001600160a01b03166108fc839081150290604051600060405180830381858888f193505050501580156123a8573d6000803e3d6000fd5b50600101612353565b50505050565b6123bf612ce3565b60015460405163f6c0092760e01b81526001600160a01b039091169063f6c00927906123ef9085906004016132bb565b6101406040518083038186803b15801561240857600080fd5b505afa15801561241c573d6000803e3d6000fd5b505050506040513d601f19601f82011682018060405250810190612440919061304b565b60015460405163b91a440d60e01b81529192506060916001600160a01b039091169063b91a440d906124769086906004016132bb565b60006040518083038186803b15801561248e57600080fd5b505afa1580156124a2573d6000803e3d6000fd5b505050506040513d6000823e601f3d908101601f191682016040526124ca9190810190612e58565b6001546040516330115af360e11b81529192506000916001600160a01b0390911690636022b5e6906125009087906004016132bb565b60206040518083038186803b15801561251857600080fd5b505afa15801561252c573d6000803e3d6000fd5b505050506040513d601f19601f820116820180604052508101906125509190613067565b90506000600283518161255f57fe5b04905060006001845103905060008460008151811061257a57fe5b60200260200101516040516020016125929190613136565b604051602081830303815290604052805190602001209050808584815181106125b757fe5b60200260200101516040516020016125d0929190613153565b604051602081830303815290604052805190602001209050808583815181106125f557fe5b602002602001015160405160200161260e929190613153565b604051602081830303815290604052805190602001209050600086606001518583604051602001612640929190613173565b6040516020818303038152906040528051906020012060001c8161266057fe5b069050600086828151811061267157fe5b6020026020010151905060006127126064610877600160009054906101000a90046001600160a01b03166001600160a01b03166381014bbe6040518163ffffffff1660e01b815260040160206040518083038186803b1580156126d357600080fd5b505afa1580156126e7573d6000803e3d6000fd5b505050506040513d601f19601f8201168201806040525081019061270b9190613067565b8a90612224565b90506001600160a01b0382166108fc61272b8984612cbb565b6040518115909202916000818181858888f19350505050158015612753573d6000803e3d6000fd5b50600160009054906101000a90046001600160a01b03166001600160a01b03166304e2064f6040518163ffffffff1660e01b815260040160206040518083038186803b1580156127a257600080fd5b505afa1580156127b6573d6000803e3d6000fd5b505050506040513d601f19601f820116820180604052508101906127da9190612e11565b6001600160a01b03166108fc829081150290604051600060405180830381858888f19350505050158015612812573d6000803e3d6000fd5b50600154604051636894da0b60e01b81526001600160a01b0390911690636894da0b90612845908d9086906004016132c4565b600060405180830381600087803b15801561285f57600080fd5b505af1158015612873573d6000803e3d6000fd5b5050600180546040516344b0ef3b60e01b81526001600160a01b0390911693506344b0ef3b92506128a8918e916004016132db565b600060405180830381600087803b1580156128c257600080fd5b505af11580156128d6573d6000803e3d6000fd5b5050600154604051636894da0b60e01b81526001600160a01b039091169250636894da0b915061290c908d9086906004016132c4565b600060405180830381600087803b15801561292657600080fd5b505af115801561293a573d6000803e3d6000fd5b5050600180546040516344b0ef3b60e01b81526001600160a01b0390911693506344b0ef3b925061296f918e916004016132db565b600060405180830381600087803b15801561298957600080fd5b505af115801561299d573d6000803e3d6000fd5b505060015460405163f6c0092760e01b81526001600160a01b03909116925063f6c0092791506129d1908d906004016132bb565b6101406040518083038186803b1580156129ea57600080fd5b505afa1580156129fe573d6000803e3d6000fd5b505050506040513d601f19601f82011682018060405250810190612a22919061304b565b98506000612a418a606001518b6080015161222490919063ffffffff16565b90506000612a9b6064610877600160009054906101000a90046001600160a01b03166001600160a01b031663fd7f82536040518163ffffffff1660e01b815260040160206040518083038186803b15801561083857600080fd5b60045460a08d01519192506001600160a01b0316906379c6506890612ac08585612cbb565b6040518363ffffffff1660e01b8152600401612add9291906131b9565b600060405180830381600087803b158015612af757600080fd5b505af1158015612b0b573d6000803e3d6000fd5b505060048054600154604080516304e2064f60e01b815290516001600160a01b0393841696506379c65068955092909116926304e2064f928282019260209290829003018186803b158015612b5f57600080fd5b505afa158015612b73573d6000803e3d6000fd5b505050506040513d601f19601f82011682018060405250810190612b979190612e11565b836040518363ffffffff1660e01b8152600401612bb59291906131b9565b600060405180830381600087803b158015612bcf57600080fd5b505af1158015612be3573d6000803e3d6000fd5b505060015460e08e0151604080516334df036560e21b815290516001600160a01b039093169450631c6908649350612c3c92859163d37c0d94916004808301926020929190829003018186803b158015610da757600080fd5b6040518263ffffffff1660e01b8152600401612c5891906132bb565b600060405180830381600087803b158015612c7257600080fd5b505af1158015612c86573d6000803e3d6000fd5b505050507f4ce558cfe085137a30c6c4374f76c2233d6a076a07a45f309bd578a1f922166c8c85604051611dd59291906132c4565b600082821115612cdd5760405162461bcd60e51b8152600401611034906133c3565b50900390565b6040805161014081018252600080825260208201819052918101829052606081018290526080810182905260a0810182905260c0810182905260e08101829052610100810182905261012081019190915290565b80516114fb81613619565b805180151581146114fb57600080fd5b6000610140808385031215612d65578182fd5b612d6e816135d7565b915050612d7a82612d37565b815260208201516020820152612d9260408301612d42565b60408201526060820151606082015260808201516080820152612db760a08301612d37565b60a0820152612dc860c08301612d42565b60c082015260e082015160e082015261010080830151818301525061012080830151818301525092915050565b600060208284031215612e06578081fd5b81356103d581613619565b600060208284031215612e22578081fd5b81516103d581613619565b60008060408385031215612e3f578081fd5b8235612e4a81613619565b946020939093013593505050565b60006020808385031215612e6a578182fd5b825167ffffffffffffffff811115612e80578283fd5b8301601f81018513612e90578283fd5b8051612ea3612e9e826135fb565b6135d7565b8181528381019083850185840285018601891015612ebf578687fd5b8694505b83851015612eea578051612ed681613619565b835260019490940193918501918501612ec3565b50979650505050505050565b60006020808385031215612f08578182fd5b825167ffffffffffffffff811115612f1e578283fd5b8301601f81018513612f2e578283fd5b8051612f3c612e9e826135fb565b81815283810190838501610140808502860187018a1015612f5b578788fd5b8795505b84861015612f8757612f718a83612d52565b8452600195909501949286019290810190612f5f565b509098975050505050505050565b60006020808385031215612fa7578182fd5b825167ffffffffffffffff811115612fbd578283fd5b8301601f81018513612fcd578283fd5b8051612fdb612e9e826135fb565b8181528381019083850185840285018601891015612ff7578687fd5b8694505b83851015612eea578051835260019490940193918501918501612ffb565b60006020828403121561302a578081fd5b6103d582612d42565b600060208284031215613044578081fd5b5035919050565b6000610140828403121561305d578081fd5b6103d58383612d52565b600060208284031215613078578081fd5b5051919050565b60008060408385031215613091578182fd5b50508035926020909101359150565b6001600160a01b03169052565b15159052565b6130be8282516130a0565b6020810151602083015260408101516130da60408401826130ad565b50606081015160608301526080810151608083015260a081015161310160a08401826130a0565b5060c081015161311460c08401826130ad565b5060e08181015190830152610100808201519083015261012090810151910152565b60609190911b6bffffffffffffffffffffffff1916815260140190565b91825260601b6bffffffffffffffffffffffff1916602082015260340190565b918252602082015260400190565b6001600160a01b0391909116815260200190565b6001600160a01b039384168152919092166020820152604081019190915260600190565b6001600160a01b03929092168252602082015260400190565b6001600160a01b039390931683526020830191909152604082015260600190565b6020808252825182820181905260009190848201906040850190845b818110156132345783516001600160a01b03168352928401929184019160010161320f565b50909695505050505050565b6020808252825182820181905260009190848201906040850190845b818110156132345761326f8385516130b3565b92840192610140929092019160010161325c565b6020808252825182820181905260009190848201906040850190845b818110156132345783518352928401929184019160010161329f565b90815260200190565b9182526001600160a01b0316602082015260400190565b9182521515602082015260400190565b6020808252601290820152710a0deded840e6d2f4ca40e8dede40d0d2ced60731b604082015260600190565b6020808252601b908201527f536166654d6174683a206164646974696f6e206f766572666c6f770000000000604082015260600190565b6020808252602a908201527f476f7665726e6f72732063616e206e6f7420706172746963697061746520696e604082015269081b585a5b881c1bdbdb60b21b606082015260800190565b602080825260119082015270506f6f6c2073697a6520746f6f206c6f7760781b604082015260600190565b6020808252601e908201527f536166654d6174683a207375627472616374696f6e206f766572666c6f770000604082015260600190565b6020808252601a908201527f536166654d6174683a206469766973696f6e206279207a65726f000000000000604082015260600190565b60208082526017908201527f596f7520646f206e6f7420686176652061207374616b65000000000000000000604082015260600190565b60208082526023908201527f596f752063616e277420706172746963697061746520696e207468697320706f60408201526237b61760e91b606082015260800190565b602080825260119082015270151a1a5cc8141bdbdb081a5cc8199d5b1b607a1b604082015260600190565b60208082526021908201527f536166654d6174683a206d756c7469706c69636174696f6e206f766572666c6f6040820152607760f81b606082015260800190565b60208082526023908201527f56616c75652053656e74206973206c657373207468616e20706f6f6c2070726960408201526231b29760e91b606082015260800190565b60208082526017908201527f476f7665726e6f72732063616e206e6f74207374616b65000000000000000000604082015260600190565b6020808252601d908201527f596f7520646f206e6f74206861766520656e6f7567682047524f54544f000000604082015260600190565b61014081016103d882846130b3565b60405181810167ffffffffffffffff811182821017156135f357fe5b604052919050565b600067ffffffffffffffff82111561360f57fe5b5060209081020190565b6001600160a01b038116811461362e57600080fd5b5056fea26469706673582212209047b7124c1f940e5e98c62e3115a6ef94495de129b017cc48bb6b21844fd93d64736f6c63430007030033",
  "linkReferences": {},
  "deployedLinkReferences": {}
}