{
  "_format": "hh-sol-artifact-1",
  "contractName": "Grotto",
  "sourceName": "contracts/Grotto.sol",
  "abi": [
    {
      "inputs": [],
      "stateMutability": "nonpayable",
      "type": "constructor"
    },
    {
      "anonymous": false,
      "inputs": [
        {
          "indexed": false,
          "internalType": "bytes32",
          "name": "",
          "type": "bytes32"
        },
        {
          "indexed": false,
          "internalType": "address",
          "name": "",
          "type": "address"
        }
      ],
      "name": "POOL_CREATED",
      "type": "event"
    },
    {
      "anonymous": false,
      "inputs": [
        {
          "indexed": false,
          "internalType": "bytes32",
          "name": "",
          "type": "bytes32"
        },
        {
          "indexed": false,
          "internalType": "address",
          "name": "",
          "type": "address"
        }
      ],
      "name": "POOL_JOINED",
      "type": "event"
    },
    {
      "anonymous": false,
      "inputs": [
        {
          "indexed": false,
          "internalType": "bytes32",
          "name": "",
          "type": "bytes32"
        },
        {
          "indexed": false,
          "internalType": "address",
          "name": "",
          "type": "address"
        }
      ],
      "name": "WINNER_FOUND",
      "type": "event"
    },
    {
      "inputs": [],
      "name": "BSC_ETH_USD_PF",
      "outputs": [
        {
          "internalType": "address",
          "name": "",
          "type": "address"
        }
      ],
      "stateMutability": "view",
      "type": "function"
    },
    {
      "inputs": [],
      "name": "KOVAN_ETH_USD_PF",
      "outputs": [
        {
          "internalType": "address",
          "name": "",
          "type": "address"
        }
      ],
      "stateMutability": "view",
      "type": "function"
    },
    {
      "inputs": [],
      "name": "MAINNET_ETH_USD_PF",
      "outputs": [
        {
          "internalType": "address",
          "name": "",
          "type": "address"
        }
      ],
      "stateMutability": "view",
      "type": "function"
    },
    {
      "inputs": [
        {
          "internalType": "bytes32",
          "name": "poolId",
          "type": "bytes32"
        }
      ],
      "name": "enterPool",
      "outputs": [],
      "stateMutability": "payable",
      "type": "function"
    },
    {
      "inputs": [],
      "name": "getAllPools",
      "outputs": [
        {
          "components": [
            {
              "internalType": "address",
              "name": "winner",
              "type": "address"
            },
            {
              "internalType": "uint256",
              "name": "currentPoolSize",
              "type": "uint256"
            },
            {
              "internalType": "bool",
              "name": "isInMainPool",
              "type": "bool"
            },
            {
              "internalType": "uint256",
              "name": "poolSize",
              "type": "uint256"
            },
            {
              "internalType": "uint256",
              "name": "poolPrice",
              "type": "uint256"
            },
            {
              "internalType": "address",
              "name": "poolCreator",
              "type": "address"
            },
            {
              "internalType": "bool",
              "name": "isPoolConcluded",
              "type": "bool"
            },
            {
              "internalType": "uint256",
              "name": "poolPriceInEther",
              "type": "uint256"
            },
            {
              "internalType": "bytes32",
              "name": "poolId",
              "type": "bytes32"
            },
            {
              "internalType": "uint256",
              "name": "totalStaked",
              "type": "uint256"
            }
          ],
          "internalType": "struct Data.Pool[]",
          "name": "",
          "type": "tuple[]"
        }
      ],
      "stateMutability": "view",
      "type": "function"
    },
    {
      "inputs": [],
      "name": "getCompletedStakePools",
      "outputs": [
        {
          "internalType": "uint256[]",
          "name": "",
          "type": "uint256[]"
        }
      ],
      "stateMutability": "view",
      "type": "function"
    },
    {
      "inputs": [
        {
          "internalType": "address",
          "name": "account",
          "type": "address"
        }
      ],
      "name": "getGrottoTokenBalance",
      "outputs": [
        {
          "internalType": "uint256",
          "name": "",
          "type": "uint256"
        }
      ],
      "stateMutability": "view",
      "type": "function"
    },
    {
      "inputs": [],
      "name": "getLatestPrice",
      "outputs": [
        {
          "internalType": "uint256",
          "name": "",
          "type": "uint256"
        }
      ],
      "stateMutability": "pure",
      "type": "function"
    },
    {
      "inputs": [],
      "name": "getPendingGrottoMintingPayments",
      "outputs": [
        {
          "internalType": "uint256",
          "name": "",
          "type": "uint256"
        }
      ],
      "stateMutability": "view",
      "type": "function"
    },
    {
      "inputs": [
        {
          "internalType": "uint256",
          "name": "stakePoolIndex",
          "type": "uint256"
        }
      ],
      "name": "getRewardPerGrotto",
      "outputs": [
        {
          "internalType": "uint256",
          "name": "",
          "type": "uint256"
        }
      ],
      "stateMutability": "view",
      "type": "function"
    },
    {
      "inputs": [
        {
          "internalType": "address",
          "name": "staker",
          "type": "address"
        }
      ],
      "name": "getStake",
      "outputs": [
        {
          "internalType": "uint256",
          "name": "",
          "type": "uint256"
        }
      ],
      "stateMutability": "view",
      "type": "function"
    },
    {
      "inputs": [
        {
          "internalType": "address",
          "name": "staker",
          "type": "address"
        },
        {
          "internalType": "uint256",
          "name": "stakePoolIndex",
          "type": "uint256"
        }
      ],
      "name": "getStakeInPool",
      "outputs": [
        {
          "internalType": "uint256",
          "name": "",
          "type": "uint256"
        }
      ],
      "stateMutability": "view",
      "type": "function"
    },
    {
      "inputs": [],
      "name": "getStakers",
      "outputs": [
        {
          "internalType": "address payable[]",
          "name": "",
          "type": "address[]"
        }
      ],
      "stateMutability": "view",
      "type": "function"
    },
    {
      "inputs": [],
      "name": "getStakingMasterBalance",
      "outputs": [
        {
          "internalType": "uint256",
          "name": "",
          "type": "uint256"
        }
      ],
      "stateMutability": "view",
      "type": "function"
    },
    {
      "inputs": [],
      "name": "processShares",
      "outputs": [],
      "stateMutability": "nonpayable",
      "type": "function"
    },
    {
      "inputs": [
        {
          "internalType": "uint256",
          "name": "amount",
          "type": "uint256"
        }
      ],
      "name": "stake",
      "outputs": [],
      "stateMutability": "nonpayable",
      "type": "function"
    },
    {
      "inputs": [
        {
          "internalType": "uint256",
          "name": "poolSize",
          "type": "uint256"
        },
        {
          "internalType": "bytes32",
          "name": "poolId",
          "type": "bytes32"
        }
      ],
      "name": "startNewPool",
      "outputs": [],
      "stateMutability": "payable",
      "type": "function"
    },
    {
      "inputs": [
        {
          "internalType": "address payable",
          "name": "newAddress",
          "type": "address"
        }
      ],
      "name": "updateGrotto",
      "outputs": [],
      "stateMutability": "nonpayable",
      "type": "function"
    },
    {
      "inputs": [],
      "name": "withdrawStake",
      "outputs": [],
      "stateMutability": "nonpayable",
      "type": "function"
    }
  ],
  "bytecode": "0x6080604052600280546001600160a01b031990811673bd65a77cd02654d94044af07e6e498a7cfa458d3179091556003805490911673544b09ceb5a199c15f9481589f4c6fe24e7d07d51790553480156200005957600080fd5b50600354600180546001600160a01b03199081166001600160a01b0393841617918290556002546004805490921690841617815560405162fe551560e71b81529190921691637f2a8a8091620000b29133910162000544565b600060405180830381600087803b158015620000cd57600080fd5b505af1158015620000e2573d6000803e3d6000fd5b5050600080546001600160a01b031916739326bfa02add2366b30bacb125260af641031331179055506200011790506200020e565b6004805460015460408051633a99b57360e11b815290516001600160a01b03938416946379c65068947394ce615ca10efb74ced680298cd7bdb0479940bc9416926375336ae69281830192602092829003018186803b1580156200017a57600080fd5b505afa1580156200018f573d6000803e3d6000fd5b505050506040513d601f19601f82011682018060405250810190620001b591906200052b565b6040518363ffffffff1660e01b8152600401620001d492919062000558565b600060405180830381600087803b158015620001ef57600080fd5b505af115801562000204573d6000803e3d6000fd5b5050505062000595565b60015460408051637c05a9a960e11b815290516060926001600160a01b03169163f80b5352916004808301926000929190829003018186803b1580156200025457600080fd5b505afa15801562000269573d6000803e3d6000fd5b505050506040513d6000823e601f3d908101601f1916820160405262000293919081019062000479565b905060005b8151811015620004585760045482516001600160a01b03909116906370a0823190849084908110620002c657fe5b60200260200101516040518263ffffffff1660e01b8152600401620002ec919062000544565b60206040518083038186803b1580156200030557600080fd5b505afa1580156200031a573d6000803e3d6000fd5b505050506040513d601f19601f820116820180604052508101906200034091906200052b565b6200044f5760045482516001600160a01b03909116906379c65068908490849081106200036957fe5b6020026020010151600160009054906101000a90046001600160a01b03166001600160a01b03166375336ae66040518163ffffffff1660e01b815260040160206040518083038186803b158015620003c057600080fd5b505afa158015620003d5573d6000803e3d6000fd5b505050506040513d601f19601f82011682018060405250810190620003fb91906200052b565b6040518363ffffffff1660e01b81526004016200041a92919062000558565b600060405180830381600087803b1580156200043557600080fd5b505af11580156200044a573d6000803e3d6000fd5b505050505b60010162000298565b5050565b80516001600160a01b03811681146200047457600080fd5b919050565b600060208083850312156200048c578182fd5b82516001600160401b0380821115620004a3578384fd5b818501915085601f830112620004b7578384fd5b815181811115620004c457fe5b8381029150620004d684830162000571565b8181528481019084860184860187018a1015620004f1578788fd5b8795505b838610156200051e5762000509816200045c565b835260019590950194918601918601620004f5565b5098975050505050505050565b6000602082840312156200053d578081fd5b5051919050565b6001600160a01b0391909116815260200190565b6001600160a01b03929092168252602082015260400190565b6040518181016001600160401b03811182821017156200058d57fe5b604052919050565b6135e180620005a56000396000f3fe6080604052600436106101145760003560e01c80638e15f473116100a0578063bdd3317511610064578063bdd33175146102a6578063bed9d861146102c6578063d37c0d94146102db578063d88ff1f4146102f0578063df174ef91461031257610114565b80638e15f47314610234578063a694fc3a14610249578063aef3bc9214610269578063afa08c391461027e578063b3e0f3d31461029357610114565b806349d6078b116100e757806349d6078b146101b55780634ccfc5d2146101cc5780635923dfc7146101ec5780637a766460146101ff5780637edf96cb1461021f57610114565b806317323ded1461011957806317d8fcc21461014f5780633760c1011461017157806343352d6114610193575b600080fd5b34801561012557600080fd5b50610139610134366004612dab565b610332565b6040516101469190613218565b60405180910390f35b34801561015b57600080fd5b506101646103be565b60405161014691906131e0565b34801561017d57600080fd5b50610186610444565b60405161014691906130ff565b34801561019f57600080fd5b506101a861045c565b6040516101469190613150565b3480156101c157600080fd5b506101ca6104dd565b005b3480156101d857600080fd5b506101ca6101e7366004612d73565b610dbc565b6101ca6101fa366004612fb1565b610f72565b34801561020b57600080fd5b5061013961021a366004612d73565b61143a565b34801561022b57600080fd5b506101396114c3565b34801561024057600080fd5b506101396115b6565b34801561025557600080fd5b506101ca610264366004612fb1565b6115bc565b34801561027557600080fd5b5061018661182f565b34801561028a57600080fd5b50610186611847565b6101ca6102a1366004612ffd565b61185f565b3480156102b257600080fd5b506101396102c1366004612fb1565b611dae565b3480156102d257600080fd5b506101ca611ddf565b3480156102e757600080fd5b506101396120aa565b3480156102fc57600080fd5b506103056120ef565b604051610146919061319d565b34801561031e57600080fd5b5061013961032d366004612d73565b612170565b60015460405163cfd4766360e01b81526000916001600160a01b03169063cfd47663906103659086908690600401613137565b60206040518083038186803b15801561037d57600080fd5b505afa158015610391573d6000803e3d6000fd5b505050506040513d601f19601f820116820180604052508101906103b59190612fe5565b90505b92915050565b60015460408051635b47fd0160e11b815290516060926001600160a01b03169163b68ffa02916004808301926000929190829003018186803b15801561040357600080fd5b505afa158015610417573d6000803e3d6000fd5b505050506040513d6000823e601f3d908101601f1916820160405261043f9190810190612f13565b905090565b735f4ec3df9cbd43714fe2740f5e3616155c5b841981565b600154604080516343352d6160e01b815290516060926001600160a01b0316916343352d61916004808301926000929190829003018186803b1580156104a157600080fd5b505afa1580156104b5573d6000803e3d6000fd5b505050506040513d6000823e601f3d908101601f1916820160405261043f9190810190612dd6565b600160009054906101000a90046001600160a01b03166001600160a01b03166304e2064f6040518163ffffffff1660e01b815260040160206040518083038186803b15801561052b57600080fd5b505afa15801561053f573d6000803e3d6000fd5b505050506040513d601f19601f820116820180604052508101906105639190612d8f565b6001600160a01b0316336001600160a01b03161461059c5760405162461bcd60e51b8152600401610593906134db565b60405180910390fd5b600154604080516334df036560e21b815290516702c68af0bb140000926001600160a01b03169163d37c0d94916004808301926020929190829003018186803b1580156105e857600080fd5b505afa1580156105fc573d6000803e3d6000fd5b505050506040513d601f19601f820116820180604052508101906106209190612fe5565b10610dba57600154604080516334df036560e21b815290516000926001600160a01b03169163d37c0d94916004808301926020929190829003018186803b15801561066a57600080fd5b505afa15801561067e573d6000803e3d6000fd5b505050506040513d601f19601f820116820180604052508101906106a29190612fe5565b90506000610741606461073b600160009054906101000a90046001600160a01b03166001600160a01b03166363e9669b6040518163ffffffff1660e01b815260040160206040518083038186803b1580156106fc57600080fd5b505afa158015610710573d6000803e3d6000fd5b505050506040513d601f19601f820116820180604052508101906107349190612fe5565b85906121a2565b906121dc565b905060006107da606461073b600160009054906101000a90046001600160a01b03166001600160a01b03166356d01f776040518163ffffffff1660e01b815260040160206040518083038186803b15801561079b57600080fd5b505afa1580156107af573d6000803e3d6000fd5b505050506040513d601f19601f820116820180604052508101906107d39190612fe5565b86906121a2565b90506000610873606461073b600160009054906101000a90046001600160a01b03166001600160a01b031663ef19168d6040518163ffffffff1660e01b815260040160206040518083038186803b15801561083457600080fd5b505afa158015610848573d6000803e3d6000fd5b505050506040513d601f19601f8201168201806040525081019061086c9190612fe5565b87906121a2565b60015460408051632b40fef360e01b815290519293506000926001600160a01b039092169163cfd47663918391632b40fef391600480820192602092909190829003018186803b1580156108c657600080fd5b505afa1580156108da573d6000803e3d6000fd5b505050506040513d601f19601f820116820180604052508101906108fe9190612d8f565b600160009054906101000a90046001600160a01b03166001600160a01b031663521006486040518163ffffffff1660e01b815260040160206040518083038186803b15801561094c57600080fd5b505afa158015610960573d6000803e3d6000fd5b505050506040513d601f19601f820116820180604052508101906109849190612fe5565b6040518363ffffffff1660e01b81526004016109a1929190613137565b60206040518083038186803b1580156109b957600080fd5b505afa1580156109cd573d6000803e3d6000fd5b505050506040513d601f19601f820116820180604052508101906109f19190612fe5565b905060006109ff83836121dc565b60015460408051630a4200c960e31b815290519293506001600160a01b03909116916308c830ed918391635210064891600480820192602092909190829003018186803b158015610a4f57600080fd5b505afa158015610a63573d6000803e3d6000fd5b505050506040513d601f19601f82011682018060405250810190610a879190612fe5565b836040518363ffffffff1660e01b8152600401610aa59291906130f1565b600060405180830381600087803b158015610abf57600080fd5b505af1158015610ad3573d6000803e3d6000fd5b505060015460405163071a421960e21b81526001600160a01b039091169250631c6908649150610b0890600090600401613218565b600060405180830381600087803b158015610b2257600080fd5b505af1158015610b36573d6000803e3d6000fd5b505060015460408051630a4200c960e31b815290516001600160a01b03909216935063b4f09ad492508391635210064891600480820192602092909190829003018186803b158015610b8757600080fd5b505afa158015610b9b573d6000803e3d6000fd5b505050506040513d601f19601f82011682018060405250810190610bbf9190612fe5565b6040518263ffffffff1660e01b8152600401610bdb9190613218565b600060405180830381600087803b158015610bf557600080fd5b505af1158015610c09573d6000803e3d6000fd5b50506001805460408051630a4200c960e31b815290516001600160a01b039092169450630f53aecf9350610c9d929185916352100648916004808301926020929190829003018186803b158015610c5f57600080fd5b505afa158015610c73573d6000803e3d6000fd5b505050506040513d601f19601f82011682018060405250810190610c979190612fe5565b9061220e565b6040518263ffffffff1660e01b8152600401610cb99190613218565b600060405180830381600087803b158015610cd357600080fd5b505af1158015610ce7573d6000803e3d6000fd5b50505050600160009054906101000a90046001600160a01b03166001600160a01b03166304e2064f6040518163ffffffff1660e01b815260040160206040518083038186803b158015610d3957600080fd5b505afa158015610d4d573d6000803e3d6000fd5b505050506040513d601f19601f82011682018060405250810190610d719190612d8f565b6001600160a01b03166108fc869081150290604051600060405180830381858888f19350505050158015610da9573d6000803e3d6000fd5b50610db384612233565b5050505050505b565b600160009054906101000a90046001600160a01b03166001600160a01b03166304e2064f6040518163ffffffff1660e01b815260040160206040518083038186803b158015610e0a57600080fd5b505afa158015610e1e573d6000803e3d6000fd5b505050506040513d601f19601f82011682018060405250810190610e429190612d8f565b6001600160a01b0316336001600160a01b031614610e725760405162461bcd60e51b81526004016105939061342a565b600154604051631637a58360e01b81526001600160a01b0390911690631637a58390610ea29084906004016130ff565b600060405180830381600087803b158015610ebc57600080fd5b505af1158015610ed0573d6000803e3d6000fd5b505060048054604051631637a58360e01b81526001600160a01b039091169350631637a5839250610f03918591016130ff565b600060405180830381600087803b158015610f1d57600080fd5b505af1158015610f31573d6000803e3d6000fd5b50506040514792506001600160a01b038416915082156108fc029083906000818181858888f19350505050158015610f6d573d6000803e3d6000fd5b505050565b3433610f7c612c61565b60015460405163f6c0092760e01b81526001600160a01b039091169063f6c0092790610fac908790600401613218565b6101406040518083038186803b158015610fc557600080fd5b505afa158015610fd9573d6000803e3d6000fd5b505050506040513d601f19601f82011682018060405250810190610ffd9190612fc9565b606081015160015460405163b91a440d60e01b815292935090916001600160a01b039091169063b91a440d90611037908890600401613218565b60006040518083038186803b15801561104f57600080fd5b505afa158015611063573d6000803e3d6000fd5b505050506040513d6000823e601f3d908101601f1916820160405261108b9190810190612dd6565b51106110a95760405162461bcd60e51b8152600401610593906133be565b8060a001516001600160a01b0316826001600160a01b031614156110df5760405162461bcd60e51b81526004016105939061337b565b60006110e96115b6565b905060006110f782866121a2565b9050826080015181101561111d5760405162461bcd60e51b815260040161059390613461565b6001546040516330115af360e11b81526000916001600160a01b031690636022b5e69061114e908a90600401613218565b60206040518083038186803b15801561116657600080fd5b505afa15801561117a573d6000803e3d6000fd5b505050506040513d601f19601f8201168201806040525081019061119e9190612fe5565b6001549091506001600160a01b03166387bb9588886111bd848a61220e565b6040518363ffffffff1660e01b81526004016111da9291906130f1565b600060405180830381600087803b1580156111f457600080fd5b505af1158015611208573d6000803e3d6000fd5b5050600154604051627a72b360e31b81526001600160a01b0390911692506303d39598915061123d908a908990600401613221565b600060405180830381600087803b15801561125757600080fd5b505af115801561126b573d6000803e3d6000fd5b505060015460405163b91a440d60e01b8152606093506001600160a01b03909116915063b91a440d906112a2908b90600401613218565b60006040518083038186803b1580156112ba57600080fd5b505afa1580156112ce573d6000803e3d6000fd5b505050506040513d6000823e601f3d908101601f191682016040526112f69190810190612dd6565b6001548151604051634c8aeb4360e11b81529293506001600160a01b0390911691639915d6869161132c918c91906004016130f1565b600060405180830381600087803b15801561134657600080fd5b505af115801561135a573d6000803e3d6000fd5b505060015460405163f6c0092760e01b81526001600160a01b03909116925063f6c00927915061138e908b90600401613218565b6101406040518083038186803b1580156113a757600080fd5b505afa1580156113bb573d6000803e3d6000fd5b505050506040513d601f19601f820116820180604052508101906113df9190612fc9565b94508460600151815114156113f7576113f788612335565b7f08de3d5214e026e4f3a80f833a13b149bbb5dd61a5d83f4650c4a5ba00d9475e8887604051611428929190613221565b60405180910390a15050505050505050565b60015460405163842e298160e01b81526000916001600160a01b03169063842e29819061146b9085906004016130ff565b60206040518083038186803b15801561148357600080fd5b505afa158015611497573d6000803e3d6000fd5b505050506040513d601f19601f820116820180604052508101906114bb9190612fe5565b90505b919050565b6004805460015460408051632b40fef360e01b815290516000946001600160a01b03948516946370a08231941692632b40fef39281830192602092829003018186803b15801561151257600080fd5b505afa158015611526573d6000803e3d6000fd5b505050506040513d601f19601f8201168201806040525081019061154a9190612d8f565b6040518263ffffffff1660e01b815260040161156691906130ff565b60206040518083038186803b15801561157e57600080fd5b505afa158015611592573d6000803e3d6000fd5b505050506040513d601f19601f8201168201806040525081019061043f9190612fe5565b6101f490565b600480546040516370a0823160e01b8152339284926001600160a01b0316916370a08231916115ed918691016130ff565b60206040518083038186803b15801561160557600080fd5b505afa158015611619573d6000803e3d6000fd5b505050506040513d601f19601f8201168201806040525081019061163d9190612fe5565b101561165b5760405162461bcd60e51b81526004016105939061350b565b6001546040516318426dab60e31b81526001600160a01b039091169063c2136d589061168b9084906004016130ff565b60206040518083038186803b1580156116a357600080fd5b505afa1580156116b7573d6000803e3d6000fd5b505050506040513d601f19601f820116820180604052508101906116db9190612f97565b156116f85760405162461bcd60e51b8152600401610593906134a4565b6004805460015460408051632b40fef360e01b815290516001600160a01b039384169463bf6eac2f9487941692632b40fef39281830192602092829003018186803b15801561174657600080fd5b505afa15801561175a573d6000803e3d6000fd5b505050506040513d601f19601f8201168201806040525081019061177e9190612d8f565b856040518463ffffffff1660e01b815260040161179d93929190613113565b600060405180830381600087803b1580156117b757600080fd5b505af11580156117cb573d6000803e3d6000fd5b50506001546040516331ba14cf60e11b81526001600160a01b039091169250636374299e91506118019084908690600401613137565b600060405180830381600087803b15801561181b57600080fd5b505af1158015610db3573d6000803e3d6000fd5b739326bfa02add2366b30bacb125260af64103133181565b739ef1b8c0e4f7dc8bf5719ea496883dc6401d5b2e81565b3460006118748261186e6115b6565b906121a2565b9050600080600160009054906101000a90046001600160a01b03166001600160a01b031663f417bd9c6040518163ffffffff1660e01b815260040160206040518083038186803b1580156118c757600080fd5b505afa1580156118db573d6000803e3d6000fd5b505050506040513d601f19601f820116820180604052508101906118ff9190612fe5565b600154604080516304e2064f60e01b8152905192935033926001600160a01b03909216916304e2064f91600480820192602092909190829003018186803b15801561194957600080fd5b505afa15801561195d573d6000803e3d6000fd5b505050506040513d601f19601f820116820180604052508101906119819190612d8f565b6001600160a01b0316816001600160a01b03161415611b3b57600160009054906101000a90046001600160a01b03166001600160a01b031663e0a11c206040518163ffffffff1660e01b815260040160206040518083038186803b1580156119e857600080fd5b505afa1580156119fc573d6000803e3d6000fd5b505050506040513d601f19601f82011682018060405250810190611a209190612fe5565b9350600160009054906101000a90046001600160a01b03166001600160a01b031663e0a11c206040518163ffffffff1660e01b815260040160206040518083038186803b158015611a7057600080fd5b505afa158015611a84573d6000803e3d6000fd5b505050506040513d601f19601f82011682018060405250810190611aa89190612fe5565b9150600160009054906101000a90046001600160a01b03166001600160a01b03166305868b266040518163ffffffff1660e01b815260040160206040518083038186803b158015611af857600080fd5b505afa158015611b0c573d6000803e3d6000fd5b505050506040513d601f19601f82011682018060405250810190611b309190612fe5565b965060019250611c85565b600160009054906101000a90046001600160a01b03166001600160a01b0316632c0797ef6040518163ffffffff1660e01b815260040160206040518083038186803b158015611b8957600080fd5b505afa158015611b9d573d6000803e3d6000fd5b505050506040513d601f19601f82011682018060405250810190611bc19190612fe5565b871015611be05760405162461bcd60e51b8152600401610593906132ab565b600160009054906101000a90046001600160a01b03166001600160a01b031663d86923956040518163ffffffff1660e01b815260040160206040518083038186803b158015611c2e57600080fd5b505afa158015611c42573d6000803e3d6000fd5b505050506040513d601f19601f82011682018060405250810190611c669190612fe5565b871115611c855760405162461bcd60e51b815260040161059390613248565b81841015611ca55760405162461bcd60e51b815260040161059390613461565b6000808481611cb2612c61565b5060408051610140810182526001600160a01b0380871682526020820186905284151582840152606082018e9052608082018b905287811660a083015283151560c083015260e082018c905261010082018d90526000610120830152600154925163edf3c35760e01b81529192169063edf3c35790611d35908490600401613542565b600060405180830381600087803b158015611d4f57600080fd5b505af1158015611d63573d6000803e3d6000fd5b505050507f081567f6f781ee2fc9b4c57b8f27190ffbf89fc9f3ae11d27893cc6481d6f9818b87604051611d98929190613221565b60405180910390a1505050505050505050505050565b600154604051630216187360e21b81526000916001600160a01b03169063085861cc9061146b908590600401613218565b60015460405163842e298160e01b815233916000916001600160a01b039091169063842e298190611e149085906004016130ff565b60206040518083038186803b158015611e2c57600080fd5b505afa158015611e40573d6000803e3d6000fd5b505050506040513d601f19601f82011682018060405250810190611e649190612fe5565b11611e815760405162461bcd60e51b815260040161059390613344565b6001546040516318426dab60e31b81526001600160a01b039091169063c2136d5890611eb19084906004016130ff565b60206040518083038186803b158015611ec957600080fd5b505afa158015611edd573d6000803e3d6000fd5b505050506040513d601f19601f82011682018060405250810190611f019190612f97565b15611f1e5760405162461bcd60e51b8152600401610593906134a4565b60015460405163842e298160e01b81526000916001600160a01b03169063842e298190611f4f9085906004016130ff565b60206040518083038186803b158015611f6757600080fd5b505afa158015611f7b573d6000803e3d6000fd5b505050506040513d601f19601f82011682018060405250810190611f9f9190612fe5565b60015460405163611d2e7560e11b81529192506001600160a01b03169063c23a5cea90611fd09085906004016130ff565b600060405180830381600087803b158015611fea57600080fd5b505af1158015611ffe573d6000803e3d6000fd5b50506004805460015460408051632b40fef360e01b815290516001600160a01b0393841696506360829f8a95509290911692632b40fef3928282019260209290829003018186803b15801561205257600080fd5b505afa158015612066573d6000803e3d6000fd5b505050506040513d601f19601f8201168201806040525081019061208a9190612d8f565b84846040518463ffffffff1660e01b815260040161180193929190613113565b600154604080516334df036560e21b815290516000926001600160a01b03169163d37c0d94916004808301926020929190829003018186803b15801561157e57600080fd5b60015460408051633623fc7d60e21b815290516060926001600160a01b03169163d88ff1f4916004808301926000929190829003018186803b15801561213457600080fd5b505afa158015612148573d6000803e3d6000fd5b505050506040513d6000823e601f3d908101601f1916820160405261043f9190810190612e74565b600480546040516370a0823160e01b81526000926001600160a01b03909216916370a082319161146b918691016130ff565b6000826121b1575060006103b8565b828202828482816121be57fe5b04146103b55760405162461bcd60e51b8152600401610593906133e9565b60008082116121fd5760405162461bcd60e51b81526004016105939061330d565b81838161220657fe5b049392505050565b6000828201838110156103b55760405162461bcd60e51b815260040161059390613274565b60015460408051637c05a9a960e11b815290516060926001600160a01b03169163f80b5352916004808301926000929190829003018186803b15801561227857600080fd5b505afa15801561228c573d6000803e3d6000fd5b505050506040513d6000823e601f3d908101601f191682016040526122b49190810190612dd6565b905060006122cc8251846121dc90919063ffffffff16565b905060005b825181101561232f578281815181106122e657fe5b60200260200101516001600160a01b03166108fc839081150290604051600060405180830381858888f19350505050158015612326573d6000803e3d6000fd5b506001016122d1565b50505050565b61233d612c61565b60015460405163f6c0092760e01b81526001600160a01b039091169063f6c009279061236d908590600401613218565b6101406040518083038186803b15801561238657600080fd5b505afa15801561239a573d6000803e3d6000fd5b505050506040513d601f19601f820116820180604052508101906123be9190612fc9565b60015460405163b91a440d60e01b81529192506060916001600160a01b039091169063b91a440d906123f4908690600401613218565b60006040518083038186803b15801561240c57600080fd5b505afa158015612420573d6000803e3d6000fd5b505050506040513d6000823e601f3d908101601f191682016040526124489190810190612dd6565b6001546040516330115af360e11b81529192506000916001600160a01b0390911690636022b5e69061247e908790600401613218565b60206040518083038186803b15801561249657600080fd5b505afa1580156124aa573d6000803e3d6000fd5b505050506040513d601f19601f820116820180604052508101906124ce9190612fe5565b9050600060028351816124dd57fe5b0490506000600184510390506000846000815181106124f857fe5b602002602001015160405160200161251091906130b4565b6040516020818303038152906040528051906020012090508085848151811061253557fe5b602002602001015160405160200161254e9291906130d1565b6040516020818303038152906040528051906020012090508085838151811061257357fe5b602002602001015160405160200161258c9291906130d1565b6040516020818303038152906040528051906020012090506000866060015185836040516020016125be9291906130f1565b6040516020818303038152906040528051906020012060001c816125de57fe5b06905060008682815181106125ef57fe5b602002602001015190506000612690606461073b600160009054906101000a90046001600160a01b03166001600160a01b03166381014bbe6040518163ffffffff1660e01b815260040160206040518083038186803b15801561265157600080fd5b505afa158015612665573d6000803e3d6000fd5b505050506040513d601f19601f820116820180604052508101906126899190612fe5565b8a906121a2565b90506001600160a01b0382166108fc6126a98984612c39565b6040518115909202916000818181858888f193505050501580156126d1573d6000803e3d6000fd5b50600160009054906101000a90046001600160a01b03166001600160a01b03166304e2064f6040518163ffffffff1660e01b815260040160206040518083038186803b15801561272057600080fd5b505afa158015612734573d6000803e3d6000fd5b505050506040513d601f19601f820116820180604052508101906127589190612d8f565b6001600160a01b03166108fc829081150290604051600060405180830381858888f19350505050158015612790573d6000803e3d6000fd5b50600154604051636894da0b60e01b81526001600160a01b0390911690636894da0b906127c3908d908690600401613221565b600060405180830381600087803b1580156127dd57600080fd5b505af11580156127f1573d6000803e3d6000fd5b5050600180546040516344b0ef3b60e01b81526001600160a01b0390911693506344b0ef3b9250612826918e91600401613238565b600060405180830381600087803b15801561284057600080fd5b505af1158015612854573d6000803e3d6000fd5b5050600154604051636894da0b60e01b81526001600160a01b039091169250636894da0b915061288a908d908690600401613221565b600060405180830381600087803b1580156128a457600080fd5b505af11580156128b8573d6000803e3d6000fd5b5050600180546040516344b0ef3b60e01b81526001600160a01b0390911693506344b0ef3b92506128ed918e91600401613238565b600060405180830381600087803b15801561290757600080fd5b505af115801561291b573d6000803e3d6000fd5b505060015460405163f6c0092760e01b81526001600160a01b03909116925063f6c00927915061294f908d90600401613218565b6101406040518083038186803b15801561296857600080fd5b505afa15801561297c573d6000803e3d6000fd5b505050506040513d601f19601f820116820180604052508101906129a09190612fc9565b985060006129bf8a606001518b608001516121a290919063ffffffff16565b90506000612a19606461073b600160009054906101000a90046001600160a01b03166001600160a01b031663fd7f82536040518163ffffffff1660e01b815260040160206040518083038186803b1580156106fc57600080fd5b60045460a08d01519192506001600160a01b0316906379c6506890612a3e8585612c39565b6040518363ffffffff1660e01b8152600401612a5b929190613137565b600060405180830381600087803b158015612a7557600080fd5b505af1158015612a89573d6000803e3d6000fd5b505060048054600154604080516304e2064f60e01b815290516001600160a01b0393841696506379c65068955092909116926304e2064f928282019260209290829003018186803b158015612add57600080fd5b505afa158015612af1573d6000803e3d6000fd5b505050506040513d601f19601f82011682018060405250810190612b159190612d8f565b836040518363ffffffff1660e01b8152600401612b33929190613137565b600060405180830381600087803b158015612b4d57600080fd5b505af1158015612b61573d6000803e3d6000fd5b505060015460e08e0151604080516334df036560e21b815290516001600160a01b039093169450631c6908649350612bba92859163d37c0d94916004808301926020929190829003018186803b158015610c5f57600080fd5b6040518263ffffffff1660e01b8152600401612bd69190613218565b600060405180830381600087803b158015612bf057600080fd5b505af1158015612c04573d6000803e3d6000fd5b505050507f4ce558cfe085137a30c6c4374f76c2233d6a076a07a45f309bd578a1f922166c8c85604051611d98929190613221565b600082821115612c5b5760405162461bcd60e51b8152600401610593906132d6565b50900390565b6040805161014081018252600080825260208201819052918101829052606081018290526080810182905260a0810182905260c0810182905260e08101829052610100810182905261012081019190915290565b80516114be81613593565b805180151581146114be57600080fd5b6000610140808385031215612ce3578182fd5b612cec81613551565b915050612cf882612cb5565b815260208201516020820152612d1060408301612cc0565b60408201526060820151606082015260808201516080820152612d3560a08301612cb5565b60a0820152612d4660c08301612cc0565b60c082015260e082015160e082015261010080830151818301525061012080830151818301525092915050565b600060208284031215612d84578081fd5b81356103b581613593565b600060208284031215612da0578081fd5b81516103b581613593565b60008060408385031215612dbd578081fd5b8235612dc881613593565b946020939093013593505050565b60006020808385031215612de8578182fd5b825167ffffffffffffffff811115612dfe578283fd5b8301601f81018513612e0e578283fd5b8051612e21612e1c82613575565b613551565b8181528381019083850185840285018601891015612e3d578687fd5b8694505b83851015612e68578051612e5481613593565b835260019490940193918501918501612e41565b50979650505050505050565b60006020808385031215612e86578182fd5b825167ffffffffffffffff811115612e9c578283fd5b8301601f81018513612eac578283fd5b8051612eba612e1c82613575565b81815283810190838501610140808502860187018a1015612ed9578788fd5b8795505b84861015612f0557612eef8a83612cd0565b8452600195909501949286019290810190612edd565b509098975050505050505050565b60006020808385031215612f25578182fd5b825167ffffffffffffffff811115612f3b578283fd5b8301601f81018513612f4b578283fd5b8051612f59612e1c82613575565b8181528381019083850185840285018601891015612f75578687fd5b8694505b83851015612e68578051835260019490940193918501918501612f79565b600060208284031215612fa8578081fd5b6103b582612cc0565b600060208284031215612fc2578081fd5b5035919050565b60006101408284031215612fdb578081fd5b6103b58383612cd0565b600060208284031215612ff6578081fd5b5051919050565b6000806040838503121561300f578182fd5b50508035926020909101359150565b6001600160a01b03169052565b15159052565b61303c82825161301e565b602081015160208301526040810151613058604084018261302b565b50606081015160608301526080810151608083015260a081015161307f60a084018261301e565b5060c081015161309260c084018261302b565b5060e08181015190830152610100808201519083015261012090810151910152565b60609190911b6bffffffffffffffffffffffff1916815260140190565b91825260601b6bffffffffffffffffffffffff1916602082015260340190565b918252602082015260400190565b6001600160a01b0391909116815260200190565b6001600160a01b039384168152919092166020820152604081019190915260600190565b6001600160a01b03929092168252602082015260400190565b6020808252825182820181905260009190848201906040850190845b818110156131915783516001600160a01b03168352928401929184019160010161316c565b50909695505050505050565b6020808252825182820181905260009190848201906040850190845b81811015613191576131cc838551613031565b9284019261014092909201916001016131b9565b6020808252825182820181905260009190848201906040850190845b81811015613191578351835292840192918401916001016131fc565b90815260200190565b9182526001600160a01b0316602082015260400190565b9182521515602082015260400190565b6020808252601290820152710a0deded840e6d2f4ca40e8dede40d0d2ced60731b604082015260600190565b6020808252601b908201527f536166654d6174683a206164646974696f6e206f766572666c6f770000000000604082015260600190565b602080825260119082015270506f6f6c2073697a6520746f6f206c6f7760781b604082015260600190565b6020808252601e908201527f536166654d6174683a207375627472616374696f6e206f766572666c6f770000604082015260600190565b6020808252601a908201527f536166654d6174683a206469766973696f6e206279207a65726f000000000000604082015260600190565b60208082526017908201527f596f7520646f206e6f7420686176652061207374616b65000000000000000000604082015260600190565b60208082526023908201527f596f752063616e277420706172746963697061746520696e207468697320706f60408201526237b61760e91b606082015260800190565b602080825260119082015270151a1a5cc8141bdbdb081a5cc8199d5b1b607a1b604082015260600190565b60208082526021908201527f536166654d6174683a206d756c7469706c69636174696f6e206f766572666c6f6040820152607760f81b606082015260800190565b60208082526018908201527f4f6e6c79206120686f7573652063616e20646f20746861740000000000000000604082015260600190565b60208082526023908201527f56616c75652053656e74206973206c657373207468616e20706f6f6c2070726960408201526231b29760e91b606082015260800190565b60208082526017908201527f476f7665726e6f72732063616e206e6f74207374616b65000000000000000000604082015260600190565b60208082526016908201527513db9b1e481a1bdd5cd94818d85b88191bc81d1a185d60521b604082015260600190565b6020808252601d908201527f596f7520646f206e6f74206861766520656e6f7567682047524f54544f000000604082015260600190565b61014081016103b88284613031565b60405181810167ffffffffffffffff8111828210171561356d57fe5b604052919050565b600067ffffffffffffffff82111561358957fe5b5060209081020190565b6001600160a01b03811681146135a857600080fd5b5056fea26469706673582212201b245d4db9d076850c4095cff99d8a4ec3e344b8ef86de2dc7c75a4388bdcd1c64736f6c63430007030033",
  "linkReferences": {},
  "deployedLinkReferences": {}
}