{
  "_format": "hh-sol-artifact-1",
  "contractName": "Grotto",
  "sourceName": "contracts/Grotto.sol",
  "abi": [
    {
      "inputs": [],
      "stateMutability": "nonpayable",
      "type": "constructor"
    },
    {
      "anonymous": false,
      "inputs": [
        {
          "indexed": false,
          "internalType": "bytes32",
          "name": "",
          "type": "bytes32"
        },
        {
          "indexed": false,
          "internalType": "address",
          "name": "",
          "type": "address"
        }
      ],
      "name": "POOL_CREATED",
      "type": "event"
    },
    {
      "anonymous": false,
      "inputs": [
        {
          "indexed": false,
          "internalType": "bytes32",
          "name": "",
          "type": "bytes32"
        },
        {
          "indexed": false,
          "internalType": "address",
          "name": "",
          "type": "address"
        }
      ],
      "name": "POOL_JOINED",
      "type": "event"
    },
    {
      "anonymous": false,
      "inputs": [
        {
          "indexed": false,
          "internalType": "bytes32",
          "name": "",
          "type": "bytes32"
        },
        {
          "indexed": false,
          "internalType": "address",
          "name": "",
          "type": "address"
        }
      ],
      "name": "WINNER_FOUND",
      "type": "event"
    },
    {
      "inputs": [],
      "name": "BSC_ETH_USD_PF",
      "outputs": [
        {
          "internalType": "address",
          "name": "",
          "type": "address"
        }
      ],
      "stateMutability": "view",
      "type": "function"
    },
    {
      "inputs": [],
      "name": "KOVAN_ETH_USD_PF",
      "outputs": [
        {
          "internalType": "address",
          "name": "",
          "type": "address"
        }
      ],
      "stateMutability": "view",
      "type": "function"
    },
    {
      "inputs": [],
      "name": "MAINNET_ETH_USD_PF",
      "outputs": [
        {
          "internalType": "address",
          "name": "",
          "type": "address"
        }
      ],
      "stateMutability": "view",
      "type": "function"
    },
    {
      "inputs": [
        {
          "internalType": "bytes32",
          "name": "poolId",
          "type": "bytes32"
        }
      ],
      "name": "enterPool",
      "outputs": [],
      "stateMutability": "payable",
      "type": "function"
    },
    {
      "inputs": [],
      "name": "getAllPools",
      "outputs": [
        {
          "components": [
            {
              "internalType": "address",
              "name": "winner",
              "type": "address"
            },
            {
              "internalType": "uint256",
              "name": "currentPoolSize",
              "type": "uint256"
            },
            {
              "internalType": "bool",
              "name": "isInMainPool",
              "type": "bool"
            },
            {
              "internalType": "uint256",
              "name": "poolSize",
              "type": "uint256"
            },
            {
              "internalType": "uint256",
              "name": "poolPrice",
              "type": "uint256"
            },
            {
              "internalType": "address",
              "name": "poolCreator",
              "type": "address"
            },
            {
              "internalType": "bool",
              "name": "isPoolConcluded",
              "type": "bool"
            },
            {
              "internalType": "uint256",
              "name": "poolPriceInEther",
              "type": "uint256"
            },
            {
              "internalType": "bytes32",
              "name": "poolId",
              "type": "bytes32"
            },
            {
              "internalType": "uint256",
              "name": "totalStaked",
              "type": "uint256"
            }
          ],
          "internalType": "struct Data.Pool[]",
          "name": "",
          "type": "tuple[]"
        }
      ],
      "stateMutability": "view",
      "type": "function"
    },
    {
      "inputs": [
        {
          "internalType": "address",
          "name": "account",
          "type": "address"
        }
      ],
      "name": "getGrottoTokenBalance",
      "outputs": [
        {
          "internalType": "uint256",
          "name": "",
          "type": "uint256"
        }
      ],
      "stateMutability": "view",
      "type": "function"
    },
    {
      "inputs": [],
      "name": "getLatestPrice",
      "outputs": [
        {
          "internalType": "uint256",
          "name": "",
          "type": "uint256"
        }
      ],
      "stateMutability": "pure",
      "type": "function"
    },
    {
      "inputs": [
        {
          "internalType": "address",
          "name": "staker",
          "type": "address"
        }
      ],
      "name": "getStake",
      "outputs": [
        {
          "internalType": "uint256",
          "name": "",
          "type": "uint256"
        }
      ],
      "stateMutability": "view",
      "type": "function"
    },
    {
      "inputs": [],
      "name": "getStakers",
      "outputs": [
        {
          "internalType": "address payable[]",
          "name": "",
          "type": "address[]"
        }
      ],
      "stateMutability": "view",
      "type": "function"
    },
    {
      "inputs": [],
      "name": "getStakingMasterBalance",
      "outputs": [
        {
          "internalType": "uint256",
          "name": "",
          "type": "uint256"
        }
      ],
      "stateMutability": "view",
      "type": "function"
    },
    {
      "inputs": [
        {
          "internalType": "uint256",
          "name": "amount",
          "type": "uint256"
        }
      ],
      "name": "stake",
      "outputs": [],
      "stateMutability": "nonpayable",
      "type": "function"
    },
    {
      "inputs": [
        {
          "internalType": "uint256",
          "name": "poolSize",
          "type": "uint256"
        },
        {
          "internalType": "bytes32",
          "name": "poolId",
          "type": "bytes32"
        }
      ],
      "name": "startNewPool",
      "outputs": [],
      "stateMutability": "payable",
      "type": "function"
    },
    {
      "inputs": [
        {
          "internalType": "address payable",
          "name": "newAddress",
          "type": "address"
        }
      ],
      "name": "updateGrotto",
      "outputs": [],
      "stateMutability": "nonpayable",
      "type": "function"
    },
    {
      "inputs": [],
      "name": "withdrawStake",
      "outputs": [],
      "stateMutability": "nonpayable",
      "type": "function"
    }
  ],
  "bytecode": "0x6080604052600280546001600160a01b031990811673da5f6bd1b08acc46a91f4fed97958f6e3aee00161790915560038054909116738cdbd3a5d46c2f7563ccfd89433190fb7c9b07c01790553480156200005957600080fd5b50600354600180546001600160a01b03199081166001600160a01b0393841617918290556002546004805490921690841617815560405162fe551560e71b81529190921691637f2a8a8091620000b29133910162000453565b600060405180830381600087803b158015620000cd57600080fd5b505af1158015620000e2573d6000803e3d6000fd5b5050600080546001600160a01b031916739326bfa02add2366b30bacb125260af641031331179055506200011790506200011d565b620004a4565b60015460408051637c05a9a960e11b815290516060926001600160a01b03169163f80b5352916004808301926000929190829003018186803b1580156200016357600080fd5b505afa15801562000178573d6000803e3d6000fd5b505050506040513d6000823e601f3d908101601f19168201604052620001a2919081019062000388565b905060005b8151811015620003675760045482516001600160a01b03909116906370a0823190849084908110620001d557fe5b60200260200101516040518263ffffffff1660e01b8152600401620001fb919062000453565b60206040518083038186803b1580156200021457600080fd5b505afa15801562000229573d6000803e3d6000fd5b505050506040513d601f19601f820116820180604052508101906200024f91906200043a565b6200035e5760045482516001600160a01b03909116906379c65068908490849081106200027857fe5b6020026020010151600160009054906101000a90046001600160a01b03166001600160a01b03166375336ae66040518163ffffffff1660e01b815260040160206040518083038186803b158015620002cf57600080fd5b505afa158015620002e4573d6000803e3d6000fd5b505050506040513d601f19601f820116820180604052508101906200030a91906200043a565b6040518363ffffffff1660e01b81526004016200032992919062000467565b600060405180830381600087803b1580156200034457600080fd5b505af115801562000359573d6000803e3d6000fd5b505050505b600101620001a7565b5050565b80516001600160a01b03811681146200038357600080fd5b919050565b600060208083850312156200039b578182fd5b82516001600160401b0380821115620003b2578384fd5b818501915085601f830112620003c6578384fd5b815181811115620003d357fe5b8381029150620003e584830162000480565b8181528481019084860184860187018a101562000400578788fd5b8795505b838610156200042d5762000418816200036b565b83526001959095019491860191860162000404565b5098975050505050505050565b6000602082840312156200044c578081fd5b5051919050565b6001600160a01b0391909116815260200190565b6001600160a01b03929092168252602082015260400190565b6040518181016001600160401b03811182821017156200049c57fe5b604052919050565b612cf980620004b46000396000f3fe6080604052600436106100dd5760003560e01c8063a694fc3a1161007f578063b3e0f3d311610059578063b3e0f3d314610205578063bed9d86114610218578063d88ff1f41461022d578063df174ef91461024f576100dd565b8063a694fc3a146101bb578063aef3bc92146101db578063afa08c39146101f0576100dd565b80635923dfc7116100bb5780635923dfc7146101515780637a766460146101645780637edf96cb146101915780638e15f473146101a6576100dd565b80633760c101146100e257806343352d611461010d5780634ccfc5d21461012f575b600080fd5b3480156100ee57600080fd5b506100f761026f565b604051610104919061287f565b60405180910390f35b34801561011957600080fd5b50610122610287565b60405161010491906128d0565b34801561013b57600080fd5b5061014f61014a366004612528565b61030d565b005b61014f61015f36600461272a565b6104cc565b34801561017057600080fd5b5061018461017f366004612528565b610be7565b6040516101049190612960565b34801561019d57600080fd5b50610184610c70565b3480156101b257600080fd5b50610184610d63565b3480156101c757600080fd5b5061014f6101d636600461272a565b610d69565b3480156101e757600080fd5b506100f7610f6d565b3480156101fc57600080fd5b506100f7610f85565b61014f61021336600461277d565b610f9d565b34801561022457600080fd5b5061014f6114ec565b34801561023957600080fd5b50610242611740565b604051610104919061291d565b34801561025b57600080fd5b5061018461026a366004612528565b6117c1565b735f4ec3df9cbd43714fe2740f5e3616155c5b841981565b600154604080516343352d6160e01b815290516060926001600160a01b0316916343352d61916004808301926000929190829003018186803b1580156102cc57600080fd5b505afa1580156102e0573d6000803e3d6000fd5b505050506040513d6000823e601f3d908101601f1916820160405261030891908101906125fe565b905090565b600160009054906101000a90046001600160a01b03166001600160a01b03166304e2064f6040518163ffffffff1660e01b815260040160206040518083038186803b15801561035b57600080fd5b505afa15801561036f573d6000803e3d6000fd5b505050506040513d601f19601f820116820180604052508101906103939190612544565b6001600160a01b0316336001600160a01b0316146103cc5760405162461bcd60e51b81526004016103c390612b72565b60405180910390fd5b600154604051631637a58360e01b81526001600160a01b0390911690631637a583906103fc90849060040161287f565b600060405180830381600087803b15801561041657600080fd5b505af115801561042a573d6000803e3d6000fd5b505060048054604051631637a58360e01b81526001600160a01b039091169350631637a583925061045d9185910161287f565b600060405180830381600087803b15801561047757600080fd5b505af115801561048b573d6000803e3d6000fd5b50506040514792506001600160a01b038416915082156108fc029083906000818181858888f193505050501580156104c7573d6000803e3d6000fd5b505050565b34336104d6612416565b60015460405163f6c0092760e01b81526001600160a01b039091169063f6c0092790610506908790600401612960565b6101406040518083038186803b15801561051f57600080fd5b505afa158015610533573d6000803e3d6000fd5b505050506040513d601f19601f820116820180604052508101906105579190612742565b606081015160015460405163b91a440d60e01b815292935090916001600160a01b039091169063b91a440d90610591908890600401612960565b60006040518083038186803b1580156105a957600080fd5b505afa1580156105bd573d6000803e3d6000fd5b505050506040513d6000823e601f3d908101601f191682016040526105e591908101906125fe565b51106106035760405162461bcd60e51b81526004016103c390612b06565b8060a001516001600160a01b0316826001600160a01b031614156106395760405162461bcd60e51b81526004016103c390612ac3565b6000610643610d63565b9050600061065182866117f3565b905082608001518110156106775760405162461bcd60e51b81526004016103c390612ba9565b6001546040516330115af360e11b81526000916001600160a01b031690636022b5e6906106a8908a90600401612960565b60206040518083038186803b1580156106c057600080fd5b505afa1580156106d4573d6000803e3d6000fd5b505050506040513d601f19601f820116820180604052508101906106f89190612765565b6001549091506001600160a01b03166387bb958888610717848a611836565b6040518363ffffffff1660e01b8152600401610734929190612871565b600060405180830381600087803b15801561074e57600080fd5b505af1158015610762573d6000803e3d6000fd5b5050600154604051627a72b360e31b81526001600160a01b0390911692506303d395989150610797908a908990600401612969565b600060405180830381600087803b1580156107b157600080fd5b505af11580156107c5573d6000803e3d6000fd5b505060015460405163b91a440d60e01b8152606093506001600160a01b03909116915063b91a440d906107fc908b90600401612960565b60006040518083038186803b15801561081457600080fd5b505afa158015610828573d6000803e3d6000fd5b505050506040513d6000823e601f3d908101601f1916820160405261085091908101906125fe565b6001548151604051634c8aeb4360e11b81529293506001600160a01b0390911691639915d68691610886918c9190600401612871565b600060405180830381600087803b1580156108a057600080fd5b505af11580156108b4573d6000803e3d6000fd5b505050506000600160009054906101000a90046001600160a01b03166001600160a01b031663d37c0d946040518163ffffffff1660e01b815260040160206040518083038186803b15801561090857600080fd5b505afa15801561091c573d6000803e3d6000fd5b505050506040513d601f19601f820116820180604052508101906109409190612765565b1115610b0b57600154604080516334df036560e21b815290516000926001600160a01b03169163d37c0d94916004808301926020929190829003018186803b15801561098b57600080fd5b505afa15801561099f573d6000803e3d6000fd5b505050506040513d601f19601f820116820180604052508101906109c39190612765565b9050670de0b6b3a7640000811115610b0957600160009054906101000a90046001600160a01b03166001600160a01b03166304e2064f6040518163ffffffff1660e01b815260040160206040518083038186803b158015610a2357600080fd5b505afa158015610a37573d6000803e3d6000fd5b505050506040513d601f19601f82011682018060405250810190610a5b9190612544565b6040516001600160a01b039190911690600090670de0b6b3a76400009082818181858883f19350505050158015610a96573d6000803e3d6000fd5b506001546001600160a01b0316631c690864610aba83670de0b6b3a764000061185b565b6040518263ffffffff1660e01b8152600401610ad69190612960565b600060405180830381600087803b158015610af057600080fd5b505af1158015610b04573d6000803e3d6000fd5b505050505b505b60015460405163f6c0092760e01b81526001600160a01b039091169063f6c0092790610b3b908b90600401612960565b6101406040518083038186803b158015610b5457600080fd5b505afa158015610b68573d6000803e3d6000fd5b505050506040513d601f19601f82011682018060405250810190610b8c9190612742565b9450846060015181511415610ba457610ba488611883565b7f08de3d5214e026e4f3a80f833a13b149bbb5dd61a5d83f4650c4a5ba00d9475e8887604051610bd5929190612969565b60405180910390a15050505050505050565b6001546040516303d3b32360e51b81526000916001600160a01b031690637a76646090610c1890859060040161287f565b60206040518083038186803b158015610c3057600080fd5b505afa158015610c44573d6000803e3d6000fd5b505050506040513d601f19601f82011682018060405250810190610c689190612765565b90505b919050565b6004805460015460408051632b40fef360e01b815290516000946001600160a01b03948516946370a08231941692632b40fef39281830192602092829003018186803b158015610cbf57600080fd5b505afa158015610cd3573d6000803e3d6000fd5b505050506040513d601f19601f82011682018060405250810190610cf79190612544565b6040518263ffffffff1660e01b8152600401610d13919061287f565b60206040518083038186803b158015610d2b57600080fd5b505afa158015610d3f573d6000803e3d6000fd5b505050506040513d601f19601f820116820180604052508101906103089190612765565b6101f490565b600480546040516370a0823160e01b8152339284926001600160a01b0316916370a0823191610d9a9186910161287f565b60206040518083038186803b158015610db257600080fd5b505afa158015610dc6573d6000803e3d6000fd5b505050506040513d601f19601f82011682018060405250810190610dea9190612765565b1015610e085760405162461bcd60e51b81526004016103c390612c23565b610e11816121e9565b15610e2e5760405162461bcd60e51b81526004016103c390612bec565b6004805460015460408051632b40fef360e01b815290516001600160a01b039384169463bf6eac2f9487941692632b40fef39281830192602092829003018186803b158015610e7c57600080fd5b505afa158015610e90573d6000803e3d6000fd5b505050506040513d601f19601f82011682018060405250810190610eb49190612544565b856040518463ffffffff1660e01b8152600401610ed393929190612893565b600060405180830381600087803b158015610eed57600080fd5b505af1158015610f01573d6000803e3d6000fd5b50506001546040516331ba14cf60e11b81526001600160a01b039091169250636374299e9150610f3790849086906004016128b7565b600060405180830381600087803b158015610f5157600080fd5b505af1158015610f65573d6000803e3d6000fd5b505050505050565b739326bfa02add2366b30bacb125260af64103133181565b739ef1b8c0e4f7dc8bf5719ea496883dc6401d5b2e81565b346000610fb282610fac610d63565b906117f3565b9050600080600160009054906101000a90046001600160a01b03166001600160a01b031663f417bd9c6040518163ffffffff1660e01b815260040160206040518083038186803b15801561100557600080fd5b505afa158015611019573d6000803e3d6000fd5b505050506040513d601f19601f8201168201806040525081019061103d9190612765565b600154604080516304e2064f60e01b8152905192935033926001600160a01b03909216916304e2064f91600480820192602092909190829003018186803b15801561108757600080fd5b505afa15801561109b573d6000803e3d6000fd5b505050506040513d601f19601f820116820180604052508101906110bf9190612544565b6001600160a01b0316816001600160a01b0316141561127957600160009054906101000a90046001600160a01b03166001600160a01b031663e0a11c206040518163ffffffff1660e01b815260040160206040518083038186803b15801561112657600080fd5b505afa15801561113a573d6000803e3d6000fd5b505050506040513d601f19601f8201168201806040525081019061115e9190612765565b9350600160009054906101000a90046001600160a01b03166001600160a01b031663e0a11c206040518163ffffffff1660e01b815260040160206040518083038186803b1580156111ae57600080fd5b505afa1580156111c2573d6000803e3d6000fd5b505050506040513d601f19601f820116820180604052508101906111e69190612765565b9150600160009054906101000a90046001600160a01b03166001600160a01b03166305868b266040518163ffffffff1660e01b815260040160206040518083038186803b15801561123657600080fd5b505afa15801561124a573d6000803e3d6000fd5b505050506040513d601f19601f8201168201806040525081019061126e9190612765565b9650600192506113c3565b600160009054906101000a90046001600160a01b03166001600160a01b0316632c0797ef6040518163ffffffff1660e01b815260040160206040518083038186803b1580156112c757600080fd5b505afa1580156112db573d6000803e3d6000fd5b505050506040513d601f19601f820116820180604052508101906112ff9190612765565b87101561131e5760405162461bcd60e51b81526004016103c3906129f3565b600160009054906101000a90046001600160a01b03166001600160a01b031663d86923956040518163ffffffff1660e01b815260040160206040518083038186803b15801561136c57600080fd5b505afa158015611380573d6000803e3d6000fd5b505050506040513d601f19601f820116820180604052508101906113a49190612765565b8711156113c35760405162461bcd60e51b81526004016103c390612990565b818410156113e35760405162461bcd60e51b81526004016103c390612ba9565b60008084816113f0612416565b5060408051610140810182526001600160a01b0380871682526020820186905284151582840152606082018e9052608082018b905287811660a083015283151560c083015260e082018c905261010082018d90526000610120830152600154925163edf3c35760e01b81529192169063edf3c35790611473908490600401612c5a565b600060405180830381600087803b15801561148d57600080fd5b505af11580156114a1573d6000803e3d6000fd5b505050507f081567f6f781ee2fc9b4c57b8f27190ffbf89fc9f3ae11d27893cc6481d6f9818b876040516114d6929190612969565b60405180910390a1505050505050505050505050565b6001546040516303d3b32360e51b815233916000916001600160a01b0390911690637a7664609061152190859060040161287f565b60206040518083038186803b15801561153957600080fd5b505afa15801561154d573d6000803e3d6000fd5b505050506040513d601f19601f820116820180604052508101906115719190612765565b1161158e5760405162461bcd60e51b81526004016103c390612a8c565b611597816121e9565b156115b45760405162461bcd60e51b81526004016103c390612bec565b6001546040516303d3b32360e51b81526000916001600160a01b031690637a766460906115e590859060040161287f565b60206040518083038186803b1580156115fd57600080fd5b505afa158015611611573d6000803e3d6000fd5b505050506040513d601f19601f820116820180604052508101906116359190612765565b60015460405163611d2e7560e11b81529192506001600160a01b03169063c23a5cea9061166690859060040161287f565b600060405180830381600087803b15801561168057600080fd5b505af1158015611694573d6000803e3d6000fd5b50506004805460015460408051632b40fef360e01b815290516001600160a01b0393841696506360829f8a95509290911692632b40fef3928282019260209290829003018186803b1580156116e857600080fd5b505afa1580156116fc573d6000803e3d6000fd5b505050506040513d601f19601f820116820180604052508101906117209190612544565b84846040518463ffffffff1660e01b8152600401610f3793929190612893565b60015460408051633623fc7d60e21b815290516060926001600160a01b03169163d88ff1f4916004808301926000929190829003018186803b15801561178557600080fd5b505afa158015611799573d6000803e3d6000fd5b505050506040513d6000823e601f3d908101601f19168201604052610308919081019061268b565b600480546040516370a0823160e01b81526000926001600160a01b03909216916370a0823191610c189186910161287f565b60008261180257506000611830565b8282028284828161180f57fe5b041461182d5760405162461bcd60e51b81526004016103c390612b31565b90505b92915050565b60008282018381101561182d5760405162461bcd60e51b81526004016103c3906129bc565b60008282111561187d5760405162461bcd60e51b81526004016103c390612a1e565b50900390565b61188b612416565b60015460405163f6c0092760e01b81526001600160a01b039091169063f6c00927906118bb908590600401612960565b6101406040518083038186803b1580156118d457600080fd5b505afa1580156118e8573d6000803e3d6000fd5b505050506040513d601f19601f8201168201806040525081019061190c9190612742565b60015460405163b91a440d60e01b81529192506060916001600160a01b039091169063b91a440d90611942908690600401612960565b60006040518083038186803b15801561195a57600080fd5b505afa15801561196e573d6000803e3d6000fd5b505050506040513d6000823e601f3d908101601f1916820160405261199691908101906125fe565b6001546040516330115af360e11b81529192506000916001600160a01b0390911690636022b5e6906119cc908790600401612960565b60206040518083038186803b1580156119e457600080fd5b505afa1580156119f8573d6000803e3d6000fd5b505050506040513d601f19601f82011682018060405250810190611a1c9190612765565b9050600082600081518110611a2d57fe5b6020026020010151604051602001611a459190612834565b60408051601f198184030181529190528051602090910120905060015b84606001518160ff161015611abc5781848260ff1681518110611a8157fe5b6020026020010151604051602001611a9a929190612851565b60408051601f1981840301815291905280516020909101209150600101611a62565b50600084606001518383604051602001611ad7929190612871565b6040516020818303038152906040528051906020012060001c81611af757fe5b0690506000848281518110611b0857fe5b602002602001015190506000611baf6064611ba9600160009054906101000a90046001600160a01b03166001600160a01b03166381014bbe6040518163ffffffff1660e01b815260040160206040518083038186803b158015611b6a57600080fd5b505afa158015611b7e573d6000803e3d6000fd5b505050506040513d601f19601f82011682018060405250810190611ba29190612765565b88906117f3565b906123e4565b90506001600160a01b0382166108fc611bc8878461185b565b6040518115909202916000818181858888f19350505050158015611bf0573d6000803e3d6000fd5b50600160009054906101000a90046001600160a01b03166001600160a01b03166304e2064f6040518163ffffffff1660e01b815260040160206040518083038186803b158015611c3f57600080fd5b505afa158015611c53573d6000803e3d6000fd5b505050506040513d601f19601f82011682018060405250810190611c779190612544565b6001600160a01b03166108fc829081150290604051600060405180830381858888f19350505050158015611caf573d6000803e3d6000fd5b50600154604051636894da0b60e01b81526001600160a01b0390911690636894da0b90611ce2908b908690600401612969565b600060405180830381600087803b158015611cfc57600080fd5b505af1158015611d10573d6000803e3d6000fd5b5050600180546040516344b0ef3b60e01b81526001600160a01b0390911693506344b0ef3b9250611d45918c91600401612980565b600060405180830381600087803b158015611d5f57600080fd5b505af1158015611d73573d6000803e3d6000fd5b5050600154604051636894da0b60e01b81526001600160a01b039091169250636894da0b9150611da9908b908690600401612969565b600060405180830381600087803b158015611dc357600080fd5b505af1158015611dd7573d6000803e3d6000fd5b5050600180546040516344b0ef3b60e01b81526001600160a01b0390911693506344b0ef3b9250611e0c918c91600401612980565b600060405180830381600087803b158015611e2657600080fd5b505af1158015611e3a573d6000803e3d6000fd5b505060015460405163f6c0092760e01b81526001600160a01b03909116925063f6c009279150611e6e908b90600401612960565b6101406040518083038186803b158015611e8757600080fd5b505afa158015611e9b573d6000803e3d6000fd5b505050506040513d601f19601f82011682018060405250810190611ebf9190612742565b96506000611ede886060015189608001516117f390919063ffffffff16565b90506000611f776064611ba9600160009054906101000a90046001600160a01b03166001600160a01b031663fd7f82536040518163ffffffff1660e01b815260040160206040518083038186803b158015611f3857600080fd5b505afa158015611f4c573d6000803e3d6000fd5b505050506040513d601f19601f82011682018060405250810190611f709190612765565b85906117f3565b60045460a08b01519192506001600160a01b0316906379c6506890611f9c858561185b565b6040518363ffffffff1660e01b8152600401611fb99291906128b7565b600060405180830381600087803b158015611fd357600080fd5b505af1158015611fe7573d6000803e3d6000fd5b505060048054600154604080516304e2064f60e01b815290516001600160a01b0393841696506379c65068955092909116926304e2064f928282019260209290829003018186803b15801561203b57600080fd5b505afa15801561204f573d6000803e3d6000fd5b505050506040513d601f19601f820116820180604052508101906120739190612544565b836040518363ffffffff1660e01b81526004016120919291906128b7565b600060405180830381600087803b1580156120ab57600080fd5b505af11580156120bf573d6000803e3d6000fd5b505060015460e08c0151604080516334df036560e21b815290516001600160a01b039093169450631c690864935061215692859163d37c0d94916004808301926020929190829003018186803b15801561211857600080fd5b505afa15801561212c573d6000803e3d6000fd5b505050506040513d601f19601f820116820180604052508101906121509190612765565b90611836565b6040518263ffffffff1660e01b81526004016121729190612960565b600060405180830381600087803b15801561218c57600080fd5b505af11580156121a0573d6000803e3d6000fd5b505050507f4ce558cfe085137a30c6c4374f76c2233d6a076a07a45f309bd578a1f922166c8a856040516121d5929190612969565b60405180910390a150505050505050505050565b60006060600160009054906101000a90046001600160a01b03166001600160a01b031663f80b53526040518163ffffffff1660e01b815260040160006040518083038186803b15801561223b57600080fd5b505afa15801561224f573d6000803e3d6000fd5b505050506040513d6000823e601f3d908101601f191682016040526122779190810190612560565b905060005b81518110156123da57836001600160a01b031682828151811061229b57fe5b60200260200101516001600160a01b031614156123d257600160009054906101000a90046001600160a01b03166001600160a01b03166375336ae66040518163ffffffff1660e01b815260040160206040518083038186803b15801561230057600080fd5b505afa158015612314573d6000803e3d6000fd5b505050506040513d601f19601f820116820180604052508101906123389190612765565b600480546040516370a0823160e01b81526001600160a01b03909116916370a08231916123679189910161287f565b60206040518083038186803b15801561237f57600080fd5b505afa158015612393573d6000803e3d6000fd5b505050506040513d601f19601f820116820180604052508101906123b79190612765565b106123c757600192505050610c6b565b600092505050610c6b565b60010161227c565b5060009392505050565b60008082116124055760405162461bcd60e51b81526004016103c390612a55565b81838161240e57fe5b049392505050565b6040805161014081018252600080825260208201819052918101829052606081018290526080810182905260a0810182905260c0810182905260e08101829052610100810182905261012081019190915290565b8051610c6b81612cab565b80518015158114610c6b57600080fd5b6000610140808385031215612498578182fd5b6124a181612c69565b9150506124ad8261246a565b8152602082015160208201526124c560408301612475565b604082015260608201516060820152608082015160808201526124ea60a0830161246a565b60a08201526124fb60c08301612475565b60c082015260e082015160e082015261010080830151818301525061012080830151818301525092915050565b600060208284031215612539578081fd5b813561182d81612cab565b600060208284031215612555578081fd5b815161182d81612cab565b60006020808385031215612572578182fd5b825167ffffffffffffffff811115612588578283fd5b8301601f81018513612598578283fd5b80516125ab6125a682612c8d565b612c69565b81815283810190838501858402850186018910156125c7578687fd5b8694505b838510156125f25780516125de81612cab565b8352600194909401939185019185016125cb565b50979650505050505050565b60006020808385031215612610578182fd5b825167ffffffffffffffff811115612626578283fd5b8301601f81018513612636578283fd5b80516126446125a682612c8d565b8181528381019083850185840285018601891015612660578687fd5b8694505b838510156125f257805161267781612cab565b835260019490940193918501918501612664565b6000602080838503121561269d578182fd5b825167ffffffffffffffff8111156126b3578283fd5b8301601f810185136126c3578283fd5b80516126d16125a682612c8d565b81815283810190838501610140808502860187018a10156126f0578788fd5b8795505b8486101561271c576127068a83612485565b84526001959095019492860192908101906126f4565b509098975050505050505050565b60006020828403121561273b578081fd5b5035919050565b60006101408284031215612754578081fd5b61275e8383612485565b9392505050565b600060208284031215612776578081fd5b5051919050565b6000806040838503121561278f578081fd5b50508035926020909101359150565b6001600160a01b03169052565b15159052565b6127bc82825161279e565b6020810151602083015260408101516127d860408401826127ab565b50606081015160608301526080810151608083015260a08101516127ff60a084018261279e565b5060c081015161281260c08401826127ab565b5060e08181015190830152610100808201519083015261012090810151910152565b60609190911b6bffffffffffffffffffffffff1916815260140190565b91825260601b6bffffffffffffffffffffffff1916602082015260340190565b918252602082015260400190565b6001600160a01b0391909116815260200190565b6001600160a01b039384168152919092166020820152604081019190915260600190565b6001600160a01b03929092168252602082015260400190565b6020808252825182820181905260009190848201906040850190845b818110156129115783516001600160a01b0316835292840192918401916001016128ec565b50909695505050505050565b6020808252825182820181905260009190848201906040850190845b818110156129115761294c8385516127b1565b928401926101409290920191600101612939565b90815260200190565b9182526001600160a01b0316602082015260400190565b9182521515602082015260400190565b6020808252601290820152710a0deded840e6d2f4ca40e8dede40d0d2ced60731b604082015260600190565b6020808252601b908201527f536166654d6174683a206164646974696f6e206f766572666c6f770000000000604082015260600190565b602080825260119082015270506f6f6c2073697a6520746f6f206c6f7760781b604082015260600190565b6020808252601e908201527f536166654d6174683a207375627472616374696f6e206f766572666c6f770000604082015260600190565b6020808252601a908201527f536166654d6174683a206469766973696f6e206279207a65726f000000000000604082015260600190565b60208082526017908201527f596f7520646f206e6f7420686176652061207374616b65000000000000000000604082015260600190565b60208082526023908201527f596f752063616e277420706172746963697061746520696e207468697320706f60408201526237b61760e91b606082015260800190565b602080825260119082015270151a1a5cc8141bdbdb081a5cc8199d5b1b607a1b604082015260600190565b60208082526021908201527f536166654d6174683a206d756c7469706c69636174696f6e206f766572666c6f6040820152607760f81b606082015260800190565b60208082526018908201527f4f6e6c79206120686f7573652063616e20646f20746861740000000000000000604082015260600190565b60208082526023908201527f56616c75652053656e74206973206c657373207468616e20706f6f6c2070726960408201526231b29760e91b606082015260800190565b60208082526017908201527f476f7665726e6f72732063616e206e6f74207374616b65000000000000000000604082015260600190565b6020808252601d908201527f596f7520646f206e6f74206861766520656e6f7567682047524f54544f000000604082015260600190565b610140810161183082846127b1565b60405181810167ffffffffffffffff81118282101715612c8557fe5b604052919050565b600067ffffffffffffffff821115612ca157fe5b5060209081020190565b6001600160a01b0381168114612cc057600080fd5b5056fea26469706673582212204a1f8c8c646dc48794d1f3d45db910dbdba3849e1281fdd0de9a8cd9af269bb364736f6c63430007030033",
  "linkReferences": {},
  "deployedLinkReferences": {}
}