{
  "_format": "hh-sol-artifact-1",
  "contractName": "Grotto",
  "sourceName": "contracts/Grotto.sol",
  "abi": [
    {
      "inputs": [],
      "stateMutability": "nonpayable",
      "type": "constructor"
    },
    {
      "anonymous": false,
      "inputs": [
        {
          "indexed": true,
          "internalType": "address",
          "name": "owner",
          "type": "address"
        },
        {
          "indexed": true,
          "internalType": "address",
          "name": "spender",
          "type": "address"
        },
        {
          "indexed": false,
          "internalType": "uint256",
          "name": "value",
          "type": "uint256"
        }
      ],
      "name": "Approval",
      "type": "event"
    },
    {
      "anonymous": false,
      "inputs": [
        {
          "indexed": false,
          "internalType": "bytes32",
          "name": "",
          "type": "bytes32"
        },
        {
          "indexed": false,
          "internalType": "address",
          "name": "",
          "type": "address"
        }
      ],
      "name": "POOL_CREATED",
      "type": "event"
    },
    {
      "anonymous": false,
      "inputs": [
        {
          "indexed": false,
          "internalType": "bytes32",
          "name": "",
          "type": "bytes32"
        },
        {
          "indexed": false,
          "internalType": "address",
          "name": "",
          "type": "address"
        }
      ],
      "name": "POOL_JOINED",
      "type": "event"
    },
    {
      "anonymous": false,
      "inputs": [
        {
          "indexed": true,
          "internalType": "address",
          "name": "from",
          "type": "address"
        },
        {
          "indexed": true,
          "internalType": "address",
          "name": "to",
          "type": "address"
        },
        {
          "indexed": false,
          "internalType": "uint256",
          "name": "value",
          "type": "uint256"
        }
      ],
      "name": "Transfer",
      "type": "event"
    },
    {
      "anonymous": false,
      "inputs": [
        {
          "indexed": false,
          "internalType": "bytes32",
          "name": "",
          "type": "bytes32"
        },
        {
          "indexed": false,
          "internalType": "address",
          "name": "",
          "type": "address"
        }
      ],
      "name": "WINNER_FOUND",
      "type": "event"
    },
    {
      "inputs": [],
      "name": "BSC_ETH_USD_PF",
      "outputs": [
        {
          "internalType": "address",
          "name": "",
          "type": "address"
        }
      ],
      "stateMutability": "view",
      "type": "function"
    },
    {
      "inputs": [],
      "name": "KOVAN_ETH_USD_PF",
      "outputs": [
        {
          "internalType": "address",
          "name": "",
          "type": "address"
        }
      ],
      "stateMutability": "view",
      "type": "function"
    },
    {
      "inputs": [],
      "name": "MAINNET_ETH_USD_PF",
      "outputs": [
        {
          "internalType": "address",
          "name": "",
          "type": "address"
        }
      ],
      "stateMutability": "view",
      "type": "function"
    },
    {
      "inputs": [
        {
          "internalType": "address",
          "name": "owner",
          "type": "address"
        },
        {
          "internalType": "address",
          "name": "spender",
          "type": "address"
        }
      ],
      "name": "allowance",
      "outputs": [
        {
          "internalType": "uint256",
          "name": "",
          "type": "uint256"
        }
      ],
      "stateMutability": "view",
      "type": "function"
    },
    {
      "inputs": [
        {
          "internalType": "address",
          "name": "spender",
          "type": "address"
        },
        {
          "internalType": "uint256",
          "name": "amount",
          "type": "uint256"
        }
      ],
      "name": "approve",
      "outputs": [
        {
          "internalType": "bool",
          "name": "",
          "type": "bool"
        }
      ],
      "stateMutability": "nonpayable",
      "type": "function"
    },
    {
      "inputs": [
        {
          "internalType": "address",
          "name": "account",
          "type": "address"
        }
      ],
      "name": "balanceOf",
      "outputs": [
        {
          "internalType": "uint256",
          "name": "",
          "type": "uint256"
        }
      ],
      "stateMutability": "view",
      "type": "function"
    },
    {
      "inputs": [],
      "name": "decimals",
      "outputs": [
        {
          "internalType": "uint8",
          "name": "",
          "type": "uint8"
        }
      ],
      "stateMutability": "view",
      "type": "function"
    },
    {
      "inputs": [
        {
          "internalType": "address",
          "name": "spender",
          "type": "address"
        },
        {
          "internalType": "uint256",
          "name": "subtractedValue",
          "type": "uint256"
        }
      ],
      "name": "decreaseAllowance",
      "outputs": [
        {
          "internalType": "bool",
          "name": "",
          "type": "bool"
        }
      ],
      "stateMutability": "nonpayable",
      "type": "function"
    },
    {
      "inputs": [],
      "name": "enterMainPool",
      "outputs": [],
      "stateMutability": "payable",
      "type": "function"
    },
    {
      "inputs": [
        {
          "internalType": "bytes32",
          "name": "poolId",
          "type": "bytes32"
        }
      ],
      "name": "enterPool",
      "outputs": [],
      "stateMutability": "payable",
      "type": "function"
    },
    {
      "inputs": [],
      "name": "getAllPools",
      "outputs": [
        {
          "components": [
            {
              "internalType": "address",
              "name": "winner",
              "type": "address"
            },
            {
              "internalType": "uint256",
              "name": "currentPoolSize",
              "type": "uint256"
            },
            {
              "internalType": "bool",
              "name": "isInMainPool",
              "type": "bool"
            },
            {
              "internalType": "uint256",
              "name": "poolSize",
              "type": "uint256"
            },
            {
              "internalType": "uint256",
              "name": "poolPrice",
              "type": "uint256"
            },
            {
              "internalType": "address",
              "name": "poolCreator",
              "type": "address"
            },
            {
              "internalType": "bool",
              "name": "isPoolConcluded",
              "type": "bool"
            },
            {
              "internalType": "uint256",
              "name": "poolPriceInEther",
              "type": "uint256"
            },
            {
              "internalType": "bytes32",
              "name": "poolId",
              "type": "bytes32"
            }
          ],
          "internalType": "struct Pool[]",
          "name": "",
          "type": "tuple[]"
        }
      ],
      "stateMutability": "view",
      "type": "function"
    },
    {
      "inputs": [],
      "name": "getLatestPrice",
      "outputs": [
        {
          "internalType": "uint256",
          "name": "",
          "type": "uint256"
        }
      ],
      "stateMutability": "pure",
      "type": "function"
    },
    {
      "inputs": [
        {
          "internalType": "bytes32",
          "name": "poolId",
          "type": "bytes32"
        }
      ],
      "name": "getPoolDetails",
      "outputs": [
        {
          "components": [
            {
              "internalType": "address",
              "name": "winner",
              "type": "address"
            },
            {
              "internalType": "uint256",
              "name": "currentPoolSize",
              "type": "uint256"
            },
            {
              "internalType": "bool",
              "name": "isInMainPool",
              "type": "bool"
            },
            {
              "internalType": "uint256",
              "name": "poolSize",
              "type": "uint256"
            },
            {
              "internalType": "uint256",
              "name": "poolPrice",
              "type": "uint256"
            },
            {
              "internalType": "address",
              "name": "poolCreator",
              "type": "address"
            },
            {
              "internalType": "bool",
              "name": "isPoolConcluded",
              "type": "bool"
            },
            {
              "internalType": "uint256",
              "name": "poolPriceInEther",
              "type": "uint256"
            },
            {
              "internalType": "bytes32",
              "name": "poolId",
              "type": "bytes32"
            }
          ],
          "internalType": "struct Pool",
          "name": "",
          "type": "tuple"
        }
      ],
      "stateMutability": "view",
      "type": "function"
    },
    {
      "inputs": [
        {
          "internalType": "string",
          "name": "poolName",
          "type": "string"
        },
        {
          "internalType": "address",
          "name": "creator",
          "type": "address"
        }
      ],
      "name": "getPoolDetailsByPoolName",
      "outputs": [
        {
          "components": [
            {
              "internalType": "address",
              "name": "winner",
              "type": "address"
            },
            {
              "internalType": "uint256",
              "name": "currentPoolSize",
              "type": "uint256"
            },
            {
              "internalType": "bool",
              "name": "isInMainPool",
              "type": "bool"
            },
            {
              "internalType": "uint256",
              "name": "poolSize",
              "type": "uint256"
            },
            {
              "internalType": "uint256",
              "name": "poolPrice",
              "type": "uint256"
            },
            {
              "internalType": "address",
              "name": "poolCreator",
              "type": "address"
            },
            {
              "internalType": "bool",
              "name": "isPoolConcluded",
              "type": "bool"
            },
            {
              "internalType": "uint256",
              "name": "poolPriceInEther",
              "type": "uint256"
            },
            {
              "internalType": "bytes32",
              "name": "poolId",
              "type": "bytes32"
            }
          ],
          "internalType": "struct Pool",
          "name": "",
          "type": "tuple"
        }
      ],
      "stateMutability": "view",
      "type": "function"
    },
    {
      "inputs": [
        {
          "internalType": "bytes32",
          "name": "_pool",
          "type": "bytes32"
        }
      ],
      "name": "getPoolers",
      "outputs": [
        {
          "internalType": "address payable[]",
          "name": "",
          "type": "address[]"
        }
      ],
      "stateMutability": "view",
      "type": "function"
    },
    {
      "inputs": [
        {
          "internalType": "address",
          "name": "creator",
          "type": "address"
        }
      ],
      "name": "getPoolsByOwner",
      "outputs": [
        {
          "internalType": "bytes32[]",
          "name": "",
          "type": "bytes32[]"
        }
      ],
      "stateMutability": "view",
      "type": "function"
    },
    {
      "inputs": [
        {
          "internalType": "bytes32",
          "name": "poolId",
          "type": "bytes32"
        }
      ],
      "name": "getWinner",
      "outputs": [
        {
          "internalType": "address payable",
          "name": "",
          "type": "address"
        }
      ],
      "stateMutability": "view",
      "type": "function"
    },
    {
      "inputs": [
        {
          "internalType": "address",
          "name": "spender",
          "type": "address"
        },
        {
          "internalType": "uint256",
          "name": "addedValue",
          "type": "uint256"
        }
      ],
      "name": "increaseAllowance",
      "outputs": [
        {
          "internalType": "bool",
          "name": "",
          "type": "bool"
        }
      ],
      "stateMutability": "nonpayable",
      "type": "function"
    },
    {
      "inputs": [],
      "name": "name",
      "outputs": [
        {
          "internalType": "string",
          "name": "",
          "type": "string"
        }
      ],
      "stateMutability": "view",
      "type": "function"
    },
    {
      "inputs": [
        {
          "internalType": "string",
          "name": "poolName",
          "type": "string"
        },
        {
          "internalType": "uint256",
          "name": "poolSize",
          "type": "uint256"
        }
      ],
      "name": "startNewPool",
      "outputs": [],
      "stateMutability": "payable",
      "type": "function"
    },
    {
      "inputs": [],
      "name": "symbol",
      "outputs": [
        {
          "internalType": "string",
          "name": "",
          "type": "string"
        }
      ],
      "stateMutability": "view",
      "type": "function"
    },
    {
      "inputs": [],
      "name": "totalSupply",
      "outputs": [
        {
          "internalType": "uint256",
          "name": "",
          "type": "uint256"
        }
      ],
      "stateMutability": "view",
      "type": "function"
    },
    {
      "inputs": [
        {
          "internalType": "address",
          "name": "recipient",
          "type": "address"
        },
        {
          "internalType": "uint256",
          "name": "amount",
          "type": "uint256"
        }
      ],
      "name": "transfer",
      "outputs": [
        {
          "internalType": "bool",
          "name": "",
          "type": "bool"
        }
      ],
      "stateMutability": "nonpayable",
      "type": "function"
    },
    {
      "inputs": [
        {
          "internalType": "address",
          "name": "sender",
          "type": "address"
        },
        {
          "internalType": "address",
          "name": "recipient",
          "type": "address"
        },
        {
          "internalType": "uint256",
          "name": "amount",
          "type": "uint256"
        }
      ],
      "name": "transferFrom",
      "outputs": [
        {
          "internalType": "bool",
          "name": "",
          "type": "bool"
        }
      ],
      "stateMutability": "nonpayable",
      "type": "function"
    },
    {
      "inputs": [
        {
          "internalType": "address",
          "name": "newGovernor",
          "type": "address"
        }
      ],
      "name": "updateGovernor",
      "outputs": [],
      "stateMutability": "nonpayable",
      "type": "function"
    }
  ],
  "bytecode": "0x608060405260016009819055620000189060a06200061e565b60408051601f198184030181529190528051602090910120600b55601680546001600160a01b03191673da18a84fccb867b09b6d272b07d6d0cdc59711f91790553480156200006657600080fd5b506040518060400160405280600681526020016547726f74746f60d01b8152506040518060400160405280600681526020016547524f54544f60d01b8152508160039080519060200190620000bd9291906200051d565b508051620000d39060049060208401906200051d565b505060058054601654600680546001600160a01b039283166001600160a01b0319909116178155601260ff1990931692909217610100600160a81b031916749326bfa02add2366b30bacb125260af6410313310017909255600b54600c80546001810182556000919091527fdf6966c971051c3d54ec59162606531493a51404a002842f56009d7e5cf4a8c70155546040805163070508e160e51b8152905191909216925063e0a11c2091600480820192602092909190829003018186803b1580156200019f57600080fd5b505afa158015620001b4573d6000803e3d6000fd5b505050506040513d601f19601f82011682018060405250810190620001da919062000605565b600b546000908152600760209081526040918290209290925560065481516302c3459360e11b815291516001600160a01b03909116926305868b269260048082019391829003018186803b1580156200023257600080fd5b505afa15801562000247573d6000803e3d6000fd5b505050506040513d601f19601f820116820180604052508101906200026d919062000605565b600b805460009081526008602090815260408083209490945582548252600f815283822082905582548252600d8152838220805460ff19166001908117909155601480546001600160a01b03199081163317808355865486526010855287862080549092166001600160a01b039182161790915590541683526011825293822083548154958601825590835291209092019190915554600a906200031190620003cb565b8154600180820184556000938452602093849020835160089093020180546001600160a01b03199081166001600160a01b039485161782559484015191810191909155604083015160028201805460ff1916911515919091179055606083015160038201556080830151600482015560a083015160058201805460c08601519616919093161760ff60a01b1916600160a01b9415159490940293909317905560e0810151600683015561010001516007909101556200065e565b620003d5620005a2565b6000828152601560209081526040808320546012835281842054600d845282852054600885528386205460078652848720546010875285882054600e909752948720546001600160a01b0394851697939660ff938416969295929492169216906200043f620004d8565b60008b815260076020908152604082205492935090916200046b91849062001533620004de821b17901c565b905062000477620005a2565b5060408051610120810182526001600160a01b039a8b168152602081019990995296151596880196909652506060860193909352608085019190915290931660a083015291151560c082015260e08101919091526101008101929092525090565b6101f490565b60008082116200050b5760405162461bcd60e51b8152600401620005029062000627565b60405180910390fd5b8183816200051557fe5b049392505050565b828054600181600116156101000203166002900490600052602060002090601f016020900481019282601f106200056057805160ff191683800117855562000590565b8280016001018555821562000590579182015b828111156200059057825182559160200191906001019062000573565b506200059e929150620005ee565b5090565b6040805161012081018252600080825260208201819052918101829052606081018290526080810182905260a0810182905260c0810182905260e0810182905261010081019190915290565b5b808211156200059e5760008155600101620005ef565b60006020828403121562000617578081fd5b5051919050565b90815260200190565b6020808252601a908201527f536166654d6174683a206469766973696f6e206279207a65726f000000000000604082015260600190565b612bea806200066e6000396000f3fe6080604052600436106101665760003560e01c806362f384ad116100d1578063a457c2d71161008a578063afa08c3911610064578063afa08c39146103f2578063b91a440d14610407578063d88ff1f414610434578063dd62ed3e1461045657610166565b8063a457c2d71461039d578063a9059cbb146103bd578063aef3bc92146103dd57610166565b806362f384ad146102e65780636a6081361461030657806370a08231146103335780638e15f4731461035357806395d89b411461036857806398de9f991461037d57610166565b80631e5f9149116101235780631e5f91491461022f57806323b872dd1461025c578063313ce5671461027c5780633760c1011461029e57806339509351146102b35780635923dfc7146102d357610166565b806306fdde031461016b578063095ea7b314610196578063152c3c5c146101c357806318160ddd146101cd5780631b29e7b9146101ef5780631de1fe091461021c575b600080fd5b34801561017757600080fd5b50610180610476565b60405161018d91906126ff565b60405180910390f35b3480156101a257600080fd5b506101b66101b136600461240e565b61050c565b60405161018d91906126dd565b6101cb61052a565b005b3480156101d957600080fd5b506101e2610ab4565b60405161018d91906125ac565b3480156101fb57600080fd5b5061020f61020a366004612437565b610aba565b60405161018d9190612b24565b6101cb61022a3660046124a1565b610bbc565b34801561023b57600080fd5b5061024f61024a366004612437565b61106c565b60405161018d9190612601565b34801561026857600080fd5b506101b66102773660046123d3565b611087565b34801561028857600080fd5b5061029161110e565b60405161018d9190612b33565b3480156102aa57600080fd5b5061024f611117565b3480156102bf57600080fd5b506101b66102ce36600461240e565b61112f565b6101cb6102e1366004612437565b61117d565b3480156102f257600080fd5b506101cb610301366004612387565b61118f565b34801561031257600080fd5b50610326610321366004612387565b6111e8565b60405161018d9190612662565b34801561033f57600080fd5b506101e261034e366004612387565b611254565b34801561035f57600080fd5b506101e261126f565b34801561037457600080fd5b50610180611275565b34801561038957600080fd5b5061020f61039836600461244f565b6112d6565b3480156103a957600080fd5b506101b66103b836600461240e565b61131f565b3480156103c957600080fd5b506101b66103d836600461240e565b611387565b3480156103e957600080fd5b5061024f61139b565b3480156103fe57600080fd5b5061024f6113b3565b34801561041357600080fd5b50610427610422366004612437565b6113cb565b60405161018d9190612615565b34801561044057600080fd5b50610449611436565b60405161018d919061269a565b34801561046257600080fd5b506101e26104713660046123a1565b611508565b60038054604080516020601f60026000196101006001881615020190951694909404938401819004810282018101909252828152606093909290918301828280156105025780601f106104d757610100808354040283529160200191610502565b820191906000526020600020905b8154815290600101906020018083116104e557829003601f168201915b5050505050905090565b6000610520610519611565565b8484611569565b5060015b92915050565b3433600061053661126f565b90506000610544828561161d565b600b54600090815260076020526040812054919250906105649084611533565b90506000610572828561161d565b90508083101561059d5760405162461bcd60e51b8152600401610594906129f5565b60405180910390fd5b600b5460009081526013602090815260408083206001600160a01b03891684529091529020546105cd908761165e565b600b805460009081526013602090815260408083206001600160a01b038b1680855290835281842095909555835483526012825280832080546001810182559084528284200180546001600160a01b03191690951790945591548152600f90915220546106386122dd565b600a828154811061064557fe5b600091825260208083206040805161012081018252600890940290910180546001600160a01b0390811685526001820154858501908152600283015460ff9081161515878601526003840154606088015260048401546080880152600584015492831660a0880152600160a01b909204909116151560c0860152600682015460e0860152600790910154610100850152600b548552601290925290922054909152600a80549192508291849081106106f957fe5b600091825260208083208451600893840290910180546001600160a01b039283166001600160a01b031991821617825586840151600183015560408088015160028401805491151560ff19909216919091179055606088015160038401556080880151600484015560a088015160058401805460c08b01511515600160a01b0260ff60a01b19939097169416939093171693909317905560e0860151600682015561010090950151600790950194909455600b548352908152828220546012909152919020541415610aaa57600b546000818152600860205260409020546009546107e590600161165e565b6009819055600c5460405190916107fe916020016125ac565b60408051601f198184030181528282528051602091820120600b819055600c80546001810182556000919091527fdf6966c971051c3d54ec59162606531493a51404a002842f56009d7e5cf4a8c7015560065463070508e160e51b845291516001600160a01b039092169263e0a11c209260048083019392829003018186803b15801561088a57600080fd5b505afa15801561089e573d6000803e3d6000fd5b505050506040513d601f19601f820116820180604052508101906108c291906124eb565b600b546000908152600760209081526040918290209290925560065481516302c3459360e11b815291516001600160a01b03909116926305868b269260048082019391829003018186803b15801561091957600080fd5b505afa15801561092d573d6000803e3d6000fd5b505050506040513d601f19601f8201168201806040525081019061095191906124eb565b600b805460009081526008602090815260408083209490945582548252600f815283822085905582548252600d8152838220805460ff1916600190811790915560148054855485526010845286852080546001600160a01b0319166001600160a01b0392831617905590541683526011825293822083548154958601825590835291209092019190915554600a906109e890610aba565b8154600180820184556000938452602093849020835160089093020180546001600160a01b03199081166001600160a01b039485161782559484015191810191909155604083015160028201805460ff1916911515919091179055606083015160038201556080830151600482015560a083015160058201805460c08601519616919093161760ff60a01b1916600160a01b9415159490940293909317905560e081015160068301556101000151600790910155610aa68383611683565b5050505b5050505050505050565b60025490565b610ac26122dd565b6000828152601560209081526040808320546012835281842054600d845282852054600885528386205460078652848720546010875285882054600e909752948720546001600160a01b0394851697939660ff93841696929592949216921690610b2a61126f565b60008b81526007602052604081205491925090610b479083611533565b9050610b516122dd565b6040518061012001604052808b6001600160a01b031681526020018a81526020018915158152602001888152602001878152602001866001600160a01b0316815260200185151581526020018381526020018d8152509050809a50505050505050505050505b919050565b600660009054906101000a90046001600160a01b03166001600160a01b0316632c0797ef6040518163ffffffff1660e01b815260040160206040518083038186803b158015610c0a57600080fd5b505afa158015610c1e573d6000803e3d6000fd5b505050506040513d601f19601f82011682018060405250810190610c4291906124eb565b811015610c615760405162461bcd60e51b815260040161059490612871565b600660009054906101000a90046001600160a01b03166001600160a01b031663d86923956040518163ffffffff1660e01b815260040160206040518083038186803b158015610caf57600080fd5b505afa158015610cc3573d6000803e3d6000fd5b505050506040513d601f19601f82011682018060405250810190610ce791906124eb565b811115610d065760405162461bcd60e51b8152600401610594906127cc565b60405134903390600090610d2290879087908590602001612588565b60408051601f1981840301815291815281516020928301206000818152600f90935291205490915015610d675760405162461bcd60e51b815260040161059490612795565b6000610d7161126f565b90506000610d7f828661161d565b9050600660009054906101000a90046001600160a01b03166001600160a01b031663f417bd9c6040518163ffffffff1660e01b815260040160206040518083038186803b158015610dcf57600080fd5b505afa158015610de3573d6000803e3d6000fd5b505050506040513d601f19601f82011682018060405250810190610e0791906124eb565b811015610e265760405162461bcd60e51b815260040161059490612ac1565b600c8054600181019091557fdf6966c971051c3d54ec59162606531493a51404a002842f56009d7e5cf4a8c7810184905560008481526007602052604090208290558615610e745786610efa565b600660009054906101000a90046001600160a01b03166001600160a01b03166305868b266040518163ffffffff1660e01b815260040160206040518083038186803b158015610ec257600080fd5b505afa158015610ed6573d6000803e3d6000fd5b505050506040513d601f19601f82011682018060405250810190610efa91906124eb565b600085815260086020908152604080832093909355600f81528282208490556010815282822080546001600160a01b0319166001600160a01b038a16908117909155600d8252838320805460ff19169055825260118152918120805460018101825590825291902001849055600a610f7185610aba565b8154600180820184556000938452602093849020835160089093020180546001600160a01b03199081166001600160a01b03948516178255948401519181019190915560408084015160028301805460ff1916911515919091179055606084015160038301556080840151600483015560a084015160058301805460c08701519716919094161760ff60a01b1916600160a01b951515959095029490941790915560e0820151600682015561010090910151600790910155517f081567f6f781ee2fc9b4c57b8f27190ffbf89fc9f3ae11d27893cc6481d6f9819061105990869088906126e8565b60405180910390a1505050505050505050565b6000908152601560205260409020546001600160a01b031690565b6000611094848484611d5e565b611104846110a0611565565b6110ff85604051806060016040528060288152602001612b68602891396001600160a01b038a166000908152600160205260408120906110de611565565b6001600160a01b031681526020810191909152604001600020549190611e73565b611569565b5060019392505050565b60055460ff1690565b735f4ec3df9cbd43714fe2740f5e3616155c5b841981565b600061052061113c611565565b846110ff856001600061114d611565565b6001600160a01b03908116825260208083019390935260409182016000908120918c16815292529020549061165e565b343361118a838383611e9f565b505050565b6014546001600160a01b031633146111b95760405162461bcd60e51b815260040161059490612976565b601680546001600160a01b03199081166001600160a01b03938416179182905560068054929093169116179055565b6001600160a01b03811660009081526011602090815260409182902080548351818402810184019094528084526060939283018282801561124857602002820191906000526020600020905b815481526020019060010190808311611234575b50505050509050919050565b6001600160a01b031660009081526020819052604090205490565b6101f490565b60048054604080516020601f60026000196101006001881615020190951694909404938401819004810282018101909252828152606093909290918301828280156105025780601f106104d757610100808354040283529160200191610502565b6112de6122dd565b60008484846040516020016112f593929190612588565b60405160208183030381529060405280519060200120905061131681610aba565b95945050505050565b600061052061132c611565565b846110ff85604051806060016040528060258152602001612b906025913960016000611356611565565b6001600160a01b03908116825260208083019390935260409182016000908120918d16815292529020549190611e73565b6000610520611394611565565b8484611d5e565b739326bfa02add2366b30bacb125260af64103133181565b739ef1b8c0e4f7dc8bf5719ea496883dc6401d5b2e81565b60008181526012602090815260409182902080548351818402810184019094528084526060939283018282801561124857602002820191906000526020600020905b81546001600160a01b0316815260019091019060200180831161140d5750505050509050919050565b6060600a805480602002602001604051908101604052809291908181526020016000905b828210156114ff57600084815260209081902060408051610120810182526008860290920180546001600160a01b03908116845260018083015485870152600283015460ff9081161515948601949094526003830154606086015260048301546080860152600583015491821660a0860152600160a01b909104909216151560c0840152600681015460e084015260070154610100830152908352909201910161145a565b50505050905090565b6001600160a01b03918216600090815260016020908152604080832093909416825291909152205490565b60008082116115545760405162461bcd60e51b8152600401610594906128d3565b81838161155d57fe5b049392505050565b3390565b6001600160a01b03831661158f5760405162461bcd60e51b815260040161059490612a7d565b6001600160a01b0382166115b55760405162461bcd60e51b8152600401610594906127f8565b6001600160a01b0380841660008181526001602090815260408083209487168084529490915290819020849055517f8c5be1e5ebec7d5bd14f71427d1e84f3dd0314c0f7b2291e5b200ac8c7c3b925906116109085906125ac565b60405180910390a3505050565b60008261162c57506000610524565b8282028284828161163957fe5b04146116575760405162461bcd60e51b815260040161059490612935565b9392505050565b6000828201838110156116575760405162461bcd60e51b81526004016105949061283a565b600082815260136020908152604080832060129092528220805483919082906116a857fe5b60009182526020808320909101546001600160a01b03168352828101939093526040918201812054868252601290935290812080549091906116e657fe5b6000918252602091829020015460405161170d93926001600160a01b0390921691016125b5565b60408051601f198184030181529181528151602092830120600086815260138452828120601290945291822080549194509192918391829061174b57fe5b60009182526020808320909101546001600160a01b03168352820192909252604001902054905060015b838160ff16101561188f57600085815260136020908152604080832060129092528220805491929160ff85169081106117aa57fe5b60009182526020808320909101546001600160a01b03168352828101939093526040918201812054888252601290935220805485919060ff85169081106117ed57fe5b600091825260209182902001546040516118159493926001600160a01b0390921691016125de565b60408051601f1981840301815291815281516020928301206000888152601384528281206012909452918220805491965061188593929160ff861690811061185957fe5b60009182526020808320909101546001600160a01b03168352820192909252604001902054839061165e565b9150600101611775565b50600061192d6064611927600660009054906101000a90046001600160a01b03166001600160a01b03166381014bbe6040518163ffffffff1660e01b815260040160206040518083038186803b1580156118e857600080fd5b505afa1580156118fc573d6000803e3d6000fd5b505050506040513d601f19601f8201168201806040525081019061192091906124eb565b859061161d565b90611533565b905060006119d56119c56002600660009054906101000a90046001600160a01b03166001600160a01b0316630e7e8ba26040518163ffffffff1660e01b815260040160206040518083038186803b15801561198757600080fd5b505afa15801561199b573d6000803e3d6000fd5b505050506040513d601f19601f820116820180604052508101906119bf91906124eb565b9061161d565b6119cf85856121f5565b906121f5565b905060008584866040516020016119ed9291906125d0565b6040516020818303038152906040528051906020012060001c81611a0d57fe5b0690506000601260008981526020019081526020016000208281548110611a3057fe5b60009182526020822001546040516001600160a01b039091169250829185156108fc02918691818181858888f19350505050158015611a73573d6000803e3d6000fd5b506014546040516001600160a01b039091169085156108fc029086906000818181858888f19350505050158015611aae573d6000803e3d6000fd5b50600088815260156020908152604080832080546001600160a01b0319166001600160a01b0386811691909117909155600e8352818420805460ff1916600117905560108352818420546007845282852054600654845163fd7f825360e01b815294519284169691958e8702959294611b4d94606494611927949092169263fd7f82539260048082019391829003018186803b1580156118e857600080fd5b90506000611b5b83836121f5565b9050611b67858261221d565b601454611b7d906001600160a01b03168361221d565b60008d8152600f6020526040902054611b946122dd565b600a8281548110611ba157fe5b60009182526020918290206040805161012081018252600160089094029092018381015494830194909452600284015460ff16151590820152600383015460608201526004830154608082015260058301546001600160a01b0390811660a0830152600684015460e0830152600790930154610100820152918a16825260c0820152600a8054919250829184908110611c3657fe5b906000526020600020906008020160008201518160000160006101000a8154816001600160a01b0302191690836001600160a01b031602179055506020820151816001015560408201518160020160006101000a81548160ff021916908315150217905550606082015181600301556080820151816004015560a08201518160050160006101000a8154816001600160a01b0302191690836001600160a01b0316021790555060c08201518160050160146101000a81548160ff02191690831515021790555060e0820151816006015561010082015181600701559050507f4ce558cfe085137a30c6c4374f76c2233d6a076a07a45f309bd578a1f922166c8f89604051611d459291906126e8565b60405180910390a1505050505050505050505050505050565b6001600160a01b038316611d845760405162461bcd60e51b815260040161059490612a38565b6001600160a01b038216611daa5760405162461bcd60e51b815260040161059490612752565b611db583838361118a565b611df281604051806060016040528060268152602001612b42602691396001600160a01b0386166000908152602081905260409020549190611e73565b6001600160a01b038085166000908152602081905260408082209390935590841681522054611e21908261165e565b6001600160a01b0380841660008181526020819052604090819020939093559151908516907fddf252ad1be2c89b69c2b068fc378daa952ba7f163c4a11628f55a4df523b3ef906116109085906125ac565b60008184841115611e975760405162461bcd60e51b815260040161059491906126ff565b505050900390565b60008381526008602090815260408083205460129092529091205410611ed75760405162461bcd60e51b81526004016105949061290a565b6000838152601060205260409020546001600160a01b0382811691161415611f115760405162461bcd60e51b8152600401610594906129ad565b6000611f1b61126f565b90506000611f29828561161d565b60008681526007602052604081205491925090611f469084611533565b90506000611f54828561161d565b905080831015611f765760405162461bcd60e51b8152600401610594906129f5565b60008781526013602090815260408083206001600160a01b0389168452909152902054611fa3908761165e565b60008881526013602090815260408083206001600160a01b038a16808552908352818420949094558a8352601282528220805460018101825590835291200180546001600160a01b03191690911790556000878152600f602052604090205461200a6122dd565b600a828154811061201757fe5b600091825260208083206040805161012081018252600890940290910180546001600160a01b0390811685526001820154858501908152600283015460ff9081161515878601526003840154606088015260048401546080880152600584015492831660a0880152600160a01b909204909116151560c0860152600682015460e08601526007909101546101008501528d8552601290925290922054909152600a80549192508291849081106120c957fe5b6000918252602091829020835160089092020180546001600160a01b039283166001600160a01b031991821617825592840151600182015560408085015160028301805491151560ff19909216919091179055606085015160038301556080850151600483015560a085015160058301805460c08801511515600160a01b0260ff60a01b1993909616961695909517169290921790925560e0830151600683015561010090920151600790910155517f08de3d5214e026e4f3a80f833a13b149bbb5dd61a5d83f4650c4a5ba00d9475e906121a7908b908a906126e8565b60405180910390a160008981526008602090815260408083205460129092529091205414156121ea576000898152600860205260409020546121ea908a90611683565b505050505050505050565b6000828211156122175760405162461bcd60e51b81526004016105949061289c565b50900390565b6001600160a01b0382166122435760405162461bcd60e51b815260040161059490612aed565b61224f6000838361118a565b60025461225c908261165e565b6002556001600160a01b038216600090815260208190526040902054612282908261165e565b6001600160a01b0383166000818152602081905260408082209390935591519091907fddf252ad1be2c89b69c2b068fc378daa952ba7f163c4a11628f55a4df523b3ef906122d19085906125ac565b60405180910390a35050565b6040805161012081018252600080825260208201819052918101829052606081018290526080810182905260a0810182905260c0810182905260e0810182905261010081019190915290565b80356001600160a01b0381168114610bb757600080fd5b60008083601f840112612351578182fd5b50813567ffffffffffffffff811115612368578182fd5b60208301915083602082850101111561238057600080fd5b9250929050565b600060208284031215612398578081fd5b61165782612329565b600080604083850312156123b3578081fd5b6123bc83612329565b91506123ca60208401612329565b90509250929050565b6000806000606084860312156123e7578081fd5b6123f084612329565b92506123fe60208501612329565b9150604084013590509250925092565b60008060408385031215612420578182fd5b61242983612329565b946020939093013593505050565b600060208284031215612448578081fd5b5035919050565b600080600060408486031215612463578283fd5b833567ffffffffffffffff811115612479578384fd5b61248586828701612340565b9094509250612498905060208501612329565b90509250925092565b6000806000604084860312156124b5578283fd5b833567ffffffffffffffff8111156124cb578384fd5b6124d786828701612340565b909790965060209590950135949350505050565b6000602082840312156124fc578081fd5b5051919050565b6001600160a01b03169052565b15159052565b60018060a01b03815116825260208101516020830152604081015115156040830152606081015160608301526080810151608083015260a081015161255e60a0840182612503565b5060c081015161257160c0840182612510565b5060e0818101519083015261010090810151910152565b6000838583375060609190911b6001600160601b0319169101908152601401919050565b90815260200190565b91825260601b6001600160601b031916602082015260340190565b918252602082015260400190565b928352602083019190915260601b6001600160601b031916604082015260540190565b6001600160a01b0391909116815260200190565b6020808252825182820181905260009190848201906040850190845b818110156126565783516001600160a01b031683529284019291840191600101612631565b50909695505050505050565b6020808252825182820181905260009190848201906040850190845b818110156126565783518352928401929184019160010161267e565b6020808252825182820181905260009190848201906040850190845b81811015612656576126c9838551612516565b9284019261012092909201916001016126b6565b901515815260200190565b9182526001600160a01b0316602082015260400190565b6000602080835283518082850152825b8181101561272b5785810183015185820160400152820161270f565b8181111561273c5783604083870101525b50601f01601f1916929092016040019392505050565b60208082526023908201527f45524332303a207472616e7366657220746f20746865207a65726f206164647260408201526265737360e81b606082015260800190565b60208082526018908201527f506f6f6c206e616d6520616c7265616479206578697374730000000000000000604082015260600190565b6020808252601290820152710a0deded840e6d2f4ca40e8dede40d0d2ced60731b604082015260600190565b60208082526022908201527f45524332303a20617070726f766520746f20746865207a65726f206164647265604082015261737360f01b606082015260800190565b6020808252601b908201527f536166654d6174683a206164646974696f6e206f766572666c6f770000000000604082015260600190565b602080825260119082015270506f6f6c2073697a6520746f6f206c6f7760781b604082015260600190565b6020808252601e908201527f536166654d6174683a207375627472616374696f6e206f766572666c6f770000604082015260600190565b6020808252601a908201527f536166654d6174683a206469766973696f6e206279207a65726f000000000000604082015260600190565b602080825260119082015270151a1a5cc8141bdbdb081a5cc8199d5b1b607a1b604082015260600190565b60208082526021908201527f536166654d6174683a206d756c7469706c69636174696f6e206f766572666c6f6040820152607760f81b606082015260800190565b60208082526018908201527f4f6e6c79206120686f7573652063616e20646f20746861740000000000000000604082015260600190565b60208082526028908201527f506f6f6c2043726561746f722063616e206e6f74207061727469636970617465604082015267081a5b881c1bdbdb60c21b606082015260800190565b60208082526023908201527f56616c75652053656e74206973206c657373207468616e20706f6f6c2070726960408201526231b29760e91b606082015260800190565b60208082526025908201527f45524332303a207472616e736665722066726f6d20746865207a65726f206164604082015264647265737360d81b606082015260800190565b60208082526024908201527f45524332303a20617070726f76652066726f6d20746865207a65726f206164646040820152637265737360e01b606082015260800190565b602080825260129082015271506f6f6c20707269636520746f6f206c6f7760701b604082015260600190565b6020808252601f908201527f45524332303a206d696e7420746f20746865207a65726f206164647265737300604082015260600190565b61012081016105248284612516565b60ff9190911681526020019056fe45524332303a207472616e7366657220616d6f756e7420657863656564732062616c616e636545524332303a207472616e7366657220616d6f756e74206578636565647320616c6c6f77616e636545524332303a2064656372656173656420616c6c6f77616e63652062656c6f77207a65726fa2646970667358221220f882ca2bcb190e0c39ba864df0e36185228834de799656ef181b23b9f588dcda64736f6c63430007030033",
  "linkReferences": {},
  "deployedLinkReferences": {}
}