{
  "_format": "hh-sol-artifact-1",
  "contractName": "Grotto",
  "sourceName": "contracts/Grotto.sol",
  "abi": [
    {
      "inputs": [],
      "stateMutability": "nonpayable",
      "type": "constructor"
    },
    {
      "anonymous": false,
      "inputs": [
        {
          "indexed": true,
          "internalType": "address",
          "name": "owner",
          "type": "address"
        },
        {
          "indexed": true,
          "internalType": "address",
          "name": "spender",
          "type": "address"
        },
        {
          "indexed": false,
          "internalType": "uint256",
          "name": "value",
          "type": "uint256"
        }
      ],
      "name": "Approval",
      "type": "event"
    },
    {
      "anonymous": false,
      "inputs": [
        {
          "indexed": true,
          "internalType": "address",
          "name": "from",
          "type": "address"
        },
        {
          "indexed": true,
          "internalType": "address",
          "name": "to",
          "type": "address"
        },
        {
          "indexed": false,
          "internalType": "uint256",
          "name": "value",
          "type": "uint256"
        }
      ],
      "name": "Transfer",
      "type": "event"
    },
    {
      "inputs": [],
      "name": "BSC_ETH_USD_PF",
      "outputs": [
        {
          "internalType": "address",
          "name": "",
          "type": "address"
        }
      ],
      "stateMutability": "view",
      "type": "function"
    },
    {
      "inputs": [],
      "name": "KOVAN_ETH_USD_PF",
      "outputs": [
        {
          "internalType": "address",
          "name": "",
          "type": "address"
        }
      ],
      "stateMutability": "view",
      "type": "function"
    },
    {
      "inputs": [],
      "name": "MAINNET_ETH_USD_PF",
      "outputs": [
        {
          "internalType": "address",
          "name": "",
          "type": "address"
        }
      ],
      "stateMutability": "view",
      "type": "function"
    },
    {
      "inputs": [
        {
          "internalType": "address",
          "name": "owner",
          "type": "address"
        },
        {
          "internalType": "address",
          "name": "spender",
          "type": "address"
        }
      ],
      "name": "allowance",
      "outputs": [
        {
          "internalType": "uint256",
          "name": "",
          "type": "uint256"
        }
      ],
      "stateMutability": "view",
      "type": "function"
    },
    {
      "inputs": [
        {
          "internalType": "address",
          "name": "spender",
          "type": "address"
        },
        {
          "internalType": "uint256",
          "name": "amount",
          "type": "uint256"
        }
      ],
      "name": "approve",
      "outputs": [
        {
          "internalType": "bool",
          "name": "",
          "type": "bool"
        }
      ],
      "stateMutability": "nonpayable",
      "type": "function"
    },
    {
      "inputs": [
        {
          "internalType": "address",
          "name": "account",
          "type": "address"
        }
      ],
      "name": "balanceOf",
      "outputs": [
        {
          "internalType": "uint256",
          "name": "",
          "type": "uint256"
        }
      ],
      "stateMutability": "view",
      "type": "function"
    },
    {
      "inputs": [],
      "name": "decimals",
      "outputs": [
        {
          "internalType": "uint8",
          "name": "",
          "type": "uint8"
        }
      ],
      "stateMutability": "view",
      "type": "function"
    },
    {
      "inputs": [
        {
          "internalType": "address",
          "name": "spender",
          "type": "address"
        },
        {
          "internalType": "uint256",
          "name": "subtractedValue",
          "type": "uint256"
        }
      ],
      "name": "decreaseAllowance",
      "outputs": [
        {
          "internalType": "bool",
          "name": "",
          "type": "bool"
        }
      ],
      "stateMutability": "nonpayable",
      "type": "function"
    },
    {
      "inputs": [],
      "name": "enterMainPool",
      "outputs": [],
      "stateMutability": "payable",
      "type": "function"
    },
    {
      "inputs": [
        {
          "internalType": "bytes32",
          "name": "poolId",
          "type": "bytes32"
        }
      ],
      "name": "enterPool",
      "outputs": [],
      "stateMutability": "payable",
      "type": "function"
    },
    {
      "inputs": [],
      "name": "getAllPools",
      "outputs": [
        {
          "internalType": "bytes32[]",
          "name": "",
          "type": "bytes32[]"
        }
      ],
      "stateMutability": "view",
      "type": "function"
    },
    {
      "inputs": [],
      "name": "getLatestPrice",
      "outputs": [
        {
          "internalType": "uint256",
          "name": "",
          "type": "uint256"
        }
      ],
      "stateMutability": "pure",
      "type": "function"
    },
    {
      "inputs": [
        {
          "internalType": "bytes32",
          "name": "poolId",
          "type": "bytes32"
        }
      ],
      "name": "getPoolDetails",
      "outputs": [
        {
          "components": [
            {
              "internalType": "address",
              "name": "winner",
              "type": "address"
            },
            {
              "internalType": "uint256",
              "name": "currentPoolSize",
              "type": "uint256"
            },
            {
              "internalType": "bool",
              "name": "isInMainPool",
              "type": "bool"
            },
            {
              "internalType": "uint256",
              "name": "poolSize",
              "type": "uint256"
            },
            {
              "internalType": "uint256",
              "name": "poolPrice",
              "type": "uint256"
            },
            {
              "internalType": "address",
              "name": "poolCreator",
              "type": "address"
            },
            {
              "internalType": "bool",
              "name": "isPoolConcluded",
              "type": "bool"
            },
            {
              "internalType": "uint256",
              "name": "poolPriceInEther",
              "type": "uint256"
            }
          ],
          "internalType": "struct Pool",
          "name": "",
          "type": "tuple"
        }
      ],
      "stateMutability": "view",
      "type": "function"
    },
    {
      "inputs": [
        {
          "internalType": "bytes32",
          "name": "_pool",
          "type": "bytes32"
        }
      ],
      "name": "getPoolers",
      "outputs": [
        {
          "internalType": "address payable[]",
          "name": "",
          "type": "address[]"
        }
      ],
      "stateMutability": "view",
      "type": "function"
    },
    {
      "inputs": [
        {
          "internalType": "address",
          "name": "creator",
          "type": "address"
        }
      ],
      "name": "getPoolsByOwner",
      "outputs": [
        {
          "internalType": "bytes32[]",
          "name": "",
          "type": "bytes32[]"
        }
      ],
      "stateMutability": "view",
      "type": "function"
    },
    {
      "inputs": [
        {
          "internalType": "bytes32",
          "name": "poolId",
          "type": "bytes32"
        }
      ],
      "name": "getWinner",
      "outputs": [
        {
          "internalType": "address payable",
          "name": "",
          "type": "address"
        }
      ],
      "stateMutability": "view",
      "type": "function"
    },
    {
      "inputs": [
        {
          "internalType": "address",
          "name": "spender",
          "type": "address"
        },
        {
          "internalType": "uint256",
          "name": "addedValue",
          "type": "uint256"
        }
      ],
      "name": "increaseAllowance",
      "outputs": [
        {
          "internalType": "bool",
          "name": "",
          "type": "bool"
        }
      ],
      "stateMutability": "nonpayable",
      "type": "function"
    },
    {
      "inputs": [],
      "name": "name",
      "outputs": [
        {
          "internalType": "string",
          "name": "",
          "type": "string"
        }
      ],
      "stateMutability": "view",
      "type": "function"
    },
    {
      "inputs": [
        {
          "internalType": "string",
          "name": "pool_name_",
          "type": "string"
        },
        {
          "internalType": "uint256",
          "name": "pool_size_",
          "type": "uint256"
        }
      ],
      "name": "startNewPool",
      "outputs": [],
      "stateMutability": "payable",
      "type": "function"
    },
    {
      "inputs": [],
      "name": "symbol",
      "outputs": [
        {
          "internalType": "string",
          "name": "",
          "type": "string"
        }
      ],
      "stateMutability": "view",
      "type": "function"
    },
    {
      "inputs": [],
      "name": "totalSupply",
      "outputs": [
        {
          "internalType": "uint256",
          "name": "",
          "type": "uint256"
        }
      ],
      "stateMutability": "view",
      "type": "function"
    },
    {
      "inputs": [
        {
          "internalType": "address",
          "name": "recipient",
          "type": "address"
        },
        {
          "internalType": "uint256",
          "name": "amount",
          "type": "uint256"
        }
      ],
      "name": "transfer",
      "outputs": [
        {
          "internalType": "bool",
          "name": "",
          "type": "bool"
        }
      ],
      "stateMutability": "nonpayable",
      "type": "function"
    },
    {
      "inputs": [
        {
          "internalType": "address",
          "name": "sender",
          "type": "address"
        },
        {
          "internalType": "address",
          "name": "recipient",
          "type": "address"
        },
        {
          "internalType": "uint256",
          "name": "amount",
          "type": "uint256"
        }
      ],
      "name": "transferFrom",
      "outputs": [
        {
          "internalType": "bool",
          "name": "",
          "type": "bool"
        }
      ],
      "stateMutability": "nonpayable",
      "type": "function"
    },
    {
      "inputs": [
        {
          "internalType": "address",
          "name": "newGovernor",
          "type": "address"
        }
      ],
      "name": "updateGovernor",
      "outputs": [],
      "stateMutability": "nonpayable",
      "type": "function"
    }
  ],
  "bytecode": "0x608060405260016009819055620000189060a0620003ef565b60408051601f198184030181529190528051602090910120600a55601580546001600160a01b031916739fe46736679d2d9a65f0992f2272de9f3c7fa6e01790553480156200006657600080fd5b506040518060400160405280600681526020016547726f74746f60d01b8152506040518060400160405280600681526020016547524f54544f60d01b8152508160039080519060200190620000bd9291906200032c565b508051620000d39060049060208401906200032c565b50506005805460ff1916601217905550604051620000f190620003b1565b604051809103906000f0801580156200010e573d6000803e3d6000fd5b50600680546001600160a01b0319166001600160a01b0392831617815560058054610100600160a81b031916749326bfa02add2366b30bacb125260af64103133100179055600a54600b80546001810182556000919091527f0175b7a638427703f0dbe7bb9bbf987a2551717b34e79f33b5b1008d1fa01db90155546040805163070508e160e51b81529051919092169163e0a11c20916004808301926020929190829003018186803b158015620001c557600080fd5b505afa158015620001da573d6000803e3d6000fd5b505050506040513d601f19601f82011682018060405250810190620002009190620003d6565b600a546000908152600760209081526040918290209290925560065481516302c3459360e11b815291516001600160a01b03909116926305868b269260048082019391829003018186803b1580156200025857600080fd5b505afa1580156200026d573d6000803e3d6000fd5b505050506040513d601f19601f82011682018060405250810190620002939190620003d6565b600a805460009081526008602090815260408083209490945560095483548352600e82528483205582548252600c8152838220805460ff19166001908117909155601380546001600160a01b0319908116331780835586548652600f855287862080549092166001600160a01b0391821617909155905416835260108252938220925483549485018455928252902090910155620003f8565b828054600181600116156101000203166002900490600052602060002090601f016020900481019282601f106200036f57805160ff19168380011785556200039f565b828001600101855582156200039f579182015b828111156200039f57825182559160200191906001019062000382565b50620003ad929150620003bf565b5090565b610cb1806200253383390190565b5b80821115620003ad5760008155600101620003c0565b600060208284031215620003e8578081fd5b5051919050565b90815260200190565b61212b80620004086000396000f3fe60806040526004361061014b5760003560e01c806362f384ad116100b6578063a9059cbb1161006f578063a9059cbb14610382578063aef3bc92146103a2578063afa08c39146103b7578063b91a440d146103cc578063d88ff1f4146103f9578063dd62ed3e1461040e5761014b565b806362f384ad146102cb5780636a608136146102eb57806370a08231146103185780638e15f4731461033857806395d89b411461034d578063a457c2d7146103625761014b565b80631e5f9149116101085780631e5f91491461021457806323b872dd14610241578063313ce567146102615780633760c1011461028357806339509351146102985780635923dfc7146102b85761014b565b806306fdde0314610150578063095ea7b31461017b578063152c3c5c146101a857806318160ddd146101b25780631b29e7b9146101d45780631de1fe0914610201575b600080fd5b34801561015c57600080fd5b5061016561042e565b6040516101729190611cb3565b60405180910390f35b34801561018757600080fd5b5061019b610196366004611aca565b6104c4565b6040516101729190611ca8565b6101b06104e2565b005b3480156101be57600080fd5b506101c761081a565b6040516101729190611bba565b3480156101e057600080fd5b506101f46101ef366004611af3565b610820565b604051610172919061200b565b6101b061020f366004611b0b565b61091f565b34801561022057600080fd5b5061023461022f366004611af3565b610aef565b6040516101729190611c0f565b34801561024d57600080fd5b5061019b61025c366004611a8f565b610b0a565b34801561026d57600080fd5b50610276610b91565b6040516101729190612074565b34801561028f57600080fd5b50610234610b9a565b3480156102a457600080fd5b5061019b6102b3366004611aca565b610bb2565b6101b06102c6366004611af3565b610c00565b3480156102d757600080fd5b506101b06102e6366004611a43565b610c12565b3480156102f757600080fd5b5061030b610306366004611a43565b610c6b565b6040516101729190611c70565b34801561032457600080fd5b506101c7610333366004611a43565b610cd7565b34801561034457600080fd5b506101c7610cf2565b34801561035957600080fd5b50610165610cf8565b34801561036e57600080fd5b5061019b61037d366004611aca565b610d59565b34801561038e57600080fd5b5061019b61039d366004611aca565b610dc1565b3480156103ae57600080fd5b50610234610dd5565b3480156103c357600080fd5b50610234610ded565b3480156103d857600080fd5b506103ec6103e7366004611af3565b610e05565b6040516101729190611c23565b34801561040557600080fd5b5061030b610e70565b34801561041a57600080fd5b506101c7610429366004611a5d565b610ec7565b60038054604080516020601f60026000196101006001881615020190951694909404938401819004810282018101909252828152606093909290918301828280156104ba5780601f1061048f576101008083540402835291602001916104ba565b820191906000526020600020905b81548152906001019060200180831161049d57829003601f168201915b5050505050905090565b60006104d86104d1610ef2565b8484610ef6565b5060015b92915050565b343360006104ee610cf2565b905060006104fc8285610faa565b600a546000908152600760205260408120549192509061051c9084610feb565b9050600061052a8285610faa565b9050808310156105555760405162461bcd60e51b815260040161054c90611df9565b60405180910390fd5b600a5460009081526012602090815260408083206001600160a01b0389168452909152902054610585908761101d565b600a805460009081526012602090815260408083206001600160a01b038b168085529083528184209590955583548352601180835281842080546001810182559085528385200180546001600160a01b0319169096179095559254825260088152828220549390522054141561081257600a5460008181526008602052604090205460095461061590600161101d565b600981905560405161062a9190602001611bba565b60408051601f198184030181528282528051602091820120600a819055600b80546001810182556000919091527f0175b7a638427703f0dbe7bb9bbf987a2551717b34e79f33b5b1008d1fa01db9015560065463070508e160e51b845291516001600160a01b039092169263e0a11c209260048083019392829003018186803b1580156106b657600080fd5b505afa1580156106ca573d6000803e3d6000fd5b505050506040513d601f19601f820116820180604052508101906106ee9190611b7e565b600a546000908152600760209081526040918290209290925560065481516302c3459360e11b815291516001600160a01b03909116926305868b269260048082019391829003018186803b15801561074557600080fd5b505afa158015610759573d6000803e3d6000fd5b505050506040513d601f19601f8201168201806040525081019061077d9190611b7e565b600a805460009081526008602090815260408083209490945560095483548352600e82528483205582548252600c8152838220805460ff191660019081179091556013805485548552600f845286852080546001600160a01b0319166001600160a01b0392831617905590541683526010825293822092548354948501845592825290209091015561080f8282611042565b50505b505050505050565b60025490565b6108286119d1565b6000828152601460209081526040808320546011835281842054600c84528285205460088552838620546007865284872054600f875285882054600d909752948720546001600160a01b0394851697939660ff93841696929592949216921690610890610cf2565b600a54600090815260076020526040812054919250906108b09083610feb565b90506108ba6119d1565b6040518061010001604052808b6001600160a01b031681526020018a81526020018915158152602001888152602001878152602001866001600160a01b031681526020018515158152602001838152509050809a50505050505050505050505b919050565b6040513490339060009061093b90879087908590602001611b96565b60408051601f1981840301815291815281516020928301206000818152600e909352912054909150156109805760405162461bcd60e51b815260040161054c90611d49565b600061098a610cf2565b905060006109988286610faa565b600b8054600181019091557f0175b7a638427703f0dbe7bb9bbf987a2551717b34e79f33b5b1008d1fa01db98101859055600085815260076020526040902082905590915086156109e95786610a6f565b600660009054906101000a90046001600160a01b03166001600160a01b03166305868b266040518163ffffffff1660e01b815260040160206040518083038186803b158015610a3757600080fd5b505afa158015610a4b573d6000803e3d6000fd5b505050506040513d601f19601f82011682018060405250810190610a6f9190611b7e565b600085815260086020908152604080832093909355600a548252600e815282822093909355858152600f835281812080546001600160a01b039098166001600160a01b031990981688179055600c8352818120805460ff191690559586526010825285208054600181018255908652942090930191909155505050505050565b6000908152601460205260409020546001600160a01b031690565b6000610b178484846114b8565b610b8784610b23610ef2565b610b82856040518060600160405280602881526020016120a9602891396001600160a01b038a16600090815260016020526040812090610b61610ef2565b6001600160a01b0316815260208101919091526040016000205491906115cd565b610ef6565b5060019392505050565b60055460ff1690565b735f4ec3df9cbd43714fe2740f5e3616155c5b841981565b60006104d8610bbf610ef2565b84610b828560016000610bd0610ef2565b6001600160a01b03908116825260208083019390935260409182016000908120918c16815292529020549061101d565b3433610c0d8383836115f9565b505050565b6013546001600160a01b03163314610c3c5760405162461bcd60e51b815260040161054c90611f14565b601580546001600160a01b03199081166001600160a01b03938416179182905560068054929093169116179055565b6001600160a01b038116600090815260106020908152604091829020805483518184028101840190945280845260609392830182828015610ccb57602002820191906000526020600020905b815481526020019060010190808311610cb7575b50505050509050919050565b6001600160a01b031660009081526020819052604090205490565b6101f490565b60048054604080516020601f60026000196101006001881615020190951694909404938401819004810282018101909252828152606093909290918301828280156104ba5780601f1061048f576101008083540402835291602001916104ba565b60006104d8610d66610ef2565b84610b82856040518060600160405280602581526020016120d16025913960016000610d90610ef2565b6001600160a01b03908116825260208083019390935260409182016000908120918d168152925290205491906115cd565b60006104d8610dce610ef2565b84846114b8565b739326bfa02add2366b30bacb125260af64103133181565b739ef1b8c0e4f7dc8bf5719ea496883dc6401d5b2e81565b600081815260116020908152604091829020805483518184028101840190945280845260609392830182828015610ccb57602002820191906000526020600020905b81546001600160a01b03168152600190910190602001808311610e475750505050509050919050565b6060600b8054806020026020016040519081016040528092919081815260200182805480156104ba57602002820191906000526020600020905b815481526020019060010190808311610eaa575050505050905090565b6001600160a01b03918216600090815260016020908152604080832093909416825291909152205490565b3390565b6001600160a01b038316610f1c5760405162461bcd60e51b815260040161054c90611f90565b6001600160a01b038216610f425760405162461bcd60e51b815260040161054c90611d80565b6001600160a01b0380841660008181526001602090815260408083209487168084529490915290819020849055517f8c5be1e5ebec7d5bd14f71427d1e84f3dd0314c0f7b2291e5b200ac8c7c3b92590610f9d908590611bba565b60405180910390a3505050565b600082610fb9575060006104dc565b82820282848281610fc657fe5b0414610fe45760405162461bcd60e51b815260040161054c90611ed3565b9392505050565b600080821161100c5760405162461bcd60e51b815260040161054c90611e71565b81838161101557fe5b049392505050565b600082820183811015610fe45760405162461bcd60e51b815260040161054c90611dc2565b6000828152601260209081526040808320601190925282208054839190829061106757fe5b60009182526020808320909101546001600160a01b03168352828101939093526040918201812054868252601190935290812080549091906110a557fe5b600091825260209182902001546040516110cc93926001600160a01b039092169101611bc3565b60408051601f198184030181529181528151602092830120600086815260128452828120601190945291822080549194509192918391829061110a57fe5b60009182526020808320909101546001600160a01b03168352820192909252604001902054905060015b838160ff16101561124e57600085815260126020908152604080832060119092528220805491929160ff851690811061116957fe5b60009182526020808320909101546001600160a01b03168352828101939093526040918201812054888252601190935220805485919060ff85169081106111ac57fe5b600091825260209182902001546040516111d49493926001600160a01b039092169101611bec565b60408051601f1981840301815291815281516020928301206000888152601284528281206011909452918220805491965061124493929160ff861690811061121857fe5b60009182526020808320909101546001600160a01b03168352820192909252604001902054839061101d565b9150600101611134565b5060006112ec60646112e6600660009054906101000a90046001600160a01b03166001600160a01b03166381014bbe6040518163ffffffff1660e01b815260040160206040518083038186803b1580156112a757600080fd5b505afa1580156112bb573d6000803e3d6000fd5b505050506040513d601f19601f820116820180604052508101906112df9190611b7e565b8590610faa565b90610feb565b905060006113946113846002600660009054906101000a90046001600160a01b03166001600160a01b0316630e7e8ba26040518163ffffffff1660e01b815260040160206040518083038186803b15801561134657600080fd5b505afa15801561135a573d6000803e3d6000fd5b505050506040513d601f19601f8201168201806040525081019061137e9190611b7e565b90610faa565b61138e85856118e9565b906118e9565b905060008584866040516020016113ac929190611bde565b6040516020818303038152906040528051906020012060001c816113cc57fe5b06905060006011600089815260200190815260200160002082815481106113ef57fe5b60009182526020822001546040516001600160a01b039091169250829185156108fc02918691818181858888f19350505050158015611432573d6000803e3d6000fd5b506013546040516001600160a01b039091169085156108fc029086906000818181858888f1935050505015801561146d573d6000803e3d6000fd5b506000978852601460209081526040808a2080546001600160a01b0319166001600160a01b039490941693909317909255600d9052909620805460ff19166001179055505050505050565b6001600160a01b0383166114de5760405162461bcd60e51b815260040161054c90611f4b565b6001600160a01b0382166115045760405162461bcd60e51b815260040161054c90611d06565b61150f838383610c0d565b61154c81604051806060016040528060268152602001612083602691396001600160a01b03861660009081526020819052604090205491906115cd565b6001600160a01b03808516600090815260208190526040808220939093559084168152205461157b908261101d565b6001600160a01b0380841660008181526020819052604090819020939093559151908516907fddf252ad1be2c89b69c2b068fc378daa952ba7f163c4a11628f55a4df523b3ef90610f9d908590611bba565b600081848411156115f15760405162461bcd60e51b815260040161054c9190611cb3565b505050900390565b600083815260086020908152604080832054601190925290912054106116315760405162461bcd60e51b815260040161054c90611ea8565b600061163b610cf2565b905060006116498285610faa565b600086815260076020526040812054919250906116669084610feb565b905060006116748285610faa565b9050808310156116965760405162461bcd60e51b815260040161054c90611df9565b60008781526012602090815260408083206001600160a01b03891684529091529020546116c3908761101d565b60008881526012602090815260408083206001600160a01b038a16808552908352818420949094558a8352601180835281842080546001810182558186528486200180546001600160a01b0319169096179095558b845260088352922054919052905414156118e057600087815260086020526040902054611746908890611042565b6000878152600f6020908152604080832054600654825163fd7f825360e01b815292516001600160a01b03928316959461182c946064946112e694169263fd7f825392600480840193919291829003018186803b1580156117a657600080fd5b505afa1580156117ba573d6000803e3d6000fd5b505050506040513d601f19601f820116820180604052508101906117de9190611b7e565b600660009054906101000a90046001600160a01b03166001600160a01b031663c9e5e21d6040518163ffffffff1660e01b815260040160206040518083038186803b15801561134657600080fd5b905060006118ba82600660009054906101000a90046001600160a01b03166001600160a01b031663c9e5e21d6040518163ffffffff1660e01b815260040160206040518083038186803b15801561188257600080fd5b505afa158015611896573d6000803e3d6000fd5b505050506040513d601f19601f8201168201806040525081019061138e9190611b7e565b90506118c68382611911565b6013546118dc906001600160a01b031683611911565b5050505b50505050505050565b60008282111561190b5760405162461bcd60e51b815260040161054c90611e3a565b50900390565b6001600160a01b0382166119375760405162461bcd60e51b815260040161054c90611fd4565b61194360008383610c0d565b600254611950908261101d565b6002556001600160a01b038216600090815260208190526040902054611976908261101d565b6001600160a01b0383166000818152602081905260408082209390935591519091907fddf252ad1be2c89b69c2b068fc378daa952ba7f163c4a11628f55a4df523b3ef906119c5908590611bba565b60405180910390a35050565b60405180610100016040528060006001600160a01b0316815260200160008152602001600015158152602001600081526020016000815260200160006001600160a01b03168152602001600015158152602001600081525090565b80356001600160a01b038116811461091a57600080fd5b600060208284031215611a54578081fd5b610fe482611a2c565b60008060408385031215611a6f578081fd5b611a7883611a2c565b9150611a8660208401611a2c565b90509250929050565b600080600060608486031215611aa3578081fd5b611aac84611a2c565b9250611aba60208501611a2c565b9150604084013590509250925092565b60008060408385031215611adc578182fd5b611ae583611a2c565b946020939093013593505050565b600060208284031215611b04578081fd5b5035919050565b600080600060408486031215611b1f578283fd5b833567ffffffffffffffff80821115611b36578485fd5b818601915086601f830112611b49578485fd5b813581811115611b57578586fd5b876020828501011115611b68578586fd5b6020928301989097509590910135949350505050565b600060208284031215611b8f578081fd5b5051919050565b6000838583375060609190911b6001600160601b0319169101908152601401919050565b90815260200190565b91825260601b6001600160601b031916602082015260340190565b918252602082015260400190565b928352602083019190915260601b6001600160601b031916604082015260540190565b6001600160a01b0391909116815260200190565b6020808252825182820181905260009190848201906040850190845b81811015611c645783516001600160a01b031683529284019291840191600101611c3f565b50909695505050505050565b6020808252825182820181905260009190848201906040850190845b81811015611c6457835183529284019291840191600101611c8c565b901515815260200190565b6000602080835283518082850152825b81811015611cdf57858101830151858201604001528201611cc3565b81811115611cf05783604083870101525b50601f01601f1916929092016040019392505050565b60208082526023908201527f45524332303a207472616e7366657220746f20746865207a65726f206164647260408201526265737360e81b606082015260800190565b60208082526018908201527f506f6f6c206e616d6520616c7265616479206578697374730000000000000000604082015260600190565b60208082526022908201527f45524332303a20617070726f766520746f20746865207a65726f206164647265604082015261737360f01b606082015260800190565b6020808252601b908201527f536166654d6174683a206164646974696f6e206f766572666c6f770000000000604082015260600190565b60208082526021908201527f4554482053656e74206973206c657373207468616e20706f6f6c2070726963656040820152601760f91b606082015260800190565b6020808252601e908201527f536166654d6174683a207375627472616374696f6e206f766572666c6f770000604082015260600190565b6020808252601a908201527f536166654d6174683a206469766973696f6e206279207a65726f000000000000604082015260600190565b602080825260119082015270151a1a5cc8141bdbdb081a5cc8199d5b1b607a1b604082015260600190565b60208082526021908201527f536166654d6174683a206d756c7469706c69636174696f6e206f766572666c6f6040820152607760f81b606082015260800190565b60208082526018908201527f4f6e6c79206120686f7573652063616e20646f20746861740000000000000000604082015260600190565b60208082526025908201527f45524332303a207472616e736665722066726f6d20746865207a65726f206164604082015264647265737360d81b606082015260800190565b60208082526024908201527f45524332303a20617070726f76652066726f6d20746865207a65726f206164646040820152637265737360e01b606082015260800190565b6020808252601f908201527f45524332303a206d696e7420746f20746865207a65726f206164647265737300604082015260600190565b60006101008201905060018060a01b038084511683526020840151602084015260408401511515604084015260608401516060840152608084015160808401528060a08501511660a08401525060c0830151151560c083015260e083015160e083015292915050565b60ff9190911681526020019056fe45524332303a207472616e7366657220616d6f756e7420657863656564732062616c616e636545524332303a207472616e7366657220616d6f756e74206578636565647320616c6c6f77616e636545524332303a2064656372656173656420616c6c6f77616e63652062656c6f77207a65726fa2646970667358221220be9861e260541827c9af5070fe472c5f33f6e8c04026e1e301ad1149db34776664736f6c6343000703003360806040526108fc60075568056bc75e2d63100000600855600a600955600a80556064600b55600a600c5534801561003657600080fd5b50604080518082018252601381527f476f7665726e616e636520436f6e7472616374000000000000000000000000006020808301918252835180850190945260068452652227aa23a7ab60d11b90840152815191929161009891600391610167565b5080516100ac906004906020840190610167565b50506005805460ff1916601217905550600680546001818101835560008390527ff652222313e28459528d920b65115c16c04f3efc82aaedc97be59f3f377c0d3f91820180546001600160a01b031990811673c04915f6b3ff85b50a863eb1fcbf368171539413179091558354808301855583018054821673b58c226a300ff6dc1ef762d62c536c7aed5cea74179055835491820190935501805490911673b6d80f6d661927afef42f39e52d630e250696bc41790556101fa565b828054600181600116156101000203166002900490600052602060002090601f016020900481019282601f106101a857805160ff19168380011785556101d5565b828001600101855582156101d5579182015b828111156101d55782518255916020019190600101906101ba565b506101e19291506101e5565b5090565b5b808211156101e157600081556001016101e6565b610aa8806102096000396000f3fe608060405234801561001057600080fd5b506004361061010b5760003560e01c806370a08231116100a2578063a9059cbb11610071578063a9059cbb146102d9578063c9e5e21d14610305578063dd62ed3e1461030d578063e0a11c201461033b578063fd7f8253146103435761010b565b806370a082311461027757806381014bbe1461029d57806395d89b41146102a5578063a457c2d7146102ad5761010b565b806318160ddd116100de57806318160ddd146101ef57806323b872dd146101f7578063313ce5671461022d578063395093511461024b5761010b565b806305868b261461011057806306fdde031461012a578063095ea7b3146101a75780630e7e8ba2146101e7575b600080fd5b61011861034b565b60408051918252519081900360200190f35b610132610351565b6040805160208082528351818301528351919283929083019185019080838360005b8381101561016c578181015183820152602001610154565b50505050905090810190601f1680156101995780820380516001836020036101000a031916815260200191505b509250505060405180910390f35b6101d3600480360360408110156101bd57600080fd5b506001600160a01b0381351690602001356103e7565b604080519115158252519081900360200190f35b610118610404565b61011861040a565b6101d36004803603606081101561020d57600080fd5b506001600160a01b03813581169160208101359091169060400135610410565b610235610497565b6040805160ff9092168252519081900360200190f35b6101d36004803603604081101561026157600080fd5b506001600160a01b0381351690602001356104a0565b6101186004803603602081101561028d57600080fd5b50356001600160a01b03166104ee565b610118610509565b61013261050f565b6101d3600480360360408110156102c357600080fd5b506001600160a01b038135169060200135610570565b6101d3600480360360408110156102ef57600080fd5b506001600160a01b0381351690602001356105d8565b6101186105ec565b6101186004803603604081101561032357600080fd5b506001600160a01b03813581169160200135166105f2565b61011861061d565b610118610623565b60095490565b60038054604080516020601f60026000196101006001881615020190951694909404938401819004810282018101909252828152606093909290918301828280156103dd5780601f106103b2576101008083540402835291602001916103dd565b820191906000526020600020905b8154815290600101906020018083116103c057829003601f168201915b5050505050905090565b60006103fb6103f4610629565b848461062d565b50600192915050565b60075490565b60025490565b600061041d848484610719565b61048d84610429610629565b610488856040518060600160405280602881526020016109dd602891396001600160a01b038a16600090815260016020526040812090610467610629565b6001600160a01b031681526020810191909152604001600020549190610874565b61062d565b5060019392505050565b60055460ff1690565b60006103fb6104ad610629565b8461048885600160006104be610629565b6001600160a01b03908116825260208083019390935260409182016000908120918c16815292529020549061090b565b6001600160a01b031660009081526020819052604090205490565b600a5490565b60048054604080516020601f60026000196101006001881615020190951694909404938401819004810282018101909252828152606093909290918301828280156103dd5780601f106103b2576101008083540402835291602001916103dd565b60006103fb61057d610629565b8461048885604051806060016040528060258152602001610a4e60259139600160006105a7610629565b6001600160a01b03908116825260208083019390935260409182016000908120918d16815292529020549190610874565b60006103fb6105e5610629565b8484610719565b600b5490565b6001600160a01b03918216600090815260016020908152604080832093909416825291909152205490565b60085490565b600c5490565b3390565b6001600160a01b0383166106725760405162461bcd60e51b8152600401808060200182810382526024815260200180610a2a6024913960400191505060405180910390fd5b6001600160a01b0382166106b75760405162461bcd60e51b81526004018080602001828103825260228152602001806109956022913960400191505060405180910390fd5b6001600160a01b03808416600081815260016020908152604080832094871680845294825291829020859055815185815291517f8c5be1e5ebec7d5bd14f71427d1e84f3dd0314c0f7b2291e5b200ac8c7c3b9259281900390910190a3505050565b6001600160a01b03831661075e5760405162461bcd60e51b8152600401808060200182810382526025815260200180610a056025913960400191505060405180910390fd5b6001600160a01b0382166107a35760405162461bcd60e51b81526004018080602001828103825260238152602001806109726023913960400191505060405180910390fd5b6107ae83838361096c565b6107eb816040518060600160405280602681526020016109b7602691396001600160a01b0386166000908152602081905260409020549190610874565b6001600160a01b03808516600090815260208190526040808220939093559084168152205461081a908261090b565b6001600160a01b038084166000818152602081815260409182902094909455805185815290519193928716927fddf252ad1be2c89b69c2b068fc378daa952ba7f163c4a11628f55a4df523b3ef92918290030190a3505050565b600081848411156109035760405162461bcd60e51b81526004018080602001828103825283818151815260200191508051906020019080838360005b838110156108c85781810151838201526020016108b0565b50505050905090810190601f1680156108f55780820380516001836020036101000a031916815260200191505b509250505060405180910390fd5b505050900390565b600082820183811015610965576040805162461bcd60e51b815260206004820152601b60248201527f536166654d6174683a206164646974696f6e206f766572666c6f770000000000604482015290519081900360640190fd5b9392505050565b50505056fe45524332303a207472616e7366657220746f20746865207a65726f206164647265737345524332303a20617070726f766520746f20746865207a65726f206164647265737345524332303a207472616e7366657220616d6f756e7420657863656564732062616c616e636545524332303a207472616e7366657220616d6f756e74206578636565647320616c6c6f77616e636545524332303a207472616e736665722066726f6d20746865207a65726f206164647265737345524332303a20617070726f76652066726f6d20746865207a65726f206164647265737345524332303a2064656372656173656420616c6c6f77616e63652062656c6f77207a65726fa2646970667358221220e9654bb4ecc2821b372e23b342baf360acc818c508d564370c6b8f63cc62f55664736f6c63430007030033",
  "linkReferences": {},
  "deployedLinkReferences": {}
}