{
  "_format": "hh-sol-artifact-1",
  "contractName": "Grotto",
  "sourceName": "contracts/Grotto.sol",
  "abi": [
    {
      "inputs": [],
      "stateMutability": "nonpayable",
      "type": "constructor"
    },
    {
      "anonymous": false,
      "inputs": [
        {
          "indexed": true,
          "internalType": "address",
          "name": "owner",
          "type": "address"
        },
        {
          "indexed": true,
          "internalType": "address",
          "name": "spender",
          "type": "address"
        },
        {
          "indexed": false,
          "internalType": "uint256",
          "name": "value",
          "type": "uint256"
        }
      ],
      "name": "Approval",
      "type": "event"
    },
    {
      "anonymous": false,
      "inputs": [
        {
          "indexed": true,
          "internalType": "address",
          "name": "from",
          "type": "address"
        },
        {
          "indexed": true,
          "internalType": "address",
          "name": "to",
          "type": "address"
        },
        {
          "indexed": false,
          "internalType": "uint256",
          "name": "value",
          "type": "uint256"
        }
      ],
      "name": "Transfer",
      "type": "event"
    },
    {
      "inputs": [],
      "name": "BSC_ETH_USD_PF",
      "outputs": [
        {
          "internalType": "address",
          "name": "",
          "type": "address"
        }
      ],
      "stateMutability": "view",
      "type": "function"
    },
    {
      "inputs": [],
      "name": "KOVAN_ETH_USD_PF",
      "outputs": [
        {
          "internalType": "address",
          "name": "",
          "type": "address"
        }
      ],
      "stateMutability": "view",
      "type": "function"
    },
    {
      "inputs": [],
      "name": "MAINNET_ETH_USD_PF",
      "outputs": [
        {
          "internalType": "address",
          "name": "",
          "type": "address"
        }
      ],
      "stateMutability": "view",
      "type": "function"
    },
    {
      "inputs": [
        {
          "internalType": "address",
          "name": "owner",
          "type": "address"
        },
        {
          "internalType": "address",
          "name": "spender",
          "type": "address"
        }
      ],
      "name": "allowance",
      "outputs": [
        {
          "internalType": "uint256",
          "name": "",
          "type": "uint256"
        }
      ],
      "stateMutability": "view",
      "type": "function"
    },
    {
      "inputs": [
        {
          "internalType": "address",
          "name": "spender",
          "type": "address"
        },
        {
          "internalType": "uint256",
          "name": "amount",
          "type": "uint256"
        }
      ],
      "name": "approve",
      "outputs": [
        {
          "internalType": "bool",
          "name": "",
          "type": "bool"
        }
      ],
      "stateMutability": "nonpayable",
      "type": "function"
    },
    {
      "inputs": [
        {
          "internalType": "address",
          "name": "account",
          "type": "address"
        }
      ],
      "name": "balanceOf",
      "outputs": [
        {
          "internalType": "uint256",
          "name": "",
          "type": "uint256"
        }
      ],
      "stateMutability": "view",
      "type": "function"
    },
    {
      "inputs": [],
      "name": "decimals",
      "outputs": [
        {
          "internalType": "uint8",
          "name": "",
          "type": "uint8"
        }
      ],
      "stateMutability": "view",
      "type": "function"
    },
    {
      "inputs": [
        {
          "internalType": "address",
          "name": "spender",
          "type": "address"
        },
        {
          "internalType": "uint256",
          "name": "subtractedValue",
          "type": "uint256"
        }
      ],
      "name": "decreaseAllowance",
      "outputs": [
        {
          "internalType": "bool",
          "name": "",
          "type": "bool"
        }
      ],
      "stateMutability": "nonpayable",
      "type": "function"
    },
    {
      "inputs": [],
      "name": "enterMainPool",
      "outputs": [],
      "stateMutability": "payable",
      "type": "function"
    },
    {
      "inputs": [
        {
          "internalType": "bytes32",
          "name": "poolId",
          "type": "bytes32"
        }
      ],
      "name": "enterPool",
      "outputs": [],
      "stateMutability": "payable",
      "type": "function"
    },
    {
      "inputs": [],
      "name": "getAllPools",
      "outputs": [
        {
          "components": [
            {
              "internalType": "address",
              "name": "winner",
              "type": "address"
            },
            {
              "internalType": "uint256",
              "name": "currentPoolSize",
              "type": "uint256"
            },
            {
              "internalType": "bool",
              "name": "isInMainPool",
              "type": "bool"
            },
            {
              "internalType": "uint256",
              "name": "poolSize",
              "type": "uint256"
            },
            {
              "internalType": "uint256",
              "name": "poolPrice",
              "type": "uint256"
            },
            {
              "internalType": "address",
              "name": "poolCreator",
              "type": "address"
            },
            {
              "internalType": "bool",
              "name": "isPoolConcluded",
              "type": "bool"
            },
            {
              "internalType": "uint256",
              "name": "poolPriceInEther",
              "type": "uint256"
            },
            {
              "internalType": "bytes32",
              "name": "poolId",
              "type": "bytes32"
            }
          ],
          "internalType": "struct Pool[]",
          "name": "",
          "type": "tuple[]"
        }
      ],
      "stateMutability": "view",
      "type": "function"
    },
    {
      "inputs": [],
      "name": "getLatestPrice",
      "outputs": [
        {
          "internalType": "uint256",
          "name": "",
          "type": "uint256"
        }
      ],
      "stateMutability": "pure",
      "type": "function"
    },
    {
      "inputs": [
        {
          "internalType": "bytes32",
          "name": "poolId",
          "type": "bytes32"
        }
      ],
      "name": "getPoolDetails",
      "outputs": [
        {
          "components": [
            {
              "internalType": "address",
              "name": "winner",
              "type": "address"
            },
            {
              "internalType": "uint256",
              "name": "currentPoolSize",
              "type": "uint256"
            },
            {
              "internalType": "bool",
              "name": "isInMainPool",
              "type": "bool"
            },
            {
              "internalType": "uint256",
              "name": "poolSize",
              "type": "uint256"
            },
            {
              "internalType": "uint256",
              "name": "poolPrice",
              "type": "uint256"
            },
            {
              "internalType": "address",
              "name": "poolCreator",
              "type": "address"
            },
            {
              "internalType": "bool",
              "name": "isPoolConcluded",
              "type": "bool"
            },
            {
              "internalType": "uint256",
              "name": "poolPriceInEther",
              "type": "uint256"
            },
            {
              "internalType": "bytes32",
              "name": "poolId",
              "type": "bytes32"
            }
          ],
          "internalType": "struct Pool",
          "name": "",
          "type": "tuple"
        }
      ],
      "stateMutability": "view",
      "type": "function"
    },
    {
      "inputs": [
        {
          "internalType": "string",
          "name": "poolName",
          "type": "string"
        },
        {
          "internalType": "address",
          "name": "creator",
          "type": "address"
        }
      ],
      "name": "getPoolDetailsByPoolName",
      "outputs": [
        {
          "components": [
            {
              "internalType": "address",
              "name": "winner",
              "type": "address"
            },
            {
              "internalType": "uint256",
              "name": "currentPoolSize",
              "type": "uint256"
            },
            {
              "internalType": "bool",
              "name": "isInMainPool",
              "type": "bool"
            },
            {
              "internalType": "uint256",
              "name": "poolSize",
              "type": "uint256"
            },
            {
              "internalType": "uint256",
              "name": "poolPrice",
              "type": "uint256"
            },
            {
              "internalType": "address",
              "name": "poolCreator",
              "type": "address"
            },
            {
              "internalType": "bool",
              "name": "isPoolConcluded",
              "type": "bool"
            },
            {
              "internalType": "uint256",
              "name": "poolPriceInEther",
              "type": "uint256"
            },
            {
              "internalType": "bytes32",
              "name": "poolId",
              "type": "bytes32"
            }
          ],
          "internalType": "struct Pool",
          "name": "",
          "type": "tuple"
        }
      ],
      "stateMutability": "view",
      "type": "function"
    },
    {
      "inputs": [
        {
          "internalType": "bytes32",
          "name": "_pool",
          "type": "bytes32"
        }
      ],
      "name": "getPoolers",
      "outputs": [
        {
          "internalType": "address payable[]",
          "name": "",
          "type": "address[]"
        }
      ],
      "stateMutability": "view",
      "type": "function"
    },
    {
      "inputs": [
        {
          "internalType": "address",
          "name": "creator",
          "type": "address"
        }
      ],
      "name": "getPoolsByOwner",
      "outputs": [
        {
          "internalType": "bytes32[]",
          "name": "",
          "type": "bytes32[]"
        }
      ],
      "stateMutability": "view",
      "type": "function"
    },
    {
      "inputs": [
        {
          "internalType": "bytes32",
          "name": "poolId",
          "type": "bytes32"
        }
      ],
      "name": "getWinner",
      "outputs": [
        {
          "internalType": "address payable",
          "name": "",
          "type": "address"
        }
      ],
      "stateMutability": "view",
      "type": "function"
    },
    {
      "inputs": [
        {
          "internalType": "address",
          "name": "spender",
          "type": "address"
        },
        {
          "internalType": "uint256",
          "name": "addedValue",
          "type": "uint256"
        }
      ],
      "name": "increaseAllowance",
      "outputs": [
        {
          "internalType": "bool",
          "name": "",
          "type": "bool"
        }
      ],
      "stateMutability": "nonpayable",
      "type": "function"
    },
    {
      "inputs": [],
      "name": "name",
      "outputs": [
        {
          "internalType": "string",
          "name": "",
          "type": "string"
        }
      ],
      "stateMutability": "view",
      "type": "function"
    },
    {
      "inputs": [
        {
          "internalType": "string",
          "name": "poolName",
          "type": "string"
        },
        {
          "internalType": "uint256",
          "name": "poolSize",
          "type": "uint256"
        }
      ],
      "name": "startNewPool",
      "outputs": [],
      "stateMutability": "payable",
      "type": "function"
    },
    {
      "inputs": [],
      "name": "symbol",
      "outputs": [
        {
          "internalType": "string",
          "name": "",
          "type": "string"
        }
      ],
      "stateMutability": "view",
      "type": "function"
    },
    {
      "inputs": [],
      "name": "totalSupply",
      "outputs": [
        {
          "internalType": "uint256",
          "name": "",
          "type": "uint256"
        }
      ],
      "stateMutability": "view",
      "type": "function"
    },
    {
      "inputs": [
        {
          "internalType": "address",
          "name": "recipient",
          "type": "address"
        },
        {
          "internalType": "uint256",
          "name": "amount",
          "type": "uint256"
        }
      ],
      "name": "transfer",
      "outputs": [
        {
          "internalType": "bool",
          "name": "",
          "type": "bool"
        }
      ],
      "stateMutability": "nonpayable",
      "type": "function"
    },
    {
      "inputs": [
        {
          "internalType": "address",
          "name": "sender",
          "type": "address"
        },
        {
          "internalType": "address",
          "name": "recipient",
          "type": "address"
        },
        {
          "internalType": "uint256",
          "name": "amount",
          "type": "uint256"
        }
      ],
      "name": "transferFrom",
      "outputs": [
        {
          "internalType": "bool",
          "name": "",
          "type": "bool"
        }
      ],
      "stateMutability": "nonpayable",
      "type": "function"
    },
    {
      "inputs": [
        {
          "internalType": "address",
          "name": "newGovernor",
          "type": "address"
        }
      ],
      "name": "updateGovernor",
      "outputs": [],
      "stateMutability": "nonpayable",
      "type": "function"
    }
  ],
  "bytecode": "0x608060405260016009819055620000189060a062000674565b60408051601f198184030181529190528051602090910120600b55601680546001600160a01b0319167371d70b41efde3c0d0705dbece05e00fd60888df01790553480156200006657600080fd5b506040518060400160405280600681526020016547726f74746f60d01b8152506040518060400160405280600681526020016547524f54544f60d01b8152508160039080519060200190620000bd92919062000565565b508051620000d390600490602084019062000565565b50506005805460ff1916601217905550601654600680546001600160a01b0319166001600160a01b039092169190911790556040516200011390620005ea565b604051809103906000f08015801562000130573d6000803e3d6000fd5b50600680546001600160a01b0319166001600160a01b0392831617815560058054610100600160a81b031916749326bfa02add2366b30bacb125260af64103133100179055600b54600c80546001810182556000919091527fdf6966c971051c3d54ec59162606531493a51404a002842f56009d7e5cf4a8c70155546040805163070508e160e51b81529051919092169163e0a11c20916004808301926020929190829003018186803b158015620001e757600080fd5b505afa158015620001fc573d6000803e3d6000fd5b505050506040513d601f19601f820116820180604052508101906200022291906200065b565b600b546000908152600760209081526040918290209290925560065481516302c3459360e11b815291516001600160a01b03909116926305868b269260048082019391829003018186803b1580156200027a57600080fd5b505afa1580156200028f573d6000803e3d6000fd5b505050506040513d601f19601f82011682018060405250810190620002b591906200065b565b600b805460009081526008602090815260408083209490945582548252600f815283822082905582548252600d8152838220805460ff19166001908117909155601480546001600160a01b03199081163317808355865486526010855287862080549092166001600160a01b039182161790915590541683526011825293822083548154958601825590835291209092019190915554600a90620003599062000413565b8154600180820184556000938452602093849020835160089093020180546001600160a01b03199081166001600160a01b039485161782559484015191810191909155604083015160028201805460ff1916911515919091179055606083015160038201556080830151600482015560a083015160058201805460c08601519616919093161760ff60a01b1916600160a01b9415159490940293909317905560e081015160068301556101000151600790910155620006b4565b6200041d620005f8565b6000828152601560209081526040808320546012835281842054600d845282852054600885528386205460078652848720546010875285882054600e909752948720546001600160a01b0394851697939660ff938416969295929492169216906200048762000520565b60008b81526007602090815260408220549293509091620004b3918490620014f762000526821b17901c565b9050620004bf620005f8565b5060408051610120810182526001600160a01b039a8b168152602081019990995296151596880196909652506060860193909352608085019190915290931660a083015291151560c082015260e08101919091526101008101929092525090565b6101f490565b6000808211620005535760405162461bcd60e51b81526004016200054a906200067d565b60405180910390fd5b8183816200055d57fe5b049392505050565b828054600181600116156101000203166002900490600052602060002090601f016020900481019282601f10620005a857805160ff1916838001178555620005d8565b82800160010185558215620005d8579182015b82811115620005d8578251825591602001919060010190620005bb565b50620005e692915062000644565b5090565b610d3580620031b383390190565b6040805161012081018252600080825260208201819052918101829052606081018290526080810182905260a0810182905260c0810182905260e0810182905261010081019190915290565b5b80821115620005e6576000815560010162000645565b6000602082840312156200066d578081fd5b5051919050565b90815260200190565b6020808252601a908201527f536166654d6174683a206469766973696f6e206279207a65726f000000000000604082015260600190565b612aef80620006c46000396000f3fe6080604052600436106101665760003560e01c806362f384ad116100d1578063a457c2d71161008a578063afa08c3911610064578063afa08c39146103f2578063b91a440d14610407578063d88ff1f414610434578063dd62ed3e1461045657610166565b8063a457c2d71461039d578063a9059cbb146103bd578063aef3bc92146103dd57610166565b806362f384ad146102e65780636a6081361461030657806370a08231146103335780638e15f4731461035357806395d89b411461036857806398de9f991461037d57610166565b80631e5f9149116101235780631e5f91491461022f57806323b872dd1461025c578063313ce5671461027c5780633760c1011461029e57806339509351146102b35780635923dfc7146102d357610166565b806306fdde031461016b578063095ea7b314610196578063152c3c5c146101c357806318160ddd146101cd5780631b29e7b9146101ef5780631de1fe091461021c575b600080fd5b34801561017757600080fd5b50610180610476565b60405161018d9190612604565b60405180910390f35b3480156101a257600080fd5b506101b66101b136600461232a565b61050c565b60405161018d91906125f9565b6101cb61052a565b005b3480156101d957600080fd5b506101e2610ab4565b60405161018d91906124c8565b3480156101fb57600080fd5b5061020f61020a366004612353565b610aba565b60405161018d9190612a29565b6101cb61022a3660046123bd565b610bbc565b34801561023b57600080fd5b5061024f61024a366004612353565b611030565b60405161018d919061251d565b34801561026857600080fd5b506101b66102773660046122ef565b61104b565b34801561028857600080fd5b506102916110d2565b60405161018d9190612a38565b3480156102aa57600080fd5b5061024f6110db565b3480156102bf57600080fd5b506101b66102ce36600461232a565b6110f3565b6101cb6102e1366004612353565b611141565b3480156102f257600080fd5b506101cb6103013660046122a3565b611153565b34801561031257600080fd5b506103266103213660046122a3565b6111ac565b60405161018d919061257e565b34801561033f57600080fd5b506101e261034e3660046122a3565b611218565b34801561035f57600080fd5b506101e2611233565b34801561037457600080fd5b50610180611239565b34801561038957600080fd5b5061020f61039836600461236b565b61129a565b3480156103a957600080fd5b506101b66103b836600461232a565b6112e3565b3480156103c957600080fd5b506101b66103d836600461232a565b61134b565b3480156103e957600080fd5b5061024f61135f565b3480156103fe57600080fd5b5061024f611377565b34801561041357600080fd5b50610427610422366004612353565b61138f565b60405161018d9190612531565b34801561044057600080fd5b506104496113fa565b60405161018d91906125b6565b34801561046257600080fd5b506101e26104713660046122bd565b6114cc565b60038054604080516020601f60026000196101006001881615020190951694909404938401819004810282018101909252828152606093909290918301828280156105025780601f106104d757610100808354040283529160200191610502565b820191906000526020600020905b8154815290600101906020018083116104e557829003601f168201915b5050505050905090565b6000610520610519611529565b848461152d565b5060015b92915050565b34336000610536611233565b9050600061054482856115e1565b600b546000908152600760205260408120549192509061056490846114f7565b9050600061057282856115e1565b90508083101561059d5760405162461bcd60e51b8152600401610594906128fa565b60405180910390fd5b600b5460009081526013602090815260408083206001600160a01b03891684529091529020546105cd9087611622565b600b805460009081526013602090815260408083206001600160a01b038b1680855290835281842095909555835483526012825280832080546001810182559084528284200180546001600160a01b03191690951790945591548152600f90915220546106386121f9565b600a828154811061064557fe5b600091825260208083206040805161012081018252600890940290910180546001600160a01b0390811685526001820154858501908152600283015460ff9081161515878601526003840154606088015260048401546080880152600584015492831660a0880152600160a01b909204909116151560c0860152600682015460e0860152600790910154610100850152600b548552601290925290922054909152600a80549192508291849081106106f957fe5b600091825260208083208451600893840290910180546001600160a01b039283166001600160a01b031991821617825586840151600183015560408088015160028401805491151560ff19909216919091179055606088015160038401556080880151600484015560a088015160058401805460c08b01511515600160a01b0260ff60a01b19939097169416939093171693909317905560e0860151600682015561010090950151600790950194909455600b548352908152828220546012909152919020541415610aaa57600b546000818152600860205260409020546009546107e5906001611622565b6009819055600c5460405190916107fe916020016124c8565b60408051601f198184030181528282528051602091820120600b819055600c80546001810182556000919091527fdf6966c971051c3d54ec59162606531493a51404a002842f56009d7e5cf4a8c7015560065463070508e160e51b845291516001600160a01b039092169263e0a11c209260048083019392829003018186803b15801561088a57600080fd5b505afa15801561089e573d6000803e3d6000fd5b505050506040513d601f19601f820116820180604052508101906108c29190612407565b600b546000908152600760209081526040918290209290925560065481516302c3459360e11b815291516001600160a01b03909116926305868b269260048082019391829003018186803b15801561091957600080fd5b505afa15801561092d573d6000803e3d6000fd5b505050506040513d601f19601f820116820180604052508101906109519190612407565b600b805460009081526008602090815260408083209490945582548252600f815283822085905582548252600d8152838220805460ff1916600190811790915560148054855485526010845286852080546001600160a01b0319166001600160a01b0392831617905590541683526011825293822083548154958601825590835291209092019190915554600a906109e890610aba565b8154600180820184556000938452602093849020835160089093020180546001600160a01b03199081166001600160a01b039485161782559484015191810191909155604083015160028201805460ff1916911515919091179055606083015160038201556080830151600482015560a083015160058201805460c08601519616919093161760ff60a01b1916600160a01b9415159490940293909317905560e081015160068301556101000151600790910155610aa68383611647565b5050505b5050505050505050565b60025490565b610ac26121f9565b6000828152601560209081526040808320546012835281842054600d845282852054600885528386205460078652848720546010875285882054600e909752948720546001600160a01b0394851697939660ff93841696929592949216921690610b2a611233565b60008b81526007602052604081205491925090610b4790836114f7565b9050610b516121f9565b6040518061012001604052808b6001600160a01b031681526020018a81526020018915158152602001888152602001878152602001866001600160a01b0316815260200185151581526020018381526020018d8152509050809a50505050505050505050505b919050565b600660009054906101000a90046001600160a01b03166001600160a01b0316632c0797ef6040518163ffffffff1660e01b815260040160206040518083038186803b158015610c0a57600080fd5b505afa158015610c1e573d6000803e3d6000fd5b505050506040513d601f19601f82011682018060405250810190610c429190612407565b811015610c615760405162461bcd60e51b815260040161059490612776565b600660009054906101000a90046001600160a01b03166001600160a01b031663d86923956040518163ffffffff1660e01b815260040160206040518083038186803b158015610caf57600080fd5b505afa158015610cc3573d6000803e3d6000fd5b505050506040513d601f19601f82011682018060405250810190610ce79190612407565b811115610d065760405162461bcd60e51b8152600401610594906126d1565b60405134903390600090610d22908790879085906020016124a4565b60408051601f1981840301815291815281516020928301206000818152600f90935291205490915015610d675760405162461bcd60e51b81526004016105949061269a565b6000610d71611233565b90506000610d7f82866115e1565b9050600660009054906101000a90046001600160a01b03166001600160a01b031663f417bd9c6040518163ffffffff1660e01b815260040160206040518083038186803b158015610dcf57600080fd5b505afa158015610de3573d6000803e3d6000fd5b505050506040513d601f19601f82011682018060405250810190610e079190612407565b811015610e265760405162461bcd60e51b8152600401610594906129c6565b600c8054600181019091557fdf6966c971051c3d54ec59162606531493a51404a002842f56009d7e5cf4a8c7810184905560008481526007602052604090208290558615610e745786610efa565b600660009054906101000a90046001600160a01b03166001600160a01b03166305868b266040518163ffffffff1660e01b815260040160206040518083038186803b158015610ec257600080fd5b505afa158015610ed6573d6000803e3d6000fd5b505050506040513d601f19601f82011682018060405250810190610efa9190612407565b600085815260086020908152604080832093909355600f81528282208490556010815282822080546001600160a01b0319166001600160a01b038a16908117909155600d8252838320805460ff19169055825260118152918120805460018101825590825291902001849055600a610f7185610aba565b8154600180820184556000938452602093849020835160089093020180546001600160a01b03199081166001600160a01b039485161782559484015191810191909155604083015160028201805460ff1916911515919091179055606083015160038201556080830151600482015560a083015160058201805460c08601519616919093161760ff60a01b1916600160a01b9415159490940293909317905560e081015160068301556101000151600790910155505050505050505050565b6000908152601560205260409020546001600160a01b031690565b6000611058848484611cb7565b6110c884611064611529565b6110c385604051806060016040528060288152602001612a6d602891396001600160a01b038a166000908152600160205260408120906110a2611529565b6001600160a01b031681526020810191909152604001600020549190611dcc565b61152d565b5060019392505050565b60055460ff1690565b735f4ec3df9cbd43714fe2740f5e3616155c5b841981565b6000610520611100611529565b846110c38560016000611111611529565b6001600160a01b03908116825260208083019390935260409182016000908120918c168152925290205490611622565b343361114e838383611df8565b505050565b6014546001600160a01b0316331461117d5760405162461bcd60e51b81526004016105949061287b565b601680546001600160a01b03199081166001600160a01b03938416179182905560068054929093169116179055565b6001600160a01b03811660009081526011602090815260409182902080548351818402810184019094528084526060939283018282801561120c57602002820191906000526020600020905b8154815260200190600101908083116111f8575b50505050509050919050565b6001600160a01b031660009081526020819052604090205490565b6101f490565b60048054604080516020601f60026000196101006001881615020190951694909404938401819004810282018101909252828152606093909290918301828280156105025780601f106104d757610100808354040283529160200191610502565b6112a26121f9565b60008484846040516020016112b9939291906124a4565b6040516020818303038152906040528051906020012090506112da81610aba565b95945050505050565b60006105206112f0611529565b846110c385604051806060016040528060258152602001612a95602591396001600061131a611529565b6001600160a01b03908116825260208083019390935260409182016000908120918d16815292529020549190611dcc565b6000610520611358611529565b8484611cb7565b739326bfa02add2366b30bacb125260af64103133181565b739ef1b8c0e4f7dc8bf5719ea496883dc6401d5b2e81565b60008181526012602090815260409182902080548351818402810184019094528084526060939283018282801561120c57602002820191906000526020600020905b81546001600160a01b031681526001909101906020018083116113d15750505050509050919050565b6060600a805480602002602001604051908101604052809291908181526020016000905b828210156114c357600084815260209081902060408051610120810182526008860290920180546001600160a01b03908116845260018083015485870152600283015460ff9081161515948601949094526003830154606086015260048301546080860152600583015491821660a0860152600160a01b909104909216151560c0840152600681015460e084015260070154610100830152908352909201910161141e565b50505050905090565b6001600160a01b03918216600090815260016020908152604080832093909416825291909152205490565b60008082116115185760405162461bcd60e51b8152600401610594906127d8565b81838161152157fe5b049392505050565b3390565b6001600160a01b0383166115535760405162461bcd60e51b815260040161059490612982565b6001600160a01b0382166115795760405162461bcd60e51b8152600401610594906126fd565b6001600160a01b0380841660008181526001602090815260408083209487168084529490915290819020849055517f8c5be1e5ebec7d5bd14f71427d1e84f3dd0314c0f7b2291e5b200ac8c7c3b925906115d49085906124c8565b60405180910390a3505050565b6000826115f057506000610524565b828202828482816115fd57fe5b041461161b5760405162461bcd60e51b81526004016105949061283a565b9392505050565b60008282018381101561161b5760405162461bcd60e51b81526004016105949061273f565b6000828152601360209081526040808320601290925282208054839190829061166c57fe5b60009182526020808320909101546001600160a01b03168352828101939093526040918201812054868252601290935290812080549091906116aa57fe5b600091825260209182902001546040516116d193926001600160a01b0390921691016124d1565b60408051601f198184030181529181528151602092830120600086815260138452828120601290945291822080549194509192918391829061170f57fe5b60009182526020808320909101546001600160a01b03168352820192909252604001902054905060015b838160ff16101561185357600085815260136020908152604080832060129092528220805491929160ff851690811061176e57fe5b60009182526020808320909101546001600160a01b03168352828101939093526040918201812054888252601290935220805485919060ff85169081106117b157fe5b600091825260209182902001546040516117d99493926001600160a01b0390921691016124fa565b60408051601f1981840301815291815281516020928301206000888152601384528281206012909452918220805491965061184993929160ff861690811061181d57fe5b60009182526020808320909101546001600160a01b031683528201929092526040019020548390611622565b9150600101611739565b5060006118f160646118eb600660009054906101000a90046001600160a01b03166001600160a01b03166381014bbe6040518163ffffffff1660e01b815260040160206040518083038186803b1580156118ac57600080fd5b505afa1580156118c0573d6000803e3d6000fd5b505050506040513d601f19601f820116820180604052508101906118e49190612407565b85906115e1565b906114f7565b905060006119996119896002600660009054906101000a90046001600160a01b03166001600160a01b0316630e7e8ba26040518163ffffffff1660e01b815260040160206040518083038186803b15801561194b57600080fd5b505afa15801561195f573d6000803e3d6000fd5b505050506040513d601f19601f820116820180604052508101906119839190612407565b906115e1565b6119938585612111565b90612111565b905060008584866040516020016119b19291906124ec565b6040516020818303038152906040528051906020012060001c816119d157fe5b06905060006012600089815260200190815260200160002082815481106119f457fe5b60009182526020822001546040516001600160a01b039091169250829185156108fc02918691818181858888f19350505050158015611a37573d6000803e3d6000fd5b506014546040516001600160a01b039091169085156108fc029086906000818181858888f19350505050158015611a72573d6000803e3d6000fd5b50600088815260156020908152604080832080546001600160a01b0319166001600160a01b0386811691909117909155600e8352818420805460ff1916600117905560108352818420546007845282852054600654845163fd7f825360e01b815294519284169691958e8702959294611b11946064946118eb949092169263fd7f82539260048082019391829003018186803b1580156118ac57600080fd5b90506000611b1f8383612111565b9050611b2b8582612139565b601454611b41906001600160a01b031683612139565b60008d8152600f6020526040902054611b586121f9565b600a8281548110611b6557fe5b60009182526020918290206040805161012081018252600160089094029092018381015494830194909452600284015460ff16151590820152600383015460608201526004830154608082015260058301546001600160a01b0390811660a0830152600684015460e0830152600790930154610100820152918a16825260c0820152600a8054919250829184908110611bfa57fe5b600091825260209182902083516008929092020180546001600160a01b03199081166001600160a01b03938416178255928401516001820155604084015160028201805460ff1916911515919091179055606084015160038201556080840151600482015560a084015160058201805460c08701519516919093161760ff60a01b1916600160a01b9315159390930292909217905560e0820151600682015561010090910151600790910155505050505050505050505050505050565b6001600160a01b038316611cdd5760405162461bcd60e51b81526004016105949061293d565b6001600160a01b038216611d035760405162461bcd60e51b815260040161059490612657565b611d0e83838361114e565b611d4b81604051806060016040528060268152602001612a47602691396001600160a01b0386166000908152602081905260409020549190611dcc565b6001600160a01b038085166000908152602081905260408082209390935590841681522054611d7a9082611622565b6001600160a01b0380841660008181526020819052604090819020939093559151908516907fddf252ad1be2c89b69c2b068fc378daa952ba7f163c4a11628f55a4df523b3ef906115d49085906124c8565b60008184841115611df05760405162461bcd60e51b81526004016105949190612604565b505050900390565b60008381526008602090815260408083205460129092529091205410611e305760405162461bcd60e51b81526004016105949061280f565b6000838152601060205260409020546001600160a01b0382811691161415611e6a5760405162461bcd60e51b8152600401610594906128b2565b6000611e74611233565b90506000611e8282856115e1565b60008681526007602052604081205491925090611e9f90846114f7565b90506000611ead82856115e1565b905080831015611ecf5760405162461bcd60e51b8152600401610594906128fa565b60008781526013602090815260408083206001600160a01b0389168452909152902054611efc9087611622565b60008881526013602090815260408083206001600160a01b038a16808552908352818420949094558a8352601282528220805460018101825590835291200180546001600160a01b03191690911790556000878152600f6020526040902054611f636121f9565b600a8281548110611f7057fe5b600091825260208083206040805161012081018252600890940290910180546001600160a01b0390811685526001820154858501908152600283015460ff9081161515878601526003840154606088015260048401546080880152600584015492831660a0880152600160a01b909204909116151560c0860152600682015460e08601526007909101546101008501528d8552601290925290922054909152600a805491925082918490811061202257fe5b600091825260208083208451600893840290910180546001600160a01b039283166001600160a01b031991821617825586840151600183015560408088015160028401805491151560ff19909216919091179055606088015160038401556080880151600484015560a088015160058401805460c08b01511515600160a01b0260ff60a01b19939097169416939093171693909317905560e08601516006820155610100909501516007909501949094558c835290815282822054601290915291902054141561210657600089815260086020526040902054612106908a90611647565b505050505050505050565b6000828211156121335760405162461bcd60e51b8152600401610594906127a1565b50900390565b6001600160a01b03821661215f5760405162461bcd60e51b8152600401610594906129f2565b61216b6000838361114e565b6002546121789082611622565b6002556001600160a01b03821660009081526020819052604090205461219e9082611622565b6001600160a01b0383166000818152602081905260408082209390935591519091907fddf252ad1be2c89b69c2b068fc378daa952ba7f163c4a11628f55a4df523b3ef906121ed9085906124c8565b60405180910390a35050565b6040805161012081018252600080825260208201819052918101829052606081018290526080810182905260a0810182905260c0810182905260e0810182905261010081019190915290565b80356001600160a01b0381168114610bb757600080fd5b60008083601f84011261226d578182fd5b50813567ffffffffffffffff811115612284578182fd5b60208301915083602082850101111561229c57600080fd5b9250929050565b6000602082840312156122b4578081fd5b61161b82612245565b600080604083850312156122cf578081fd5b6122d883612245565b91506122e660208401612245565b90509250929050565b600080600060608486031215612303578081fd5b61230c84612245565b925061231a60208501612245565b9150604084013590509250925092565b6000806040838503121561233c578182fd5b61234583612245565b946020939093013593505050565b600060208284031215612364578081fd5b5035919050565b60008060006040848603121561237f578283fd5b833567ffffffffffffffff811115612395578384fd5b6123a18682870161225c565b90945092506123b4905060208501612245565b90509250925092565b6000806000604084860312156123d1578283fd5b833567ffffffffffffffff8111156123e7578384fd5b6123f38682870161225c565b909790965060209590950135949350505050565b600060208284031215612418578081fd5b5051919050565b6001600160a01b03169052565b15159052565b60018060a01b03815116825260208101516020830152604081015115156040830152606081015160608301526080810151608083015260a081015161247a60a084018261241f565b5060c081015161248d60c084018261242c565b5060e0818101519083015261010090810151910152565b6000838583375060609190911b6001600160601b0319169101908152601401919050565b90815260200190565b91825260601b6001600160601b031916602082015260340190565b918252602082015260400190565b928352602083019190915260601b6001600160601b031916604082015260540190565b6001600160a01b0391909116815260200190565b6020808252825182820181905260009190848201906040850190845b818110156125725783516001600160a01b03168352928401929184019160010161254d565b50909695505050505050565b6020808252825182820181905260009190848201906040850190845b818110156125725783518352928401929184019160010161259a565b6020808252825182820181905260009190848201906040850190845b81811015612572576125e5838551612432565b9284019261012092909201916001016125d2565b901515815260200190565b6000602080835283518082850152825b8181101561263057858101830151858201604001528201612614565b818111156126415783604083870101525b50601f01601f1916929092016040019392505050565b60208082526023908201527f45524332303a207472616e7366657220746f20746865207a65726f206164647260408201526265737360e81b606082015260800190565b60208082526018908201527f506f6f6c206e616d6520616c7265616479206578697374730000000000000000604082015260600190565b6020808252601290820152710a0deded840e6d2f4ca40e8dede40d0d2ced60731b604082015260600190565b60208082526022908201527f45524332303a20617070726f766520746f20746865207a65726f206164647265604082015261737360f01b606082015260800190565b6020808252601b908201527f536166654d6174683a206164646974696f6e206f766572666c6f770000000000604082015260600190565b602080825260119082015270506f6f6c2073697a6520746f6f206c6f7760781b604082015260600190565b6020808252601e908201527f536166654d6174683a207375627472616374696f6e206f766572666c6f770000604082015260600190565b6020808252601a908201527f536166654d6174683a206469766973696f6e206279207a65726f000000000000604082015260600190565b602080825260119082015270151a1a5cc8141bdbdb081a5cc8199d5b1b607a1b604082015260600190565b60208082526021908201527f536166654d6174683a206d756c7469706c69636174696f6e206f766572666c6f6040820152607760f81b606082015260800190565b60208082526018908201527f4f6e6c79206120686f7573652063616e20646f20746861740000000000000000604082015260600190565b60208082526028908201527f506f6f6c2043726561746f722063616e206e6f74207061727469636970617465604082015267081a5b881c1bdbdb60c21b606082015260800190565b60208082526023908201527f56616c75652053656e74206973206c657373207468616e20706f6f6c2070726960408201526231b29760e91b606082015260800190565b60208082526025908201527f45524332303a207472616e736665722066726f6d20746865207a65726f206164604082015264647265737360d81b606082015260800190565b60208082526024908201527f45524332303a20617070726f76652066726f6d20746865207a65726f206164646040820152637265737360e01b606082015260800190565b602080825260129082015271506f6f6c20707269636520746f6f206c6f7760701b604082015260600190565b6020808252601f908201527f45524332303a206d696e7420746f20746865207a65726f206164647265737300604082015260600190565b61012081016105248284612432565b60ff9190911681526020019056fe45524332303a207472616e7366657220616d6f756e7420657863656564732062616c616e636545524332303a207472616e7366657220616d6f756e74206578636565647320616c6c6f77616e636545524332303a2064656372656173656420616c6c6f77616e63652062656c6f77207a65726fa26469706673582212205aa86f7f6243eb09b9409c2033d86e8e25d72941e7d7ba07c63ec01b43a50da464736f6c6343000703003360806040526108fc600755670de0b6b3a764000060088190556005600955600a808055600b55600c556003600d556064600e5534801561003e57600080fd5b50604080518082018252601381527f476f7665726e616e636520436f6e7472616374000000000000000000000000006020808301918252835180850190945260068452652227aa23a7ab60d11b9084015281519192916100a0916003916101b9565b5080516100b49060049060208401906101b9565b50506005805460ff1916601217905550600680546001818101835560008390527ff652222313e28459528d920b65115c16c04f3efc82aaedc97be59f3f377c0d3f91820180546001600160a01b031990811673c04915f6b3ff85b50a863eb1fcbf368171539413179091558354808301855583018054821673b58c226a300ff6dc1ef762d62c536c7aed5cea741790558354808301855583018054821673b6d80f6d661927afef42f39e52d630e250696bc417905583548083018555830180548216736b33d96c8353d03433034171433b0bd9bdafac8b1790558354918201909355018054909116730a0c8e469fef425ef7c6e9754dc563f9bba588f017905561024c565b828054600181600116156101000203166002900490600052602060002090601f016020900481019282601f106101fa57805160ff1916838001178555610227565b82800160010185558215610227579182015b8281111561022757825182559160200191906001019061020c565b50610233929150610237565b5090565b5b808211156102335760008155600101610238565b610ada8061025b6000396000f3fe608060405234801561001057600080fd5b50600436106101215760003560e01c806370a08231116100ad578063d869239511610071578063d869239514610323578063dd62ed3e1461032b578063e0a11c2014610359578063f417bd9c14610361578063fd7f82531461036957610121565b806370a082311461029557806381014bbe146102bb57806395d89b41146102c3578063a457c2d7146102cb578063a9059cbb146102f757610121565b806318160ddd116100f457806318160ddd1461020557806323b872dd1461020d5780632c0797ef14610243578063313ce5671461024b578063395093511461026957610121565b806305868b261461012657806306fdde0314610140578063095ea7b3146101bd5780630e7e8ba2146101fd575b600080fd5b61012e610371565b60408051918252519081900360200190f35b610148610377565b6040805160208082528351818301528351919283929083019185019080838360005b8381101561018257818101518382015260200161016a565b50505050905090810190601f1680156101af5780820380516001836020036101000a031916815260200191505b509250505060405180910390f35b6101e9600480360360408110156101d357600080fd5b506001600160a01b03813516906020013561040d565b604080519115158252519081900360200190f35b61012e61042a565b61012e610430565b6101e96004803603606081101561022357600080fd5b506001600160a01b03813581169160208101359091169060400135610436565b61012e6104bd565b6102536104c3565b6040805160ff9092168252519081900360200190f35b6101e96004803603604081101561027f57600080fd5b506001600160a01b0381351690602001356104cc565b61012e600480360360208110156102ab57600080fd5b50356001600160a01b031661051a565b61012e610535565b61014861053b565b6101e9600480360360408110156102e157600080fd5b506001600160a01b03813516906020013561059c565b6101e96004803603604081101561030d57600080fd5b506001600160a01b038135169060200135610604565b61012e610618565b61012e6004803603604081101561034157600080fd5b506001600160a01b038135811691602001351661061e565b61012e610649565b61012e61064f565b61012e610655565b60095490565b60038054604080516020601f60026000196101006001881615020190951694909404938401819004810282018101909252828152606093909290918301828280156104035780601f106103d857610100808354040283529160200191610403565b820191906000526020600020905b8154815290600101906020018083116103e657829003601f168201915b5050505050905090565b600061042161041a61065b565b848461065f565b50600192915050565b60075490565b60025490565b600061044384848461074b565b6104b38461044f61065b565b6104ae85604051806060016040528060288152602001610a0f602891396001600160a01b038a1660009081526001602052604081209061048d61065b565b6001600160a01b0316815260208101919091526040016000205491906108a6565b61065f565b5060019392505050565b600d5490565b60055460ff1690565b60006104216104d961065b565b846104ae85600160006104ea61065b565b6001600160a01b03908116825260208083019390935260409182016000908120918c16815292529020549061093d565b6001600160a01b031660009081526020819052604090205490565b600a5490565b60048054604080516020601f60026000196101006001881615020190951694909404938401819004810282018101909252828152606093909290918301828280156104035780601f106103d857610100808354040283529160200191610403565b60006104216105a961065b565b846104ae85604051806060016040528060258152602001610a8060259139600160006105d361065b565b6001600160a01b03908116825260208083019390935260409182016000908120918d168152925290205491906108a6565b600061042161061161065b565b848461074b565b600e5490565b6001600160a01b03918216600090815260016020908152604080832093909416825291909152205490565b60085490565b600c5490565b600b5490565b3390565b6001600160a01b0383166106a45760405162461bcd60e51b8152600401808060200182810382526024815260200180610a5c6024913960400191505060405180910390fd5b6001600160a01b0382166106e95760405162461bcd60e51b81526004018080602001828103825260228152602001806109c76022913960400191505060405180910390fd5b6001600160a01b03808416600081815260016020908152604080832094871680845294825291829020859055815185815291517f8c5be1e5ebec7d5bd14f71427d1e84f3dd0314c0f7b2291e5b200ac8c7c3b9259281900390910190a3505050565b6001600160a01b0383166107905760405162461bcd60e51b8152600401808060200182810382526025815260200180610a376025913960400191505060405180910390fd5b6001600160a01b0382166107d55760405162461bcd60e51b81526004018080602001828103825260238152602001806109a46023913960400191505060405180910390fd5b6107e083838361099e565b61081d816040518060600160405280602681526020016109e9602691396001600160a01b03861660009081526020819052604090205491906108a6565b6001600160a01b03808516600090815260208190526040808220939093559084168152205461084c908261093d565b6001600160a01b038084166000818152602081815260409182902094909455805185815290519193928716927fddf252ad1be2c89b69c2b068fc378daa952ba7f163c4a11628f55a4df523b3ef92918290030190a3505050565b600081848411156109355760405162461bcd60e51b81526004018080602001828103825283818151815260200191508051906020019080838360005b838110156108fa5781810151838201526020016108e2565b50505050905090810190601f1680156109275780820380516001836020036101000a031916815260200191505b509250505060405180910390fd5b505050900390565b600082820183811015610997576040805162461bcd60e51b815260206004820152601b60248201527f536166654d6174683a206164646974696f6e206f766572666c6f770000000000604482015290519081900360640190fd5b9392505050565b50505056fe45524332303a207472616e7366657220746f20746865207a65726f206164647265737345524332303a20617070726f766520746f20746865207a65726f206164647265737345524332303a207472616e7366657220616d6f756e7420657863656564732062616c616e636545524332303a207472616e7366657220616d6f756e74206578636565647320616c6c6f77616e636545524332303a207472616e736665722066726f6d20746865207a65726f206164647265737345524332303a20617070726f76652066726f6d20746865207a65726f206164647265737345524332303a2064656372656173656420616c6c6f77616e63652062656c6f77207a65726fa264697066735822122037e42c42c06abe17a4350967f374b4467441db592deff11df9d8d7515e61b64e64736f6c63430007030033",
  "linkReferences": {},
  "deployedLinkReferences": {}
}