{
  "_format": "hh-sol-artifact-1",
  "contractName": "Grotto",
  "sourceName": "contracts/Grotto.sol",
  "abi": [
    {
      "inputs": [],
      "stateMutability": "nonpayable",
      "type": "constructor"
    },
    {
      "anonymous": false,
      "inputs": [
        {
          "indexed": true,
          "internalType": "address",
          "name": "owner",
          "type": "address"
        },
        {
          "indexed": true,
          "internalType": "address",
          "name": "spender",
          "type": "address"
        },
        {
          "indexed": false,
          "internalType": "uint256",
          "name": "value",
          "type": "uint256"
        }
      ],
      "name": "Approval",
      "type": "event"
    },
    {
      "anonymous": false,
      "inputs": [
        {
          "indexed": false,
          "internalType": "bytes32",
          "name": "",
          "type": "bytes32"
        },
        {
          "indexed": false,
          "internalType": "address",
          "name": "",
          "type": "address"
        }
      ],
      "name": "POOL_CREATED",
      "type": "event"
    },
    {
      "anonymous": false,
      "inputs": [
        {
          "indexed": false,
          "internalType": "bytes32",
          "name": "",
          "type": "bytes32"
        },
        {
          "indexed": false,
          "internalType": "address",
          "name": "",
          "type": "address"
        }
      ],
      "name": "POOL_JOINED",
      "type": "event"
    },
    {
      "anonymous": false,
      "inputs": [
        {
          "indexed": true,
          "internalType": "address",
          "name": "from",
          "type": "address"
        },
        {
          "indexed": true,
          "internalType": "address",
          "name": "to",
          "type": "address"
        },
        {
          "indexed": false,
          "internalType": "uint256",
          "name": "value",
          "type": "uint256"
        }
      ],
      "name": "Transfer",
      "type": "event"
    },
    {
      "anonymous": false,
      "inputs": [
        {
          "indexed": false,
          "internalType": "bytes32",
          "name": "",
          "type": "bytes32"
        },
        {
          "indexed": false,
          "internalType": "address",
          "name": "",
          "type": "address"
        }
      ],
      "name": "WINNER_FOUND",
      "type": "event"
    },
    {
      "inputs": [],
      "name": "BSC_ETH_USD_PF",
      "outputs": [
        {
          "internalType": "address",
          "name": "",
          "type": "address"
        }
      ],
      "stateMutability": "view",
      "type": "function"
    },
    {
      "inputs": [],
      "name": "KOVAN_ETH_USD_PF",
      "outputs": [
        {
          "internalType": "address",
          "name": "",
          "type": "address"
        }
      ],
      "stateMutability": "view",
      "type": "function"
    },
    {
      "inputs": [],
      "name": "MAINNET_ETH_USD_PF",
      "outputs": [
        {
          "internalType": "address",
          "name": "",
          "type": "address"
        }
      ],
      "stateMutability": "view",
      "type": "function"
    },
    {
      "inputs": [
        {
          "internalType": "address",
          "name": "owner",
          "type": "address"
        },
        {
          "internalType": "address",
          "name": "spender",
          "type": "address"
        }
      ],
      "name": "allowance",
      "outputs": [
        {
          "internalType": "uint256",
          "name": "",
          "type": "uint256"
        }
      ],
      "stateMutability": "view",
      "type": "function"
    },
    {
      "inputs": [
        {
          "internalType": "address",
          "name": "spender",
          "type": "address"
        },
        {
          "internalType": "uint256",
          "name": "amount",
          "type": "uint256"
        }
      ],
      "name": "approve",
      "outputs": [
        {
          "internalType": "bool",
          "name": "",
          "type": "bool"
        }
      ],
      "stateMutability": "nonpayable",
      "type": "function"
    },
    {
      "inputs": [
        {
          "internalType": "address",
          "name": "account",
          "type": "address"
        }
      ],
      "name": "balanceOf",
      "outputs": [
        {
          "internalType": "uint256",
          "name": "",
          "type": "uint256"
        }
      ],
      "stateMutability": "view",
      "type": "function"
    },
    {
      "inputs": [],
      "name": "decimals",
      "outputs": [
        {
          "internalType": "uint8",
          "name": "",
          "type": "uint8"
        }
      ],
      "stateMutability": "view",
      "type": "function"
    },
    {
      "inputs": [
        {
          "internalType": "address",
          "name": "spender",
          "type": "address"
        },
        {
          "internalType": "uint256",
          "name": "subtractedValue",
          "type": "uint256"
        }
      ],
      "name": "decreaseAllowance",
      "outputs": [
        {
          "internalType": "bool",
          "name": "",
          "type": "bool"
        }
      ],
      "stateMutability": "nonpayable",
      "type": "function"
    },
    {
      "inputs": [
        {
          "internalType": "bytes32",
          "name": "poolId",
          "type": "bytes32"
        }
      ],
      "name": "enterPool",
      "outputs": [],
      "stateMutability": "payable",
      "type": "function"
    },
    {
      "inputs": [],
      "name": "getAllPools",
      "outputs": [
        {
          "components": [
            {
              "internalType": "address",
              "name": "winner",
              "type": "address"
            },
            {
              "internalType": "uint256",
              "name": "currentPoolSize",
              "type": "uint256"
            },
            {
              "internalType": "bool",
              "name": "isInMainPool",
              "type": "bool"
            },
            {
              "internalType": "uint256",
              "name": "poolSize",
              "type": "uint256"
            },
            {
              "internalType": "uint256",
              "name": "poolPrice",
              "type": "uint256"
            },
            {
              "internalType": "address",
              "name": "poolCreator",
              "type": "address"
            },
            {
              "internalType": "bool",
              "name": "isPoolConcluded",
              "type": "bool"
            },
            {
              "internalType": "uint256",
              "name": "poolPriceInEther",
              "type": "uint256"
            },
            {
              "internalType": "bytes32",
              "name": "poolId",
              "type": "bytes32"
            },
            {
              "internalType": "uint256",
              "name": "totalStaked",
              "type": "uint256"
            }
          ],
          "internalType": "struct Data.Pool[]",
          "name": "",
          "type": "tuple[]"
        }
      ],
      "stateMutability": "view",
      "type": "function"
    },
    {
      "inputs": [],
      "name": "getLatestPrice",
      "outputs": [
        {
          "internalType": "uint256",
          "name": "",
          "type": "uint256"
        }
      ],
      "stateMutability": "pure",
      "type": "function"
    },
    {
      "inputs": [
        {
          "internalType": "address",
          "name": "spender",
          "type": "address"
        },
        {
          "internalType": "uint256",
          "name": "addedValue",
          "type": "uint256"
        }
      ],
      "name": "increaseAllowance",
      "outputs": [
        {
          "internalType": "bool",
          "name": "",
          "type": "bool"
        }
      ],
      "stateMutability": "nonpayable",
      "type": "function"
    },
    {
      "inputs": [],
      "name": "name",
      "outputs": [
        {
          "internalType": "string",
          "name": "",
          "type": "string"
        }
      ],
      "stateMutability": "view",
      "type": "function"
    },
    {
      "inputs": [
        {
          "internalType": "uint256",
          "name": "poolSize",
          "type": "uint256"
        },
        {
          "internalType": "bytes32",
          "name": "poolId",
          "type": "bytes32"
        }
      ],
      "name": "startNewPool",
      "outputs": [],
      "stateMutability": "payable",
      "type": "function"
    },
    {
      "inputs": [],
      "name": "symbol",
      "outputs": [
        {
          "internalType": "string",
          "name": "",
          "type": "string"
        }
      ],
      "stateMutability": "view",
      "type": "function"
    },
    {
      "inputs": [],
      "name": "totalSupply",
      "outputs": [
        {
          "internalType": "uint256",
          "name": "",
          "type": "uint256"
        }
      ],
      "stateMutability": "view",
      "type": "function"
    },
    {
      "inputs": [
        {
          "internalType": "address",
          "name": "recipient",
          "type": "address"
        },
        {
          "internalType": "uint256",
          "name": "amount",
          "type": "uint256"
        }
      ],
      "name": "transfer",
      "outputs": [
        {
          "internalType": "bool",
          "name": "",
          "type": "bool"
        }
      ],
      "stateMutability": "nonpayable",
      "type": "function"
    },
    {
      "inputs": [
        {
          "internalType": "address",
          "name": "sender",
          "type": "address"
        },
        {
          "internalType": "address",
          "name": "recipient",
          "type": "address"
        },
        {
          "internalType": "uint256",
          "name": "amount",
          "type": "uint256"
        }
      ],
      "name": "transferFrom",
      "outputs": [
        {
          "internalType": "bool",
          "name": "",
          "type": "bool"
        }
      ],
      "stateMutability": "nonpayable",
      "type": "function"
    },
    {
      "inputs": [
        {
          "internalType": "address payable",
          "name": "newAddress",
          "type": "address"
        }
      ],
      "name": "updateGrotto",
      "outputs": [],
      "stateMutability": "nonpayable",
      "type": "function"
    }
  ],
  "bytecode": "0x6080604052600780546001600160a01b031916736c229b63b4764ef38117f3d26f586d6cc8a3ac751790553480156200003757600080fd5b506040518060400160405280600681526020016547726f74746f60d01b8152506040518060400160405280600681526020016547524f54544f60d01b81525081600390805190602001906200008e9291906200015d565b508051620000a49060049060208401906200015d565b50506005805460ff1916601217905550600754600680546001600160a01b0319166001600160a01b03928316179081905560405162fe551560e71b8152911690637f2a8a8090620000fa903390600401620001f9565b600060405180830381600087803b1580156200011557600080fd5b505af11580156200012a573d6000803e3d6000fd5b505060058054610100600160a81b031916749326bfa02add2366b30bacb125260af64103133100179055506200020d9050565b828054600181600116156101000203166002900490600052602060002090601f016020900481019282601f10620001a057805160ff1916838001178555620001d0565b82800160010185558215620001d0579182015b82811115620001d0578251825591602001919060010190620001b3565b50620001de929150620001e2565b5090565b5b80821115620001de5760008155600101620001e3565b6001600160a01b0391909116815260200190565b612a76806200021d6000396000f3fe6080604052600436106101145760003560e01c806370a08231116100a0578063aef3bc9211610064578063aef3bc92146102d6578063afa08c39146102eb578063b3e0f3d314610300578063d88ff1f414610313578063dd62ed3e1461033557610114565b806370a082311461024c5780638e15f4731461026c57806395d89b4114610281578063a457c2d714610296578063a9059cbb146102b657610114565b8063313ce567116100e7578063313ce567146101b35780633760c101146101d557806339509351146101f75780634ccfc5d2146102175780635923dfc71461023957610114565b806306fdde0314610119578063095ea7b31461014457806318160ddd1461017157806323b872dd14610193575b600080fd5b34801561012557600080fd5b5061012e610355565b60405161013b9190612599565b60405180910390f35b34801561015057600080fd5b5061016461015f366004612245565b6103eb565b60405161013b919061255e565b34801561017d57600080fd5b50610186610409565b60405161013b9190612569565b34801561019f57600080fd5b506101646101ae366004612205565b61040f565b3480156101bf57600080fd5b506101c8610496565b60405161013b9190612965565b3480156101e157600080fd5b506101ea61049f565b60405161013b91906124fb565b34801561020357600080fd5b50610164610212366004612245565b6104b7565b34801561022357600080fd5b50610237610232366004612195565b610505565b005b6102376102473660046123ad565b610663565b34801561025857600080fd5b50610186610267366004612195565b610d88565b34801561027857600080fd5b50610186610da7565b34801561028d57600080fd5b5061012e610dad565b3480156102a257600080fd5b506101646102b1366004612245565b610e0e565b3480156102c257600080fd5b506101646102d1366004612245565b610e76565b3480156102e257600080fd5b506101ea610e8a565b3480156102f757600080fd5b506101ea610ea2565b61023761030e3660046123f9565b610eba565b34801561031f57600080fd5b50610328611397565b60405161013b919061250f565b34801561034157600080fd5b506101866103503660046121cd565b61141d565b60038054604080516020601f60026000196101006001881615020190951694909404938401819004810282018101909252828152606093909290918301828280156103e15780601f106103b6576101008083540402835291602001916103e1565b820191906000526020600020905b8154815290600101906020018083116103c457829003601f168201915b5050505050905090565b60006103ff6103f8611448565b848461144c565b5060015b92915050565b60025490565b600061041c848484611500565b61048c84610428611448565b610487856040518060600160405280602881526020016129f4602891396001600160a01b038a16600090815260016020526040812090610466611448565b6001600160a01b031681526020810191909152604001600020549190611615565b61144c565b5060019392505050565b60055460ff1690565b735f4ec3df9cbd43714fe2740f5e3616155c5b841981565b60006103ff6104c4611448565b8461048785600160006104d5611448565b6001600160a01b03908116825260208083019390935260409182016000908120918c168152925290205490611641565b600660009054906101000a90046001600160a01b03166001600160a01b03166304e2064f6040518163ffffffff1660e01b815260040160206040518083038186803b15801561055357600080fd5b505afa158015610567573d6000803e3d6000fd5b505050506040513d601f19601f8201168201806040525081019061058b91906121b1565b6001600160a01b0316336001600160a01b0316146105c45760405162461bcd60e51b81526004016105bb9061281c565b60405180910390fd5b600654604051631637a58360e01b81526001600160a01b0390911690631637a583906105f49084906004016124fb565b600060405180830381600087803b15801561060e57600080fd5b505af1158015610622573d6000803e3d6000fd5b50506040514792506001600160a01b038416915082156108fc029083906000818181858888f1935050505015801561065e573d6000803e3d6000fd5b505050565b343361066d612083565b60065460405163f6c0092760e01b81526001600160a01b039091169063f6c009279061069d908790600401612569565b6101406040518083038186803b1580156106b657600080fd5b505afa1580156106ca573d6000803e3d6000fd5b505050506040513d601f19601f820116820180604052508101906106ee91906123c5565b606081015160065460405163b91a440d60e01b815292935090916001600160a01b039091169063b91a440d90610728908890600401612569565b60006040518083038186803b15801561074057600080fd5b505afa158015610754573d6000803e3d6000fd5b505050506040513d6000823e601f3d908101601f1916820160405261077c9190810190612270565b511061079a5760405162461bcd60e51b81526004016105bb906127b0565b6020810151156107da578060a001516001600160a01b0316826001600160a01b031614156107da5760405162461bcd60e51b81526004016105bb9061276d565b60006107e4610da7565b905060006107f2828661166d565b905082608001518110156108185760405162461bcd60e51b81526004016105bb90612853565b6006546040516330115af360e11b81526000916001600160a01b031690636022b5e690610849908a90600401612569565b60206040518083038186803b15801561086157600080fd5b505afa158015610875573d6000803e3d6000fd5b505050506040513d601f19601f8201168201806040525081019061089991906123e1565b6006549091506001600160a01b03166387bb9588886108b8848a611641565b6040518363ffffffff1660e01b81526004016108d59291906124ed565b600060405180830381600087803b1580156108ef57600080fd5b505af1158015610903573d6000803e3d6000fd5b5050600654604051627a72b360e31b81526001600160a01b0390911692506303d395989150610938908a908990600401612572565b600060405180830381600087803b15801561095257600080fd5b505af1158015610966573d6000803e3d6000fd5b505060065460405163b91a440d60e01b8152606093506001600160a01b03909116915063b91a440d9061099d908b90600401612569565b60006040518083038186803b1580156109b557600080fd5b505afa1580156109c9573d6000803e3d6000fd5b505050506040513d6000823e601f3d908101601f191682016040526109f19190810190612270565b6006548151604051634c8aeb4360e11b81529293506001600160a01b0390911691639915d68691610a27918c91906004016124ed565b600060405180830381600087803b158015610a4157600080fd5b505af1158015610a55573d6000803e3d6000fd5b505050506000600660009054906101000a90046001600160a01b03166001600160a01b031663d37c0d946040518163ffffffff1660e01b815260040160206040518083038186803b158015610aa957600080fd5b505afa158015610abd573d6000803e3d6000fd5b505050506040513d601f19601f82011682018060405250810190610ae191906123e1565b1115610cac57600654604080516334df036560e21b815290516000926001600160a01b03169163d37c0d94916004808301926020929190829003018186803b158015610b2c57600080fd5b505afa158015610b40573d6000803e3d6000fd5b505050506040513d601f19601f82011682018060405250810190610b6491906123e1565b9050670de0b6b3a7640000811115610caa57600660009054906101000a90046001600160a01b03166001600160a01b03166304e2064f6040518163ffffffff1660e01b815260040160206040518083038186803b158015610bc457600080fd5b505afa158015610bd8573d6000803e3d6000fd5b505050506040513d601f19601f82011682018060405250810190610bfc91906121b1565b6040516001600160a01b039190911690600090670de0b6b3a76400009082818181858883f19350505050158015610c37573d6000803e3d6000fd5b506006546001600160a01b0316631c690864610c5b83670de0b6b3a76400006116a7565b6040518263ffffffff1660e01b8152600401610c779190612569565b600060405180830381600087803b158015610c9157600080fd5b505af1158015610ca5573d6000803e3d6000fd5b505050505b505b60065460405163f6c0092760e01b81526001600160a01b039091169063f6c0092790610cdc908b90600401612569565b6101406040518083038186803b158015610cf557600080fd5b505afa158015610d09573d6000803e3d6000fd5b505050506040513d601f19601f82011682018060405250810190610d2d91906123c5565b9450846060015181511415610d4557610d45886116cf565b7f08de3d5214e026e4f3a80f833a13b149bbb5dd61a5d83f4650c4a5ba00d9475e8887604051610d76929190612572565b60405180910390a15050505050505050565b6001600160a01b0381166000908152602081905260409020545b919050565b6101f490565b60048054604080516020601f60026000196101006001881615020190951694909404938401819004810282018101909252828152606093909290918301828280156103e15780601f106103b6576101008083540402835291602001916103e1565b60006103ff610e1b611448565b8461048785604051806060016040528060258152602001612a1c6025913960016000610e45611448565b6001600160a01b03908116825260208083019390935260409182016000908120918d16815292529020549190611615565b60006103ff610e83611448565b8484611500565b739326bfa02add2366b30bacb125260af64103133181565b739ef1b8c0e4f7dc8bf5719ea496883dc6401d5b2e81565b346000610ecf82610ec9610da7565b9061166d565b9050600080600660009054906101000a90046001600160a01b03166001600160a01b031663f417bd9c6040518163ffffffff1660e01b815260040160206040518083038186803b158015610f2257600080fd5b505afa158015610f36573d6000803e3d6000fd5b505050506040513d601f19601f82011682018060405250810190610f5a91906123e1565b600654604080516304e2064f60e01b8152905192935033926001600160a01b03909216916304e2064f91600480820192602092909190829003018186803b158015610fa457600080fd5b505afa158015610fb8573d6000803e3d6000fd5b505050506040513d601f19601f82011682018060405250810190610fdc91906121b1565b6001600160a01b0316816001600160a01b0316141561110e57600660009054906101000a90046001600160a01b03166001600160a01b031663e0a11c206040518163ffffffff1660e01b815260040160206040518083038186803b15801561104357600080fd5b505afa158015611057573d6000803e3d6000fd5b505050506040513d601f19601f8201168201806040525081019061107b91906123e1565b9350600660009054906101000a90046001600160a01b03166001600160a01b03166305868b266040518163ffffffff1660e01b815260040160206040518083038186803b1580156110cb57600080fd5b505afa1580156110df573d6000803e3d6000fd5b505050506040513d601f19601f8201168201806040525081019061110391906123e1565b965060019250611258565b600660009054906101000a90046001600160a01b03166001600160a01b0316632c0797ef6040518163ffffffff1660e01b815260040160206040518083038186803b15801561115c57600080fd5b505afa158015611170573d6000803e3d6000fd5b505050506040513d601f19601f8201168201806040525081019061119491906123e1565b8710156111b35760405162461bcd60e51b81526004016105bb906126d4565b600660009054906101000a90046001600160a01b03166001600160a01b031663d86923956040518163ffffffff1660e01b815260040160206040518083038186803b15801561120157600080fd5b505afa158015611215573d6000803e3d6000fd5b505050506040513d601f19601f8201168201806040525081019061123991906123e1565b8711156112585760405162461bcd60e51b81526004016105bb9061262f565b818410156112785760405162461bcd60e51b81526004016105bb90612853565b600080848180611290611289610da7565b8890611f91565b905061129a612083565b5060408051610140810182526001600160a01b0380881682526020820187905285151582840152606082018f9052608082018a905288811660a083015284151560c083015260e0820184905261010082018e90526000610120830152600654925163edf3c35760e01b81529192169063edf3c3579061131d908490600401612956565b600060405180830381600087803b15801561133757600080fd5b505af115801561134b573d6000803e3d6000fd5b505050507f081567f6f781ee2fc9b4c57b8f27190ffbf89fc9f3ae11d27893cc6481d6f9818c88604051611380929190612572565b60405180910390a150505050505050505050505050565b60065460408051633623fc7d60e21b815290516060926001600160a01b03169163d88ff1f4916004808301926000929190829003018186803b1580156113dc57600080fd5b505afa1580156113f0573d6000803e3d6000fd5b505050506040513d6000823e601f3d908101601f19168201604052611418919081019061230e565b905090565b6001600160a01b03918216600090815260016020908152604080832093909416825291909152205490565b3390565b6001600160a01b0383166114725760405162461bcd60e51b81526004016105bb906128db565b6001600160a01b0382166114985760405162461bcd60e51b81526004016105bb9061265b565b6001600160a01b0380841660008181526001602090815260408083209487168084529490915290819020849055517f8c5be1e5ebec7d5bd14f71427d1e84f3dd0314c0f7b2291e5b200ac8c7c3b925906114f3908590612569565b60405180910390a3505050565b6001600160a01b0383166115265760405162461bcd60e51b81526004016105bb90612896565b6001600160a01b03821661154c5760405162461bcd60e51b81526004016105bb906125ec565b61155783838361065e565b611594816040518060600160405280602681526020016129ce602691396001600160a01b0386166000908152602081905260409020549190611615565b6001600160a01b0380851660009081526020819052604080822093909355908416815220546115c39082611641565b6001600160a01b0380841660008181526020819052604090819020939093559151908516907fddf252ad1be2c89b69c2b068fc378daa952ba7f163c4a11628f55a4df523b3ef906114f3908590612569565b600081848411156116395760405162461bcd60e51b81526004016105bb9190612599565b505050900390565b6000828201838110156116665760405162461bcd60e51b81526004016105bb9061269d565b9392505050565b60008261167c57506000610403565b8282028284828161168957fe5b04146116665760405162461bcd60e51b81526004016105bb906127db565b6000828211156116c95760405162461bcd60e51b81526004016105bb906126ff565b50900390565b6116d7612083565b60065460405163f6c0092760e01b81526001600160a01b039091169063f6c0092790611707908590600401612569565b6101406040518083038186803b15801561172057600080fd5b505afa158015611734573d6000803e3d6000fd5b505050506040513d601f19601f8201168201806040525081019061175891906123c5565b60065460405163b91a440d60e01b81529192506060916001600160a01b039091169063b91a440d9061178e908690600401612569565b60006040518083038186803b1580156117a657600080fd5b505afa1580156117ba573d6000803e3d6000fd5b505050506040513d6000823e601f3d908101601f191682016040526117e29190810190612270565b6006546040516330115af360e11b81529192506000916001600160a01b0390911690636022b5e690611818908790600401612569565b60206040518083038186803b15801561183057600080fd5b505afa158015611844573d6000803e3d6000fd5b505050506040513d601f19601f8201168201806040525081019061186891906123e1565b905060008260008151811061187957fe5b602002602001015160405160200161189191906124b0565b60408051601f198184030181529190528051602090910120905060015b84606001518160ff1610156119085781848260ff16815181106118cd57fe5b60200260200101516040516020016118e69291906124cd565b60408051601f19818403018152919052805160209091012091506001016118ae565b5060006119a660646119a0600660009054906101000a90046001600160a01b03166001600160a01b03166381014bbe6040518163ffffffff1660e01b815260040160206040518083038186803b15801561196157600080fd5b505afa158015611975573d6000803e3d6000fd5b505050506040513d601f19601f8201168201806040525081019061199991906123e1565b869061166d565b90611f91565b9050600084866060015185856040516020016119c39291906124ed565b6040516020818303038152906040528051906020012060001c816119e357fe5b06815181106119ee57fe5b60200260200101519050806001600160a01b03166108fc611a1884876116a790919063ffffffff16565b6040518115909202916000818181858888f19350505050158015611a40573d6000803e3d6000fd5b50600660009054906101000a90046001600160a01b03166001600160a01b03166304e2064f6040518163ffffffff1660e01b815260040160206040518083038186803b158015611a8f57600080fd5b505afa158015611aa3573d6000803e3d6000fd5b505050506040513d601f19601f82011682018060405250810190611ac791906121b1565b6001600160a01b03166108fc839081150290604051600060405180830381858888f19350505050158015611aff573d6000803e3d6000fd5b50600654604051636894da0b60e01b81526001600160a01b0390911690636894da0b90611b32908a908590600401612572565b600060405180830381600087803b158015611b4c57600080fd5b505af1158015611b60573d6000803e3d6000fd5b50506006546040516344b0ef3b60e01b81526001600160a01b0390911692506344b0ef3b9150611b97908a90600190600401612589565b600060405180830381600087803b158015611bb157600080fd5b505af1158015611bc5573d6000803e3d6000fd5b5050600654604051636894da0b60e01b81526001600160a01b039091169250636894da0b9150611bfb908a908590600401612572565b600060405180830381600087803b158015611c1557600080fd5b505af1158015611c29573d6000803e3d6000fd5b50506006546040516344b0ef3b60e01b81526001600160a01b0390911692506344b0ef3b9150611c60908a90600190600401612589565b600060405180830381600087803b158015611c7a57600080fd5b505af1158015611c8e573d6000803e3d6000fd5b505060065460405163f6c0092760e01b81526001600160a01b03909116925063f6c009279150611cc2908a90600401612569565b6101406040518083038186803b158015611cdb57600080fd5b505afa158015611cef573d6000803e3d6000fd5b505050506040513d601f19601f82011682018060405250810190611d1391906123c5565b95506000611d328760600151886080015161166d90919063ffffffff16565b90506000611dcb60646119a0600660009054906101000a90046001600160a01b03166001600160a01b031663fd7f82536040518163ffffffff1660e01b815260040160206040518083038186803b158015611d8c57600080fd5b505afa158015611da0573d6000803e3d6000fd5b505050506040513d601f19601f82011682018060405250810190611dc491906123e1565b859061166d565b60a0890151909150611de690611de184846116a7565b611fc3565b600654604080516304e2064f60e01b81529051611e6a926001600160a01b0316916304e2064f916004808301926020929190829003018186803b158015611e2c57600080fd5b505afa158015611e40573d6000803e3d6000fd5b505050506040513d601f19601f82011682018060405250810190611e6491906121b1565b82611fc3565b6006546080890151604080516334df036560e21b815290516001600160a01b0390931692631c69086492611eff929091859163d37c0d94916004808301926020929190829003018186803b158015611ec157600080fd5b505afa158015611ed5573d6000803e3d6000fd5b505050506040513d601f19601f82011682018060405250810190611ef991906123e1565b90611641565b6040518263ffffffff1660e01b8152600401611f1b9190612569565b600060405180830381600087803b158015611f3557600080fd5b505af1158015611f49573d6000803e3d6000fd5b505050507f4ce558cfe085137a30c6c4374f76c2233d6a076a07a45f309bd578a1f922166c8984604051611f7e929190612572565b60405180910390a1505050505050505050565b6000808211611fb25760405162461bcd60e51b81526004016105bb90612736565b818381611fbb57fe5b049392505050565b6001600160a01b038216611fe95760405162461bcd60e51b81526004016105bb9061291f565b611ff56000838361065e565b6002546120029082611641565b6002556001600160a01b0382166000908152602081905260409020546120289082611641565b6001600160a01b0383166000818152602081905260408082209390935591519091907fddf252ad1be2c89b69c2b068fc378daa952ba7f163c4a11628f55a4df523b3ef90612077908590612569565b60405180910390a35050565b6040805161014081018252600080825260208201819052918101829052606081018290526080810182905260a0810182905260c0810182905260e08101829052610100810182905261012081019190915290565b8051610da2816129b5565b80518015158114610da257600080fd5b6000610140808385031215612105578182fd5b61210e81612973565b91505061211a826120d7565b815260208201516020820152612132604083016120e2565b6040820152606082015160608201526080820151608082015261215760a083016120d7565b60a082015261216860c083016120e2565b60c082015260e082015160e082015261010080830151818301525061012080830151818301525092915050565b6000602082840312156121a6578081fd5b8135611666816129b5565b6000602082840312156121c2578081fd5b8151611666816129b5565b600080604083850312156121df578081fd5b82356121ea816129b5565b915060208301356121fa816129b5565b809150509250929050565b600080600060608486031215612219578081fd5b8335612224816129b5565b92506020840135612234816129b5565b929592945050506040919091013590565b60008060408385031215612257578182fd5b8235612262816129b5565b946020939093013593505050565b60006020808385031215612282578182fd5b825167ffffffffffffffff811115612298578283fd5b8301601f810185136122a8578283fd5b80516122bb6122b682612997565b612973565b81815283810190838501858402850186018910156122d7578687fd5b8694505b838510156123025780516122ee816129b5565b8352600194909401939185019185016122db565b50979650505050505050565b60006020808385031215612320578182fd5b825167ffffffffffffffff811115612336578283fd5b8301601f81018513612346578283fd5b80516123546122b682612997565b81815283810190838501610140808502860187018a1015612373578788fd5b8795505b8486101561239f576123898a836120f2565b8452600195909501949286019290810190612377565b509098975050505050505050565b6000602082840312156123be578081fd5b5035919050565b600061014082840312156123d7578081fd5b61166683836120f2565b6000602082840312156123f2578081fd5b5051919050565b6000806040838503121561240b578182fd5b50508035926020909101359150565b6001600160a01b03169052565b15159052565b61243882825161241a565b6020810151602083015260408101516124546040840182612427565b50606081015160608301526080810151608083015260a081015161247b60a084018261241a565b5060c081015161248e60c0840182612427565b5060e08181015190830152610100808201519083015261012090810151910152565b60609190911b6bffffffffffffffffffffffff1916815260140190565b91825260601b6bffffffffffffffffffffffff1916602082015260340190565b918252602082015260400190565b6001600160a01b0391909116815260200190565b6020808252825182820181905260009190848201906040850190845b818110156125525761253e83855161242d565b92840192610140929092019160010161252b565b50909695505050505050565b901515815260200190565b90815260200190565b9182526001600160a01b0316602082015260400190565b9182521515602082015260400190565b6000602080835283518082850152825b818110156125c5578581018301518582016040015282016125a9565b818111156125d65783604083870101525b50601f01601f1916929092016040019392505050565b60208082526023908201527f45524332303a207472616e7366657220746f20746865207a65726f206164647260408201526265737360e81b606082015260800190565b6020808252601290820152710a0deded840e6d2f4ca40e8dede40d0d2ced60731b604082015260600190565b60208082526022908201527f45524332303a20617070726f766520746f20746865207a65726f206164647265604082015261737360f01b606082015260800190565b6020808252601b908201527f536166654d6174683a206164646974696f6e206f766572666c6f770000000000604082015260600190565b602080825260119082015270506f6f6c2073697a6520746f6f206c6f7760781b604082015260600190565b6020808252601e908201527f536166654d6174683a207375627472616374696f6e206f766572666c6f770000604082015260600190565b6020808252601a908201527f536166654d6174683a206469766973696f6e206279207a65726f000000000000604082015260600190565b60208082526023908201527f596f752063616e277420706172746963697061746520696e207468697320706f60408201526237b61760e91b606082015260800190565b602080825260119082015270151a1a5cc8141bdbdb081a5cc8199d5b1b607a1b604082015260600190565b60208082526021908201527f536166654d6174683a206d756c7469706c69636174696f6e206f766572666c6f6040820152607760f81b606082015260800190565b60208082526018908201527f4f6e6c79206120686f7573652063616e20646f20746861740000000000000000604082015260600190565b60208082526023908201527f56616c75652053656e74206973206c657373207468616e20706f6f6c2070726960408201526231b29760e91b606082015260800190565b60208082526025908201527f45524332303a207472616e736665722066726f6d20746865207a65726f206164604082015264647265737360d81b606082015260800190565b60208082526024908201527f45524332303a20617070726f76652066726f6d20746865207a65726f206164646040820152637265737360e01b606082015260800190565b6020808252601f908201527f45524332303a206d696e7420746f20746865207a65726f206164647265737300604082015260600190565b6101408101610403828461242d565b60ff91909116815260200190565b60405181810167ffffffffffffffff8111828210171561298f57fe5b604052919050565b600067ffffffffffffffff8211156129ab57fe5b5060209081020190565b6001600160a01b03811681146129ca57600080fd5b5056fe45524332303a207472616e7366657220616d6f756e7420657863656564732062616c616e636545524332303a207472616e7366657220616d6f756e74206578636565647320616c6c6f77616e636545524332303a2064656372656173656420616c6c6f77616e63652062656c6f77207a65726fa264697066735822122094dd9e631fa582b826648f80f4a6bd749bc7884e27f604ac55e96aeb4339890064736f6c63430007030033",
  "linkReferences": {},
  "deployedLinkReferences": {}
}